:020000040800F2
:10000000F0FF0010513007081993060881EA000834
:10001000F1300708F1300708F13007080000000050
:100020000000000000000000000000001D93060812
:10003000219306080000000025930608CDA50008BE
:10004000F1300708F1300708F1300708F1300708F0
:10005000F1300708F13007081DBE000841BE000856
:1000600065BE000889BE0008ADBE000815BB0008CB
:1000700029BB00083DBB000851BB000865BB000858
:1000800079BB00088DBB0008F1300708F130070884
:10009000F1300708F1300708F1300708D1BE000839
:1000A00059D20008B9D1000869D20008A9D10008C6
:1000B000E1D10008F1D1000801D2000885B40008A0
:1000C00061C800088DB4000865C80008F130070851
:1000D000F1300708F9520608F953060821550608B9
:1000E0000DBF0008F1300708D9C4060879D200080E
:1000F00031D2000889D2000821D20008A1BB000833
:10010000F1300708F130070811D20008F130070874
:100110004956060871570608F1300708F1300708FC
:10012000B5BB0008C9BB0008DDBB0008F1BB000877
:1001300005BC0008F1300708F1300708F130070866
:10014000F1300708F1300708F13007082993060855
:1001500019BC00082DBC000841BC000899580608CD
:1001600095B4000869C80008F1300708F1300708A5
:10017000F1300708F1300708F1300708F1300708BF
:08018000F1300708F130070817
:10800000074BD0F8EC105B68D0F8F8205B1A9A4266
:10801000B8BFC0F8F830012380F824310020704741
:10802000001000E02C22C24B00FB02F22DE9F041CF
:1080300003EB020E9A585268918ACD0700F18780AF
:108040005FFA81FC1CF0020F4ED0BFF35F8F9EF8E9
:108050001C100129CCB200F0F3804100148BBFF357
:108060005F8F4FF02C0C0CFB003C9CF81C40022C4A
:1080700000F013814FF02C0C0CFB003C9CF81C40D2
:10808000032C09D19CF81E4034B10C181C4494F800
:108090008450002D40F06981B2F804C01FFA8CFCB6
:1080A0004CF4806CA2F804C001EB000C9C449CF9D9
:1080B00086E04FF02C0C0CFB003C9CF81CC00CF133
:1080C000010CF4450ED101441944002481F8844088
:1080D00091F88510002940F0D9802C2202FB003352
:1080E00000225A76BDE8F0811CF0040F66D18CB2F4
:1080F00000EB40015E181CF0400C96F986804FEAB8
:10810000400100F0DF80158ADEF82470EDB207F838
:1081100008505FFA88FC0CF1010464B29EF81C70F0
:1081200086F88640E51CAF42A64600F049812C2522
:1081300005FB00352D7FAC42BBD10C180CF1020CB5
:108140001C444FFA8CFC84F886C0E646B1E71188DF
:1081500021F400610904090C1180118889B241F4ED
:108160008061118000EB400C9C449EF81E4000256D
:1081700041008CF88650002C50D09CF88440002C94
:1081800048D001441944012481F884402C2101FB8A
:108190000031097F022904D1118889B241F40061BC
:1081A00011802C2101FB0031897E41F001011182F7
:1081B0002C2202FB00331B7FBDE8F08100EB400462
:1081C0001C449EF81E504FF0010C410084F885C0FD
:1081D000002D7BD094F88450002D7CD12C2404FBFE
:1081E0000034647F002C00F0C3801488A4B244F4EF
:1081F000007414800C181C4494F886E00EF1010EF3
:108200004FFA8EFE84F886E0B2F800C01CF4807F3E
:10821000FAD14EE79EF81B40FF2CB2D02C2404FB71
:10822000003494F81AC00CF0FE0CA2F810C0E27EE4
:10823000FF2ABDD001441944FF2281F88620B7E708
:108240009EF81E1000293FF408AF00EB40051D44C6
:10825000410095F88460002E3FF400AF168826F4A4
:1082600080663604360C1680BFF35F8F85F8854034
:10827000148B148895F986E0A4B244F40074148039
:108280009488A4B244F48064948012E7918821F425
:1082900040710904090C91801FE79CF81E40002CD6
:1082A0003FF4E8AE0C181C4494F88450002D3FF4C1
:1082B000E1AE94F986E0148824F480642404240C4C
:1082C00014804BE0240635D4C646F2E694F8844088
:1082D000002C83D089E79EF81C50DEF82460022D24
:1082E000158852D925F480652D042D0C1580158A2A
:1082F00094F986C0EDB206F80C501588DEF82470AB
:10830000ADB245F4007515805FFA8CFC168A0CF14D
:1083100001056DB2F6B27E550CF1020E4FFA8EFEDB
:1083200084F886E09488A4B244F4806494806BE777
:10833000C01B0020B8F1FF3F49D0DEF8204014F800
:108340000850EDB215829EF81C5008F1010464B289
:10835000A54286F88640A6467FF4ABAE948824F406
:1083600080642404240C9480A3E694F986E0F5E765
:108370001488A4B244F4807414800C181C440125A1
:1083800094F986E084F884503EE7ADB245F4007578
:108390001580158A94F986C0EDB206F80C505FFA84
:1083A0008CFC168ADEF824700CF101056DB20CF11C
:1083B000030EF6B24FFA8EFE7E5584F886E023E770
:1083C000958825F480652D042D0C9580AFE69EF8E8
:1083D0001B1086F886C0C9B211829EF81E1021B902
:1083E0009EF81C1000297FF4E3AE918821F480618F
:1083F0000904090C9180DBE610B404698269E46821
:108400004168146000234024C2E902344469936344
:108410000C31C2E90433C2E90633C2E90833C2E9C8
:108420000A33C2E90C33516094B1C269E4689363C2
:108430004FF48030C2E90041C2E90233C2E904339B
:10844000C2E90633C2E90833C2E90A03C2E90C33C0
:108450005DF8044B704700BFD0E9001300221A609A
:10846000037D1F2B07D9203B202202FA03F343F0A0
:108470001803CB607047202202FA03F343F018037D
:108480008B6070471B4B016803F57D7C02E02C3349
:1084900063452CD01A688A42F9D170B593F804E08C
:1084A000427996450BD02C33634505D01A688A4231
:1084B000F4D02C336345F9D14FF0FF3070BD9E46A8
:1084C0008468DEF80C50A5424FF0000208D001325B
:1084D000032A0EF10C0EE6D0DEF80C50A542F6D1C0
:1084E000DEF81050C668B542F1D150B270BD4FF001
:1084F000FF307047FC5C0708002A4FEA014C30B59A
:1085000003460ABFE6468E468C4600F1C0050024AD
:1085100019689A6841EA0C0142EA0E029A60C3E9BE
:1085200000140C33AB42F3D1D0F8C030C0F8C440D3
:1085300043EA0E03C0F8C030C0F8C84030BD00BFE9
:10854000C3691969B3F80CC00A6830B49C6822F09A
:10855000010224680A60A28992B222EA0C02A28176
:10856000027D00681F2A06D94568203A08249440F5
:108570002C4245D0FEE70568082494402C42F9D1EE
:10858000202404FA02F28260264A1278002A35D0AA
:108590001A7E012A39D0D3F8F4200132C3F8F4202E
:1085A000EFF31181502282F3128858685C6C0268E4
:1085B00022EA04029C6C2243C9B2026081F3118852
:1085C000D3E90C401A6999681D6C09681460506100
:1085D000D3E90E40546090600024B3F8A800D56041
:1085E0004C62C86210680124204310601C7683F836
:1085F000F1408A899B8913439BB28B8130BC7047C1
:10860000202404FA02F2C260BEE7002283F8F120BF
:10861000D3F8F8000A68013022F00102C3F8F8002C
:108620000A60EBE7040000102DE9F041204C65687A
:10863000002D33DD002304F1080218461F460126F1
:1086400004EB032C01339CF8F91001F0FF0E59B92B
:10865000AB4202F58072F3D120B1164B93F88D2016
:10866000542A1ED0BDE8F0819168B2F80C807046A3
:10867000D1F800E0BEF80C1089B221EA0801AEF88A
:108680000C10D2F810E0DEF8001021F00101CEF855
:1086900000108CF8F97082F8F260D9E70020BDE88C
:1086A000F081B3F894200132A3F89420BDE8F08162
:1086B00004000010C01B002010B40C4C6368002B99
:1086C00011DD002004F1080C0146DCF8A03003F1B4
:1086D000C00259600C339342FBD16368013083427E
:1086E0000CF5807CF1DC5DF8044B70470400001051
:1086F000F0B5414C04EB401393F8243403B9F0BDBA
:108700003E4B93F8A05093F8A12095424FEA401CAD
:108710000CD002EB420E03EBCE0E9EF8A460771E47
:10872000012F4FEA420E58D9032E51D004EB0C0012
:10873000A0F80814EFF31182902383F3128890F8C5
:108740000A34B0F8081443EA41030021D2B29BB2C4
:1087500080F80A1482F311882178D0F820441A098D
:1087600082EA13225A40C9B1D0F80C14D4F8A040C0
:10877000D2431B019BB202F00F0201208840134339
:1087800004F1C0015A0013F4004F93B202D16268A1
:10879000024362600C34A142F4D1F0BDD0F80C1455
:1087A000D4F8A0401B0110319BB202F00F0201204F
:1087B0008840134304F1C0015A0013F4004F93B2F0
:1087C00002D16268024362600C34A142F4D1F0BD70
:1087D000561C06F00306AE42A8D0964403EBCE0327
:1087E000184490F8B1100029A0D004EB0C0301222A
:1087F00083F80A249AE700BF04000010C01B002081
:10880000704700BF024B03EB401393F825047047F9
:10881000040000104368B0F8502010B41A83EFF33E
:108820001182502383F312884168446C0B6823EA59
:108830000403C46C2343D2B20B6082F31188D0E9E5
:1088400007418268036912681C605961D0E90941D7
:108850005C60C46A9960B0F86010DC600023D1628B
:108860005DF8044B0376704710B4037D02681F2B3C
:1088700009D95468203B202101FA03F31C4215D189
:108880005DF8044B70471468202101FA03F31C4281
:10889000F6D00D494068002481F8044101685DF874
:1088A000044B21F001010160936070470649406864
:1088B000002481F8044101685DF8044B21F00101B6
:1088C0000160D360704700BFC01B0020104BDA6806
:1088D000D243C2F30222C2F1040301214FF00F0C74
:1088E000DBB201FA03F34CFA02F210B40A40094C6D
:1088F000DBB213431B012218DBB282F800334309B9
:1089000000F01F00814044F823105DF8044B7047CD
:1089100000ED00E000E100E010B4037D02681F2BD1
:1089200009D95468203B202101FA03F31C4215D1D8
:108930005DF8044B70471468202101FA03F31C42D0
:10894000F6D00D494068002481F8054101685DF8C2
:10895000044B21F0010101609360704706494068B3
:10896000002481F8054101685DF8044B21F0010104
:108970000160D360704700BFC01B00201223014874
:108980000B80704788010020042301480B8070474A
:108990009C0100201C48D0F8103AD0F8182A10B5D5
:1089A0009B184FF01A040C8001D1184810BD174ACB
:1089B000D0F8140A02F1100411464FF0000E4FEAED
:1089C000137CB3F1204F34BF0CF1300C0CF1370C99
:1089D00081F802C081F803E002318C424FEA0313B0
:1089E000EDD102F108040021030FB0F1204F34BF94
:1089F000303337339374D174023294424FEA00100B
:108A0000F2D1024810BD00BF0070FF1FA00100207E
:108A1000426A806A131A58425841704790F84F389A
:108A200030B53BB990F84D1890F84E380124DAB2C1
:108A3000914200D830BDB0F8565804FA03F22A43E8
:108A4000A0F856280133F2E70379024613F001003B
:108A500005D0D369D068116A01385B1A1840704795
:108A600010B50379DB07044601D4002010BDFFF7E1
:108A7000EBFF0028F9D0236A6269D05C236AE268C0
:108A80000133B3FBF2F102FB1133C0B22362EDE715
:108A900003799B070AD5436A8269D154436A026904
:108AA0000133B3FBF2F102FB1133436270477047AD
:108AB000017170470379024613F0020007D0536A30
:108AC0001069916A01385B1A0340DBB2C01A704723
:108AD00082B01D4B1D49002201920193019B04337A
:108AE0000193019B1A688B6803F00C03042B02D0DE
:108AF000082B05D0164A174BC3F8082102B070475F
:108B000048684B68400203F03F0314D44A68104998
:108B1000B1FBF3F3C2F3881203FB02F20B4B5B6869
:108B2000C3F3014301335B00B2FBF3F2094BC3F81B
:108B3000082102B070474968B2FBF3F2C1F3881311
:108B400003FB02F2EAE700BF502800400038024071
:108B50000024F400C01B0020072809D8054B8C22F4
:108B600002FB0033B3F80805B0FA80F04009704703
:108B70000020704704000010072806D8034B8C2201
:108B800002FB0033012283F80A257047040000101D
:108B900070B53F4C8C2303FB004393F8173503B9A2
:108BA00070BD3C4B93F8A0E093F8A12096450CD003
:108BB00002EB420C03EBCC0C9CF8A4506E1E012E71
:108BC0004FEA420C44D9032D3DD08C2202FB0042D7
:108BD000A2F80815EFF31181902383F31288B2F8FD
:108BE000085592F80A3543EA45030025C9B29BB2FD
:108BF00082F80A5581F311881A09217882EA132232
:108C00005A4001B1D2431B019BB294F86C19D4F8BD
:108C1000685902F00F021A438C2303FB004431BB56
:108C20000121D4F89005A847D4F88C15B4F8145550
:108C30008A8AD4F888352A438A8258601A6842F0B2
:108C400001021A6070BD551C05F003057545BCD0C6
:108C5000944403EBCC03034493F8B1100029B4D03F
:108C60008C2303FB0043012283F80A25ADE7D4F8E7
:108C70001035D4F88C155B79086903F0FC031844AF
:108C80000421A847D4F88C358000988170BD00BFBE
:108C900004000010C01B002010B584464FEA810E6E
:108CA000102312F4004F14BF0E2407245200013B7E
:108CB000CCF8004092B2F444F3D100EB81128C0165
:108CC000035142F82130122010BD00BF10B5844678
:108CD0004FEA810E0424130B03EB430318331201F4
:108CE000013CCCF8003092B2F444F4D100EB011313
:108CF0000A01845043F82140062010BD704700BF90
:108D0000704700BF034B00EB400003EBC00393F838
:108D10008109704704000010064B93F8302A824204
:108D200083BF00EB400003EBC003D3F884090020AD
:108D3000704700BF040000102AE700BF072808D8CA
:108D4000044B03EB401393F8242412B1012283F85F
:108D50000A24704704000010072808D8054B03EBCD
:108D60004013B3F80804B0FA80F0400970470020BF
:108D7000704700BF04000010054B93F8302A824270
:108D800086BF03EB4013D3F814040020704700BFE4
:108D9000040000101D4B93F8342AAAB3D3F87019BD
:108DA00009B100200860012A2ED0D3F8881909B132
:108DB00000200860022A27D0D3F8A01909B10020AA
:108DC0000860032A20D0D3F8B81909B10020086040
:108DD000042A19D0D3F8D01909B100200860052A57
:108DE00012D0D3F8E81909B100200860062A0BD088
:108DF000D3F8001A09B100200860072A04D0D3F87C
:108E0000183A0BB100221A60704700BF040000102E
:108E10001D4B93F8342AAAB3D3F8701909B1002076
:108E20000860012A2ED0D3F8881909B10020086003
:108E3000022A27D0D3F8A01909B100200860032A1C
:108E400020D0D3F8B81909B100200860042A19D03D
:108E5000D3F8D01909B100200860052A12D0D3F840
:108E6000E81909B100200860062A0BD0D3F8001ACF
:108E700009B100200860072A04D0D3F8183A0BB1D2
:108E800000221A60704700BF04000010B84B93F82E
:108E90003230002B40F06A81B64B93F8342A002A16
:108EA00000F0648193F8801970B400294FD1D3F891
:108EB00070190020012A086047D993F898190029F1
:108EC0006BD1D3F888190020022A08603DD993F8A5
:108ED000B019002940F0D280D3F8A0190020032A4D
:108EE000086032D993F8C819002940F0EF80D3F810
:108EF000B8190020042A086027D993F8E01900293E
:108F000040F00C81D3F8D0190020052A08601CD944
:108F100093F8F819002940F03381D3F8E8190020BC
:108F2000062A086011D993F8101A00295BD1D3F8EA
:108F3000001A0020072A086007D993F8282A002A77
:108F400077D1D3F8183A00221A6070BC7047D3F872
:108F50007409810AA1F580115229A8D8864C2144B0
:108F600091F8F4130D29A2D8EFF31184502282F363
:108F70001288824D466A828A4FF02C0C0CFB0151FC
:108F800092B2013642F00102C1F83461E4B2828249
:108F900084F3118893F8342A89E7D3F88C09810A7D
:108FA000A1F5801152298CD8734C214491F8F41307
:108FB0000D2986D8EFF31184502282F312886F4D69
:108FC000466A828A4FF02C0C0CFB015192B201369A
:108FD00042F00102C1F83461E4B2828284F3118864
:108FE00093F8342A6DE7D3F8040A810AA1F58011B9
:108FF00052299CD8604C214491F8F4130D2996D83D
:10900000EFF31184502282F312885C4D466A828A03
:109010004FF02C0C0CFB015192B2013642F00102D0
:10902000C1F83461E4B2828284F3118893F8342A5F
:109030007DE7D3F81C1A8A0AA2F58012522A80D83A
:109040004D48024492F8F4030D283FF67AAFEFF34F
:109050001184502282F31288484D4E6A8A8A4FF05A
:109060002C0C0CFB005092B2013642F00102C0F809
:109070003461E4B28A8284F3118862E7D3F8A409E8
:10908000810AA1F5801152293FF626AF3A4C2144BE
:1090900091F8F4630D2E3FF61FAFEFF311815022CC
:1090A00082F31288354C456A828A4FF02C0C0CFBF7
:1090B000064492B2013542F00102C4F83451C9B2FB
:1090C000828281F3118893F8342A05E7D3F8BC092A
:1090D000810AA1F5801152293FF609AF264C21449F
:1090E00091F8F4130D293FF602AFEFF311845022EB
:1090F00082F31288214D466A828A4FF02C0C0CFBB9
:10910000015192B2013642F00102C1F83461E4B279
:10911000828284F3118893F8342AE8E6D3F8D409DC
:10912000810AA1F5801152293FF6ECAE124C214480
:1091300091F8F4130D293FF6E5AEEFF311845022B8
:1091400082F312880D4D466A828A4FF02C0C0CFB7C
:10915000015192B2013642F00102C1F83461E4B229
:10916000828284F3118893F8342ACBE6704700BFDB
:109170008801002004000010FC5C0708C01B0020D0
:10918000D3F8EC09810AA1F5801152293FF6C5AE4A
:109190000F4C214491F8F4630D2E3FF6BEAEEFF371
:1091A0001181502282F312880A4C456A828A4FF05C
:1091B0002C0C0CFB064492B2013542F00102C4F8BB
:1091C0003451C9B2828281F3118893F8342AA4E61B
:1091D000FC5C0708C01B002000EE100AB8EE400A35
:1091E000704700BFBCEEC00A10EE103A98B270474C
:1091F000012380F829300020704700BF08B50346DE
:10920000426AC06B996B02445A6201B188470020E0
:1092100008BD00BF036B1B681B6A5B685B78024676
:1092200013F0010008BF82F829007047F0B5224C06
:10923000224A234B95B0054604F13C00CDE90002DB
:10924000049304F140000023CDE90503CDE90E337A
:109250001C4A09920B9304F1340210931393119357
:109260002B6B95F828700A921868012302228DF85A
:109270000C3007938DF820308DF834308DF848305D
:109280003B1D02920E460C9367F004FB97B1330E20
:1092900084F835303634320C330A22706370A6708D
:1092A000286B694659F050F82B6B186867F0F2FA92
:1092B00015B0F0BD3534EEE788010020341F0020E2
:1092C00015920008F191000810B5044694B05022A0
:1092D000064968466CF00EFA206B694659F034F87E
:1092E000236B186867F0D6FA14B010BD4461070804
:1092F00082634162704700BF2DE9F0410446006B74
:1093000000681E460F46904667F0C4FA94F828306D
:10931000606A002B3ED0284D030E85F845300522AB
:1093200005F146039870EA67020C000A58701A703B
:109330003B68C5F888300020D8F80030C5F8903078
:10934000012EE363C5F8A00029D0022E20D1D8F861
:109350000420C5F89800796885F89400C5F89C1039
:1093600013441649C5F8A4200120E36385F8A8003A
:10937000C5F8AC10124B94F82920206BA3F114010E
:10938000002A08BF194658F0DFFFA36B7BB1E06BE2
:10939000BDE8F0810B4B0422A3F14505C2E7074B62
:1093A00085F89460C5E92630C5F8A400E2E7236B90
:1093B000186867F06FFAEAE788010020FD9100085D
:1093C000E8010020CD010020704700BF00B583B048
:1093D00041620192049A0093826301236A4601A9C3
:1093E000FFF78AFF03B05DF804FB00BF043070474D
:1093F0000D4B93F87C23D3F878130244D2B283F850
:109400007C2393F87C2301441206C3F8781305D516
:1094100093F87C2382F0800283F87C23034B0122A3
:1094200083F8C420704700BFC01B002088010020C3
:109430002DE9F047154FD7F88053ED0A20D00026CC
:10944000B14607F571787419D7F884331048D3F80A
:1094500028A0C7F8BC9304EBD474641010234246D0
:10946000E102D0470F280BDD0A4B03F1100153F83E
:10947000042B013207D18B42F9D12546B542E2DCFB
:10948000E802BDE8F087661CF8E700BFC01B0020BB
:10949000441F0020841F00201A4BD3F8D413D3F8A4
:1094A000D8238A1A322A05DCD3F8EC238A1A002A38
:1094B0000FDC704793F8DC23D3F8E01302F00102CD
:1094C00019B108688988B2B901830022C3F8EC2376
:1094D0007047D3F8E02382B11068928810B44469D1
:1094E0003231224218BF42835DF8044B08BF028329
:1094F000C3F8EC1370474183E7E73231C3F8EC134C
:10950000704700BFC01B0020064AD2F8E0333BB1D1
:1095100092F8DC139A881B68C90754BF1A835A83D0
:1095200000207047C01B00204FF40070034B1060F8
:10953000D3F8F8330B600020704700BFC01B002039
:1095400000207047012070470120704700207047BD
:1095500010B41C6994420CD394460A4661448C4270
:10956000996938BFA4EB0C0261445DF8044B6CF0C0
:10957000C1B85DF8044B704738B5074BD3F82834B1
:109580001B6A14460D4698474FF4007302682A6020
:109590000020236038BD00BFC01B002008B5064B6B
:1095A000D3F8283423B15B699847013840B208BD2D
:1095B0004FF0FF3008BD00BFC01B002000207047E7
:1095C0002DE9F04113B3154C16460F4603EB020884
:1095D000D4F8281400238D681A4639463046A84727
:1095E0000028F5D0D4F82834002BFBD05B699847CD
:1095F0000028F7D00136B04507F50077E8D1D4F858
:10960000D433C4F8D8330020BDE8F081034CD4F83B
:10961000D433C4F8D8330020BDE8F081C01B00204B
:109620002DE9F04143B3184C16460F4603EB0208F0
:1096300004E0D4F8281419B14B699847D4F82814D9
:109640000D6900231A4639463046A8470028F0D154
:10965000D4F82834002BFBD05B6998470028F7D05A
:109660000136B04507F50077E8D1D4F8D433C4F813
:10967000D8330020BDE8F081034CD4F8D433C4F8CB
:10968000D8330020BDE8F081C01B002000207047C7
:10969000034B93F85004003818BF0120704700BFF7
:1096A000C01B0020826D136A5B681B78FF2B09D0FA
:1096B00090F8F030013B5BB2002B80F8F03006DD13
:1096C00001207047082380F8F03000207047136AAB
:1096D0005B68002202201A70704700BF836D1B6A0E
:1096E0005B681B78FF2B0AD190F9F030002B03F157
:1096F000FF3280F8F020D4BF022001207047002004
:10970000704700BF30B540F04003002263F307020A
:109710000B0E63F30F220B0C99B063F31742044650
:10972000080A60F31F62002302920122CDE90D3383
:10973000CDE91333049306928DF81C300A938DF80B
:10974000303010928DF858208DF84430082215934F
:109750001793164B08930DEB0203154D099306233F
:1097600095208DF80C100B930DF107016B440591BA
:109770008DF80D000F9304A90E4B85F81C2505F2FA
:109780008440129358F0E0FDD5F88424136A002B2E
:10979000FCD19DF80730FF2B00D01CB99DF80600C6
:1097A00019B030BD4FF0FF30FAE700BFA5960008B2
:1097B000C01B0020DD960008836D1B6A5B681B7868
:1097C000FE2B0CD0FF2B08D190F9F0305A1E002B45
:1097D00080F8F02001DD0120704702207047002052
:1097E000704700BF30B597B01F4C204D08909FEDDB
:1097F0001C7B002308460DF107020821CDE9023247
:10980000CDE906530122CDE91033CDE9123384F8B6
:109810001C158DF8143009908DF828300B938DF8B5
:109820003C3015936944022304F284400E938DED7D
:109830000C7B04928DF8502058F086FDD4F88434C7
:10984000186A0028FCD19DF80730FE2B03D0FF2BAF
:109850000CBF0120022017B030BD00BFAFF3008065
:109860000000000000000000C01B0020B9970008A5
:1098700030B52C4C9DB0002301220020002104F2C1
:109880008445CDE90C01CDE91601CDE912324FF046
:10989000FD0CC4F84C348DF83C3010938DF85030EA
:1098A000159318931A930CA90DF1060328460E92EE
:1098B0008DF864208DF806C0119358F045FDD4F85A
:1098C0008424136A002BFCD1174906910DF107007F
:1098D0000122039002A92846CDE9073302938DF8AF
:1098E000143009930B9304928DF8282084F81C25DA
:1098F00058F02AFDD4F88434186A0028FCD19DF869
:109900000730FF2B08D0D4F8D433C4F840340923EF
:1099100084F850341DB030BD0423022084F8503444
:109920001DB030BDC01B0020DD960008034B93F82E
:109930005004032894BF002001207047C01B002062
:10994000004870471420002030B4184B00209C7B46
:1099500014B11D688D4206D001300B2803F11003AD
:10996000F5D130BC7047B2B1114B03EB40218A42B4
:1099700018D0104B93F8E42712B9012283F8E4279A
:109980000D4B01225A7000F5B17003EB0013012258
:109990009A7130BC7047084B00F5B17003EB0013AF
:1099A0009A71DEE7022CE4D1183BECE7C8560020A0
:1099B000C8400020B0500020B040002030B41D4C02
:1099C000002384F8D03604F5C36004E001330B2B88
:1099D00000F1100015D005688D42F7D190F80EC047
:1099E000BCF1030FF2D1C2B1134901EB4320824213
:1099F00009D1A1F1180203F5B17302EB031201239F
:109A0000937130BC704794F8E42712B9012284F8AE
:109A1000E4270A4A01215170EDE70849D4F8CC2621
:109A200003F5B17301EB0313013204219971C4F8FA
:109A3000CC26E6E7B0500020C8400020B04000200F
:109A400030B585B068465FF071F91048104AD0F81B
:109A5000FC10009B0F4D41F08071C0F8FC100024F9
:109A600000F1C840C2F8B05FA0F56500546011680D
:109A7000094CA0F67D60A0FB030341F001019B0CA3
:109A8000C4F82035116005B030BD00BF00ED00E026
:109A9000001000E055CEACC5C01B00202DE9F843F6
:109AA000038AB0F80C801FFA88F818EA030829D056
:109AB00005460E464FF00047B8FA88F327FA03F23E
:109AC000D24391B21B3B298208EA0208042B16D824
:109AD000DFE803F04134271A0300B36A002B47D0B4
:109AE00003F1FF3900231FFA89F9B362746A34B1B4
:109AF00023682046494698476468002CF8D1B8F19D
:109B0000000FD9D1BDE8F88370680028F7D003684A
:109B1000002BF4D0696B89B29847B8F1000FCBD114
:109B2000F0E7B0680028EAD00368002BE7D0A96B03
:109B300089B29847B8F1000FBED1E3E7F06800287A
:109B4000DDD00368002BDAD0E96B89B29847B8F111
:109B5000000FB1D1D6E730690028D0D00368002BC0
:109B6000CDD0296C89B29847B8F1000FA4D1C9E7CC
:109B7000EB6A1FFA83F9B9E770B50B4C0546072667
:109B8000013E00D170BD94F900001BF0E1F8031E06
:109B900008DBEA1861789171A178E954052BDCBFE4
:109BA000E37813730434EBE79461070810B5274B8F
:109BB00093F8A02093F8A1309A4242D1244A92F817
:109BC000F80AF8B192F86C4902F6382300EB40002D
:109BD000D2F8382A03EBC000B4B140F20D3C00E0EB
:109BE0001A6899689C894C600C6844F001040C6008
:109BF000A2F848C09189183389B241F48071834238
:109C00009181EDD110BD1A68118821F080010904FD
:109C10001833090C118033F8141CD162118889B2F1
:109C200041F0800111805462B2F80CC033F8041C7A
:109C300041EA0C0189B28342918123F8044CE2D1BC
:109C400010BD67F065FF0028B8D110BDC01B002013
:109C50000400001010B504466AF06AFB81B2204689
:109C6000BDE81040FEF744BD10B504466AF060FB45
:109C700081B22046BDE81040FEF78ABF38B50B4DD3
:109C800000EB400005F5176303EBC00393ED027A88
:109C9000D3ED037AE7EE007AC4002544B0EE670AFC
:109CA0006AF046FBD5F87039186038BD0400001022
:109CB0000A4608B5054920B905485FF0C1FA0348CE
:109CC00008BD04485FF0BCFA004808BDE42000204D
:109CD000E80008081001080810B5044C04480A46BA
:109CE00021465FF0ADFA204610BD00BFE420002001
:109CF0003801080810B5044C04480A4621465FF0B4
:109D00009FFA204610BD00BFE42000204C01080847
:109D100010B5044C04480A4621465FF091FA2046EB
:109D200010BD00BFE420002058010808F8B5A0F6D7
:109D300068042379DB0725D5657994F84C3805F05C
:109D400001073D46FBB1D4F848341A68D36A5B0872
:109D5000536294F8503823B1B4F85A380133A4F858
:109D60005A38606C85F0010163F0FEF8012384F835
:109D70004F38002384F84D3884F84E38A4F856380C
:109D800084F84C38F8BD94F84F68012E04BF94F85D
:109D90004D3884F84E382046FEF740FE4EB9012378
:109DA00084F84F3887EA0301606CBDE8F84063F03F
:109DB000DBB8002384F84F383946F5E738B5A0F60C
:109DC00068040022606C344D03685A62A1F12903D3
:109DD000302B31D895F8233695F824160133DBB2B1
:109DE000012B85F8233609D9B4F8563885F823268F
:109DF0005B08A4F856384B1C85F8243695F82426C1
:109E00000023082AA4F8583815D185F82436B5F867
:109E1000263601339BB2032BA5F8263608D92379C1
:109E2000DB0705D5E36A94F8560843B3216B9847DE
:109E30000023A4F8563838BD5B396C290CD8B4F827
:109E4000563885F823265B0843F08003A4F856387B
:109E500095F824360133CFE794F85138002BCDD153
:109E6000012185F82336A5F82636802384F8511879
:109E7000A4F8563885F8241663F076F8BEE7E3694F
:109E80006269D054E369E2680133B3FBF2F102FB8B
:109E90001133E361CCE700BFC01B0020C06900287C
:109EA00036D003681A6A127B2ABBD3E904125B68B6
:109EB000496872B110B4546800220A6022609A881E
:109EC0005DF8044B22F003021204120C9A805AF03F
:109ED00039BD1A891206FCD41A89D20709D4002286
:109EE0000A609A8822F002021204120C9A805AF038
:109EF00029BD9A89F0E78268002AD6D01168928835
:109F00000A83D3E904125B684968002AD2D1E0E7EA
:109F1000704700BFC06900B97047016830B4D1E92B
:109F200004424B6864687AB15568002222602A6056
:109F30009A8822F003021204120C9A800B6A1B7B8F
:109F4000A3B930BC5AF0FEBC1A891506FCD41A8994
:109F5000D20714D4002222609A8822F0020212044E
:109F6000120C9A800B6A1B7B002BEAD08368002BB3
:109F7000E7D01A689B88138330BC5AF0E3BC9A89F7
:109F8000E5E700BF38B590F83430012B044608D01F
:109F900090F8290008B9012038BD002384F8293041
:109FA00038BD006B03681A7B92B994F82930002BF6
:109FB000F1D00A4D0A49022305F5C56258F07EF931
:109FC00095F82936D84300F0010003F00103E5E7D6
:109FD0001B6A002BE9D0002038BD00BFC01B002049
:109FE0005002002038B5044694F83430012B09D0D3
:109FF00094F8293013B1002384F82930012038BDAA
:10A000001B6A23B1206B03681A7B002AF8D194F8ED
:10A010002930002BF2D0084D0849022305F5C5620E
:10A0200058F04CF995F8293603F00102DB0784F863
:10A030002920E3D5D8E700BFC01B00205002002034
:10A040002DE9F843DDF820800F4615460021202237
:10A0500004461E466BF026FCB8F1000F0CD0D8F871
:10A060000030E3811B0C2382D8F80430B8F80A20B2
:10A07000E3821B0C62822383384668F001FBEB0607
:10A0800019D4431EB8B107EB000C01E0013B12D319
:10A090001CF801EDBEF12E0FF8D1C01A421E032AA2
:10A0A000A8BF0322082B03F10109A8BF082390468B
:10A0B000B9441A4606E008280246B946A8BF082255
:10A0C0004FF000084FF0203339462360636020468C
:10A0D0006BF010FB04F10800154B23814246494602
:10A0E00083706BF007FB611EE21D11F801CFACF12C
:10A0F0006103192B9CBFACF1200C81F800C0914288
:10A10000F3D104F10A0011F8013FA3F16102192A09
:10A110009CBF203B0B708142F5D118232373330C75
:10A12000A382E572099B6683E361BDE8F88300BF03
:10A13000202020002DE9F04FDFF84CB4DBF8D403E9
:10A1400085B0CBF8D803002B60D013440C461746DB
:10A1500001F5FE7A99461FE0002F64D0DBF8043445
:10A16000BB4200F0C680DBF80034BB4200F0F88050
:10A17000DBF80834DBF80C14BB424BD8B94200F2D0
:10A180007081791A204662F03FFC01374F4504F593
:10A1900000740AF5007A39D0DBF81034BB42DBD802
:10A1A000DBF82054FB1A296BDA0802328A4203F0EA
:10A1B000070602D3AB6B9A420BD92946104602928E
:10A1C00062F0F2FB029A0546002800F06A81CBF8A3
:10A1D00020042B79002B40F01E81D5F82880B8F19F
:10A1E000000F00F057812B6BD21AEB6806EBC2020E
:10A1F00003EB422220462B464FF400710137C04743
:10A200004F4504F500740AF5007AC5D1002005B069
:10A21000BDE8F08FB942B4D94FF400720021204656
:10A220006BF040FBB1E74FF40072394620466BF00B
:10A2300039FB802384F8BE310C2384F8C231DBF86B
:10A240000014C54ADBF8F833C4F8C6119142C4F8CB
:10A25000CA3100F30B81C14AC14D82FB010285FB6B
:10A2600001050A44C817C0EB6212C0EB2530BD4D92
:10A2700084F8C10185FB0265C2EB82168010891B40
:10A28000013120F03F0015440843D117C1EBE5111F
:10A290000A4484F8BF21B04A84F8C001013B9342CC
:10A2A00000F3F080AD4AAE4882FB031280FB03103E
:10A2B0001A44D917C1EB6212C1EB2031A94884F8C6
:10A2C000C51180FB0250C2EB821589105B1B013364
:10A2D00021F03F0110441943D317C3EBE0131A4494
:10A2E00084F8C41184F8C3214AF65523A4F8FE313A
:10A2F0004BE74FF0FF3384F8EC3184F8ED3184F80C
:10A30000EE3184F8EF315223237063706123A37020
:10A3100084F8E7314123E37084F8E63172230025A5
:10A3200084F8E43184F8E531DBF81834C4F8E83116
:10A330004FF4F0722946201D6BF0B4FA552384F8CF
:10A34000FE316FF05503C4F8F051C4F8F451C4F86D
:10A35000F85184F8FC5184F8FD5184F8FF3114E77A
:10A360004FF40072002120466BF09CFA7E4B03CB29
:10A3700045F6EB0323809023C4F80710A370022254
:10A380000821F823C4F80300617322746375DBF8B5
:10A39000F8332273A27384F82C20DBF800249B1A74
:10A3A0002362DBF80824DBF80C349B1A6362002379
:10A3B000E372E3736377A377E37784F82D3084F84F
:10A3C0002E3084F82F3084F83130684BA361684B0D
:10A3D000C4F842303E232377012384F83030654AA5
:10A3E000802384F8403084F846104AF65521A4F8BA
:10A3F000FE1103CA604BC4F84700C4F84B1003CBEE
:10A400001388A4F84F309378C4F85200C4F856105B
:10A4100084F85130B9E64FF40072002120466BF009
:10A4200041FA002E44D12B6C04F12008002B7BD084
:10A430002B6B52491122CDE900662046FFF700FE42
:10A440002B6C1A6C002A7ED01B6B4D49CDE900663F
:10A4500040461122FFF7F4FD04F140084FF4E07389
:10A460006DE0F91A204662F0CFFA8EE6FF2284F8FA
:10A47000C1214FF6FF72A4F8BF21374A013B934236
:10A480007FF710AFFF2384F8C5314FF6FF73A4F8B0
:10A49000C33129E741464FF4007220466BF002FABF
:10A4A00073E6384A231F43F8042F9A45FBD16CE624
:10A4B000D5E910253301002A43D0023B002D3FF49B
:10A4C00064AE013BAD6CF9D1A0464FF40073002D92
:10A4D0003FF45BAECDE9027A08EB0306A24608E042
:10A4E0000024CDE900C4FFF7ABFDAD6CBDB1B045B4
:10A4F00015D02C7929682B6B404605F11C0C1122D4
:10A5000008F12008002CEBD16A792C6942F0210275
:10A51000CDE900C4FFF794FDAD6C002DE7D15446A2
:10A52000029FDDF80CA030E6CDE900663346DBF88B
:10A53000FC1308222046FFF783FD4FF4F0736D6C87
:10A54000C5E7013BBAE7CDE900660D493346404611
:10A550001122FFF775FD7FE7FF03FB0083200882D0
:10A560009755454181808080700108083F00FF00B9
:10A5700029940E0D7C010808880108086801080864
:10A580006C010808DEADBEEFC01B002010B50E4CFC
:10A59000D4F8E0333BB194F8DC2399881B68D207E8
:10A5A00054BF1983598362F0C7F9D4F82834002BBB
:10A5B000FBD05B6998470028F7D0D4F8D433C4F8AF
:10A5C000D833002010BD00BFC01B002010B4EFF333
:10A5D0001182102383F312880A4BD3F8D4134FF05F
:10A5E000E0200131C3F8D4138169C3F82C1600248C
:10A5F000C3F830460369D3B283F311885DF8044B86
:10A60000704700BFC01B002010B4EFF3118110236E
:10A6100083F312884FF0E022C9B29469136913F4EE
:10A62000803F0D4B1EBF0120C3F830069469D3F85C
:10A63000D403D3F8302681F31188D3F820150244CF
:10A640004FF47A7000FB01F31B1B5DF8044BB3FB66
:10A65000F1F300FB02307047C01B0020264B5B6803
:10A66000C3F3080310B4FBB9EFF31183E3B9234B31
:10A670004FF0E02CD3F8D423DCF81800D3F8D4132F
:10A680008A42F7D1D3F82C168842F3D8D3F8204564
:10A690004FF47A7101FB04F3181AB0FBF4F05DF883
:10A6A000044B01FB02007047EFF31181102383F389
:10A6B00012884FF0E022C9B29469136913F4803F05
:10A6C0000E4B1EBF0120C3F830069469D3F8D403A3
:10A6D000D3F8302681F31188D3F820154FF47A731C
:10A6E000024403FB01F0001B5DF8044BB0FBF1F0EA
:10A6F00003FB0200704700BF00ED00E0C01B00201C
:10A70000F8B5027D04681F2A07D96168A2F1200507
:10A710002023AB400B4205D1F8BD21682023934094
:10A720000B42F9D03B4DC6693B4995F86CC9496865
:10A73000C5F8FC1A8C2303FB0653D3F81005D3F895
:10A7400088150768BCF1000F4DD1B3F814050B68EC
:10A7500023F001030B60BB899BB223EA0003BB819A
:10A760000B68DB07FCD41F2A49D9203A20239340E9
:10A7700043F01D03E3602B78002BCDD00B6823F052
:10A78000D0030B608C2303FB0653012283F85C2566
:10A79000D5F8043B002B38D03B8820498C2202FBA3
:10A7A00006F69BB243F080034FF0FF3231442E4453
:10A7B0003B803846FA625EF095FCD6F88835D6F8CC
:10A7C000101516225A601A68096842F001021A60D0
:10A7D0008889B6F81435104A03439BB28B815368BD
:10A7E000C5F8003BF8BD0069036823F0010303606E
:10A7F000BB8923F480731B041B0CBB81B0E72023AF
:10A80000934043F01D03A360B5E7FFF727FFC5F8AA
:10A81000040BC1E704000010001000E080050010E8
:10A820002DE9F04FAA4D2B7887B01BB9012007B056
:10A83000BDE8F08FA74BA849D3F8D423A74BA1FBC1
:10A8400002125209A3FB0213DB0803EB8303A2EB02
:10A85000430395F8302A029205F60834DAB20592DD
:10A8600004EB830705F6E85905F5816B4FF0000A04
:10A87000029B9A4564D0DBF8183093F8F220002A46
:10A8800051D1D3F8E820DBF80410D3F8EC80039220
:10A890000191FFF7E3FE01998E4B039A93F88DE047
:10A8A00093F834C60490890001F1085101EB42117C
:10A8B00008F18060393801EB8C13BEF1540F01EBC5
:10A8C00080101E4603D1834BA3F896C033469842AE
:10A8D00018D91A68002A48D01A6C002A00F087811B
:10A8E000D3F88020002A00F08581D3F8C02003F53A
:10A8F0008073002AEBD11E46711AB04233464FEAEC
:10A90000A1123AD8BCF1000F04D0724B0CF1FF3CFD
:10A9100083F834C6BEF1540F05D16E4AB2F89230B6
:10A920000133A2F892300AF1010ABAF1080F04F1DA
:10A930005C0407F15C0709F114090BF1200B97D1B6
:10A940006A680123002A85F8EC3E7FF76FAF644BFD
:10A95000002103EB022283F8F21003F58073934287
:10A96000F9D1012007B0BDE8F08F40331E46711ABF
:10A97000B04233464FEAA112C4D9A8EB02014529DF
:10A980004FF0000828BF45214046019406EB811195
:10A9900044469446F04603960DE01A6C002A40F0B7
:10A9A000DB80D3F88020002A40F00581D3F8C02056
:10A9B00003F580732AB9994206D91A68002AECD0A7
:10A9C0004033994200F2CC80C646A046B8F1110F40
:10A9D000019C62469ED9D8F115019BD4414B1E467D
:10A9E000D3F8CC309C4538BF3346049E38BFC3F8FB
:10A9F000CC20384BD3F83836F21A002A1BDB03F58B
:10AA0000F42303F590739E4288BF3346314A88BFD2
:10AA10000533C2F83836334B2E4AD3F8CC30052BE9
:10AA200086BF053BDBB2002382F834362D4A4FF057
:10AA3000FF33C2F8CC3041B1C8F11408012300FA49
:10AA400001F103FA08F343EA0100274AC0F3C433D3
:10AA500002EB83031646D3F8B01400F01F0302EB99
:10AA60008303D3F8B02442EA0132C0F3441106EB69
:10AA70008101C0F3842306EB8303D1F8B014D3F82B
:10AA8000B03442EA011141EA032181EA112383EA49
:10AA9000131303F00F02D5F8F03D0F2A03F1010361
:10AAA00024D1B1F5803F21D2BEF1540F4FEA1111EC
:10AAB00005D10848B0F890200132A0F89020B1F5F7
:10AAC000606FC5F8F03D00F09E80A9F80C101FE003
:10AAD00004000010C01B00201F85EB51CDCCCCCC56
:10AAE0000C00001088010020FC5C0708BEF1540F28
:10AAF00005D14D49B1F890200132A1F89020C5F858
:10AB0000F03DD5F8EC3D0133C5F8EC3D4FF6FF7153
:10AB100094F85830059883420CD0BA6823689B1A81
:10AB200023603A6B63689B1A63600023BB603B63DE
:10AB300084F85800236801332360BB680133BB608D
:10AB40004FF6FF7399427FF4EEAE636801336360A2
:10AB50003B6B01333B63E6E6803399427FF634AFCB
:10AB6000039AA3EB020E4FEAAE1E304A0EF1010E1D
:10AB700082FB0E62A2EBEE72012AB8BF012200FA3C
:10AB800002FE14440120013A904040EA0E009E4625
:10AB9000DEF800208AB1DEF8402072B3DEF88020B3
:10ABA00072B3DEF8C0200EF5807E42B17145EFD859
:10ABB00003937346FFE6C03303E70EF1400E714581
:10ABC000F6D9AEEB0303194A9B11013382FB0362F2
:10ABD000A2EBE373012BB8BF012398401C44012270
:10ABE000013B9A407346039310437346E3E6803378
:10ABF0001E46BCE6C0331E46B9E60EF1800EDEE707
:10AC00000EF1C00EDBE7084A92F8A13003EB4303D4
:10AC100002EBC303534493F8B1300D2B7FF455AFCF
:10AC2000802389F81E3073E7C01B00205655555508
:10AC3000F8B51D4B93F8A02093F8A1309A422ED17D
:10AC40001A4F7D68002D11DD3846002410F8086B7E
:10AC500016B1037E012B1CD002691368013443F046
:10AC60000103A54200F580701360F1D1FFF7F6FCF7
:10AC7000D7F8F04E002C0BDD0D4A02EBC40411682E
:10AC800093888889083203439BB294428B81F6D122
:10AC9000F8BD002380F8F030FDF7BCFDDCE766F07E
:10ACA00037FF0028CCD1F8BDC01B002004000010E5
:10ACB000F80E0010494B5B68C3F308032DE9F0431D
:10ACC0000546002B65D1EFF31183002B61D1444B76
:10ACD0004FF0E024D3F8D423A069D3F8D4138A42E8
:10ACE000F8D1D3F82C168842F4D8D3F820654FF465
:10ACF0007A7101FB06F4241AB4FBF6F401FB02445A
:10AD0000364E10274FF0E02C4FF47A7E4FF00108BA
:10AD10007268C2F30802E2B9EFF31182CAB9D3F83C
:10AD2000D423DCF81800D3F8D4138A42F7D1D3F82F
:10AD30002C168842F3D8D3F820950EFB09F1091A96
:10AD4000B1FBF9F10EFB0212121BAA42E0D3BDE8DF
:10AD5000F083EFF3118287F31288DCF81800DCF837
:10AD60001010C90344BFC3F83086DCF81800D3F8CC
:10AD7000D493D3F83016D2B282F311884944D3F871
:10AD800020950EFB09F2121AB2FBF9F20EFB01221A
:10AD9000DAE7EFF31181102383F312884FF0E022FA
:10ADA000C9B29669136913F4803F0D4B1EBF012091
:10ADB000C3F830069669D3F8D403D3F8302681F36C
:10ADC00011880244D3F820054FF47A7101FB00F496
:10ADD000A41BB4FBF0F401FB024491E700ED00E09A
:10ADE000C01B00202DE9F041234C94F850C4BCF165
:10ADF000040F0746884616461D4609D0BCF1080FC9
:10AE000002D00020BDE8F081FEF732FD0228F8D123
:10AE100094F84634BBB139461120FEF773FCC0B23A
:10AE2000C0B90522D4F8D43384F85024C4F82C8453
:10AE3000C4F83074C4F83864C4F83C54C4F84034DE
:10AE40000120BDE8F08179021120FEF75BFCC0B261
:10AE50000028E6D0D4F88424136A002BFCD10A2001
:10AE6000FFF728FFD4F88C34002BCAD01A689B88CF
:10AE700013830020C6E700BFC01B00202DE9F04768
:10AE80003E4B3F4D471E10264FF0E0204FF47A7C9A
:10AE90004FF001086A68C2F30802002A59D1EFF3A3
:10AEA0001182002A55D1D3F8D4238469D3F8D4135E
:10AEB0008A42F8D1D3F82C168C42F4D8D3F8201556
:10AEC0000CFB01FEAEEB040EBEFBF1FE0CFB02EE32
:10AED0006A68C2F30802FAB9EFF31182E2B9D3F853
:10AEE000D4238469D3F8D4138A42F8D1D3F82C162A
:10AEF0008C42F4D8D3F820950CFB09F1091BB1FB67
:10AF0000F9F10CFB0212A2EB0E02B2F57A7FDFD34D
:10AF1000013FBFD2BDE8F087EFF3118286F31288BC
:10AF200084690169C90344BFC3F830868469D3F8D2
:10AF3000D4A3D3F83016D2B282F31188D3F8209577
:10AF400051440CFB09F2121BB2FBF9F20CFB01227B
:10AF5000D9E7EFF3118186F3128884690269D2037D
:10AF600044BFC3F830868469D3F8D4E3D3F83026DD
:10AF7000C9B281F311887244A0E700BFC01B002052
:10AF800000ED00E02DE9F84F0130884C884D01F1CB
:10AF9000FF385FFA80FB1026012762F06DFF4FF447
:10AFA000FA794FF0E0214FF47A7C6B68C3F3080321
:10AFB000002B40F0D280EFF31183002B40F0CD80C6
:10AFC000D4F8D4338869D4F8D4239342F8D1D4F890
:10AFD0002C269042F4D8D4F820250CFB02FEAEEBD0
:10AFE000000EBEFBF2FE0CFB03EE6B68C3F308031E
:10AFF000002B40F09280EFF31183002B40F08D8006
:10B00000D4F8D4338869D4F8D4239342F8D1D4F84F
:10B010002C269042F4D8D4F820A50CFB0AF2121A80
:10B02000B2FBFAF20CFB0323A3EB0E03B3F57A7F1A
:10B03000DBD3B9F10109B8D158464FF47A7963F0FE
:10B04000CFFB4FF0E021CC466B68C3F30803002B25
:10B0500040F09780EFF31183002B40F09280D4F8FA
:10B06000D4338869D4F8D4239342F8D1D4F82C2669
:10B070009042F4D8D4F820250CFB02FEAEEB000E73
:10B08000BEFBF2FE0CFB03EE6B68C3F3080323BBAD
:10B09000EFF311830BBBD4F8D4338869D4F8D423ED
:10B0A0009342F8D1D4F82C269042F4D8D4F820A5B5
:10B0B0000CFB0AF2121AB2FBFAF20CFB0323A3EB0D
:10B0C0000E03B3F57A7FDFD3B9F10109BCD1B8F132
:10B0D0000108BFF462AFBDE8F88FEFF3118386F388
:10B0E0001288D1F818A00A69D20344BFC4F8307698
:10B0F000D1F818A0D4F8D403D4F83026DBB283F307
:10B1000011880244D4F820050CFB00F3A3EB0A03DA
:10B11000B3FBF0F30CFB0233D1E7EFF3118386F3BB
:10B120001288D1F818A00A69D20344BFC4F8307657
:10B13000D1F818A0D4F8D403D4F83026DBB283F3C6
:10B1400011880244D4F820050CFB00F3A3EB0A039A
:10B15000B3FBF0F30CFB023366E7EFF3118286F3E7
:10B16000128888690B69DB0344BFC4F830768869AC
:10B17000D4F8D433D4F830E6D2B282F311887344D1
:10B1800029E7EFF3118286F3128888690B69DB03E4
:10B1900044BFC4F830768869D4F8D433D4F830E6A4
:10B1A000D2B282F31188734464E700BFC01B002051
:10B1B00000ED00E02DE9F0411D4CDFF87C801D4FD3
:10B1C00082B004F54075012602E00834A54224D07F
:10B1D00094F90630002BF8D1206800F13F4303F5C5
:10B1E0007E0308EB932393F830355A09032A03F0C2
:10B1F0001F0306FA03F317D0042A11D0022A02D142
:10B200007A6C13437B640023A1881A46CDE900368B
:10B21000083465F0B7F8A542DAD102B0BDE8F08194
:10B220003A6B13433B63EEE73A6C13433B64EAE744
:10B23000FC21002000380240FC5C070830B50C46B9
:10B2400083B00546D8B1036803F13F4303F57E039D
:10B250009B0A0C4A134493F8300562F0A5F9C4F335
:10B260004112C4F30013CDE90032C4F38103A9886D
:10B27000286804F0030265F085F803B030BD4FF094
:10B28000FF33E6E7FC5C070800B1D7E7704700BF73
:10B2900070B50E4C94F8306AB6B104F5816400259F
:10B2A00004E00135B54204F120040DD0237F002BCA
:10B2B000F7D0E0680028F4D0217D0135FFF7BEFF0C
:10B2C000B54204F12004F1D1012070BD040000104A
:10B2D000F0B5002487B0CDE90144CDE903440DF178
:10B2E000040CC0E93F44C0E94144C0F80C410546A4
:10B2F00000F5887EBCE80F00AEE80F00CEF80040F5
:10B3000095F82931234E0594C5F854610BB907B05F
:10B31000F0BD1E09013E052E03F00F032DD81E4F70
:10B3200007EB4602B2F8380540FA03F2D20724D5FB
:10B33000012202FA03F3013B184037446AF094FCFF
:10B3400097F84435154A2946154D034405EBC305C6
:10B350002620E880234641F80C2F2846224664F038
:10B3600083FF1049AA880868B2FA82F24FF00043BE
:10B37000D34003430B6007B0F0BD2946074B41F8AB
:10B380000C3F00231A46184607B0BDE8F04064F0B1
:10B390006BBF00BF3B43413BFC5C0708E9B50008BD
:10B3A000FC210020003C014038B50409013C052C7B
:10B3B0001AD80F4D05EB440200F00F03B2F8380520
:10B3C00040FA03F212F0010210D0012202FA03F354
:10B3D000013B184025446AF047FC95F84435054A7E
:10B3E000034402EBC30038BD002038BD104638BD11
:10B3F000FC5C0708FC21002010B58078FFF7D4FF23
:10B4000078B1084AD2F83C390446013341218171B0
:10B41000C3712021C2F83C39FFF710FF2368A288CE
:10B420001A8310BDC01B002008B519F091FC052837
:10B4300007D8054BD3F840390344187BBDE80840D2
:10B44000B2E7002008BD00BFC01B002043680B4AC4
:10B4500023F0407323F4807343F480734360836864
:10B460001A4042F002028260C36A0139C9B223F471
:10B47000700343EA0153C362704700BFFDF7FFC08A
:10B48000704700BF0020FCF7CDBD00BF0120FCF7D6
:10B49000C9BD00BF0220FCF7C5BD00BF10B10368E5
:10B4A00082881A83704700BF30B1036882881B69A5
:10B4B0001A4214BF01200020704700BF10B103687A
:10B4C00082885A83704700BFF0B5056890F888609D
:10B4D0006B688488012285F824201A8822F04002B3
:10B4E0001204120C1A802A89A24255D1017BAA7A31
:10B4F0008A420BD01A8822F003021204120C1A801E
:10B500001A8892B2002944D01A80A9721A882F7B17
:10B5100092B242F040021A802B6A9A6892B34FF0BE
:10B52000000C2F4C1433E64653F8101C964401EAE5
:10B53000040221B1B2F1805F27D06A692AB353F8BF
:10B54000142C143302EA040112B1B1F1805F1CD053
:10B5500053F80C2C0CF1010C002AE5D1AFB1A6B1C7
:10B56000BCF1010F0AD8BEF1070F07D80CEB8C0C09
:10B570004FEA8C022B6A13441B7B33B9BDE8F040C1
:10B5800059F0BAB80FB1002EF4D1BDE8F04059F02F
:10B5900035BB42F00302B7E71A88124922F038029D
:10B5A00012048B424FEA124217D001F580618B42A0
:10B5B00013D02146B1F5807FA8BF4FF480710229D6
:10B5C000B8BF022191FAA1F1B1FA81F1013942EA41
:10B5D000C10292B21A802C8188E76108EAE700BFB5
:10B5E0000000FFFF0038004038B52C4AD0F8E830A2
:10B5F0005268D0F8E010044673B1501A83420BDC55
:10B6000094F8D830C4F8E020012B10D0D4F8DC3006
:10B610000133C4F8DC3038BDD4F8EC30C4F8E02095
:10B620000B44C4F8E43094F8D830012BEED16168B3
:10B63000201D04F1F005EFF3118C102383F3128821
:10B6400063681B6A0BB3D4F8F8302A461BB1D36980
:10B650001432002BFBD10B6A6BB1996839B9934254
:10B6600009D0196829B15B6899680029F7D01433AB
:10B67000F3E7C3E900055FFA8CFC8CF31188D4F87A
:10B68000DC300133C4F8DC3038BD0D625FFA8CFC6D
:10B690008CF31188FFF718FFB8E700BF001000E037
:10B6A0002DE9F041826992F8E430012B8AB0054619
:10B6B0005BD0023B012B54D892F85431D2F89C2035
:10B6C0003B4C63F07F0313708769D7F8A030D7F83D
:10B6D000108003F1010E0FCCEC46ACE80F00D7F858
:10B6E0009C30CDE9003E0FCCACE80F0094E803009D
:10B6F00007F110068CE80300EFF31180102383F3A9
:10B7000012883B691B6A002B49D0029B6A461BB119
:10B71000D3691432002BFBD1D8F8203073B199686B
:10B7200039B993420AD0196829B15B689968002930
:10B73000F7D01433F3E71E60C3F804D0C0B280F32F
:10B740001188A9690A69136A002BFCD1D1F8A030CD
:10B750005A8852BAEA819A8852BA2A82DB885BBA3E
:10B760006B8201200AB0BDE8F08192F8570192F88F
:10B770005431D2F8A0101B1A5B100133DBB201EB7D
:10B78000430231F813305BBAEB8153885BBA2B82EA
:10B79000938801205BBA6B820AB0BDE8F081C8F8DB
:10B7A00020D0C0B280F311883046FFF78DFEC8E785
:10B7B000486207082DE9F04190F8E430D0F8A05035
:10B7C000012B8AB0044673D041D9023B012B6BD8C0
:10B7D00090F85531D0F89C206A4E63F07F031370C7
:10B7E000D0F8A030D0F8108003F1010E00F110075E
:10B7F0000FCEEC46ACE80F00D4F89C30CDE9003E0B
:10B800000FCEACE80F0096E803008CE80300EFF3DE
:10B810001180102383F3128823691B6A002B00F028
:10B82000A880029B6A461BB1D3691432002BFBD15E
:10B83000D8F820302BB3996839B9934221D01968D0
:10B84000E1B15B6899680029F7D01433F3E7D0F8C9
:10B850009C304FF0FF321A605A609A60DA60D0F87C
:10B86000E8300522B3F57A7FC0F8F82054D80323D6
:10B8700080F8E43001200AB0BDE8F0811F60C3F811
:10B8800004D0C0B280F311882269136A002BFCD166
:10B890006B885BBAA4F8D030AB885BBAA4F8D2301E
:10B8A000EB885BBAA4F8D43001200AB0BDE8F0817F
:10B8B00090F8571190F8553190F85621D0ED366A2E
:10B8C000D0ED377A5B1A5B100133DBB2521A35F8D0
:10B8D000131005EB430349BAA0F8D010598849BAB0
:10B8E000A0F8D2109B8852100132D2B25BBAA0F8F5
:10B8F000D43035F81230DBBA07EE103AB8EEC77A1A
:10B90000E7EE267AFDEEE77A17EE903AA0F8D63009
:10B9100001200AB0BDE8F08103691A7B2AB35B6994
:10B920001BB390F8983003B390F85731D0F89C20AF
:10B93000C4F8A40063F07F03137090F8571190F8D7
:10B940005531D0F8A0201048C4F80C015B1A073319
:10B950000121C4F80431D4F89C3084F808110A4459
:10B96000C4E93F3284F8E4109EE7022384F8E4300F
:10B970009AE7C8F820D0C0B280F311883846FFF7A4
:10B98000A3FD81E7486207080180000808B51D2073
:10B99000FFF70AFD10B190F9063053B11E20FFF7F2
:10B9A00003FD10B190F9063003B108BD5523C380E3
:10B9B00008BD5523C380F1E7D3B2012B1DD8104B2E
:10B9C00002EB420210B54FEA820E0EF1080403F5B5
:10B9D000137C02E01C3363450DD01A788242F9D102
:10B9E0005A788A42F6D11A59002AF3D00EF1040E81
:10B9F00003EB0E0010BD002010BD0020704700BFFB
:10BA00007062070810B40C4C002304F6441C01E0DB
:10BA1000152B0CD003EB430201331CF802108142BA
:10BA2000F6D1144494F946095DF8044B70474FF081
:10BA3000FF305DF8044B7047C01B0020D3B2022BCF
:10BA400022D870B502EB4202104C4FEA820E234618
:10BA50000EF10C05002204E00132172A03F12C0339
:10BA600010D01E68B042F7D193F804C08C45F3D1D2
:10BA70005E59002EF0D02C210EF1080301FB023399
:10BA8000E01870BD002070BD00207047FC5C070806
:10BA9000002839D030B51D4D90F804C0002305F6BC
:10BAA000441401E0152B2DD003EB43020133A15CBC
:10BAB0006145F7D11544046895F9463990F805E0D9
:10BAC000DAB2022A1ED803EB430311484FEA830C73
:10BAD0000CF10C050346002204E00132172A03F1A1
:10BAE0002C030FD019688C42F7D119797145F4D124
:10BAF00059590029F1D02C210CF1080301FB023324
:10BB0000184430BD002030BD704700BFC01B00206E
:10BB1000FC5C07080348D0F8E0300BB1D030184780
:10BB2000704700BF880100200348D0F80C310BB1EA
:10BB3000FC301847704700BF880100200348D0F848
:10BB4000383113B100F59470184770478801002010
:10BB50000348D0F8643113B100F5AA701847704754
:10BB6000880100200348D0F8903113B100F5C0706F
:10BB700018477047880100200348D0F8BC3113B142
:10BB800000F5D67018477047880100200348D0F8A8
:10BB9000E83113B100F5EC701847704788010020B8
:10BBA0000348D0F8143213B100F5017018477047FC
:10BBB000880100200348D0F8403213B100F50C7022
:10BBC00018477047880100200348D0F86C3213B141
:10BBD00000F5177018477047880100200348D0F817
:10BBE000983213B100F52270184770478801002081
:10BBF0000348D0F8C43213B100F52D7018477047D0
:10BC0000880100200348D0F8F03213B100F53870F5
:10BC100018477047880100200348D0F81C3313B13F
:10BC200000F5437018477047880100200348D0F89A
:10BC3000483313B100F54E70184770478801002053
:10BC40000348D0F8743313B100F5597018477047A2
:10BC500088010020094B01382C2202FB0033084ADE
:10BC6000D3F8D0300748116B834214BF4FF48003E0
:10BC70004FF400130B431363704700BF880100208B
:10BC8000003802400060024070B53E4C3E4D013825
:10BC90004FF02C0C0CFB004C9646DCF8D0603B4A75
:10BCA000AE4214BF4FF480054FF40015166B3543B8
:10BCB0001563CCF8EC3002F52052DCF8D430CCF827
:10BCC000E010103293423ED002F5806293423AD0A7
:10BCD000A2F57A72934248D002F58062934244D032
:10BCE000A2F57A72934242D002F5806293423ED02E
:10BCF000A2F57A72934236D002F58062934232D036
:10BD0000A2F57A72934234D002F58062934230D029
:10BD1000A2F57A7293422ED002F5806293422AD025
:10BD2000A2F57A72934228D002F58062934224D021
:10BD3000A2F57A72934222D0154D02F580629342A9
:10BD400018BF002500E0134D2C2303FB0044CEF365
:10BD5000011294F8E800C4F8F450CEF38711BDE85E
:10BD6000704064F05DBA0C4DEEE70C4DECE70C4D05
:10BD7000EAE70C4DE8E70C4DE6E70C4DE4E7044D2F
:10BD8000E2E700BF88010020006002400038024066
:10BD9000008000282080001000800018008800101B
:10BDA00000802010208000200088002000802020BB
:10BDB0000C4A0D4903469342D1F8080110D0A2F570
:10BDC000806293420CD002F58042934208D002F583
:10BDD0008062934204D002F58062934218BF40080B
:10BDE000704700BF00040140C01B002009494B6C94
:10BDF00010B5094C43F480434B644022002104F603
:10BE0000841069F04FFD4FF0FF33C4F8C439C4F813
:10BE1000C73910BD00380240C01B0020064A136815
:10BE200051690B4003F00103536123B1034BD3F875
:10BE30008409036818477047003C0140C01B00207C
:10BE4000064A136851690B4003F00203536123B1A2
:10BE5000034BD3F88809036818477047003C01403A
:10BE6000C01B0020064A136851690B4003F004030D
:10BE7000536123B1034BD3F88C090368184770470B
:10BE8000003C0140C01B0020064A136851690B406A
:10BE900003F00803536123B1034BD3F890090368FF
:10BEA00018477047003C0140C01B0020064A136839
:10BEB00051690B4003F01003536123B1034BD3F8D6
:10BEC0009409036818477047003C0140C01B0020DC
:10BED000F8B50C4B1D685A69154005F478755D611D
:10BEE0007DB1094F0126B5FA85F4C4F11F0407EBB3
:10BEF000840306FA04F4D3F8840903689847A54339
:10BF0000F1D1F8BD003C0140C01B0020F8B50C4B3E
:10BF10001D685A69154005F47C455D617DB1094F86
:10BF20000126B5FA85F4C4F11F0407EB840306FA71
:10BF300004F4D3F8840903689847A543F1D1F8BD08
:10BF4000003C0140C01B0020F0B5054683B0A0B303
:10BF500007681D4B144607F13F4202F57E0203EBD2
:10BF600092230E4693F8300561F01EFBA988B1FAC2
:10BF700081F3C3F11F03C3F3CC0207EB820203F08A
:10BF80000703156A4FF00F0C9B009C400CFA03F35B
:10BF900025EA03031362136A1C431462C6F30013F9
:10BFA000C6F34112CDE900323846C6F3810306F0EC
:10BFB000030264F0E7F903B0F0BD034B93F82F05DB
:10BFC00061F0F2FA2B68FFDEFC5C070800B1BBE70A
:10BFD000704700BF2DE9F047684E06EB0013D3F819
:10BFE000CC49002C76D093F8D47905464FEA001856
:10BFF000384661F0D9FA07F01F027F090123032FA9
:10C0000003FA02F372D0042F6BD0022F64D006EB38
:10C010000803013593F8D009FFF7C6F9EDB282465F
:10C0200010B11223C571837106EB080393F8D1098F
:10C03000FFF7BAF9814610B11323C571837106EB7E
:10C04000080393F8D209FFF7AFF9074610B114239C
:10C05000C571837106EB0803504693F8D3594A2102
:10C060002A46FFF7B3FF2A4648462A21FFF7AEFFCC
:10C070002A460A213846FFF7A9FF414B9C423AD095
:10C08000404B9C4242D0404B9C424AD03F4B9C424A
:10C0900052D03F4B9C425AD03E4B9C4262D0A38828
:10C0A00023F003031B041B0CA380238803F44153D8
:10C0B00043F4457343F003032380A38B23F400630D
:10C0C0001B041B0C0722A383228223889BB243F00C
:10C0D00040032380BDE8F0872F4A516A0B43536227
:10C0E00095E72D4A11690B43136190E72A4A116ABB
:10C0F0000B4313628BE703F584335A6A42F4805290
:10C100005A625A6A22F480525A62C8E703F5003331
:10C110001A6A42F480421A621A6A22F480421A624F
:10C12000BDE703F5FE331A6A42F400421A621A6A46
:10C1300022F400421A62B2E703F582335A6A42F4EB
:10C1400000525A625A6A22F400525A62A7E703F573
:10C1500068435A6A42F480125A625A6A22F4801280
:10C160005A629CE703F564435A6A42F400125A6229
:10C170005A6A22F400125A6291E700BFC01B0020E5
:10C180000030014000380040003C004000340140D5
:10C19000005001400054014000380240431C00F0B0
:10C1A00069812DE9F04F2C23DFF8C48400FB03F3F1
:10C1B00085B058F803B0064608EB0302BBF1000F48
:10C1C00007D0D2E9024A002C00F01E8194F9062023
:10C1D00012B105B0BDE8F08FBAF1000F00F0748124
:10C1E0009AF90620002AF4D1183308EB0300DBF893
:10C1F000049048F80320711CC0E90122C0E9032221
:10C200001523A371C9B21623E1718AF807108AF8C1
:10C2100006309BF8280061F0C7F9B9F804302268AD
:10C22000A08823F440731B041B0CA9F80430DAF82F
:10C2300000301083BAF804201A8311212046FEF73B
:10C24000FDFF11215046FEF7F9FF0927332524B9D8
:10C2500008E1013D08D0FEF72DFD2368A288196989
:10C260000A424FF00A00F4D05A830520FEF722FD5F
:10C270002368A2881A830520FEF71CFD013FE5D143
:10C28000002C00F04481332503E0013D08D0FEF787
:10C2900011FD2368A28819690A424FF00A00F4D000
:10C2A0005A830520FEF706FDBAF1000F00F05B810E
:10C2B000DAF80030BAF804205A830520FEF7FAFCB9
:10C2C0002368A2881A830520FEF7F4FCDAF8003010
:10C2D000BAF804201A830520FEF7ECFC2368A28834
:10C2E0001B691A4240F0C7802C2303FB0683997C0C
:10C2F0001A7C002940F0CA8020461221FFF724FE54
:10C3000012212C2303FB06835A7C5046FFF71CFEA8
:10C31000D14B994500F04481D04B994500F04B81B9
:10C32000CF4B994500F05881B9F8043023F440739D
:10C330001B041B0CA9F80430B9F800302C2202FBB6
:10C3400006829BB243F00103948AA9F80030B9F841
:10C3500004504FF47A73684603FB04F425F03F055C
:10C360005CF0E4FC0299BF4B2D04A3FB01232D0CD0
:10C3700045EA9345A9F80450B9F8002022F00102DB
:10C380001204120CA9F80020B74A980C94420346F4
:10C3900000F382806200B1FBF2F292B20133042A10
:10C3A00038BF0422A9F82030A9F81C20B9F80030C1
:10C3B0009BB243F00103A9F80030B9F8003023F430
:10C3C000816323F002031B041B0C4FF4804143F4F0
:10C3D0008063A9F80030A9F80810B9F8003023F0FC
:10C3E00080031B041B0C0022A9F800309BF82A00D4
:10C3F000114663F015FF00229BF82900114605B095
:10C40000BDE8F04F63F00CBFBAF1000F00F0F98007
:10C410009AF90620002A7FF4DCAE183308EB0302F9
:10C42000DBF8049048F80340C2E90144C2E9034440
:10C4300016238AF80630731C8AF807309BF8280008
:10C4400061F0B2F8B9F80430BAF8042023F440736C
:10C450001B041B0CA9F80430DAF800301A83F0E64C
:10C46000FEF728FC013D4FF00A00F9D10520FEF748
:10C4700021FC00E770472C23DAF8002003FB068339
:10C4800012699A7C002A00F0A1801A7C3221204691
:10C49000FFF75AFD322134E704EB4404B1FBF4F119
:10C4A0008AB2C1F30B0109B942F001026F494FF49E
:10C4B000967300FB03F3A1FB03139B09013342F4C2
:10C4C0000042A9F820306FE7183308EB0302DBF8CD
:10C4D000049048F803A0C2E901AAC2E903AA1523FF
:10C4E000A371431CE3719BF8280061F05DF8B9F873
:10C4F0000430A28823F440731B041B0CA9F80430F9
:10C50000236811211A832046FEF798FE9DE6332406
:10C5100001E0FEF7CFFB013C4FF00A00F9D1052006
:10C52000FEF7C8FBBAF1000F61D0DAF80030BAF8B4
:10C5300004205A830520FEF7BDFB0520FEF7BAFB59
:10C54000DAF80030BAF804201A830520FEF7B2FBAF
:10C550002C2303FB06839A7C002A18BF32215A7CC5
:10C5600008BF1221D1E60520FEF7A4FB2368A288AC
:10C570001A830520FEF79EFB0520FEF79BFB236830
:10C58000A2881B691A4254D12C2303FB0683997C91
:10C590001A7C00295BD020463221FFF7D5FCB7E694
:10C5A00003F5F2331A6A42F400121A621A6A22F48C
:10C5B00000121A62B8E603F5F0331A6A42F48002F8
:10C5C0001A621A6A22F480021A62ADE61A7C2046C8
:10C5D0001221FFF7B9FC93E603F5EE331A6A42F431
:10C5E00000021A621A6A22F400021A629CE605200E
:10C5F000FEF760FB0520FEF75DFB0520FEF75AFB0A
:10C6000086E6183308EB0302DBF8049048F803A031
:10C61000C2E901AAC2E903AA9BF8280060F0C4FF9E
:10C62000B9F8043023F440731B041B0CA9F8043040
:10C630000BE62C2303FB068320469A7C002A18BFB6
:10C6400032211A7C08BF1221FFF77EFC60E62046EB
:10C650001221FFF779FC5BE60054004000580040CF
:10C66000005C004083DE1B43A0860100D34D6210B6
:10C67000C01B00202DE9F0410646FDF7C5FF104F15
:10C680002C24054604FB067442F20F7804E0FDF703
:10C69000BBFF401B404507DC637E002BF7D1207EAB
:10C6A00080F00100BDE8F081B7F8FC390133304675
:10C6B0009BB2A7F8FC39FFF771FD0020BDE8F081BF
:10C6C000C01B002010B582B004468DF807300DF174
:10C6D000070360F0F9FE08B902B010BD2046FFF76D
:10C6E000C9FF02B010BD00BFB0F1FF3F61D02DE91E
:10C6F000F04F022883B0044612DC2F4F2C2600FB9B
:10C7000006F69946BB19D3F804B0BBF1000F07D069
:10C710000D46597E0193924601F0FF02009219B135
:10C72000002003B0BDE8F08FFDF76EFF2036019BBF
:10C73000009A6D00EDB28046B8199D7601210C9DDE
:10C7400083F81BA05A779977BD51456083F81C90F8
:10C7500059761A76BBF8043099051ED4BBF8003020
:10C76000DA0513D442F20F7505E0FDF74DFFA0EB9B
:10C770000803AB4213DCBBF800309B05F5D4BBF8D3
:10C7800000309BB243F48073ABF80030BBF8043048
:10C790009BB243F44073ABF804300120C1E7B7F813
:10C7A000FC3901339BB22046A7F8FC39FFF7F6FCB1
:10C7B000B6E70020704700BFC01B00202C2330B517
:10C7C00000FB03F3254DEA18EB585C68A38A85B09B
:10C7D0009BB20393039B13F4706F1CBF012313766A
:10C7E000039B13F4E06F0CD1A38A2C2223F4706313
:10C7F00002FB00551B041B0C0022A3826A7605B0C5
:10C8000030BD238BA38823F480631B041B0CA380FF
:10C81000039B9A05E8D423889B05E5D42388D90592
:10C820000FD52388DA05FCD423889BB243F4007328
:10C83000238023889B05FCD40190FFF7AFFC01986F
:10C84000D2E723889BB243F400732380A38823F4A8
:10C8500040731B041B0CA380C6E700BFC01B002055
:10C860000020ABE70120A9E70220A7E770B590F808
:10C8700071301D09013D052D044611D81C4E06EBF3
:10C88000450203F00F03B2F8381541FA03F2D2075C
:10C8900006D590F87220012AD0B205D0012070BDD3
:10C8A00094F872300120FAE7984001382E4408408D
:10C8B00069F0DAF996F844350E4A034402EBC305F1
:10C8C00052F83320AB8810691840E8D0E36E00229C
:10C8D00084F8722093F8212002212846FFF734FBC8
:10C8E000226E93899BB243F008039381D6E700BF81
:10C8F000FC5C0708FC210020F8B50E4C94F8307A57
:10C900009FB104F5A164C7F109070925013D0ED0C7
:10C91000A6683079FEF748FD217DF27908B1FFF76E
:10C9200013FBAF4204F18C04F0D10120F8BDAB68D9
:10C93000FFDE00BF04000010094BD3F8002AD3F833
:10C94000041A40F22A40002350604B620B889BB2CD
:10C9500043F001030B80136843F001031360704739
:10C96000C01B002010B41D4B1D48196C1D4A41F01E
:10C970008051012485B0196404625321FF24CA2028
:10C980005462506251625B6FDB0017D41648042377
:10C99000002102910290029A1A440292029A0433F0
:10C9A0001C2B1160F5D103910390039B0393039B10
:10C9B0000E4A1A6005B05DF8044B70470A4B00221E
:10C9C00001920193019B0193019A084B12689A42CC
:10C9D000DCD105B05DF8044B704700BF0038024061
:10C9E00000000E4200280040502800403166654299
:10C9F0002DE9F043046ED0F80890A38923F4005386
:10CA00001B0407461B0C91B0A38190F805803D796B
:10CA1000C8F3800005F001064FEA0822B30015F0C4
:10CA200002054FEA003002F4806218BF43F00803A9
:10CA300002431A43238A4FEA08319BB223F440533E
:10CA400001F4005119432182A38923F4B05323F048
:10CA50000C031B041B0C1343A381A38A23F4407310
:10CA60001B041B0CA38201A85CF060F9684B9C427C
:10CA700005D003F580639C4201D0039B00E0049B3A
:10CA8000A2896449A089120403EB83034CBF4FEAD7
:10CA900049094FEA890903EB8303B3FBF9F3A1FBCF
:10CAA00003C252094FF0640C00040CFB12334FEA2E
:10CAB000021200F193801B013233A1FB0313C3F375
:10CAC00043131A4392B2228197F93800FEF7ACFC67
:10CAD00030B10368828818F0010F14BF1A835A839B
:10CAE00018F0080FA38A73D09BB243F00803A38207
:10CAF000A3899BB243F40053A381002E2FD0FE6B79
:10CB0000002E78D00023CDE90833CDE90C33CDE9F0
:10CB10000E33049306937B6C0193FB6D0293FB68C9
:10CB200005937B6903934FF480714FF48033CDE913
:10CB30000A1330464FF4806307935CF043F901A970
:10CB400030465CF0D5F9336843F001033360A38AC3
:10CB50009BB243F04003A38273689BB27B65002DB8
:10CB600033D03E6C002E41D0BB6C0193BB6D029361
:10CB70003B690593402304934FF4803300253046EE
:10CB80000B934FF480630793CDE90855CDE90C551D
:10CB9000CDE90E55039506950A955CF013F901A9A8
:10CBA00030465CF0A5F9736943F080037361336824
:10CBB00043F0160333607560A38A9BB243F0800391
:10CBC000A382E36843F04003E36011B0BDE8F08363
:10CBD00023F008031B041B0CA38289E7DB0032331C
:10CBE000A1FB0313C3F342131A436BE7E36843F05B
:10CBF0008003E360E5E74FF6DF732380E36843F0EB
:10CC00002003E360E36843F01003E360A7E700BF9D
:10CC1000001001401F85EB51EFF31183502282F386
:10CC20001288016C0A68D20703D5DBB283F311883E
:10CC300070474A6892B230B4A2B9456A846AA54284
:10CC40001FD0846A85692C44CC60456A846AA542F9
:10CC500011D8846A82620269121B002492B280F8A1
:10CC600064404A600A6842F00102DBB20A6083F362
:10CC7000118830BC7047426A846A121B446A84621D
:10CC8000EBE7012280F86420DBB283F3118830BC2B
:10CC9000704700BF70B5037DC66902681F2B05464B
:10CCA00040D95068203B2021994008422CD0D160C7
:10CCB00010219940D1605168D940C80752D43046FC
:10CCC000FFF7AAFF96F86430C3B196F87230022BD2
:10CCD00014D096F872308BB996F87100FEF764FBA9
:10CCE000326E938923F008031B0401211B0C9381EE
:10CCF00086F8721010B12021FEF7A0FA2B7D2A6869
:10CD00001F2B194614D9203B50680821994008422E
:10CD100000D0D1605068042101FA03F3184200D01A
:10CD2000D36070BD106820249C4020420DD119466C
:10CD3000106808238B40184200D0936010680423C9
:10CD40008B401842EDD0936070BD102199409460E3
:10CD500091601168D940C907B1D5012101FA03F3E7
:10CD60009360ACE7012101FA03F3D360A7E700BFAA
:10CD7000BFF34F8F0549064BCA6802F4E0621343C4
:10CD8000CB60BFF34F8F00BFFDE700BF00ED00E0B9
:10CD90000400FA0508B572B6FFF7EAFF00B583B0E4
:10CDA0000D49002200920091009B0C330093009BE0
:10CDB0001B68012B02D003B05DF804FB01920191C6
:10CDC000019B06490C330193019B1A600B6883F3A6
:10CDD00008884B689847FEE7502800400000FF1F76
:10CDE00038B5FFF7BFFDFFF7D9FF01205CF012F95E
:10CDF0006E4A936823F003039360936813F00C0F5B
:10CE0000FBD113686949A0B943F00103136041F2F3
:10CE1000883302E0013B00F0C7800A689507F9D526
:10CE2000634C00220823C4F8082AC4F80C3A0225EF
:10CE30001EE043F48033136041F2883302E0013B8B
:10CE400000F0B2800A689403F9D5594C594B5A4DF9
:10CE5000B0FBF5F5B0FBF3F0B5EB400F18BF28467B
:10CE60004FF48003C4F8083AC4F80C0AB5FBF0F597
:10CE70000220C4F8105A5CF0CDF803280DD84F4BAF
:10CE800003EBC0039988DA88C4F8181A5B88C4F8E1
:10CE90001C2AB3FBF5F3C4F8143A444B48491A6C06
:10CEA00042F080521A640A6842F440420A609A686A
:10CEB0009A609A6842F400429A609A6842F4A052DA
:10CEC0009A60D4F8081AD4F80C2A0A43D4F8141A31
:10CED00042EA8112D4F81C1A42EA0162D4F8181A04
:10CEE0004908013942EA01425A601A6842F08072E8
:10CEF0001A601A689201FCD5324A40F2057111603D
:10CF0000996821F003019960996841F00201A2F546
:10CF100080629960936803F00C03082BFAD12A49C8
:10CF2000D823B3FBF5F39B0143F000530120C2F873
:10CF300084308866FBF7CCFD244D1C4B244AEA6004
:10CF4000596F244AC4F8201AAA605A6B224922F069
:10CF500080025A635A6F42F080725A671A6B42F429
:10CF6000CE021A635A6B5A639A6B9A631A6C0A431D
:10CF70001A64596C194A0A435A64FCF761FD184A4D
:10CF8000D4F80831A2FB03239B09013BB3F1807F56
:10CF900009D24FF0E022F02053610021072385F8E9
:10CFA00023009161136138BD014CC5E70038024090
:10CFB000C01B002080841E0040420F00BC64070894
:10CFC00000700040003C02400000474200ED00E0DD
:10CFD0000005FA0500000020FFC9FE36335F070098
:10CFE000D34D621030B50068154C164D85B001392F
:10CFF000002389B2A042ADF80C30ADF806308DF8B0
:10D000000E300291D5F808310FD00F4988420CD06C
:10D0100001F58041884208D001F58061884204D042
:10D0200001F58061884218BF5B08B3FBF2F301A9E8
:10D03000013BADF804305BF0FDFF05B030BD00BF33
:10D0400000040140C01B00200000014038B5044628
:10D05000FFF7C8FF2168154D0A8892B242F001021D
:10D06000002305F5FC600A8050F83320914207D078
:10D0700001330E2BF8D1BDE838400020FBF726BC69
:10D0800005EBC30595F8E5472046FBF71FFC1B2C75
:10D0900006D02E2C09D1BDE838402C20FBF716BC59
:10D0A000BDE838401920FBF711BC38BDFC5C07080F
:10D0B00070B50468A30AA3F58013522B50D8364DDF
:10D0C0002B4493F8F4C3BCF10D0F49D843790220E7
:10D0D00023FA00F50CEB8C03A8400CEB43031FFA7A
:10D0E00080FE2B44002949D0A5892C48ADB200EB25
:10D0F000830645EA0E05C6F81011C6F82021A58161
:10D10000EFF31186502383F312882C2202FB0C03C9
:10D11000D3F80C1161B3C3F83011214B04310CEB7F
:10D120008C02204D0CEB4202920005EB020E1032F5
:10D13000134453F8042F0AB10A60111D7345F8D146
:10D140000022F3B20A6083F311882C2303FB0C0046
:10D15000D0F830312BB1A3899BB243F00103A381F6
:10D1600070BDA38923F001031B041B0CA38170BDB8
:10D170000B4B02FB0C3202F12401D0E7A08980B2F4
:10D1800020EA0E00A081054800EB8305C5F81011C8
:10D19000C5F82021B4E700BFFC5C0708C01B0020D5
:10D1A000CC1C0020EC1C002001490248FCF776BC96
:10D1B000CC1C00200000014010B5064C064804F5C8
:10D1C0008671FCF76BFC04F526710448BDE810403D
:10D1D000FCF764BCC01B002000000140004401407B
:10D1E00002494FF08040FCF759BC00BFF81C0020FA
:10D1F00001490248FCF752BC241D002000040040F5
:10D2000001490248FCF74ABC501D002000080040BC
:10D2100001490248FCF742BC7C1D0020000C004084
:10D2200001490248FCF73ABC001E002000040140FE
:10D2300010B5064C064804F51071FCF72FFC04F5F8
:10D2400047710448BDE81040FCF728BCC01B002013
:10D2500000040140001C004001490248FCF71EBCCC
:10D260002C1E00200040014001490248FCF716BC7A
:10D27000841E00200048014001490248FCF70EBC12
:10D28000B01E00200018004001490248FCF706BC0F
:10D29000081F0020002000402DE9F0411348144DE4
:10D2A0004FF41A72002168F0FDFA4FF00008A5F55E
:10D2B0000567A5F1700440F2222655F828100023D6
:10D2C00054F8332091420BD001330E2BF8D10020BB
:10D2D00008F1070860F068F9B045EED1BDE8F081CB
:10D2E00007EBC30393F8E407F2E700BFCC1C002070
:10D2F0004C65070810B50C2935D8DFE801F09134EA
:10D30000343463343434073434343500038C548873
:10D31000B2F80CE023F480731B041B0C0384038C11
:10D32000B0F804C0818B21F073014EEA040E0904A9
:10D33000148823F40073090C1B042143764C1B0C46
:10D3400043EA0E23A0421FFA8CFC9BB200F09480AB
:10D3500004F58064A04200F08F809268A0F804C0B9
:10D360008183C263038410BD038C5488B2F80CE03F
:10D3700023F480531B041B0C0384038CB0F804C0FB
:10D38000818B21F4E6414EEA040E0904148823F44B
:10D390000053090C41EA04211B045F4C1B0C43EAB7
:10D3A0000E33A0421FFA8CFC9BB289B27ED004F5EA
:10D3B0008064A0427AD09268A0F804C0818302649D
:10D3C000038410BD038C5488B2F80CE023F01003E2
:10D3D0001B041B0C0384038CB0F804C0018B21F4E4
:10D3E000E6414EEA040E0904148823F02003090CD8
:10D3F00041EA04211B04484C1B0C43EA0E13A042D3
:10D400001FFA8CFC9BB289B26CD004F58064A042F8
:10D4100068D09268A0F804C001838263038410BDC1
:10D42000038C5488B2F80CE023F001031B041B0C9E
:10D430000384038CB0F804C0018B21F073014EEA21
:10D44000040E0904148823F00203090C1B04214371
:10D45000314C1B0C43EA0E03A0421FFA8CFC9BB21A
:10D460002CD004F58064A04228D09268A0F804C0B3
:10D4700001834263038410BDD489B2F810E023F421
:10D48000006343EA0423548A2CF4405C4EEA040E01
:10D490004CEA0E1C94884FF6FF3E03EA0E0E4EEA4D
:10D4A000042E1FFA8CFC1FFA8EF356E7148A2CF414
:10D4B000804C4CEA841C1FFA8CFC7CE7D489B2F8BF
:10D4C00010E023F008032343548A2CF4407C4EEAF6
:10D4D000040E948823F004034CEA0E0C1FFA8CFC13
:10D4E0002343C2E7D489B2F810E023F0800343EA73
:10D4F0000413548A2CF4406C4EEA040E4CEA8E0C51
:10D5000094884FF6BF7E03EA0E0E4EEA041E1FFA01
:10D510008CFC1FFA8EF37CE7000001402DE9F04FF0
:10D52000AC4BDFF8CC9293F8363AAB4CAB4D93B0A2
:10D530005F1E0293FBB200930023CB460193DFF8FA
:10D54000B4A2DAF80070BB0AA3F58013522B00F2E4
:10D55000FF80234493F8F4330D2B00F2F98015F982
:10D560000380029B012B00F0FA80029B022B02D168
:10D57000B8F1080F6DD10026314640460FF092FCFD
:10D580000FF01EFD90F9003013B1542B40F0EC80E9
:10D590000436B6B2102EEFD1019B002113B34A46D8
:10D5A0000BE0234493F8F4330D2B0DD8EB56434591
:10D5B0000DD002F580725A4512D0906803689B0A1C
:10D5C000A3F58013522BECD900234345F1D14379C5
:10D5D0009AF8050098423CD002F580725A45ECD189
:10D5E000002936D15046FAF74DFFC3B2022B9AF804
:10D5F00005E000F2FF8200F1010C774A0CEB4C0CC5
:10D600004FEA8C0C02F57D7003E02C32824200F070
:10D61000F18213689F42F8D113797345F5D152F81E
:10D620000C30002BF1D06E48002103E0102900F1EE
:10D630002C000ED042689A428C4601F10101F5D1CE
:10D64000684B2C2202FB0C3C9CF9F030002B00F0C4
:10D650009B82654B0AF11C0A9A457FF472AF019BCD
:10D660000133042B01930BF5807B7FF468AF5F4A95
:10D6700092F8303A013302F5816802934FF0010BC2
:10D68000029B9B4561D0534BD8F80C6093F84A2A13
:10D6900098F810300193002E57D0544BD6F800A0C4
:10D6A0005868B38800930AF13F4505F57E050028C8
:10D6B0004FEA952561DD002302E00133834259D012
:10D6C0001C0259F80410A942F7D14C44019B88F878
:10D6D0001030009BC8F80C60B3FA83F5C5F11F0346
:10D6E0004FF00302C8F80430C8F81840B27186F849
:10D6F00007B0E16C606C5E0001220327B74002FABC
:10D7000006F63143E16439490E78384302FA03F3EF
:10D710006064276DD4F8A00099B2002E00F0278233
:10D720003B432365009BAAF81830FAF7E5FE204634
:10D730000BF1010BFBF76EF840F20113BBF1090F7F
:10D74000A8F81C3008F120089AD113B0BDE8F08F7A
:10D75000009B012B7FF67DAF4FF000080BE7B8F17F
:10D76000010F3FF408AF74E7019B0121002B7FF408
:10D7700016AF6EE7042B00F00A821C4B03EB00236C
:10D780000102059119690391002900F026826C1CA1
:10D790000492E4B24FF054029D6083F8042183F8B0
:10D7A0000541124B01305860039B5D791F68069557
:10D7B0001846FAF767FEC3B2022B00F21B8200F193
:10D7C000010C0CEB4C0C044B049A4FEA8C0C00211E
:10D7D000AE4617E0C01B0020FC5C07086802080882
:10D7E0005802002088010020D06E070804000010B5
:10D7F0000C000010D46D07080131172903F12C0328
:10D8000000F0F8811D68AF42F6D11D797545F3D15E
:10D8100053F80C50002DEFD02C2300EB400001FBFF
:10D8200003F37649764F03EB80030B44059819699F
:10D83000744B0A910344C3E90651944600233946C8
:10D8400004E0102B01F12C013FF47FAF4A68AA429B
:10D85000184603F10103F4D16B4B04952C2101FB15
:10D860000031624691F9F030002B7FF46EAF059DD8
:10D87000664881F8F140EB1103EB252303EB03131A
:10D8800000EB83038C2408932B1204FB03F300F5B5
:10D890004C7000EB430009905A4843190898C3F8AC
:10D8A000A8000998C3F8F000542081F8F000332153
:10D8B000C3F8AC100399C3F8F440C3F80CA008688F
:10D8C0005349544B07908842D3F8083109EB0504BB
:10D8D00010D0A1F5806188420CD001F580418842CA
:10D8E00008D001F58061884204D001F5806188424A
:10D8F00018BF5B08062A00F05681072A4648474AA7
:10D90000474918BF1146474A18BF02460598B3FB5E
:10D91000F2F2B3FBF1F33B49079D0144013A92B2A5
:10D92000013BA1F8B030A1F8682000F154010023B8
:10D93000A4F85C30284649F80130A26549445BF000
:10D9400079FB0023ADF838302B8806999BB243F061
