:020000040800F2
:1000000000060020E1020008E3020008E302000805
:10001000E3020008E3020008E3020008E30200082C
:10002000E3020008E3020008E3020008A13100082F
:10003000E3020008E3020008E3020008E30200080C
:10004000E3020008E3020008E3020008E3020008FC
:10005000E3020008E3020008E3020008E3020008EC
:10006000E3020008E3020008E3020008C1110008EF
:10007000E911000815120008411200086D1200086D
:1000800095120008C1120008E3020008E30200080C
:10009000E3020008E3020008E3020008E3020008AC
:1000A000E3020008E3020008E3020008E30200089C
:1000B000E3020008E3020008E3020008E30200088C
:1000C000E3020008E3020008E3020008E30200087C
:1000D000E3020008E3020008E3020008E30200086C
:1000E000E3020008E3020008E3020008E30200085C
:1000F000E3020008E3020008E3020008ED12000832
:10010000E3020008E3020008614A0008E302000875
:10011000E3020008E3020008E3020008E30200082B
:1001200019130008411300086D1300089913000803
:10013000C5130008E3020008E3020008E302000818
:10014000E3020008E3020008E3020008E3020008FB
:10015000ED1300081914000845140008E302000814
:10016000E3020008E3020008E3020008E3020008DB
:10017000E3020008393E0008E3020008E302000839
:10018000E3020008E30200084D4A0008E302000809
:10019000E3020008E3020008E3020008E3020008AB
:1001A000E3020008E3020008E3020008E30200089B
:1001B000E3020008E3020008E3020008E30200088B
:1001C000E3020008E3020008E3020008E30200087B
:1001D000E3020008253E0008E3020008E3020008ED
:1001E000E3020008E3020008E3020008E30200085B
:1001F000E3020008E3020008E3020008E30200084B
:10020000E3020008E3020008E3020008E30200083A
:10021000E3020008E3020008E3020008E30200082A
:10022000E3020008E3020008E3020008E30200081A
:10023000E3020008E3020008E3020008E30200080A
:10024000E3020008E3020008E3020008E3020008FA
:10025000E3020008E3020008E3020008E3020008EA
:10026000E3020008E3020008E3020008E3020008DA
:10027000E3020008E3020008E3020008E3020008CA
:10028000E3020008E3020008E3020008E3020008BA
:10029000E3020008E3020008E3020008E3020008AA
:1002A000E3020008E3020008E3020008E30200089A
:1002B000E3020008E3020008E3020008E30200088A
:1002C000E3020008E3020008E3020008E30200087A
:1002D000E3020008E3020008E3020008E30200086A
:1002E00002E000F000F8FEE772B6374880F30888B5
:1002F000364880F3098836483649086040F20000E5
:10030000CCF200004EF63471CEF200010860BFF36B
:100310004F8FBFF36F8F40F20000C0F2F0004EF637
:100320008851CEF200010860BFF34F8FBFF36F8F8B
:100330004FF00000E1EE100A4EF63C71CEF20001E3
:100340000860022080F31488BFF36F8F02F08AFFE9
:1003500004F034F94FF055301F491B4A91423CBF1D
:1003600041F8040BFAE71D49184A91423CBF41F895
:10037000040BFAE71A491B4A1B4B9A423EBF51F83D
:10038000040B42F8040BF8E700201849184A914280
:100390003CBF41F8040BFAE702F0A2FF04F092F927
:1003A000144C154DAC4203DA54F8041B8847F9E7A6
:1003B00000F042F8114C124DAC4203DA54F8041B21
:1003C0008847F9E702F08ABF0006002000220020DB
:1003D0000000000808ED00E00000002000060020FA
:1003E000B04F000800220020642200206822002074
:1003F0008C480020E0020008E0020008E00200084B
:10040000E00200082DE9F04F2DED108AC1F80CD064
:10041000D0F80CD0BDEC108ABDE8F08F002383F338
:1004200011882846A047002002F06CF9FEE702F090
:10043000F1F800DFFEE7000038B500F0DBFC00F06B
:1004400097FE02F069FE054602F09CFE0446C0B924
:100450000E4B9D4217D001339D4241F2883512BFA9
:10046000044600250124002002F060FE0CB100F0DB
:1004700073F800F01BFE284600F01CF900F06CF841
:10048000F9E70025EFE70546EDE700BF010007B0FB
:1004900008B500F07BFCA0F120035842584108BD8C
:1004A00007B5042101900DEB010000F08DFC03B0B5
:1004B0005DF804FB38B5302383F3118817480368CF
:1004C0000BB102F0EBF90023154A4FF47A7113488F
:1004D00002F0DAF9002383F31188124C236813B178
:1004E0002368013B2360636813B16368013B636069
:1004F0000D4D2B7833B963687BB9022000F040FDC5
:10050000322363602B78032B07D163682BB9022059
:1005100000F036FD4FF47A73636038BD6822002026
:10052000B50400088823002080220020084B1870A2
:1005300003280CD8DFE800F008050208022000F0CC
:1005400017BD022000F00ABD024B00225A6070471E
:100550008022002088230020F8B5504B504A1C46CA
:100560001968013100F0998004339342F8D1626830
:100570004C4B9A4240F291804B4B9B6803F10063D5
:1005800003F500339A4280F08880002000F058FC88
:100590000220FFF7CBFF454B0021D3F8E820C3F83A
:1005A000E810D3F81021C3F81011D3F81021D3F8B4
:1005B000EC20C3F8EC10D3F81421C3F81411D3F8CD
:1005C0001421D3F8F020C3F8F010D3F81821C3F8A1
:1005D0001811D3F81821D3F8802042F00062C3F834
:1005E0008020D3F8802022F00062C3F88020D3F866
:1005F0008020D3F8802042F00072C3F88020D3F826
:10060000802022F00072C3F88020D3F8803072B6C8
:100610004FF0E023C3F8084DD4E90004BFF34F8F37
:10062000BFF36F8F224AC2F88410BFF34F8F536914
:1006300023F480335361BFF34F8FD2F8803043F6F9
:10064000E076C3F3C905C3F34E335B0103EA060C3E
:1006500029464CEA81770139C2F87472F9D2203BFD
:1006600013F1200FF2D1BFF34F8FBFF36F8FBFF3A2
:100670004F8FBFF36F8F536923F40033536100230F
:10068000C2F85032BFF34F8FBFF36F8F302383F325
:100690001188854680F308882047F8BD00000208CD
:1006A00020000208FFFF0108002200200044025839
:1006B00000ED00E02DE9F04F95B0DFF8D892202250
:1006C000FF21029004A8D9F8085000F099FCA84A2C
:1006D0001378A3B90121A74811700360302383F375
:1006E000118803680BB102F0D9F80023A24A4FF435
:1006F0007A71A04802F0C8F8002383F31188029BA6
:1007000013B19E4B029A1A609D4A1378032B03D0B3
:1007100000231370994A53604FF0000B029C5E4611
:10072000DA46CDF804B0012000F022FC24B1934B4E
:100730001B68002B00F02882002000F027FBB0F19E
:100740000008F3DB012000F009FCA8F121031F2BB6
:10075000E9D801A252F823F0D9070008F5070008EC
:100760008308000827070008270700082707000854
:100770000D090008FF0A0008F10900084D0A0008E9
:10078000730A0008990A000827070008AB0A000846
:10079000CF0A0008470B0008610800082707000877
:1007A0008F0B0008E507000861080008270700080C
:1007B0004D0A000827070008270700082707000838
:1007C0002707000827070008270700082707000851
:1007D00027070008830800080220FFF759FE0028B9
:1007E00040F0FF81029B02216648BBF1000F08BF69
:1007F0001C4640E04FF47A7000F0C8FA071EF1DBA7
:100800000220FFF745FE0028ECD0013F052F00F243
:10081000EA81DFE807F003070A0D10330520FFF730
:100820003FFE14E0D9F80000F9E7D9F80400F6E734
:10083000D9F80800F3E74FF01C08404608F1040817
:1008400000F000FBFFF72CFEB8F12C0FF5D10120D2
:10085000019B4FF0000A00FA07F71F43FBB2019318
:1008600000F01AFC2EB1019B03F00B030B2B08BF09
:1008700000240221444800F0A7FA54E7D9F80C00FC
:10088000CDE7002EAED0019B03F00B030B2BA9D1BB
:100890000220FFF7FDFD07460028A3D00120002617
:1008A00000F0CEFA0220FFF741FE1FFA86FB584601
:1008B00000F0D6FA044688B1A8F140025846013645
:1008C0005142514100F0DCFA0028EED1BB4604460B
:1008D00002212E483E4600F077FA24E72546012003
:1008E000FFF724FED9F80830AB4207D9284600F0BC
:1008F000A9FA013040F07A810435F3E70025204B56
:10090000BB463E461D701D4B5D60A9E7002E3FF4BF
:1009100069AF019B03F00B030B2B7FF463AF022045
:10092000FFF704FE322000F031FAB0F10008FFF6C4
:1009300059AF18F003077FF455AF08EB0503D9F85A
:10094000082093423FF64EAFB8F5807F3FF74AAF9D
:100950000F4BB84503931FDD4FF47A7000F016FA81
:100960000028FFF63FAF039B013703F8010BF0E7C8
:100970008423002068220020B5040008882300207A
:1009800080220020044B0008FC4A0008004B0008AD
:100990008422002000220020C820FFF779FD0746AE
:1009A00000283FF41FAF1F2D11D8C5F1200204AB62
:1009B00025F003008F494245184428BF4246039260
:1009C00000F0F8FA039AFF218A4800F019FB4FEA79
:1009D000A803C8F3870287492846039300F018FB51
:1009E000064600283FF474AF039B05EB830537E709
:1009F0000220FFF74DFD00283FF4F4AE00F05EFA50
:100A000000283FF4EFAE0027B846D9F80830BB42C3
:100A100018D91F2F11D8049B01330ED027F00303E0
:100A200014AA134453F8403C0C93404604220CA9EA
:100A3000043700F0AFFB8046E7E7384600F002FAE3
:100A40000C90F2E74046FFF72BFD09E700236421F5
:100A50000CA80C9300F0AEF900287FF4C3AE02207E
:100A6000FFF716FD00283FF4BDAE0C9800F01CFA0D
:100A7000E9E7002364210CA80C9300F09BF90028FF
:100A80007FF4B0AE0220FFF703FD00283FF4AAAECA
:100A90000C9800F00BFAD6E70220FFF7F9FC0028CB
:100AA0003FF4A0AE00F01AFACDE70220FFF7F0FC09
:100AB00000283FF497AE0CA9142000F015FA03901B
:100AC000FFF7EEFC03990CA800F07EF9C8E60220BF
:100AD000FFF7DEFC00283FF485AE474B0CAF03F177
:100AE000100C1868083353F8041C3A46634503C2D7
:100AF0001746F6D11020FFF7D3FC1021E3E7322090
:100B000000F044F9071EFFF66DAEBB077FF46AAE36
:100B100007EB0A03D9F8082093423FF663AE0220A0
:100B2000FFF7B6FC00283FF45DAE27F003075744FB
:100B3000BA453FF495AE50460AF1040A00F082F936
:100B4000FFF7AEFCF4E74FF47A70FFF7A1FC002842
:100B50003FF448AE00F0B2F9002849D0049B0133BD
:100B60000BD0082204A9002000F052FA00283FD040
:100B70002022FF2104A800F043FA2048022100F0BF
:100B800023F91F4801F0C4FD15B0BDE8F08F002E19
:100B90003FF428AE019B03F00B030B2B7FF422AE36
:100BA000002364210CA80C9300F004F907460028E8
:100BB0007FF418AE0220FFF76BFC804600283FF45C
:100BC00011AE02210D4800F0FFF841F2883001F02B
:100BD0009FFD0C9800F0AAFA46463C4600F05CFAED
:100BE000A1E506463CE64FF0000AFBE5BB466FE692
:100BF00037466DE684220020E84A0008FC4A0008D7
:100C0000A08601002DE9F84F4FF47A7306460D4691
:100C1000002402FB03F7DFF85080DFF8509098F9CA
:100C200000305FFA84FA5A1C01D0A34212D159F85D
:100C300024002A4631460368D3F820B03B46D84703
:100C4000854207D1074B012083F800A0BDE8F88F4B
:100C50000124E4E7002CFBD04FF4FA7001F058FDBA
:100C60000020F3E7D42300201022002014220020CB
:100C700000232DE9F0471A4605468846012019460B
:100C800000F088FC0446802002F0D6F907460028D0
:100C900061D0002C5FD03B4E28464FF0800A73692C
:100CA00043F0C0637361D6F8143143F0C063C6F8F3
:100CB000143102F045F805EB080200FB05F34FF490
:100CC000D06C50434FF03D0E834233D23269520113
:100CD00043D4D6F8102151013FD4216803F10062BA
:100CE0008A602268D7602268C2F804A02268C2F82D
:100CF00000C0D4F80090D9F8002042F00102C9F8F1
:100D00000020D4F80090D9F8002022F01E02C9F883
:100D10000020D4F80090D9F80020D207FBD494F832
:100D20000C90803361680EFA09F20A60CCE700206B
:100D300002F0E4F8204600F06DFC384602F0B2F90B
:100D4000104B5A6942F0C0625A61D3F8142142F044
:100D5000C062C3F81421BDE8F0870B4B9A6A42F4D5
:100D600000729A629A6A42F400429A6261B6002660
:100D7000012002F0C3F8B045D9D9A819013601F015
:100D8000F7FFF8E70020005200ED00E0002307B570
:100D9000024601210DF107008DF80730FFF732FF01
:100DA00020B19DF8070003B05DF804FB4FF0FF3061
:100DB000F9E700000A46042108B5FFF723FF80F099
:100DC0000100C0B2404208BD074B0A4630B4197852
:100DD000064B53F82140014623682046DD69044B49
:100DE000AC4630BC604700BFD42300201422002052
:100DF000A086010070B5104C0025104E01F0A4FF34
:100E000020803068238883420CD800252088013850
:100E100001F096FF23880544013BB5F5802F238020
:100E2000F4D370BD01F08CFF336805440133B5F590
:100E3000003F3360E5D3E8E7D6230020902300206D
:100E400002F05CB800F1006000F500300068704707
:100E500000F10060920000F5003001F0D1BF000009
:100E6000054B1A68054B1B889B1A834202D9104414
:100E700001F066BF0020704790230020D623002099
:100E800038B50446074D29B128682044BDE83840EC
:100E900001F06EBF2868204401F058FF0028F3D00D
:100EA00038BD00BF902300200020704700F1FF50A4
:100EB00000F58F10D0F8000870470000064991F83F
:100EC000243033B100230822086A81F82430FFF768
:100ED000BFBF0120704700BF94230020014B18685A
:100EE000704700BF0010005C194B01380322084412
:100EF00070B51D68174BC5F30B042D0C1E88A64258
:100F00000BD15C680A46013C824213460FD214F9A9
:100F1000016F4EB102F8016BF6E7013A03F10803E5
:100F2000ECD181420B4602D22C2203F8012B04247F
:100F3000094A1688AE4204D1984284BF967803F8D5
:100F4000016B013C02F10402F3D1581A70BD00BFDD
:100F50000010005C1C220020344B0008022803D142
:100F6000024B4FF400229A61704700BF00100258F4
:100F7000022802D1014B08229A61704700100258E2
:100F8000022804D1024A536983F008035361704771
:100F90000010025870B504464FF47A764CB1412CDB
:100FA000254628BF412506FB05F0641B01F0B0FB78
:100FB000F4E770BD002310B5934203D0CC5CC45459
:100FC0000133F9E710BD0000013810B510F9013FF9
:100FD0003BB191F900409C4203D11AB10131013A71
:100FE000F4E71AB191F90020981A10BD1046FCE7F9
:100FF00003460246D01A12F9011B0029FAD17047A4
:1010000002440346934202D003F8011BFAE77047FB
:101010002DE9F8431F4D14460746884695F82420CD
:1010200052BBDFF870909CB395F824302BB9202286
:10103000FF2148462F62FFF7E3FF95F82400414661
:10104000C0F1080205EB8000A24228BF2246D6B2BA
:101050009200FFF7AFFF95F82430A41B17441E44FD
:101060009044E4B2F6B2082E85F82460DBD1FFF795
:1010700025FF0028D7D108E02B6A03EB82038342C7
:10108000CFD0FFF71BFF0028CBD10020BDE8F883AD
:101090000120FBE794230020024B1A78024B1A70C0
:1010A000704700BFD42300201022002038B51A4C0E
:1010B0001A4D204600F03AFE2946204600F062FE16
:1010C0002D684FF47A70D5F89020D2F8043843F0A8
:1010D0000203C2F80438FFF75DFF1149284600F00B
:1010E00081FFD5F890200F4DD2F80438286823F0FE
:1010F00002030D49A042C2F804384FF4E1330B60FB
:1011000001D000F06DFD6868A04204D00649BDE83A
:10111000384000F065BD38BD382B00203C4D00083C
:10112000444D000814220020BC2300200C4B70B555
:101130000C4D04461E780C4B55F826209A420DD0D3
:101140000A4B002118221846FFF75AFF0460014697
:1011500055F82600BDE8704000F042BD70BD00BFEC
:10116000D423002014220020382B0020BC23002090
:1011700008B571B6054B1988054B1888FFF778FD3F
:1011800002210E20FFF774FD61B608BDD6230020B2
:101190009023002030B50A44084D91420DD011F83B
:1011A000013B5840082340F30004013B2C4013F05E
:1011B000FF0384EA5000F6D1EFE730BD2083B8ED9D
:1011C00008B5074B074A196801F03D01996053685B
:1011D0000BB190689847BDE8084002F019B800BF0D
:1011E00000000240D823002008B5084B196889097F
:1011F00001F03D018A019A60054AD3680BB110697C
:101200009847BDE8084002F003B800BF0000024064
:10121000D823002008B5084B1968090C01F03D01DE
:101220000A049A60054A53690BB190699847BDE872
:10123000084001F0EDBF00BF00000240D8230020AD
:1012400008B5084B1968890D01F03D018A059A60BF
:10125000054AD3690BB1106A9847BDE8084001F010
:10126000D7BF00BF00000240D823002008B5074BBD
:10127000074A596801F03D01D960536A0BB1906A81
:101280009847BDE8084001F0C3BF00BF000002401E
:10129000D823002008B5084B5968890901F03D01A1
:1012A0008A01DA60054AD36A0BB1106B9847BDE832
:1012B000084001F0ADBF00BF00000240D82300206D
:1012C00008B5084B5968090C01F03D010A04DA60C1
:1012D000054A536B0BB1906B9847BDE8084001F08D
:1012E00097BF00BF00000240D823002008B5084B7C
:1012F0005968890D01F03D018A05DA60054AD36B12
:101300000BB1106C9847BDE8084001F081BF00BFE9
:1013100000000240D823002008B5074B074A19688F
:1013200001F03D019960536C0BB1906C9847BDE89A
:10133000084001F06DBF00BF00040240D823002028
:1013400008B5084B1968890901F03D018A019A60C6
:10135000054AD36C0BB1106D9847BDE8084001F009
:1013600057BF00BF00040240D823002008B5084B37
:101370001968090C01F03D010A049A60054A536D91
:101380000BB1906D9847BDE8084001F041BF00BF28
:1013900000040240D823002008B5084B1968890DC5
:1013A00001F03D018A059A60054AD36D0BB1106EBC
:1013B0009847BDE8084001F02BBF00BF0004024081
:1013C000D823002008B5074B074A596801F03D01B2
:1013D000D960536E0BB1906E9847BDE8084001F09C
:1013E00017BF00BF00040240D823002008B5084BF7
:1013F0005968890901F03D018A01DA60054AD36E16
:101400000BB1106F9847BDE8084001F001BF00BF65
:1014100000040240D823002008B5084B5968090C85
:1014200001F03D010A04DA60054A536F0BB1906F79
:101430009847BDE8084001F0EBBE00BF0004024041
:10144000D823002008B5084B5968890D01F03D01EB
:101450008A05DA60054AD36F13B1D2F88000984745
:10146000BDE8084001F0D4BE00040240D8230020AB
:1014700000230C4910B51A460B4C0B6054F823009E
:10148000026001EB430004334260402BF6D1074A6F
:101490004FF0FF339360D360C2F80834C2F80C34C5
:1014A00010BD00BFD8230020444B000800000240BC
:1014B0000F28F8B510D9102810D0112811D01228F3
:1014C00008D10F240720DFF8C8E00126DEF800501D
:1014D000A04208D9002653E00446F4E70F24002078
:1014E000F1E70724FBE706FA00F73D424AD1264C14
:1014F0004FEA001C3D4304EB00160EEBC000CEF893
:101500000050C0E90123FBB273B12048D0F8D830B5
:1015100043F00103C0F8D830D0F8003143F00103A4
:10152000C0F80031D0F8003117F47F4F0ED01748C3
:10153000D0F8D83043F00203C0F8D830D0F80031EA
:1015400043F00203C0F80031D0F8003154F80C0029
:10155000036823F01F030360056815F00105FBD144
:1015600004EB0C033D2493F80CC05F6804FA0CF400
:101570003C6021240560446112B1987B00F064F95D
:101580003046F8BD0130A3E7444B00080044025840
:10159000D823002010B5302484F31188FFF788FF8A
:1015A000002383F3118810BD10B50446807B00F042
:1015B00061F901231549627B03FA02F20B6823EA01
:1015C0000203DAB20B6072B9114AD2F8D81021F0D6
:1015D0000101C2F8D810D2F8001121F00101C2F8BF
:1015E0000011D2F8002113F47F4F0ED1084BD3F82D
:1015F000D82022F00202C3F8D820D3F8002122F02C
:101600000202C3F80021D3F8003110BDD823002016
:101610000044025808B5302383F31188FFF7C4FF54
:10162000002383F3118808BD0268436811430160F9
:1016300003B1184770470000024A136843F0C00323
:10164000136070470078004013B50E4C204600F040
:10165000BBFA04F1140000234FF400720A4900940D
:1016600000F078F9094B4FF40072094904F1380091
:10167000009400F0F1F9074A074BC4E9172302B0C0
:1016800010BD00BF5C240020C824002039160008CB
:10169000C82600200078004000E1F505037C30B545
:1016A000244C002918BF0C46012B11D1224B984223
:1016B0000ED1224BD3F8E82042F08042C3F8E82054
:1016C000D3F8102142F08042C3F81021D3F8103132
:1016D0002268036EC16D03EB52038466B3FBF2F321
:1016E0006268150442BF23F0070503F0070343EACD
:1016F0004503CB60A36843F040034B60E36843F0CD
:1017000001038B6042F4967343F001030B604FF0CA
:10171000FF330B62510505D512F0102205D0B2F14E
:10172000805F04D080F8643030BD7F23FAE73F2328
:10173000F8E700BF444C00085C2400200044025835
:101740002DE9F047C66D0546F469220734621AD0C8
:1017500014F0080118BF4FF48071E3074FF0300315
:1017600048BF41F02001A70748BF41F04001600792
:1017700048BF41F0800183F31188281DFFF754FF13
:10178000002383F31188E2050AD5302383F31188FF
:101790004FF48061281DFFF747FF002383F3118872
:1017A00030274FF0000914F0200838D137683B0685
:1017B00015D54FF0300905F1380A20060FD589F309
:1017C0001188504600F07CF9002835DA0821281DE0
:1017D000FFF72AFF27F08007002383F3118879069B
:1017E00013D5620611D5302383F31188D5E913236D
:1017F0009A4207D12B6C2BB127F040071021281DEE
:10180000FFF712FF002383F31188E306376018D532
:10181000AA6E1369ABB15069BDE8F047184787F36A
:101820001188736A284695F86410194000F0E6F9AB
:1018300089F31188F469B6E7B06288F31188F46916
:10184000BBE7BDE8F0870000090100F16043012219
:1018500003F56143C9B283F8001300F01F039A40F7
:1018600043099B0003F1604303F56143C3F8802102
:101870001A60704700F01F0301229A40430900F1EB
:1018800060409B0000F5614003F1604303F5614354
:10189000C3F88020C3F88021002380F8003370470C
:1018A000F8B51546826804460B46AA4200D2856800
:1018B000A1692669761AB5420BD218462A46FFF767
:1018C00079FBA3692B44A3612846A3685B1BA36033
:1018D000F8BD0CD9AF1B18463246FFF76BFB3A46F2
:1018E000E1683044FFF766FBE3683B44EBE71846EA
:1018F0002A46FFF75FFBE368E5E700008368934251
:10190000F7B50446154600D28568D4E90460361A56
:10191000B5420BD22A46FFF74DFB63692B44636146
:101920002846A3685B1BA36003B0F0BD0DD9324607
:10193000AF1B0191FFF73EFB01993A46E068314445
:10194000FFF738FBE3683B44E9E72A46FFF732FB41
:10195000E368E4E710B50A440024C361029B846095
:10196000C16002610362C0E90000C0E9051110BD59
:1019700008B5D0E90532934201D1826882B9826804
:10198000013282605A1C426119700021D0E9043290
:101990009A4224BFC368436100F0D6FE002008BD10
:1019A0004FF0FF30FBE7000070B5302304460E46D1
:1019B00083F31188A568A5B1A368A269013BA36060
:1019C000531CA36115782269934224BFE368A36185
:1019D000E3690BB120469847002383F3118828461A
:1019E00007E03146204600F09FFE0028E2DA85F34A
:1019F000118870BD2DE9F74F04460E4617469846EC
:101A0000D0F81C904FF0300A8AF311884FF0000B89
:101A1000154665B12A4631462046FFF741FF034689
:101A200060B94146204600F07FFE0028F1D0002337
:101A300083F31188781B03B0BDE8F08FB9F1000F74
:101A400003D001902046C847019B8BF31188ED1A03
:101A50001E448AF31188DCE7C160C361009B826089
:101A60000362C0E905111144C0E90000016170473B
:101A7000F8B504460D461646302383F31188A7684F
:101A8000A7B1A368013BA36063695A1C62611D7022
:101A9000D4E904329A4224BFE3686361E3690BB17D
:101AA00020469847002080F3118807E03146204601
:101AB00000F03AFE0028E2DA87F31188F8BD000052
:101AC000D0E9052310B59A4201D182687AB98268BB
:101AD0000021013282605A1C82611C7803699A429B
:101AE00024BFC368836100F02FFE204610BD4FF075
:101AF000FF30FBE72DE9F74F04460E4617469846A0
:101B0000D0F81C904FF0300A8AF311884FF0000B88
:101B1000154665B12A4631462046FFF7EFFE0346DB
:101B200060B94146204600F0FFFD0028F1D00023B7
:101B300083F31188781B03B0BDE8F08FB9F1000F73
:101B400003D001902046C847019B8BF31188ED1A02
:101B50001E448AF31188DCE7026843681143016080
:101B600003B11847704700001430FFF743BF00006F
:101B70004FF0FF331430FFF73DBF00003830FFF760
:101B8000B9BF00004FF0FF333830FFF7B3BF00009C
:101B90001430FFF709BF00004FF0FF311430FFF79A
:101BA00003BF00003830FFF763BF00004FF0FF3283
:101BB0003830FFF75DBF0000012914BF6FF013003C
:101BC00000207047FFF740BD044B036000234360D3
:101BD000C0E9023301230374704700BF5C4C000866
:101BE00010B53023044683F31188FFF757FD022315
:101BF0000020237480F3118810BD000038B5C3693C
:101C000004460D461BB904210844FFF7A5FF2946E9
:101C100004F11400FFF7ACFE002806DA201D4FF493
:101C20000061BDE83840FFF797BF38BD02684368E0
:101C30001143016003B118477047000013B5406BB2
:101C400000F58054D4F8A4381A681178042914D106
:101C5000017C022911D11979012312898B40134289
:101C60000BD101A94C3002F019FAD4F8A44802466D
:101C7000019B2179206800F005FA02B010BD000038
:101C8000143002F09BB900004FF0FF33143002F023
:101C900095B900004C3002F06DBA00004FF0FF33F0
:101CA0004C3002F067BA0000143002F069B900004D
:101CB0004FF0FF31143002F063B900004C3002F0F5
:101CC00039BA00004FF0FF324C3002F033BA000056
:101CD00010B500F58054D4F8A4381A681178042996
:101CE00017D1017C022914D15979012352898B40E3
:101CF00013420ED1143002F0FDF8024648B1D4F878
:101D0000A4484FF4407361792068BDE8104000F0AA
:101D1000A7B910BD406BFFF7DBBF000000290CBF67
:101D20006FF0130000207047704700007FB5124B22
:101D300001250426044603600023057400F1840293
:101D400043602946C0E902330C4B029014300193E2
:101D50004FF44073009602F0A9F8094B04F6944240
:101D6000294604F14C000294CDE900634FF440731E
:101D700002F070F904B070BD844C0008151D000815
:101D80003D1C0008302383F311880B790A680B335C
:101D900042F823004B79133342F823008B7913B1B7
:101DA0000B3342F8230000F58053C3F8A418022334
:101DB0000374002080F311887047000038B5037F5A
:101DC000044613B190F85430ABB90125201D02210F
:101DD000FFF72CFF04F114006FF00101257700F0EC
:101DE000BFFC04F14C0084F854506FF00101BDE8D1
:101DF000384000F0B5BC38BD10B5012104460430B0
:101E0000FFF714FF0023237784F8543010BD00003F
:101E100038B504460025143002F060F804F14C0097
:101E2000257702F02FF9201D84F854500121FFF787
:101E3000FDFE2046BDE83840FFF74ABF90F88030ED
:101E400003F06003202B06D190F881200023212A83
:101E500003D81F2A06D800207047222AFBD1C0E9E8
:101E60001D3303E0034A426707228267C3670120EC
:101E7000704700BF3422002037B500F58055D5F8F3
:101E8000A4381A68117804291AD1017C022917D1C3
:101E90001979012312898B40134211D100F14C04AE
:101EA000204602F0AFF958B101A9204602F0F6F839
:101EB000D5F8A4480246019B2179206800F0E2F899
:101EC00003B030BD2DE9F34104460D4621B301F1C5
:101ED0000B0350F82360FEB1302383F3118800EB2D
:101EE000810706F14C08FB685B691B6833B140460B
:101EF00002F0E2F80821301DFFF798FE01A94046E4
:101F000002F0CCF8024650B1019B2946204600F071
:101F1000B9F8002383F3118802B0BDE8F081FB68B3
:101F20005A69126832B11B8A013B134002D104F195
:101F30008002EAE71021301DFFF778FEE9E7000094
:101F400038B509B3133150F82140ECB1302383F395
:101F5000118804F58053D3F8A4281368527903EB51
:101F60008203DB689B695D6845B104216018FFF757
:101F70005DFE294604F1140001F0C6FF2046FFF77C
:101F8000A7FE002383F3118838BD000070470000CE
:101F900010B50446002101F065FF0021204601F044
:101FA00055FF63681B6813B1062120469847A36854
:101FB00023F00113A3600023A367062384F8703085
:101FC00010BD000001F040BA01234022002110B5ED
:101FD000044600F8303BFFF713F80023C4E901334F
:101FE00010BD000010B53023044683F3118824226D
:101FF000416000210C30FFF703F8204601F046FA5B
:1020000002230020237080F3118810BD70B500EB0F
:102010008103054650690E461446DA6018B1102255
:102020000021FEF7EDFFA06918B110220021FEF794
:10203000E7FF31462846BDE8704001F02FBB0000A5
:1020400083682022002103F0011310B50446836049
:102050001030FEF7D5FF2046BDE8104001F0AABBC6
:10206000F0B4012500EB810447898D40E4683D43CD
:10207000A469458123600023A2606360F0BC01F085
:10208000C7BB0000F0B4012500EB810407898D4037
:10209000E4683D436469058123600023A2606360B6
:1020A000F0BC01F03DBC000070B5022300250446E1
:1020B000242203702946C0F888500C30C56640F8C9
:1020C000045CFEF79DFF204684F8705001F078FA1A
:1020D00063681B6823B129462046BDE87040184755
:1020E00070BD00000378052B10B504460AD080F8B7
:1020F0008C300523037043681B680BB1042198479B
:102100000023A36010BD00000178052906D190F8D6
:102110008C20436802701B6803B1184770470000A9
:1021200070B590F8703004463BB1836823F001131A
:1021300083600023836780F8703004F180020021FF
:10214000204601F05BFB63689B684BB994F88030D4
:1021500013F0600528D02046BDE87040FFF718BF97
:10216000204698470028F1D0B4F88630A26F9A42F2
:1021700088BFA36794F98030A56F002B4FF0300320
:1021800080F20281002D00F0F180092284F8702095
:1021900083F3118800212046D4E91D23FFF772FF45
:1021A000002383F3118870BD94F8812003F07F032E
:1021B00043EA022340F20232934200F0C48021D865
:1021C000B3F5807F47D00DD8012B3ED0022B00F015
:1021D0009280002BBFD104F1880262670222A267BD
:1021E000E367C1E7B3F5817F00F09A80B3F5407FE4
:1021F000B1D194F88230012BADD1B4F8883043F0DE
:10220000020331E0B3F5006F4CD017D8B3F5A06FDF
:1022100030D0A3F5C063012B9DD86368204694F8A5
:1022200082205E6894F88310B4F88430B0470028A8
:1022300091D0436863670368A36719E0B3F5106F33
:1022400035D040F60242934285D15C4B636702234E
:10225000A3670023C4E794F88230012B7FF47BAF9F
:10226000B4F8883023F00203A4F88830C4E91D557F
:10227000E56779E7B4F88030B3F5A06F0ED194F834
:102280008230204684F88A3001F0FAF963681B68CE
:1022900013B1012120469847032323700023C4E98A
:1022A0001D339DE704F18B0363670123C4E72378A3
:1022B000042B10D1302383F311882046FFF7C0FE92
:1022C00085F311880321636884F88B5021701B68A3
:1022D0000BB12046984794F88230002BDED084F86A
:1022E0008B300423237063681B68002BD6D0022137
:1022F00020469847D2E794F8843020461D0603F024
:102300000F010AD501F06CFA012804D002287FF4ED
:1023100022AF2B4B9AE72B4B98E701F053FAF3E7E8
:1023200094F88230002B7FF416AF94F8843013F0C9
:102330000F01B3D01A06204602D501F0ABFDADE780
:1023400001F09CFDAAE794F88230002B7FF403AFE4
:1023500094F8843013F00F01A0D01B06204602D55C
:1023600001F080FD9AE701F071FD97E7142284F8EF
:10237000702083F311882B462A4629462046FFF712
:102380006FFE85F311880EE75DB1152284F8702089
:1023900083F3118800212046D4E91D23FFF760FE56
:1023A000FEE60B2284F8702083F311882B462A4620
:1023B00029462046FFF766FEE3E700BFB44C00085D
:1023C000AC4C0008B04C000838B590F870300446AA
:1023D0000B2B09D80B2B37D8DFE803F0083636363D
:1023E00036360836360D2737152B2DD12046BDE859
:1023F0003840FFF7CDBD856FB0F886309D4214D2CE
:10240000C3681B8AB5FBF3F203FB12556DB9302389
:1024100083F311882B462A462946FFF733FE85F3BE
:1024200011880A2384F870300EE0142384F8703089
:10243000302383F31188002320461A461946FFF7FC
:102440000FFE002383F3118838BDC36F03B1984793
:10245000A36823F00113A3600023A367E2E7000051
:1024600010B590F870300446142B1ED00CD8062BF3
:1024700005D001D81BB110BD0A3B012BFBD820466B
:10248000BDE81040FFF784BD152BF4D10B2380F875
:102490007030302383F3118800231A461946FFF762
:1024A000F1FD002383F31188E5E7C3689B695B684E
:1024B000002BE0D1C36F03B19847A36823F0011349
:1024C000A3600023A36784F87030D4E700238268F8
:1024D000037503691B6899689142FBD25A680360CF
:1024E000426010605860704700238268037503697A
:1024F0001B6899689142FBD85A680360426010607B
:102500005860704708B50846302383F311880A7D68
:102510000023052A06D8DFE802F00B050503120E9A
:10252000826913604FF0FF338361FFF7CFFF002311
:1025300083F3118808BD8269936801339360D0E901
:10254000003213605A60EDE7FFF7C0BF38B50A4BA1
:102550001C68DD682875226853601A600122DC60FF
:10256000A3682275934201D100F016FE2946204649
:10257000BDE83840FDF746BFC82800200C4B30B5F9
:10258000DD684B1C87B004460FD02B46094A6846CD
:1025900000F07AF92046FFF7D9FF009B13B1684697
:1025A00000F07CF9A86907B030BDFFF7CFFFF9E76D
:1025B000C82800200525000870B50F4E044681612B
:1025C000F36881689A68914203D8BDE87040FFF7CC
:1025D0007DBF1846FFF788FF83680546012B01D1B0
:1025E00000F0DCFD012329462046F4602375BDE898
:1025F0007040FDF707BF00BFC8280020044B1A68D1
:10260000DB6890689B68984294BF00200120704767
:10261000C828002038B50B4B1C68DD682268536061
:102620001A600122DC602275AB68934201D100F090
:10263000B5FD2846FFF758FF01462046BDE8384063
:10264000FDF7E0BEC828002038B50123084C00255E
:102650002370656001F012FE01F03CFE054906485A
:1026600001F018FF0223237085F3118838BD00BFE5
:10267000302B0020BC4C0008C828002000F044B9D2
:10268000034A516853685B1A9842FBD8704700BFF1
:10269000001000E08B600223086108468B827047BF
:1026A0008368A3F1840243F8142C026943F8442C94
:1026B000426943F8402C094A43F8242CC268A3F12C
:1026C000200043F8182C022203F80C2C002203F8F7
:1026D0000B2C034A43F8102C704700BF1D04000860
:1026E000C828002008B5FFF7DBFFBDE80840FFF76A
:1026F0002BBF0000024BDB6898610F20FFF726BF5D
:10270000C8280020302383F31188FFF7F3BF0000AF
:1027100008B50146302383F311880820FFF72EFF08
:10272000002383F3118808BD064BDB6839B142688A
:1027300018605A60136043600420FFF71FBF4FF01A
:10274000FF307047C82800200368984206D01A68F6
:102750000260506018469961FFF7F6BE70470000AE
:1027600038B504460D462068844200D138BD036860
:1027700023605C608561FFF7E7FEF4E7036810B54E
:102780009C68A2420CD85C688A600B604C60216037
:10279000596099688A1A9A604FF0FF33836010BDC0
:1027A000121B1B68ECE700000A2938BF0A2170B52C
:1027B00004460D460A26601901F05AFD01F042FD5B
:1027C000041BA54203D8751C04462E46F3E70A2EC7
:1027D00004D90120BDE8704001F09CBE70BD00002E
:1027E000F8B5144B0D460A2A4FF00A07D96103F1D8
:1027F0001001826038BF0A224160196914460160E5
:1028000048601861A81801F023FD01F01BFD431B6F
:102810000646A34206D37C1C28192746354601F0FC
:1028200027FDF2E70A2F04D90120BDE8F84001F0A6
:1028300071BEF8BDC8280020F8B506460D4601F067
:1028400001FD0F4A134653F8107F9F4206D12A46D6
:1028500001463046BDE8F840FFF7C2BFD169BB680A
:10286000441A2C1928BF2C46A34202D92946FFF747
:102870009BFF224631460348BDE8F840FFF77EBF84
:10288000C8280020D8280020C0E90323002310B462
:102890005DF8044B4361FFF7CFBF000010B5194C42
:1028A000236998420DD08168D0E9003213605A60E4
:1028B0009A680A449A60002303604FF0FF33A361D3
:1028C00010BD0268234643F8102F536000220260B7
:1028D00022699A4203D1BDE8104001F0C3BC93685D
:1028E00081680B44936001F0ADFC2269E169926854
:1028F000441AA242E4D91144BDE81040091AFFF776
:1029000053BF00BFC82800202DE9F047DFF8BC8086
:1029100008F110072C4ED8F8105001F093FCD8F8AD
:102920001C40AA68031B9A423ED814444FF0000989
:10293000D5E90032C8F81C4013605A60C5F8009011
:10294000D8F81030B34201D101F08CFC89F3118822
:10295000D5E9033128469847302383F311886B6902
:10296000002BD8D001F06EFC6A69A0EB0409824606
:102970004A450DD2022001F0CDFD0022D8F81030DA
:10298000B34208D151462846BDE8F047FFF728BFBB
:10299000121A2244F2E712EB09092946384638BFD9
:1029A0004A46FFF7EBFEB5E7D8F81030B34208D03F
:1029B0001444C8F81C00211AA960BDE8F047FFF7CD
:1029C000F3BEBDE8F08700BFD8280020C82800204B
:1029D00000207047FEE70000704700004FF0FF3016
:1029E0007047000002290CD0032904D001290748B0
:1029F00018BF00207047032A05D8054800EBC20025
:102A00007047044870470020704700BFA04D000881
:102A100044220020544D000870B59AB0054608467F
:102A2000144601A900F0C2F801A8FEF7E1FA431C20
:102A30000022C6B25B001046C5E9003423700323B0
:102A4000023404F8013C01ABD1B202348E4201D809
:102A50001AB070BD13F8011B013204F8010C04F820
:102A6000021CF1E708B5302383F311880348FFF710
:102A700003FA002383F3118808BD00BF382B002020
:102A800090F8803003F01F02012A07D190F88120CE
:102A90000B2A03D10023C0E91D3315E003F06003C6
:102AA000202B08D1B0F884302BB990F88120212A4E
:102AB00003D81F2A04D8FFF7C1B9222AEBD0FAE7BE
:102AC000034A426707228267C3670120704700BF3D
:102AD0003B22002007B5052917D8DFE801F01916B9
:102AE00003191920302383F31188104A0121019022
:102AF000FFF78CFA019802210D4AFFF787FA0D487B
:102B0000FFF786F9002383F3118803B05DF804FB17
:102B1000302383F311880748FFF750F9F2E7302399
:102B200083F311880348FFF767F9EBE7F44C0008DB
:102B3000184D0008382B002038B50C4D0C4C2A4697
:102B40000C4904F10800FFF767FF05F1CA0204F120
:102B500010000949FFF760FF05F5CA7204F118007B
:102B60000649BDE83840FFF757BF00BF10440020BA
:102B700044220020C84C0008D24C0008E94C000850
:102B800070B5044608460D46FEF732FAC6B2204636
:102B9000013403780BB9184670BD32462946FEF75A
:102BA00013FA0028F3D10120F6E700002DE9F047E1
:102BB00005460C46FEF71CFA2B49C6B22846FFF71D
:102BC000DFFF08B10B36F6B228492846FFF7D8FFD9
:102BD00008B11036F6B2632E0BD8DFF88C80DFF820
:102BE0008C90234FDFF894A02E7846B92670BDE86C
:102BF000F08729462046BDE8F04701F06DBF252E3D
:102C00002ED1072241462846FEF7DEF970B9194B4E
:102C1000224603F1100153F8040B8B4242F8040BD7
:102C2000F9D11B88073512341380DDE708224946A5
:102C30002846FEF7C9F998B9A21C0F4B1978023241
:102C40000909C95D02F8041C13F8011B01F00F010A
:102C50005345C95D02F8031CF0D118340835C3E7A9
:102C6000013504F8016BBFE7C04D0008E94C0008CE
:102C7000DB4D0008C84D000800E8F11F0CE8F11F0B
:102C8000BFF34F8F044B1A695107FCD1D3F81021C1
:102C90005207F8D1704700BF0020005208B50D4B15
:102CA0001B78ABB9FFF7ECFF0B4BDA68D10704D503
:102CB0000A4A5A6002F188325A60D3F80C21D207CE
:102CC00006D5064AC3F8042102F18832C3F804216C
:102CD00008BD00BF6E46002000200052230167455A
:102CE00008B5114B1B78F3B9104B1A69510703D57E
:102CF000DA6842F04002DA60D3F81021520705D5B5
:102D0000D3F80C2142F04002C3F80C21FFF7B8FFC2
:102D1000064BDA6842F00102DA60D3F80C2142F087
:102D20000102C3F80C2108BD6E46002000200052AD
:102D30000F289ABF00F58060400400207047000013
:102D40004FF4003070470000102070470F2808B57E
:102D50000BD8FFF7EDFF00F500330268013204D114
:102D600004308342F9D1012008BD0020FCE70000B7
:102D70000F2838B505463FD8FFF782FF1F4CFFF7F5
:102D80008DFF4FF0FF3307286361C4F814311DD85D
:102D90002361FFF775FF030243F02403E360E36858
:102DA00043F08003E36023695A07FCD42846FFF709
:102DB00067FFFFF7BDFF4FF4003100F0C5F928466B
:102DC000FFF78EFFBDE83840FFF7C0BFC4F81031F1
:102DD000FFF756FFA0F108031B0243F02403C4F8D9
:102DE0000C31D4F80C3143F08003C4F80C31D4F822
:102DF00010315B07FBD4D9E7002038BD002000521A
:102E00002DE9F84F04460D46104644EA0203DE065B
:102E100002D00020BDE8F88F20F01F00DFF8D4B00A
:102E2000DFF8D4A0FFF73AFF05EB0008454503D1D2
:102E30000120FFF755FFEDE720222946204601F04B
:102E40003BFE10B920342035F0E7234604F1200280
:102E50001F68791CDDD104339342F9D104F1784322
:102E60002048214EB3F5801F204B38BF184603F190
:102E7000F80332BFD946D1461E46FFF701FF07606F
:102E8000A4EB050C336805F11C0143F00203336029
:102E90002B1FD9F8007017F00507FAD153F8042F4B
:102EA0008B424CF80320F4D1BFF34F8FFFF7E8FEBD
:102EB0004FF0FF330360336823F002033360BFF346
:102EC0004F8F0B4BC3F85C42BFF34F8FBFF36F8F35
:102ED00020222946204601F0EFFD0028B2D03846D6
:102EE000A7E700BF142100520C200052142000520A
:102EF00000ED00E0102000521021005210B5084CE7
:102F0000237828B11BB9FFF7C9FE0123237010BD38
:102F1000002BFCD02070BDE81040FFF7E1BE00BFE1
:102F20006E4600202DE9F04F0D4685B0814658B120
:102F300011F00D0614BF2022082211F0080301939E
:102F400004D0431E03426AD0002435E0002E37D05F
:102F500009F11F0121F01F094FF00108324F05F060
:102F60000403DFF8D0A005EA080BBBF1000F32D054
:102F70007869C0072FD408F101080C37B8F1060FA3
:102F8000F3D19EB9294D4946A819019201F0C4F91F
:102F9000044600283AD11836019A782EF3D14946D2
:102FA00001F0BAF90446002830D1019A4946204878
:102FB00001F0B2F9044668BB204605B0BDE8F08FC9
:102FC0000029C9D101462846029201F0A5F904461C
:102FD000E0B9029AC0E713B178694107CBD5AC07D5
:102FE00002D578698007C6D5019911B178690107C2
:102FF000C1D51820494600FB08A0CDE9022301F005
:103000008BF90446DDE902230028B4D04A460021AA
:10301000204601E04A460021FDF7F2FFCCE70246D8
:10302000002E95D198E700BFEC4D0008A046002087
:1030300070460020884600200121FFF773BF000082
:10304000F8B500231A461A600433B3F5806FFAD13D
:10305000114D01241827114E07FB046001342A6921
:1030600055F80C1F01F044F9062CF5D137254FF423
:10307000C0542046FFF7E0FF014628B12246084829
:10308000BDE8F84001F034B9C4EBC404013D4FEA97
:10309000D404EED1F8BD00BFEC4D000888460020F6
:1030A0007046002008B101F0B1B970470244074BE7
:1030B000D2B210B5904200D110BD441C00B253F8FA
:1030C000200041F8040BE0B2F4E700BF5040005884
:1030D0000E4B30B51C6F240405D41C6F1C671C6F8D
:1030E00044F400441C670A4C02442368D2B243F4FF
:1030F00080732360074B904200D130BD441C51F8CF
:10310000045B00B243F82050E0B2F4E700440258F8
:10311000004802585040005807B5012201A900207C
:10312000FFF7C4FF019803B05DF804FB13B5044634
:10313000FFF7F2FFA04205D0012201A9002001946F
:10314000FFF7C6FF02B010BD0144BFF34F8F064B1F
:10315000884204D3BFF34F8FBFF36F8F7047C3F81C
:103160005C022030F4E700BF00ED00E0034B1A687A
:103170001AB9034AD2F8D0241A60704718470020C1
:103180000040025808B5FFF7F1FF024B1868C0F382
:10319000806008BD1847002070470000704700009D
:1031A000EFF30983054968334A6B22F001024A6351
:1031B00083F30988002383F31188704700EF00E050
:1031C000302080F3118862B60D4B0E4AD96821F485
:1031D000E0610904090C0A430B49DA60D3F8FC20CA
:1031E00042F08072C3F8FC20084AC2F8B01F116890
:1031F00041F0010111602022DA7783F82200704744
:1032000000ED00E00003FA0555CEACC5001000E06B
:10321000302310B583F311880E4B5B6813F4006301
:1032200014D0F1EE103AEFF309844FF08073683C4C
:10323000E361094BDB6B236684F30988FFF7DEF952
:1032400010B1064BA36110BD054BFBE783F311885A
:10325000F9E700BF00ED00E000EF00E02F040008F8
:103260003204000870B5BFF34F8FBFF36F8F1A4A57
:103270000021C2F85012BFF34F8FBFF36F8F536915
:1032800043F400335361BFF34F8FBFF36F8FC2F826
:103290008410BFF34F8FD2F8803043F6E074C3F34D
:1032A000C900C3F34E335B0103EA0406014646EA54
:1032B00081750139C2F86052F9D2203B13F1200F19
:1032C000F2D1BFF34F8F536943F480335361BFF39F
:1032D0004F8FBFF36F8F70BD00ED00E0FEE7000081
:1032E000214B2248224A70B5904237D3214BC11E50
:1032F000DA1C121A22F003028B4238BF002200218E
:10330000FDF77EFE1C4A0023C2F88430BFF34F8FC6
:10331000D2F8803043F6E074C3F3C900C3F34E33F0
:103320005B0103EA0406014646EA81750139C2F8E9
:103330006C52F9D2203B13F1200FF2D1BFF34F8F23
:10334000BFF36F8FBFF34F8FBFF36F8F0023C2F8B0
:103350005032BFF34F8FBFF36F8F70BD53F8041B14
:1033600040F8041BC0E700BF145000088C48002040
:103370008C4800208C48002000ED00E0074BD3F87B
:10338000D81021EA0001C3F8D810D3F8002122EAAE
:103390000002C3F80021D3F80031704700440258FE
:1033A00070B5D0E9244300224FF0FF359E6804EB4E
:1033B00042135101D3F80009002805DAD3F80009B7
:1033C00040F08040C3F80009D3F8000B002805DA6C
:1033D000D3F8000B40F08040C3F8000B01326318B3
:1033E0009642C3F80859C3F8085BE0D24FF00113C6
:1033F000C4F81C3870BD0000F0B5D0E92463012585
:103400000C309F6800231A4650F8041B59B18C6990
:1034100024B103F1100405FA04F42243496911B1FF
:1034200005FA03F10A4301339F42EDD2C6F81C2886
:10343000F0BD0000890141F02001016103699B0694
:10344000FCD41220FFF71CB910B50A4C2046FEF739
:10345000BBFD094BC4F89030084BC4F89430084CBD
:103460002046FEF7B1FD074BC4F89030064BC4F878
:10347000943010BD1C47002000000840584E000842
:10348000B847002000000440644E000870B503787F
:103490000546012B5CD1434BD0F89040984258D15F
:1034A000414B0E216520D3F8D82042F00062C3F8CA
:1034B000D820D3F8002142F00062C3F80021D3F8ED
:1034C0000021D3F8802042F00062C3F88020D3F8B6
:1034D000802022F00062C3F88020D3F88030FEF70D
:1034E000B3F9324BE360324BC4F800380023D5F80F
:1034F0009060C4F8003EC02323604FF40413A3631C
:103500003369002BFCDA01230C203361FFF7B8F894
:103510003369DB07FCD41220FFF7B2F83369002BC4
:10352000FCDA00262846A660FFF73AFF6B68C4F86D
:103530001068DB68C4F81468C4F81C6883BB1D4BB2
:10354000A3614FF0FF336361A36843F00103A360FD
:1035500070BD194B9842C9D1134B4FF08060D3F81E
:10356000D82042F00072C3F8D820D3F8002142F0EE
:103570000072C3F80021D3F80021D3F8802042F074
:103580000072C3F88020D3F8802022F00072C3F8C4
:103590008020D3F88030FFF7F1FE0E214D209EE70A
:1035A000064BCDE71C470020004402584014004061
:1035B00003002002003C30C0B8470020083C30C067
:1035C000F8B5D0F89040054600214FF0006620463F
:1035D000FFF730FFD5F8941000234FF001128F68E9
:1035E0004FF0FF30C4F83438C4F81C2804EB431201
:1035F00001339F42C2F80069C2F8006BC2F80809A3
:10360000C2F8080BF2D20B68D5F89020C5F89830B4
:10361000636210231361166916F01006FBD11220A5
:10362000FFF72EF8D4F8003823F4FE63C4F800380E
:10363000A36943F4402343F01003A3610123C4F8BA
:1036400010380923C4F814380B4BEB604FF0C0431B
:10365000C4F8103B094BC4F8003BC4F81069C4F827
:103660000039D5F8983003F1100243F48013C5F8FF
:103670009820A362F8BD00BF344E000840800010BF
:10368000D0F8902090F88A10D2F8003823F4FE6326
:1036900043EA0113C2F80038704700002DE9F843EF
:1036A00000EB8103D0F890500C468046DA680FFAA0
:1036B00081F94801166806F00306731E022B05EB1C
:1036C00041134FF0000194BFB604384EC3F8101BED
:1036D0004FF0010104F1100398BF06F1805601FA82
:1036E00003F3916998BF06F5004600293AD0578A3E
:1036F00004F15801374349016F50D5F81C180B43AA
:103700000021C5F81C382B180127C3F81019A74051
:103710005369611E9BB3138A928B9B08012A88BF51
:103720005343D8F89820981842EA034301F1400225
:103730002146C8F89800284605EB82025360FFF73F
:1037400079FE08EB8900C3681B8A43EA8453483436
:103750001E4364012E51D5F81C381F43C5F81C7850
:10376000BDE8F88305EB4917D7F8001B21F40041A9
:10377000C7F8001BD5F81C1821EA0303C0E704F1C1
:103780003F030B4A2846214605EB83035A60FFF7A7
:1037900051FE05EB4910D0F8003923F40043C0F87E
:1037A0000039D5F81C3823EA0707D7E70080001056
:1037B00000040002D0F894201268C0F89820FFF7A7
:1037C000EFBD00005831D0F8903049015B5813F438
:1037D000004004D013F4001F0CBF022001207047EA
:1037E0004831D0F8903049015B5813F4004004D0C0
:1037F00013F4001F0CBF02200120704700EB810171
:10380000CB68196A0B6813604B68536070470000FF
:1038100000EB810330B5DD68AA691368D36019B97C
:10382000402B84BF402313606B8A1468D0F890202B
:103830001C4402EB4110013C09B2B4FBF3F46343B6
:10384000033323F0030343EAC44343F0C043C0F807
:10385000103B2B6803F00303012B0ED1D2F808387C
:1038600002EB411013F4807FD0F8003B14BF43F00B
:10387000805343F00053C0F8003B02EB4112D2F8F2
:10388000003B43F00443C2F8003B30BD2DE9F0415A
:10389000D0F8906005460C4606EB4113D3F8087B40
:1038A0003A07C3F8087B08D5D6F814381B0704D5A7
:1038B00000EB8103DB685B689847FA071FD5D6F8F1
:1038C0001438DB071BD505EB8403D968CCB98B69A9
:1038D000488A5A68B2FBF0F600FB16228AB91868CB
:1038E000DA6890420DD2121AC3E90024302383F320
:1038F000118821462846FFF78BFF84F31188BDE825
:10390000F081012303FA04F26B8923EA02036B813D
:10391000CB68002BF3D021462846BDE8F04118477C
:1039200000EB81034A0170B5DD68D0F890306C6916
:103930002668E66056BB1A444FF40020C2F810090E
:103940002A6802F00302012A0AB20ED1D3F808084D
:1039500003EB421410F4807FD4F8000914BF40F048
:10396000805040F00050C4F8000903EB4212D2F836
:10397000000940F00440C2F800090122D3F83408DD
:1039800002FA01F10143C3F8341870BD19B9402E91
:1039900084BF4020206020681A442E8A8419013C8C
:1039A000B4FBF6F440EAC44040F00050C6E7000023
:1039B0002DE9F84FD0F8906005460C464F0106EB14
:1039C0004113D3F8088918F0010FC3F808891CD0F7
:1039D000D6F81038DB0718D500EB8103D3F80CC0FC
:1039E000DCF81430D3F800E0DA68964533D2A2EB65
:1039F0000E024FF000091A60C3F80490302383F3DD
:103A00001188FFF78DFF89F3118818F0800F20D0FF
:103A1000D6F834380126A64033421AD005EB840389
:103A20000134D5F890506FF00308D3F80CC0E4B21D
:103A30002F44DCF8140005EB0434D0F800E0D0F893
:103A40000490F14514D3D5F8343823EA0606C5F8B6
:103A50003468BDE8F88F012303FA01F2038923EAF1
:103A600002030381DCF80830002BCED09847CCE766
:103A7000AEEB0903BCF81020934228BF1346D7F8D9
:103A8000182992B2B3EB820FE3D88268194602EB91
:103A9000030B0329ABEB010A1CD84FEA930A23F06E
:103AA000030B08FB0A31934479B1022918D003298A
:103AB00018D19BF8021009049BF801B041EA0B21D0
:103AC00012F82AA04AEA010121601A444B4482609C
:103AD0004360B4E7DAF800A00439C4F800A0D8E7DE
:103AE0000021E9E70021EBE72DE9F74F0446D0F884
:103AF00090504FF040094FF0010A6F69AB691F40C9
:103B000017F480586F6105D0204603B0BDE8F04F30
:103B1000FEF7CABA002F15DAD5F8003E9E0705D089
:103B2000D5F8003E23F00303C5F8003E2046FFF71A
:103B300063FCD5F80438204623F00103C5F80438A7
:103B4000FEF7E2FA380505D52046FFF729FC2046A6
:103B5000FEF7C8FAB9040CD5D5F8083813F0060FEB
:103B6000EB6823F470530CBF43F4105343F4A05399
:103B7000EB603A071AD56368DB681BB9AB6923F0C1
:103B80000803AB612378052B08D1D5F8003E204609
:103B900023F00303C5F8003EFEF7B6FA2046FFF710
:103BA0002BFC6368DB680BB120469847FB026ED4A0
:103BB000BE0209D5D4F890200026D4F89430F1B292
:103BC0009B68994240F29B803803D5F8186800F151
:103BD000B4807A0335D5F30703D500212046FFF7DB
:103BE000E7FEB00703D501212046FFF7E1FE71078C
:103BF00003D502212046FFF7DBFE320703D5032160
:103C00002046FFF7D5FEF30603D504212046FFF733
:103C1000CFFEB00603D505212046FFF7C9FE710689
:103C200003D506212046FFF7C3FE320603D5072140
:103C30002046FFF7BDFEF30503D508212046FFF718
:103C4000B7FEFE0619D5D4F89060336AC3F30A12A2
:103C500003F00F0003F4F013B3F5802F00F0B280EF
:103C6000B3F5402F09D104EB8000002106F5805602
:103C7000C3681B6A8A4240F09880694B1F4203D098
:103C8000B9F101097FF439AF03B0BDE8F08FD4F882
:103C900090604FF0000BD4F894205FFA8BF192689B
:103CA000914285D806EB4112D2F8000900F4402079
:103CB000B0F5802F20D1D2F8000900281CDAD2F804
:103CC000000940F09040C2F80009D2F8000900282D
:103CD000FBDBD4F890000191FFF7ACFB0199208940
:103CE0000AFA01F220EA0202228104EB8102D26880
:103CF00092680AB1204690470BF1010BCBE702EB2B
:103D00004110D0F8003B03F44023B3F5802F12D1CB
:103D1000D0F8003B002B0EDA60890AFA01F320EAA2
:103D20000303638104EB8103DB68DB681BB120467E
:103D300001929847019A01363FE7F10303D500212C
:103D40002046FFF7A3FDB20303D501212046FFF76C
:103D50009DFD730303D502212046FFF797FD300335
:103D600003D503212046FFF791FDF10203D504217D
:103D70002046FFF78BFDB20203D505212046FFF751
:103D800085FD730203D506212046FFF77FFD300233
:103D900003D507212046FFF779FDF1017FF519AF23
:103DA00008212046FFF772FD13E7880701D1D6F8F6
:103DB0000080072901F101019CBF03F8018B4FEA44
:103DC000182857E704EB800E4FF0000C06F58056DC
:103DD000DEF80C309969D1E900038968C31A62459D
:103DE00010D1DEF80C1093428869D0E901168BBF20
:103DF000B618F61852185B1887BF86604260866056
:103E000043603AE71CF0030F01D1D6F80080634508
:103E10000CF1010C84BF01F8018B4FEA1828DEE792
:103E20003000000408B50348FFF75EFEBDE8084017
:103E3000FFF7EEB91C47002008B50348FFF754FE12
:103E4000BDE80840FFF7E4B9B8470020D0F890304B
:103E500003EB4111D1F8003B43F40013C1F8003BE0
:103E600070470000D0F8903003EB4111D1F80039D1
:103E700043F40013C1F8003970470000D0F89030C7
:103E800003EB4111D1F8003B23F40013C1F8003BD0
:103E900070470000D0F8903003EB4111D1F80039A1
:103EA00023F40013C1F800397047000030B5043323
:103EB000039C0172002103FB0425C160C0E9065385
:103EC000049B0363059BC0E90000C0E90422C0E92C
:103ED0000842C0E90A11436330BD00000022416A74
:103EE000C260C0E90411C0E90A226FF00101FEF7C7
:103EF00037BC0000D0E90432934201D1C2680AB94C
:103F0000181D704700207047036919600021C268BE
:103F10000132C260C269134482699342036124BFC3
:103F2000436A0361FEF710BC38B504460D46E368EA
:103F30003BB162690020131D1268A3621344E3625F
:103F400007E0237A33B929462046FEF7EDFB002827
:103F5000EDDA38BD6FF00100FBE70000C368C2690D
:103F6000013BC3604369134482699342436124BFA8
:103F7000436A436100238362036B03B118477047B0
:103F800070B53023044683F31188866A3EB9FFF783
:103F9000CBFF054618B186F31188284670BDA36A89
:103FA000E26A13F8015B9342A36202D32046FFF753
:103FB000D5FF002383F31188EFE700002DE9F84FC8
:103FC00004460E46174698464FF0300989F311888B
:103FD0000025AA46D4F828B0BBF1000F09D141460C
:103FE0002046FFF7A1FF20B18BF311882846BDE8DA
:103FF000F88FD4E90A12A7EB050B521A934528BF94
:104000009346BBF1400F1BD9334601F1400251F8F2
:10401000040B914243F8040BF9D1A36A40364035B2
:104020004033A362D4E90A239A4202D32046FFF721
:1040300095FF8AF31188BD42D8D289F31188C9E768
:1040400030465A46FCF7B6FFA36A5E445D445B44C3
:10405000A362E7E710B5029C0433017203FB04215D
:10406000C460C0E906130023C0E90A33039B03635D
:10407000049BC0E90000C0E90422C0E90842436390
:1040800010BD0000026A6FF00101C260426AC0E91F
:1040900004220022C0E90A22FEF762BBD0E9042311
:1040A0009A4201D1C26822B9184650F8043B0B600D
:1040B000704700231846FAE7C3680021C26901333C
:1040C000C3604369134482699342436124BF436AD6
:1040D0004361FEF739BB000038B504460D46E3687E
:1040E0003BB1236900201A1DA262E2691344E36216
:1040F00007E0237A33B929462046FEF715FB00284E
:10410000EDDA38BD6FF00100FBE7000003691960CC
:10411000C268013AC260C269134482699342036172
:1041200024BF436A036100238362036B03B1184712
:104130007047000070B530230D460446114683F3E6
:104140001188866A2EB9FFF7C7FF10B186F3118870
:1041500070BDA36A1D70A36AE26A01339342A36231
:1041600004D3E16920460439FFF7D0FF002080F333
:104170001188EDE72DE9F84F04460D469046994623
:104180004FF0300A8AF311880026B346A76A4FB968
:1041900049462046FFF7A0FF20B187F3118830463B
:1041A000BDE8F88FD4E90A073A1AA8EB0607974248
:1041B00028BF1746402F1BD905F1400355F8042BA3
:1041C0009D4240F8042BF9D1A36A40364033A362E4
:1041D000D4E90A239A4204D3E16920460439FFF75F
:1041E00095FF8BF311884645D9D28AF31188CDE724
:1041F00029463A46FCF7DEFEA36A3D443E443B4472
:10420000A362E5E7D0E904239A4217D1C3689BB1C2
:10421000836A8BB1043B9B1A0ED01360C368013BC9
:10422000C360C3691A4483699A42026124BF436A26
:104230000361002383620123184670470023FBE7D4
:1042400000F06CBA014B586A704700BF000C004088
:10425000034B002258631A610222DA60704700BFE4
:10426000000C0040014B0022DA607047000C004057
:10427000014B5863704700BF000C0040024B034ADB
:104280001A60034A5A6070476C480020904800202A
:1042900000000220094B70B5D3E90054661BB04200
:1042A00009D8201A49420840821A954203D89442FC
:1042B00001D35A6070BD0020FCE700BF6C480020AD
:1042C00008B5302383F31188FFF7E4FF002383F35D
:1042D000118808BD04480121044B03600023C0E994
:1042E00001330C3000F01EB974480020C1420008B0
:1042F000CB1D083A23F00703591A521A012110B4B2
:10430000D2080024C0E9004384600C301C605A606D
:104310005DF8044B00F006B92DE9F84FCC1D3A4E7C
:104320000D4624F00703002818BF0646994203D91A
:1043300000242046BDE8F88F082A06F10C084FEA51
:10434000D40438BF08224046174600F007F9331D51
:1043500007F1070EC7F100099C461B687BB9404670
:1043600000F006F93368002BE2D0E000082239465D
:10437000984704460028DCD040E90265D9E703EB02
:104380000E01D3F804A001EA09010AF10102A1F12A
:10439000080003EBC2028242DED9511AB4EBE10FEE
:1043A0004FEAE10BD8D883421AD203F10802A345A1
:1043B000A0EB02024FEAE2025A6009D9611CE44311
:1043C00000EBC1025C4454601C6840F831401A6044
:1043D00004464560404644F8086B00F0C9F8A8E779
:1043E000A245186803D1CCF800001846F0E7013464
:1043F00003EBC40143F8340001F10800121AD21093
:104400004A60CCF80010F0E774480020F8B550F886
:10441000043C044650F8085CA0F1080607332F1D41
:104420000C35DB0840F8043C284600F097F83B4682
:104430009F421A6801D0B34228D20AB1964225D2CF
:1044400044F8082C54F8042C1E60013254F8081C5F
:1044500006EBC200814206D14868024444F8042CAD
:104460000A6844F8082C5868411C03EBC1018E42CD
:1044700007D154F8042C013202445A6054F8082C35
:104480001A602846BDE8F84000F072B81346CFE73E
:10449000FEE7000070B51B4B0025044686B058604F
:1044A0000E4685620163FEF78BFE04F11003A560E2
:1044B000E562C4E904334FF0FF33C4E90044C4E9C2
:1044C0000635FFF7BFFE2B46024604F134012046B5
:1044D000C4E9082380230C4A2565FEF7DBF8012395
:1044E0000A4AE06000920375684672680192B268F9
:1044F000CDE90223064BCDE90435FEF7F3F806B00B
:1045000070BD00BF302B0020704E0008754E0008B3
:1045100091440008024AD36A1843D062704700BF32
:10452000C8280020C0E90000816070478368013B13
:10453000002B10B583600CDA074BDC684368A06180
:10454000206063601C6044600520FDF7FFFFA069E8
:1045500010BD0020FCE700BFC828002008B53023AC
:1045600083F31188FFF7E2FF002383F3118808BD6E
:1045700008B5302383F3118883680133002B8360EF
:1045800007DC036800211A68026050601846FEF7D5
:1045900013F8002383F3118808BD00004B684360C3
:1045A0008B688360CB68C3600B6943614B690362AE
:1045B0008B6943620B6803607047000008B53C4B91
:1045C00040F2FF713B48D3F888200A43C3F88820A3
:1045D000D3F8882022F4FF6222F00702C3F8882073
:1045E000D3F88820D3F8E0200A43C3F8E020D3F8BA
:1045F00008210A43C3F808212F4AD3F8083111468D
:10460000FFF7CCFF00F5806002F11C01FFF7C6FF49
:1046100000F5806002F13801FFF7C0FF00F580600F
:1046200002F15401FFF7BAFF00F5806002F170015A
:10463000FFF7B4FF00F5806002F18C01FFF7AEFFD9
:1046400000F5806002F1A801FFF7A8FF00F5806087
:1046500002F1C401FFF7A2FF00F5806002F1E00162
:10466000FFF79CFF00F5806002F1FC01FFF796FF69
:1046700002F58C7100F58060FFF790FF00F01AF9E9
:104680000E4BD3F8902242F00102C3F89022D3F8E7
:10469000942242F00102C3F894220522C3F8982024
:1046A0004FF06052C3F89C20054AC3F8A02008BD13
:1046B00000440258000002587C4E000800ED00E063
:1046C0001F00080308B500F0E3F9FDF7BDFF104B2C
:1046D000D3F8DC2042F04002C3F8DC20D3F80421F8
:1046E00022F04002C3F80421D3F80431094B1A68C0
:1046F00042F008021A601A6842F004021A60FEF7DB
:1047000035FDFEF79DFCBDE80840FEF715BA00BF79
:10471000004402580018024870470000114BD3F8BB
:10472000E82042F00802C3F8E820D3F8102142F054
:104730000802C3F810210C4AD3F81031D36B43F0B0
:104740000803D363C722094B9A624FF0FF32DA6243
:1047500000229A615A63DA605A6001225A611A6033
:10476000704700BF004402580010005C000C00407D
:10477000094A08B51169D3680B40D9B29B076FEAA3
:104780000101116107D5302383F31188FDF776FF0E
:10479000002383F3118808BD000C0040064BD3F8BA
:1047A000DC200243C3F8DC20D3F804211043C3F813
:1047B0000401D3F8043170470044025808B53C4B5B
:1047C0004FF0FF31D3F8802062F00042C3F8802020
:1047D000D3F8802002F00042C3F88020D3F8802074
:1047E000D3F88420C3F88410D3F884200022C3F8BF
:1047F0008420D3F88400D86F40F0FF4040F4FF00DD
:1048000040F4DF4040F07F00D867D86F20F0FF40D1
:1048100020F4FF0020F4DF4020F07F00D867D86F3D
:10482000D3F888006FEA40506FEA5050C3F8880010
:10483000D3F88800C0F30A00C3F88800D3F88800D2
:10484000D3F89000C3F89010D3F89000C3F89020EC
:10485000D3F89000D3F89400C3F89410D3F89400E0
:10486000C3F89420D3F89400D3F89800C3F89810B4
:10487000D3F89800C3F89820D3F89800D3F88C00A8
:10488000C3F88C10D3F88C00C3F88C20D3F88C00BC
:10489000D3F89C00C3F89C10D3F89C10C3F89C205C
:1048A000D3F89C30FCF7E4FDBDE8084000F0E0B828
:1048B0000044025808B5554BD3F8F42042F00202E8
:1048C000C3F8F420D3F81C2142F00202C3F81C21E3
:1048D0000222D3F81C314E4BDA605A689104FCD5A1
:1048E0004C4A4FF440411A6001229A604A4ADA6009
:1048F00000221A619961494BDA6203F511339A6912
:104900009204FCD51A6842F480721A603F4B1A6F09
:1049100012F4407F04D04FF480321A6700221A67E5
:104920001A6842F001021A60384B1A685007FCD529
:1049300000221A611A6912F03802FBD101211960B4
:104940004FF0804159604FF00051D9605A67344AA6
:10495000DA62344A1A611A6842F480321A602B4BC8
:104960001A689103FCD51A6842F480521A601A68DA
:104970009204FCD52C4A2D499A6200225A6319638D
:1049800001F57C01DA6301F2E71199635A64284A60
:104990001A64284ADA621A6842F0A8521A601B4B5D
:1049A0001A6802F02852B2F1285FF9D148229A61C0
:1049B0004FF48862DA6140221A621F4ADA641F4AA1
:1049C0001A651F4A5A651F4A9A6532231E4A1360A8
:1049D000136803F00F03022BFAD10C4A136943F05A
:1049E00003031361136903F03803182BFAD14FF056
:1049F0000050FFF7D3FE4FF08040FFF7CFFE4FF09F
:104A00000040BDE80840FFF7C9BE00BF004402589F
:104A10000048025800C000F00200000100040058E5
:104A20000000FF01008890081210200063020901B5
:104A3000470E0508DD0BBF0120000020000001101B
:104A40000910E000000101100020005208B50348E1
:104A5000FCF776FEBDE80840FEF7DABB5C240020D8
:104A600008B5FFF785FEBDE80840FEF7D1BB0000A2
:104A700008B509217A20FCF7E7FE07213220FCF770
:104A8000E3FE0C215220BDE80840FCF7DDBE00002B
:104A900008B5FFF793FE00F00DF8FDF793F8FDF76A
:104AA00091FAFDF741F9FFF737FEBDE80840FFF73F
:104AB000C7BB00007047000010B5013902449042A6
:104AC00001D1002005E0037811F8014FA34201D085
:104AD000181B10BD0130F2E7034611F8012B03F853
:104AE000012B002AF9D1704764386639353063618B
:104AF00033396534393739380000000012100000AE
:104B0000121100001213000053544D333248373F46
:104B10003F3F0053544D3332483733782F37327884
:104B20000053544D3332483734332F3735332F3712
:104B30003530000001105A000310590001205800C0
:104B40000320560010000240080002400008024006
:104B500000000B0028000240080002400408024048
:104B600006010C0040000240080002400808024014
:104B700010020D0058000240080002400C080240DC
:104B800016030E00700002400C00024010080240A4
:104B900000040F00880002400C000240140802408C
:104BA00006051000A00002400C0002401808024058
:104BB00010061100B80002400C0002401C08024020
:104BC00016072F001004024008040240200802408B
:104BD000000838002804024008040240240802406B
:104BE0000609390040040240080402402808024037
:104BF000100A3A0058040240080402402C080240FF
:104C0000160B3B00700402400C04024030080240C6
:104C1000000C3C00880402400C04024034080240AE
:104C2000060D4400A00402400C0402403808024073
:104C3000100E4500B80402400C0402403C0802403B
:104C4000160F460000960000000000000000000063
:104C50000000000000000000000000000000000054
:104C6000851B0008711B0008AD1B0008991B00087C
:104C7000A51B0008911B00087D1B0008691B00088C
:104C8000B91B0008000000009D1C0008891C0008DA
:104C9000C51C0008B11C0008BD1C0008A91C0008A8
:104CA000951C0008811C00081D1D00080000000064
:104CB000010000000000000063300000B84C000854
:104CC00020290020302B00204172647550696C6FE0
:104CD0007400466C79696E675243204837576C6997
:104CE000746520563220424C002553455249414CB0
:104CF000250000000200000000000000C51E0008A2
:104D0000411F000840004000E0430020F043002025
:104D1000020000000000000003000000000000008E
:104D20008D1F00080000000010000000004400205B
:104D30000000000001000000000000001C470020EF
:104D400001010200D52A0008E5290008812A00088F
:104D5000652A0008430000005C4D0008090243007A
:104D6000020100C032090400000102020100052412
:104D7000001001052401000104240202052406009C
:104D800001070582030800FF09040100020A000070
:104D900000070501024000000705810240000000F5
:104DA00012000000A84D000812011001020000408E
:104DB0000912415700020102030100000403090423
:104DC00025424F4152442500466C79696E67524333
:104DD0005F4837576C69746556320030313233346E
:104DE00035363738394142434445460000000020FB
:104DF000000002000200000000000030000004007B
:104E0000080000000000002400000800040000006A
:104E10000004000000FC000002000000000004305C
:104E200000800000080000000000003800000100C1
:104E3000010000000000000021210008C923000833
:104E400061240008400040005448002054480020DD
:104E500001000000644800208000000040010000C4
:104E60000800000000010000001000000800000021
:104E70006D61696E0069646C650000000000802A45
:104E800000000000AAAAAAAA00000024FFFF000058
:104E90000000000000A00A00000000010000000067
:104EA000AAAAAAAA00000001FFFF0000000000005B
:104EB000000000000000004400000000AAAAAAAA06
:104EC00000000044FFFF00000000000000000000A0
:104ED0000001100000000000AAAAAAAA0001000018
:104EE000FFFB0000000000000000000050804200B6
:104EF00000000000AAAAAAAA10404100F7FF000083
:104F0000000000700700000000000000000000002A
:104F1000AAAAAAAA00000000FFFF000000000000EB
:104F2000000000000000000000000000AAAAAAAAD9
:104F300000000000FFFF0000000000000000000073
:104F40000000000000000000AAAAAAAA00000000B9
:104F5000FFFF000000000000000000000000000053
:104F600000000000AAAAAAAA00000000FFFF00009B
:104F70000000000000000000000000000000000031
:104F8000AAAAAAAA00000000FFFF0000000000007B
:104F9000000000000000000000000000AAAAAAAA69
:104FA00000000000FFFF0000000000000000000003
:104FB000C40400000000000000001A00000000000F
:104FC000FF000000382B00205C24002000000000BF
:104FD000084B000883040000134B00085004000035
:104FE000214B000800960000000008009600000019
:104FF0000008000004000000BC4D00080000000094
:1050000000000000000000000000000000000000A0
:1050100000000000FFFFFFFFFFFFFFFFFFFFFFFF9C
:10502000FFFFFFFFFFFFFFFFFFFFFFFFFFFFFFFF90
:10503000FFFFFFFFFFFFFFFFFFFFFFFFFFFFFFFF80
:10504000FFFFFFFFFFFFFFFFFFFFFFFFFFFFFFFF70
:10505000FFFFFFFFFFFFFFFFFFFFFFFFFFFFFFFF60
:020000040801F1
:020000040802F0
:1000000000060030D90D0208C5740D0871030208FE
:100010004D740D0845740D0849740D08DB0D020878
:10002000DB0D0208DB0D0208DB0D0208D1CC120843
:10003000DB0D0208DB0D0208DB0D0208DB0D0208F8
:10004000DB0D0208DB0D0208DB0D0208DB0D0208E8
:10005000DB0D0208DB0D0208E14513080D4613080D
:1000600039461308654613089146130889DA1208C1
:10007000B1DA1208DDDA120809DB120835DB1208E2
:100080005DDB120889DB1208ADD6120835640D0855
:10009000DB0D020845640D08DB0D0208BD461308A0
:1000A000DB0D020835481308DB0D02084948130828
:1000B0004D481308614813087548130819E31208DE
:1000C00049E3120879E31208A9E31208D5EC1208F3
:1000D000EDEC1208A9471308BD471308D1471308D0
:1000E00021471308DB0D0208DB0D02089D481308A9
:1000F000AD481308C1481308C5481308B5DB1208FA
:10010000DB0D0208954713088948130805ED12080E
:10011000E5471308DB0D0208DB0D0208DB0D0208C2
:10012000E1DB120809DC120835DC120861DC120878
:100130008DDC1208DB0D0208DB0D0208DB0D020866
:10014000DB0D0208DB0D0208DB0D0208DB0D0208E7
:10015000B5DC1208E1DC12080DDD1208F9471308BE
:10016000DB0D0208DB0D0208DB0D0208DB0D0208C7
:10017000DB0D02083D421308DB0D0208DB0D02080F
:10018000DB0D0208DB0D02080D4813082148130897
:100190001DED1208DB0D0208DB0D0208DB0D020865
:1001A000DB0D0208DB0D0208DB0D0208DB0D020887
:1001B000DB0D0208DB0D0208DB0D0208DB0D020877
:1001C000DB0D0208DB0D0208DB0D0208DB0D020867
:1001D000DB0D020829421308DB0D0208DB0D0208C3
:1001E000DB0D0208DB0D0208DB0D0208DB0D020847
:1001F000DB0D0208DB0D0208DB0D0208DB0D020837
:10020000DB0D0208DB0D0208DB0D0208DB0D020826
:10021000DB0D0208DB0D0208DB0D0208DB0D020816
:10022000DB0D0208DB0D0208DB0D0208DB0D020806
:10023000DB0D0208DB0D0208DB0D0208CDD612082B
:10024000DB0D020855D812087DD81208A9D812086B
:10025000D5D8120801D912082DD9120859D9120877
:1002600085D91208DB0D0208DB0D0208DB0D020840
:10027000DB0D0208DB0D0208DB0D0208DB0D0208B6
:10028000DB0D0208DB0D0208DB0D0208DB0D0208A6
:10029000DB0D0208DB0D0208DB0D0208DB0D020896
:1002A000DB0D0208DB0D0208DB0D0208DB0D020886
:1002B000DB0D0208DB0D0208DB0D0208DB0D020876
:1002C000DB0D0208DB0D0208DB0D0208DB0D020866
:1002D000DB0D0208DB0D0208DB0D0208DB0D020856
:1002E000715002081560030851A10308E91F0408B2
:1002F000CD7E0508C5A1070811A8070859360808CA
:100300002D9E08089DA70808EDAA08088D33090846
:10031000053A0908155E0908BD68090871FB090856
:10032000E5D90A0889660B086D730B08E9660D08A4
:10033000E16B0D0829890D0839000F080D400F08E1
:100340005D9E0F08DDD00F080D4711084D611108A3
:10035000499E110871BC110849E31108EDEE11081E
:10036000E9231208092A1208FFFFFFFFFFFFFFFF22
:10037000EFF30383EFF30982EFF30881DFF814D082
:100380002DE9FE4F684600F0F1FFBDE8FE4F8D46B7
:10039000704700006C2E0030F1EE101AA0EC200A1D
:1003A00001607047A0EC108A704700BF81F00041E7
:1003B00002E000BF83F0004330B54FEA41044FEA4A
:1003C000430594EA050F08BF90EA020F1FBF54EAE5
:1003D000000C55EA020C7FEA645C7FEA655C00F081
:1003E000E2804FEA5454D4EB5555B8BF6D420CDD52
:1003F0002C4480EA020281EA030382EA000083EAD5
:10040000010180EA020281EA0303362D88BF30BD74
:1004100011F0004F4FEA01314FF4801C4CEA1131CA
:1004200002D0404261EB410113F0004F4FEA033329
:100430004CEA133302D0524263EB430394EA050FB4
:1004400000F0A780A4F10104D5F1200E0DDB02FA23
:100450000EFC22FA05F2801841F1000103FA0EF2B7
:10046000801843FA05F359410EE0A5F120050EF17D
:10047000200E012A03FA0EFC28BF4CF0020C43FAAE
:1004800005F3C01851EBE37101F0004507D54FF0BB
:10049000000EDCF1000C7EEB00006EEB0101B1F50B
:1004A000801F1BD3B1F5001F0CD349085FEA300051
:1004B0004FEA3C0C04F101044FEA445212F5800F5C
:1004C00080F09A80BCF1004F08BF5FEA500C50F1F9
:1004D000000041EB045141EA050130BD5FEA4C0CDC
:1004E000404141EB0101013C28BFB1F5801FE9D239
:1004F00091F0000F04BF01460020B1FA81F308BF5C
:100500002033A3F10B03B3F120020CDA0C3208DD27
:1005100002F1140CC2F10C0201FA0CF021FA02F102
:100520000CE002F11402D8BFC2F1200C01FA02F172
:1005300020FA0CFCDCBF41EA0C019040E41AA2BF97
:1005400001EB0451294330BD6FEA04041F3C1CDA5F
:100550000C340EDC04F11404C4F1200220FA04F07F
:1005600001FA02F340EA030021FA04F345EA030129
:1005700030BDC4F10C04C4F1200220FA02F001FAEB
:1005800004F340EA0300294630BD21FA04F029466D
:1005900030BD94F0000F83F4801306BF81F4801106
:1005A0000134013D4EE77FEA645C18BF7FEA655C79
:1005B00029D094EA050F08BF90EA020F05D054EA4B
:1005C000000C04BF1946104630BD91EA030F1EBF50
:1005D0000021002030BD5FEA545C05D14000494154
:1005E00028BF41F0004130BD14F580043CBF01F547
:1005F000801130BD01F0004545F0FE4141F470012D
:100600004FF0000030BD7FEA645C1ABF1946104607
:100610007FEA655C1CBF0B46024650EA013406BF08
:1006200052EA033591EA030F41F4002130BD00BFC7
:1006300090F0000F04BF0021704730B54FF4806484
:1006400004F132044FF000054FF0000150E700BF05
:1006500090F0000F04BF0021704730B54FF4806464
:1006600004F1320410F0004548BF40424FF0000151
:100670003EE700BF42004FEAE2014FEA31014FEA94
:1006800002701FBF12F07F4393F07F4F81F06051E3
:10069000704732F07F4208BF704793F07F4F04BF2E
:1006A00041F40021704730B54FF4607401F000450B
:1006B00021F000411CE700BF50EA010208BF70476B
:1006C00030B54FF000050AE050EA010208BF70475C
:1006D00030B511F0004502D5404261EB41014FF4C5
:1006E000806404F132045FEA915C3FF4D8AE4FF0CD
:1006F00003025FEADC0C18BF03325FEADC0C18BFB0
:10070000033202EBDC02C2F1200300FA03FC20FA00
:1007100002F001FA03FE40EA0E0021FA02F114444D
:10072000BDE600BF80F0004002E000BF81F0004164
:1007300042001FBF5FEA410392EA030F7FEA226C87
:100740007FEA236C6AD04FEA1262D2EB1363C1BF17
:10075000D218414048404140B8BF5B42192B88BF86
:10076000704710F0004F40F4000020F07F4018BFA9
:10077000404211F0004F41F4000121F07F4118BFC9
:10078000494292EA030F3FD0A2F1010241FA03FC71
:1007900010EB0C00C3F1200301FA03F100F0004359
:1007A00002D5494260EB4000B0F5000F13D3B0F121
:1007B000807F06D340084FEA310102F10102FE2A90
:1007C00051D2B1F1004F40EBC25008BF20F0010000
:1007D00040EA03007047490040EB0000013A28BF9F
:1007E000B0F5000FEDD2B0FA80FCACF1080CB2EB22
:1007F0000C0200FA0CF0AABF00EBC25052421843A0
:10080000BCBFD0401843704792F0000F81F4000144
:1008100006BF80F400000132013BB5E74FEA410317
:100820007FEA226C18BF7FEA236C21D092EA030F83
:1008300004D092F0000F08BF0846704790EA010FFD
:100840001CBF0020704712F07F4F04D1400028BF2A
:1008500040F00040704712F100723CBF00F500000C
:10086000704700F0004343F0FE4040F40000704742
:100870007FEA226216BF08467FEA236301464202EE
:1008800006BF5FEA412390EA010F40F48000704701
:100890004FF0000304E000BF10F0004348BF4042A7
:1008A0005FEA000C08BF704743F0964301464FF0E3
:1008B00000001CE050EA010208BF70474FF000033F
:1008C0000AE000BF50EA010208BF704711F0004380
:1008D00002D5404261EB41015FEA010C02BF844650
:1008E0000146002043F0B64308BFA3F18053A3F5AF
:1008F0000003BCFA8CF2083AA3EBC25310DB01FAF6
:1009000002FC634400FA02FCC2F12002BCF1004F79
:1009100020FA02F243EB020008BF20F0010070470A
:1009200002F1200201FA02FCC2F1200250EA4C005E
:1009300021FA02F243EB020008BF20EADC707047A4
:100940007BB972B90029BEBF00204FF0004106E01C
:1009500008BF00281CBF6FF000414FF0FF3000F0CF
:1009600039BAADF1080C6DE904CE002909DB002B82
:100970001ADB00F0C7F8DDF804E0DDE9022304B07B
:100980007047404261EB4101002B1BDB00F0BAF8DD
:10099000DDF804E0DDE9022304B0404261EB4101EF
:1009A000524263EB43037047524263EB430300F050
:1009B000A9F8DDF804E0DDE9022304B0404261EB70
:1009C00041017047524263EB430300F09BF8DDF8AE
:1009D00004E0DDE9022304B0524263EB43037047B5
:1009E00053B94AB9002908BF00281CBF4FF0FF3196
:1009F0004FF0FF3000F0EEB9ADF1080C6DE904CE18
:100A000000F080F8DDF804E0DDE9022304B070476F
:100A100030B1012390FAA0F0B0FA80F0184470478A
:100A200008460029FBD02123F4E700BF430803F068
:100A30005533C01A830803F0333300F033301844C1
:100A400000EB101000F00F3000EB002000EB004036
:100A5000000E704708B502460B4643EC172BB5EE67
:100A6000C07BF1EE10FA03D4BDE8084000F02AB8CC
