:020000040800F2
:1000000000060020E1010008E3010008E301000808
:10001000E3010008E3010008E3010008E301000830
:10002000E3010008E3010008E3010008D9350008F6
:10003000E3010008E3010008E3010008E301000810
:10004000E3010008E3010008E3010008E301000800
:10005000E3010008E3010008E3010008E3010008F0
:10006000E3010008E3010008E3010008E3010008E0
:10007000E3010008E3010008E3010008E3010008D0
:10008000E3010008E3010008E3010008E3010008C0
:10009000E3010008E3010008E3010008E3010008B0
:1000A000E3010008E3010008E3010008E3010008A0
:1000B00095380008E3010008E3010008E3010008A7
:1000C000E3010008E3010008E3010008E301000880
:1000D000E301000881380008E3010008E30100089B
:1000E000E3010008E3010008E3010008E301000860
:1000F000E3010008E3010008E3010008E301000850
:10010000E3010008E3010008E3010008E30100083F
:10011000E3010008E3010008E3010008E30100082F
:10012000E3010008E3010008E3010008E30100081F
:10013000E3010008E3010008E3010008E30100080F
:10014000E3010008E3010008E30100088D2D000829
:10015000E3010008E3010008E3010008E3010008EF
:10016000E3010008E3010008E3010008E3010008DF
:10017000E3010008E3010008E3010008E3010008CF
:10018000E3010008E3010008E3010008E3010008BF
:10019000E3010008E3010008E3010008E3010008AF
:1001A000E3010008E3010008E3010008E30100089F
:1001B000E3010008E3010008E3010008E30100088F
:1001C000E3010008E3010008E3010008E30100087F
:1001D000E3010008E3010008E3010008E30100086F
:1001E00002E000F000F8FEE772B6374880F30888B6
:1001F000364880F3098836483649086040F20000E6
:10020000CCF200004EF63471CEF200010860BFF36C
:100210004F8FBFF36F8F40F20000C0F2F0004EF638
:100220008851CEF200010860BFF34F8FBFF36F8F8C
:100230004FF00000E1EE100A4EF63C71CEF20001E4
:100240000860062080F31488BFF36F8F02F066FA0F
:1002500003F060F94FF055301F491B4A91423CBFF3
:1002600041F8040BFAE71D49184A91423CBF41F896
:10027000040BFAE71A491B4A1B4B9A423EBF51F83E
:10028000040B42F8040BF8E700201849184A914281
:100290003CBF41F8040BFAE702F044FA03F08EF990
:1002A000144C154DAC4203DA54F8041B8847F9E7A7
:1002B00000F042F8114C124DAC4203DA54F8041B22
:1002C0008847F9E702F02CBA00060020002200203F
:1002D0000000000808ED00E00000002000060020FB
:1002E000603C0008002200204C2200205022002008
:1002F00070300020E0010008E0010008E001000883
:10030000E00100082DE9F04F2DED108AC1F80CD066
:10031000C3689D46BDEC108ABDE8F08F002383F3CF
:1003200011882846A047002001F0A4FDFEE701F057
:100330002DFD00DFFEE7000038B500F0BFFB02F046
:10034000B9F9054602F0DCF90446C8B90E4B9D42E6
:1003500018D001339D4218BF044641F2883504BFCE
:1003600001240025002002F0AFF90CB100F072F872
:1003700000F018FD284600F0C1F800F06BF8F9E72E
:100380000025EFE70546EDE7010007B008B500F0EE
:1003900061FBA0F120035842584108BD07B5042174
:1003A00001900DEB010000F073FB03B05DF804FB5E
:1003B00038B5302383F31188174803680BB101F077
:1003C00025FE164A144800234FF47A7101F014FEFA
:1003D000002383F31188124C236813B12368013B77
:1003E0002360636813B16368013B63600D4D2B7834
:1003F00033B963687BB9022000F036FC32236360B6
:100400002B78032B07D163682BB9022000F02CFC5A
:100410004FF47A73636038BD50220020B1030008A6
:100420007023002068220020084B187003280CD885
:10043000DFE800F008050208022000F005BC0220F9
:1004400000F0F2BB024B00225A6070476822002085
:1004500070230020244B254A10B51C461968013131
:1004600040D004339342F9D16268214B9A4239D982
:10047000204B9B6803F1006303F580339A4231D22D
:10048000002000F035FB0220FFF7CEFF1A4B1A6C5C
:1004900000221A64196E1A66196E596C5A64596EE4
:1004A0005A665A6E5A6942F080025A615A6922F0BD
:1004B00080025A615A691A6942F000521A611A6937
:1004C00022F000521A611B6972B64FF0E02330210E
:1004D000C3F8084DD4E9003281F311889D4683F3B7
:1004E0000888104710BD00BF000001082000010867
:1004F000FFFF000800220020003802402DE9F04FE5
:1005000093B0DFF8049302902022FF210AA8D9F8C3
:10051000085000F0F1FBB34A1378A3B9B2480121A7
:1005200003601170302383F3118803680BB101F06D
:100530006DFDAE4AAC4800234FF47A7101F05CFDCA
:10054000002383F31188029B13B1A94B029A1A600E
:10055000A84A029C1378032B1EBF00231370A44AE1
:100560004FF0000B18BF5360CDF804B05E46DA467A
:10057000012000F069FB24B19D4B1B68002B00F0AB
:10058000F981002000F066FA071EF4DB012000F07C
:100590004BFBA7F121001628EAD801A353F820F05D
:1005A000FD05000819060008A706000871050008E7
:1005B00071050008710500082B070008EB0800080A
:1005C0000D080008690800088F080008B508000831
:1005D00071050008C7080008710500083309000804
:1005E00085060008710500087B0900080906000857
:1005F0008506000871050008690800080220FFF759
:10060000C5FE002840F0E381029B7B48BBF1000F50
:1006100008BF1C46022140E04FF47A7000F01AFA3D
:10062000071EF1DB0220FFF7B1FE0028ECD0013FEE
:10063000052F00F2CE81DFE807F003070A0D103323
:100640000520FFF7ABFE14E0D9F80000F9E7D9F870
:100650000400F6E7D9F80800F3E74FF01C0840461D
:1006600000F048FA08F10408FFF798FEB8F12C0FE3
:10067000F5D1019B012000FA07F71F43FBB201935C
:100680004FF0000A00F084FB2EB1019B03F00B0336
:100690000B2B08BF00245948022100F0F9F967E745
:1006A000D9F80C00CDE7002EAED0019B03F00B0370
:1006B0000B2BA9D10220FFF769FE07460028A3D023
:1006C000012000F015FA0220FFF7AEFE00261FFA07
:1006D00086F8404600F01CFA044670B100214046FE
:1006E00000F026FA01360028F1D1BB460446444802
:1006F000022100F0CDF93E463AE70120FFF794FED3
:100700002546D9F80830AB4207D9284600F0F2F95F
:10071000013040F061810435F3E7364B00251D7050
:10072000334BBB465D603E46ACE7002E3FF46CAFFA
:10073000019B03F00B030B2B7FF466AF0220FFF746
:1007400073FE322000F086F9B0F10008FFF65CAFCE
:1007500018F003077FF458AFD9F8082008EB050319
:1007600093423FF651AFB8F5807F3FF74DAF254B31
:100770000393B8450BDD4FF47A7000F06BF9002855
:10078000FFF642AF039B013703F8010BF0E7C820E7
:10079000FFF7FCFD074600283FF436AF1F2D11D8A8
:1007A000C5F1200242450AAB25F0030028BF4246AE
:1007B00014490392184400F079FA039A1148FF2172
:1007C00000F09AFA4FEAA8030E490393C8F3870290
:1007D000284600F099FA0646002888D0039B05EBCE
:1007E00083054FE76C23002050220020B10300084E
:1007F0007023002068220020FC380008F43800082C
:10080000F83800086C220020002200200220FFF7A8
:10081000BDFD00283FF4F8AE00F0B6F900283FF423
:10082000F3AE0027B846D9F80830BB4218D91F2FBD
:1008300011D80A9B01330ED027F0030312AA1344E8
:1008400053F8203C05934046042205A900F00AFB1A
:1008500004378046E7E7384600F04CF90590F2E7A8
:100860004046FFF79BFD0DE70023642105A8059393
:1008700000F004F900287FF4C7AE0220FFF786FDE0
:1008800000283FF4C1AE059800F066F9E9E70023BF
:10089000642105A8059300F0F1F800287FF4B4AEB8
:1008A0000220FFF773FD00283FF4AEAE059800F07C
:1008B00063F9D6E70220FFF769FD00283FF4A4AEF4
:1008C00000F072F9CDE70220FFF760FD00283FF449
:1008D0009BAE05A9142000F06DF90390FFF75EFDB3
:1008E000039905A800F0D4F8CCE6322000F0B2F865
:1008F000071EFFF689AEBB077FF486AED9F8082045
:1009000007EB0A0393423FF67FAE0220FFF73EFD5E
:1009100000283FF479AE27F003075744BA453FF467
:10092000B1AE504600F0E6F8FFF738FD0AF1040AD0
:10093000F4E74FF47A70FFF729FD00283FF464AE26
:1009400000F022F9002849D00A9B01330BD008227D
:100950000AA9002000F0D8F900283FD02022FF216A
:100960000AA800F0C9F91E48022100F091F81D48BC
:1009700001F086FA13B0BDE8F08F002E3FF444AECC
:10098000019B03F00B030B2B7FF43EAE002364218D
:1009900005A8059300F072F8074600287FF434AEEE
:1009A0000220FFF7F3FC804600283FF42DAE022121
:1009B0000B4800F06DF841F2883001F061FA0598BB
:1009C00000F02EFA464600F0E3F93C46D0E5064634
:1009D00058E64FF0000A17E6BB4688E6374686E63B
:1009E000F4380008A08601002DE9F84F4FF47A731F
:1009F000DFF85880DFF8589006460D4602FB03F7F3
:100A0000002498F900305A1C5FFA84FA01D0A342FE
:100A100012D159F8240003682A46D3F820B0314691
:100A20003B46D847854207D1074B012083F800A0F9
:100A3000BDE8F88F0124E4E7002CFBD04FF4FA70F6
:100A400001F01EFA0020F3E7B82300201022002056
:100A50001422002007B50023024601210DF10700F2
:100A60008DF80730FFF7C0FF20B19DF8070003B0F5
:100A70005DF804FB4FF0FF30F9E700000A4608B5C7
:100A80000421FFF7B1FF80F00100C0B2404208BD71
:100A900030B4074B0A461978064B53F821402368B7
:100AA000DD69054B0146AC46204630BC604700BFBF
:100AB000B823002014220020A086010070B501F0A8
:100AC000FFFC094E094D308000242868338883429A
:100AD00008D901F0EFFC2B6804440133B4F5803FE2
:100AE0002B60F2D370BD00BFBA2300207823002012
:100AF00001F094BD00F1006000F58030006870479F
:100B000000F10060920000F5803001F01FBD000090
:100B1000054B1A68054B1B889B1A834202D9104467
:100B200001F0C8BC0020704778230020BA230020C1
:100B300038B5084D044629B128682044BDE838403E
:100B400001F0D8BC2868204401F0BCFC0028F3D098
:100B500038BD00BF7823002010F003030AD1B0F5A0
:100B6000047F05D200F10050A0F51040D0F8003805
:100B7000184670470023FBE700F10050A0F5104035
:100B8000D0F8100A70470000064991F8243033B1BC
:100B90000023086A81F824300822FFF7B1BF012042
:100BA000704700BF7C230020014B1868704700BFCE
:100BB000002004E070B5194B1D68194B0138C5F3CE
:100BC0000B0408442D0C04221E88A6420BD15C683D
:100BD0000A46013C824213460FD214F9016F4EB10E
:100BE00002F8016BF6E7013A03F10803ECD1814208
:100BF0000B4602D22C2203F8012B0A4A0524168840
:100C0000AE4204D1984284BF967803F8016B013C50
:100C100002F10402F3D1581A70BD00BF002004E0B5
:100C2000403900082C390008022804D1054B4FF048
:100C300080429A6170470128FCD1024B4FF000526C
:100C4000F7E700BF00000240022804D1054B4FF433
:100C500080429A6170470128FCD1024B4FF4005248
:100C6000F7E700BF00000240022805D1064A536999
:100C700083F48043536170470128FCD1024A5369D1
:100C800083F40053F6E700BF0000024070B504464D
:100C90004FF47A764CB1412C254628BF412506FBFE
:100CA00005F001F0EDF8641BF4E770BD10B500230A
:100CB000934203D0CC5CC4540133F9E710BD00006B
:100CC00010B5013810F9013F3BB191F900409C4249
:100CD00003D11AB10131013AF4E71AB191F90020B8
:100CE000981A10BD1046FCE703460246D01A12F9C6
:100CF000011B0029FAD1704702440346934202D0F7
:100D000003F8011BFAE770472DE9F8431F4D14461D
:100D100095F824200746884652BBDFF870909CB3B4
:100D200095F824302BB92022FF2148462F62FFF787
:100D3000E3FF95F82400C0F10802A24228BF224632
:100D4000D6B24146920005EB8000FFF7AFFF95F861
:100D50002430A41B1E44F6B2082E17449044E4B27B
:100D600085F82460DBD1FFF70FFF0028D7D108E01A
:100D70002B6A03EB82038342CFD0FFF705FF0028E5
:100D8000CBD10020BDE8F8830120FBE77C230020C5
:100D9000024B1A78024B1A70704700BFB82300202C
:100DA0001022002038B5194C194D204600F0BEFB2A
:100DB0002946204600F0E6FB2D686A6DD2F804381B
:100DC00043F00203C2F804384FF47A70FFF75EFF75
:100DD0001049284600F0DCFC6A6D0F4DD2F804384B
:100DE00028680E4923F00203C2F80438A0424FF4E9
:100DF000E1330B6001D000F0F9FA6868A04204D03A
:100E0000BDE83840054900F0F1BA38BD9828002007
:100E1000483A0008503A000814220020A423002079
:100E200070B50C4B0C4D1E780C4B55F826209A4291
:100E300004460DD00A4B002114221846FFF75CFF30
:100E40000460014655F82600BDE8704000F0CEBAB7
:100E500070BD00BFB8230020142200209828002075
:100E6000A423002030B5094D0A4491420DD011F859
:100E7000013B5840082340F30004013B2C4013F091
:100E8000FF0384EA5000F6D1EFE730BD2083B8EDD0
:100E9000026843681143016003B1184770470000BE
:100EA000024AD36843F0C003D3607047001001408A
:100EB00010B5084C084A0021204600F075FA074B8F
:100EC000C4F85C3203F1454303F52D43C4F86032A6
:100ED00010BD00BFBC230020A10E0008001001407F
:100EE000234A037C002918BF0A46012B30B5C0F8FD
:100EF00068220CD11F4B984209D11F4B596C41F00D
:100F000010015964596E41F0100159665B6EB2F9D7
:100F100004501468D0F86032D0F85C12002D03EB56
:100F20005403B3FBF4F3BEBF23F0070503F007033C
:100F300043EA450394888B60D38843F040030B61F8
:100F4000138943F001034B6144F4045343F02C0331
:100F5000CB6004F4A05400230B60B4F5806F0B68E1
:100F60004B680CBF7F23FF2380F8643230BD00BF85
:100F700060390008BC230020003802402DE9F04110
:100F8000D0F85C62F7683368DA0504469DB20DD587
:100F9000302383F311884FF480610430FFF778FF2A
:100FA0006FF480733360002383F31188302383F35D
:100FB000118804F1040815F02F033AD183F3118846
:100FC000380615D5290613D5302383F3118804F18B
:100FD000380000F065F900284EDA0821201DFFF7DF
:100FE00057FF4FF67F733B40F360002383F3118874
:100FF0007A0616D56B0614D5302383F31188D4E90D
:1010000013239A420AD1236C43B127F040073F04CF
:101010001021201D3F0CFFF73BFFF760002383F3F7
:101020001188D4F86822D36843B3BDE8F041106951
:1010300018472B0714D015F0080F0CBF00214FF4F0
:101040008071E80748BF41F02001AA0748BF41F07E
:1010500040016B0748BF41F080014046FFF718FF91
:10106000AD06736805D594F864122046194000F067
:10107000CBF93568ADB29EE77060B6E7BDE8F081A8
:10108000F8B5154682680669AA420B46816938BFE1
:101090008568761AB54204460BD218462A46FFF7F1
:1010A00005FEA3692B44A361A3685B1BA3602846CC
:1010B000F8BD0CD918463246FFF7F8FDAF1BE168C2
:1010C0003A463044FFF7F2FDE3683B44EBE718464D
:1010D0002A46FFF7EBFDE368E5E7000083689342EB
:1010E000F7B51546044638BF8568D0E90460361A5E
:1010F000B5420BD22A46FFF7D9FD63692B446361E1
:10110000A36828465B1BA36003B0F0BD0DD932462F
:101110000191FFF7CBFD0199E068AF1B3A463144DE
:10112000FFF7C4FDE3683B44E9E72A46FFF7BEFD4D
:10113000E368E4E710B50A440024C361029B8460BD
:10114000C0E90000C0E90511C1600261036210BD81
:1011500008B5D0E90532934201D1826882B982682C
:10116000013282605A1C42611970D0E904329A42FD
:1011700024BFC3684361002100F09EFE002008BD2B
:101180004FF0FF30FBE7000070B5302304460E46F9
:1011900083F31188A568A5B1A368A269013BA36088
:1011A000531CA36115782269934224BFE368A361AD
:1011B000E3690BB120469847002383F31188284642
:1011C00007E03146204600F067FE0028E2DA85F3AA
:1011D000118870BD2DE9F74F04460E461746984614
:1011E000D0F81C904FF0300A8AF311884FF0000BB2
:1011F000154665B12A4631462046FFF741FF0346B2
:1012000060B94146204600F047FE0028F1D0002397
:1012100083F31188781B03B0BDE8F08FB9F1000F9C
:1012200003D001902046C847019B8BF31188ED1A2B
:101230001E448AF31188DCE7C0E90511C160C3616F
:101240001144009B8260C0E90000016103627047A5
:10125000F8B504460D461646302383F31188A76877
:10126000A7B1A368013BA36063695A1C62611D704A
:10127000D4E904329A4224BFE3686361E3690BB1A5
:1012800020469847002080F3118807E03146204629
:1012900000F002FE0028E2DA87F31188F8BD0000B2
:1012A000D0E905239A4210B501D182687AB98268E3
:1012B000013282605A1C82611C7803699A4224BF01
:1012C000C3688361002100F0F7FD204610BD4FF098
:1012D000FF30FBE72DE9F74F04460E4617469846C8
:1012E000D0F81C904FF0300A8AF311884FF0000BB1
:1012F000154665B12A4631462046FFF7EFFE034604
:1013000060B94146204600F0C7FD0028F1D0002317
:1013100083F31188781B03B0BDE8F08FB9F1000F9B
:1013200003D001902046C847019B8BF31188ED1A2A
:101330001E448AF31188DCE70268436811430160A8
:1013400003B11847704700001430FFF743BF000097
:101350004FF0FF331430FFF73DBF00003830FFF788
:10136000B9BF00004FF0FF333830FFF7B3BF0000C4
:101370001430FFF709BF00004FF0FF311430FFF7C2
:1013800003BF00003830FFF763BF00004FF0FF32AB
:101390003830FFF75DBF0000012914BF6FF0130064
:1013A00000207047FFF784BD37B515460E4A02602E
:1013B00000224260C0E902220122044602740B4668
:1013C000009000F15C014FF480721430FFF7B2FE20
:1013D00000942B464FF4807204F5AE7104F138008E
:1013E000FFF72AFF03B030BD7439000810B5302371
:1013F000044683F31188FFF773FD02232374002052
:1014000080F3118810BD000038B5C36904460D464D
:101410001BB904210844FFF78FFF294604F114008B
:10142000FFF796FE002806DA201D4FF40061BDE8A4
:101430003840FFF781BF38BD02684368114301603F
:1014400003B118477047000013B5446BD4F89434C7
:101450001A681178042915D1217C022912D1197931
:10146000128901238B4013420CD101A904F14C00D5
:1014700001F00CFFD4F89444019B217902462068C6
:1014800000F0D0F902B010BD143001F08FBE0000A2
:101490004FF0FF33143001F089BE00004C3001F0F2
:1014A00061BF00004FF0FF334C3001F05BBF000024
:1014B000143001F05DBE00004FF0FF31143001F038
:1014C00057BE00004C3001F02DBF00004FF0FF323E
:1014D0004C3001F027BF00000020704710B5D0F855
:1014E00094341A6811780429044617D1017C022922
:1014F00014D15979528901238B4013420ED11430F3
:1015000001F0F0FD024648B1D4F894444FF48073E2
:1015100061792068BDE8104000F072B910BD00008C
:10152000406BFFF7DBBF0000704700007FB5124B38
:10153000036000234360C0E90233012502260F4BFC
:10154000057404460290019300F184022946009636
:101550004FF48073143001F0A1FD094B0294CDE9E2
:10156000006304F523724FF48073294604F14C00A4
:1015700001F068FE04B070BD9C3900082115000818
:10158000491400080B68302282F311880A7903EBB2
:10159000820290614A79093243F822008A7912B1B5
:1015A00003EB820398610223C0F8941403740020B3
:1015B00080F311887047000038B5037F044613B1EB
:1015C00090F85430ABB9201D01250221FFF734FFFC
:1015D00004F1140025776FF0010100F079FC84F824
:1015E000545004F14C006FF00101BDE8384000F0A8
:1015F0006FBC38BD10B5012104460430FFF71CFF55
:101600000023237784F8543010BD000038B5044619
:101610000025143001F05AFD04F14C00257701F04B
:1016200029FE201D84F854500121FFF705FF2046B4
:10163000BDE83840FFF752BF90F8443003F0600334
:10164000202B07D190F84520212A4FF0000303D822
:101650001F2A06D800207047222AFBD1C0E90E338A
:1016600003E0034A82630722C263036401207047D8
:101670001C22002037B5D0F894341A681178042958
:1016800004461AD1017C022917D119791289012344
:101690008B40134211D100F14C05284601F0AAFEFF
:1016A00058B101A9284601F0F1FDD4F89444019BFA
:1016B00021790246206800F0B5F803B030BD000083
:1016C000F0B500EB810385B09E6904460D46FEB17E
:1016D000302383F3118804EB8507301D0821FFF7C1
:1016E000ABFEFB685B691B6806F14C001BB1019007
:1016F00001F0DAFD019803A901F0C8FD024648B1E6
:10170000039B2946204600F08DF8002383F31188BF
:1017100005B0F0BDFB685A691268002AF5D01B8A33
:10172000013B1340F1D104F14402EAE7093138B535
:1017300050F82140DCB1302383F31188D4F894248D
:101740001368527903EB8203DB689B695D6845B1DE
:1017500004216018FFF770FE294604F1140001F01F
:10176000CBFC2046FFF7BAFE002383F3118838BD77
:101770007047000001F02AB8012303700023C0E97C
:101780000133C36183620362C362436203637047D0
:1017900038B50446302383F311880025C0E903558A
:1017A000C0E90555416001F021F80223237085F35B
:1017B0001188284638BD000070B500EB810305464E
:1017C0005069DA600E46144618B110220021FFF766
:1017D00093FAA06918B110220021FFF78DFA314663
:1017E0002846BDE8704001F0CBB80000826802F0E6
:1017F000011282600022C0E90422826101F04CB92A
:10180000F0B400EB81044789E4680125A4698D40A8
:101810003D43458123600023A2606360F0BC01F07A
:1018200067B90000F0B400EB81040789E468012582
:1018300064698D403D43058123600023A26063609D
:10184000F0BC01F0E1B9000070B5022300250446A8
:101850000370C0E90255C0E90455C564856180F88C
:10186000345001F029F863681B6823B129462046EB
:10187000BDE87040184770BD0378052B10B50446CD
:101880000AD080F850300523037043681B680BB101
:10189000042198470023A36010BD000001780529AA
:1018A00006D190F85020436802701B6803B11847B6
:1018B0007047000070B590F83430044613B100232F
:1018C00080F8343004F14402204601F007F96368DF
:1018D0009B68B3B994F8443013F0600535D000210B
:1018E000204601F0A7FB0021204601F099FB636828
:1018F0001B6813B1062120469847062384F834302C
:1019000070BD204698470028E4D0B4F84A30E26B16
:101910009A4288BFE36394F94430E56B002B4FF0A3
:10192000300380F20381002D00F0F280092284F858
:10193000342083F311880021D4E90E232046FFF7D9
:1019400071FF002383F31188DAE794F8452003F050
:101950007F0343EA022340F20232934200F0C58043
:1019600021D8B3F5807F48D00DD8012B3FD0022B72
:1019700000F09380002BB2D104F14C02A26302224A
:10198000E2632364C1E7B3F5817F00F09B80B3F588
:10199000407FA4D194F84630012BA0D1B4F84C304C
:1019A00043F0020332E0B3F5006F4DD017D8B3F522
:1019B000A06F31D0A3F5C063012B90D8636894F871
:1019C00046205E6894F84710B4F848302046B04787
:1019D000002884D04368A3630368E3631AE0B3F587
:1019E000106F36D040F6024293427FF478AF5C4BE2
:1019F000A3630223E3630023C3E794F84630012B7B
:101A00007FF46DAFB4F84C3023F00203C4E90E55F7
:101A1000A4F84C30256478E7B4F84430B3F5A06FEF
:101A20000ED194F8463084F84E30204600F09CFFEA
:101A300063681B6813B10121204698470323237074
:101A40000023C4E90E339CE704F14F03A363012391
:101A5000C3E72378042B10D1302383F31188204669
:101A6000FFF7C4FE85F311880321636884F84F50A3
:101A700021701B680BB12046984794F84630002B24
:101A8000DED084F84F300423237063681B68002B7A
:101A9000D6D0022120469847D2E794F848301D0658
:101AA00003F00F0120460AD501F00AF8012804D0FE
:101AB00002287FF414AF2B4B9AE72B4B98E700F0EA
:101AC000F1FFF3E794F84630002B7FF408AF94F869
:101AD000483013F00F01B3D01A06204602D501F0AA
:101AE000BDFAADE701F0B0FAAAE794F84630002B52
:101AF0007FF4F5AE94F8483013F00F01A0D01B0628
:101B0000204602D501F096FA9AE701F089FA97E7A4
:101B1000142284F8342083F311882B462A46294660
:101B20002046FFF76DFE85F31188E9E65DB11522C9
:101B300084F8342083F311880021D4E90E23204651
:101B4000FFF75EFEFDE60B2284F8342083F3118854
:101B50002B462A4629462046FFF764FEE3E700BFEE
:101B6000CC390008C4390008C839000838B590F8E5
:101B700034300446002B3ED0063BDAB20F2A34D86C
:101B80000F2B32D8DFE803F0373131082232313100
:101B90003131313131313737C56BB0F84A309D4280
:101BA00014D2C3681B8AB5FBF3F203FB12556DB95F
:101BB000302383F311882B462A462946FFF732FE4D
:101BC00085F311880A2384F834300EE0142384F856
:101BD0003430302383F3118800231A4619462046F7
:101BE000FFF70EFE002383F3118838BD036C03B1A9
:101BF00098470023E7E70021204601F01BFA002167
:101C0000204601F00DFA63681B6813B106212046D7
:101C100098470623D7E7000010B590F83430142B0E
:101C2000044629D017D8062B05D001D81BB110BD0A
:101C3000093B022BFBD80021204601F0FBF90021D3
:101C4000204601F0EDF963681B6813B106212046B8
:101C50009847062319E0152BE9D10B2380F834307F
:101C6000302383F3118800231A461946FFF7DAFD63
:101C7000002383F31188DAE7C3689B695B68002B54
:101C8000D5D1036C03B19847002384F83430CEE7F4
:101C900000230375826803691B6899689142FBD22F
:101CA0005A680360426010605860704700230375F3
:101CB000826803691B6899689142FBD85A6803607F
:101CC000426010605860704708B50846302383F3BF
:101CD00011880B7D032B05D0042B0DD02BB983F37A
:101CE000118808BD8B6900221A604FF0FF338361B1
:101CF000FFF7CEFF0023F2E7D1E9003213605A600C
:101D0000F3E70000FFF7C4BF38B50A4BDD681C6875
:101D1000287522681A605360DC60A3680122934230
:101D2000227501D100F0F6FC29462046BDE8384076
:101D3000FEF7E8BA2826002030B50C4BDD684B1CB6
:101D400087B004460FD02B46094A684600F054F984
:101D50002046FFF7D9FF009B13B1684600F056F903
:101D6000A86907B030BDFFF7CFFFF9E728260020AC
:101D7000C91C0008044B1A68DB6890689B6898428D
:101D800094BF0020012070472826002038B50B4B57
:101D90001C68DD6822681A60536001222275DC60CD
:101DA000AB68934201D100F0B7FC2846FFF77EFFF5
:101DB00001462046BDE83840FEF7A4BA2826002098
:101DC00038B5074C07490848012300252370656092
:101DD00001F048FB0223237085F3118838BD00BF52
:101DE00090280020D43900082826002000F044B9AB
:101DF000034A516853685B1A9842FBD8704700BF8A
:101E0000001000E08B60022308618B820846704757
:101E10008368A3F1840243F8142C026943F8442C2C
:101E2000426943F8402C094A43F8242CC26843F81D
:101E3000182C022203F80C2C002203F80B2C044A65
:101E400043F8102CA3F12000704700BF1D030008C9
:101E50002826002008B5FFF7DBFFBDE80840FFF7A4
:101E600051BF0000024BDB6898610F20FFF74CBFA9
:101E700028260020302383F31188FFF7F3BF0000EA
:101E800008B50146302383F311880820FFF754FF7B
:101E9000002383F3118808BD064BDB6839B1426823
:101EA00018605A60136043600420FFF745BF4FF08D
:101EB000FF307047282600200368984206D01A6831
:101EC0000260506099611846FFF71CBF7047000020
:101ED00038B504460D462068844200D138BD0368F9
:101EE00023605C608561FFF70DFFF4E710B50368C0
:101EF0009C68A2420CD85C688A600B604C602160D0
:101F0000596099688A1A9A604FF0FF33836010BD58
:101F10001B68121BECE700000A2938BF0A2170B5C4
:101F200004460D460A26601901F096FA01F082FA7D
:101F3000041BA54203D8751C2E460446F3E70A2E5F
:101F400004D9BDE87040012001F0CCBA70BD00009A
:101F5000F8B5144B0D46D96103F1100141600A2A0E
:101F60001969826038BF0A22016048601861A818A8
:101F7000144601F063FA0A2701F05CFA431BA342FE
:101F8000064606D37C1C281901F066FA274635461A
:101F9000F2E70A2F04D9BDE8F840012001F0A2BA07
:101FA000F8BD00BF28260020F8B506460D4601F012
:101FB00041FA0F4A134653F8107F9F4206D12A4632
:101FC00001463046BDE8F840FFF7C2BFD169BB68A3
:101FD000441A2C1928BF2C46A34202D92946FFF7E0
:101FE0009BFF224631460348BDE8F840FFF77EBF1D
:101FF000282600203826002010B4C0E9032300233F
:102000005DF8044B4361FFF7CFBF000010B5194CDA
:10201000236998420DD0D0E90032816813605A607C
:102020009A680A449A60002303604FF0FF33A3616B
:1020300010BD2346026843F8102F5360002202604F
:1020400022699A4203D1BDE8104001F0FFB99368BC
:1020500081680B44936001F0EDF92269E1699268AF
:10206000441AA242E4D91144BDE81040091AFFF70E
:1020700053BF00BF282600202DE9F047DFF8BC80C1
:1020800008F110072C4ED8F8105001F0D3F9D8F809
:102090001C40AA68031B9A423ED81444D5E900327A
:1020A0004FF00009C8F81C4013605A60C5F8009052
:1020B000D8F81030B34201D101F0C8F989F3118882
:1020C000D5E9033128469847302383F311886B699B
:1020D000002BD8D001F0AEF96A69A0EB04094A459B
:1020E00082460DD2022001F0FDF90022D8F810300E
:1020F000B34208D151462846BDE8F047FFF728BF54
:10210000121A2244F2E712EB090938BF4A4629465F
:102110003846FFF7EBFEB5E7D8F81030B34208D0E9
:102120001444211AC8F81C00A960BDE8F047FFF765
:10213000F3BEBDE8F08700BF382600202826002027
:1021400000207047FEE70000704700004FF0FF30AE
:102150007047000002290CD0032904D00129074848
:1021600018BF00207047032A05D8054800EBC200BD
:102170007047044870470020704700BFAC3A000821
:102180002C220020603A000870B59AB00546084637
:1021900001A9144600F0C2F801A8FEF7A5FD431CF2
:1021A0005B00C5E900340022237003236370C6B2CC
:1021B00001AB02341046D1B28E4204F1020401D8C0
:1021C0001AB070BD13F8011B04F8021C04F8010CCE
:1021D0000132F0E708B5302383F311880348FFF795
:1021E00049FA002383F3118808BD00BF9828002016
:1021F00090F8443003F01F02012A07D190F84520DF
:102200000B2A03D10023C0E90E3315E003F060036D
:10221000202B08D1B0F848302BB990F84520212A5E
:1022200003D81F2A04D8FFF707BA222AEBD0FAE70F
:10223000034A82630722C26303640120704700BF20
:102240002322002007B5052917D8DFE801F0191669
:1022500003191920302383F31188104A01900121BA
:10226000FFF7AAFA01980E4A0221FFF7A5FA0D48D6
:10227000FFF7CCF9002383F3118803B05DF804FB6A
:10228000302383F311880748FFF796F9F2E73023EC
:1022900083F311880348FFF7ADF9EBE7003A000834
:1022A000243A00089828002038B50C4D0C4C0D49F4
:1022B0002A4604F10800FFF767FF05F1CA0204F19E
:1022C00010000949FFF760FF05F5CA7204F1180014
:1022D0000649BDE83840FFF757BF00BF602D00201A
:1022E0002C220020E0390008EA390008F5390008FE
:1022F00070B5044608460D46FEF7F6FCC6B2204609
:10230000013403780BB9184670BD32462946FEF7F2
:10231000D7FC0028F3D10120F6E700002DE9F047B3
:1023200005460C46FEF7E0FC2B49C6B22846FFF7EF
:10233000DFFF08B10B36F6B228492846FFF7D8FF71
:1023400008B11036F6B2632E0BD8DFF88C80DFF8B8
:102350008C90234FDFF894A02E7846B92670BDE804
:10236000F08729462046BDE8F04701F0BBBA252E8C
:102370002ED1072241462846FEF7A2FC70B9194B20
:10238000224603F1100153F8040B42F8040B8B4270
:10239000F9D11B88138007351234DDE7082249463E
:1023A0002846FEF78DFC98B90F4BA21C1978090935
:1023B0000232C95D02F8041C13F8011B01F00F0181
:1023C0005345C95D02F8031CF0D118340835C3E742
:1023D00004F8016B0135BFE7CC3A0008F539000875
:1023E000E73A0008D43A0008107AFF1F1C7AFF1F52
:1023F000BFF34F8F024AD368DB03FCD4704700BFA2
:10240000003C024008B5094B1B7873B9FFF7F0FF99
:10241000074B1A69002ABFBF064A5A6002F1883288
:102420005A601A6822F480621A6008BDBE2F00202C
:10243000003C02402301674508B50B4B1B7893B95C
:10244000FFF7D6FF094B1A6942F000421A611A6879
:1024500042F480521A601A6822F480521A601A6894
:1024600042F480621A6008BDBE2F0020003C02408A
:102470000B28F0B516D80C4C0C4923787BB90C4DC1
:102480000E460C234FF0006255F8047B46F8042BEF
:10249000013B13F0FF033A44F6D10123237051F8B6
:1024A0002000F0BD0020FCE7F02F0020C02F00200E
:1024B000F83A0008014B53F820007047F83A00083A
:1024C0000C2070470B2810B5044601D9002010BD20
:1024D000FFF7CEFF064B53F824301844C21A0BB94D
:1024E0000120F4E712680132F0D1043BF6E700BFA7
:1024F000F83A00080B2810B5044621D8FFF778FFFA
:10250000FFF780FF0F4AF323D360C300DBB243F42D
:10251000007343F002031361136943F480331361C2
:10252000FFF766FFFFF7A4FF074B53F8241000F0F6
:10253000D9F8FFF781FF2046BDE81040FFF7C2BF82
:10254000002010BD003C0240F83A0008F8B512F037
:102550000103144642D18218B2F1016F57D82D4BB6
:102560001B6813F0010352D02B4DFFF74BFFF323F1
:10257000EB60FFF73DFF40F20127032C15D824F054
:1025800001046618244C401A40F20117B142236935
:1025900000EB010524D123F001032361FFF74CFF79
:1025A0000120F8BD043C0430E7E78307E7D12B693D
:1025B00023F440732B612B693B432B6151F8046B6F
:1025C0000660BFF34F8FFFF713FF03689E42E9D009
:1025D0002B6923F001032B61FFF72EFF0020E0E7BA
:1025E00023F44073236123693B4323610B882B80D1
:1025F000BFF34F8FFFF7FCFE2D8831F8023BADB2E1
:10260000AB42C3D0236923F001032361E4E71846FA
:10261000C7E700BF00380240003C0240084908B547
:102620000B7828B11BB9FFF7EDFE01230B7008BD35
:10263000002BFCD0BDE808400870FFF7FDBE00BFCE
:10264000BE2F002010B50244064BD2B2904200D1FA
:1026500010BD441C00B253F8200041F8040BE0B256
:10266000F4E700BF502800400F4B30B51C6F240426
:1026700007D41C6F44F400741C671C6F44F40044BE
:102680001C670A4C236843F4807323600244084BA0
:10269000D2B2904200D130BD441C00B251F8045B6C
:1026A00043F82050E0B2F4E70038024000700040E8
:1026B0005028004007B5012201A90020FFF7C2FF02
:1026C000019803B05DF804FB13B50446FFF7F2FF71
:1026D000A04205D0012201A900200194FFF7C4FF08
:1026E00002B010BD70470000034B1A681AB9034AC4
:1026F000D2F874281A607047F42F0020003002408E
:1027000008B5FFF7F1FF024B1868C0F3407008BD31
:10271000F42F002070470000704700007047000051
:10272000FEE700000A4B0B480B4A90420BD30B4BC1
:10273000DA1C121AC11E22F003028B4238BF00229B
:102740000021FEF7D9BA53F8041B40F8041BECE74C
:10275000AC3C000870300020703000207030002049
:1027600070B5D0E915439E6800224FF0FF3504EBA9
:1027700042135101D3F800090028BEBFD3F8000965
:1027800040F08040C3F80009D3F8000B0028BEBF1A
:10279000D3F8000B40F08040C3F8000B01326318FF
:1027A0009642C3F80859C3F8085BE0D24FF0011312
:1027B000C4F81C3870BD0000890141F0200101619E
:1027C00003699B06FCD41220FFF712BB10B5054C21
:1027D0002046FEF7D1FF4FF0A0436365024BA3658F
:1027E00010BD00BFF82F00204C3B000870B50378E7
:1027F000012B054650D12A4B446D98421BD1294BE1
:102800005A6B42F080025A635A6D42F080025A6558
:102810005A6D5A6942F080025A615A6922F0800268
:102820005A610E2143205B6900F022FC1E4BE360DD
:102830001E4BC4F800380023C4F8003EC0232360B8
:102840006E6D4FF40413A3633369002BFCDA01238C
:1028500033610C20FFF7CCFA3369DB07FCD412207C
:10286000FFF7C6FA3369002BFCDA0026A66028467B
:10287000FFF776FF6B68C4F81068DB68C4F814686B
:10288000C4F81C684BB90A4BA3614FF0FF33636176
:10289000A36843F00103A36070BD064BF4E700BFDB
:1028A000F82F0020003802404014004003002002AE
:1028B000003C30C0083C30C0F8B5446D05460021EE
:1028C0002046FFF779FFA96D00234FF001128F68B2
:1028D000C4F834384FF00066C4F81C284FF0FF30BD
:1028E00004EB431201339F42C2F80069C2F8006B47
:1028F000C2F80809C2F8080BF2D20B686A6DEB65E2
:10290000636210231361166916F01006FBD11220C2
:10291000FFF76EFAD4F8003823F4FE63C4F80038E9
:10292000A36943F4402343F01003A3610923C4F8CF
:102930001038C4F814380A4BEB604FF0C043C4F8A9
:10294000103B084BC4F8003BC4F81069C4F80039C8
:10295000EB6D03F1100243F48013EA65A362F8BD46
:10296000283B000840800010426D90F84E10D2F8CD
:10297000003823F4FE6343EA0113C2F800387047BD
:102980002DE9F84300EB8103456DDA68166806F01F
:102990000306731E022B05EB41130C4680460FFA0B
:1029A00081F94FEA41104FF00001C3F8101B4FF0BE
:1029B000010104F1100398BFB60401FA03F3916911
:1029C0008EBF334E06F1805606F5004600293AD0F8
:1029D000578A04F15801490137436F50D5F81C1844
:1029E0000B43C5F81C382B180021C3F81019536984
:1029F0000127611EA7409BB3138A928B9B08012A73
:102A000088BF5343D8F85C20981842EA034301F189
:102A1000400205EB8202C8F85C002146536028465C
:102A2000FFF7CAFE08EB8900C3681B8A43EA845398
:102A3000483464011E432E51D5F81C381F43C5F895
:102A40001C78BDE8F88305EB4917D7F8001B21F483
:102A50000041C7F8001BD5F81C1821EA0303C0E7A2
:102A600004F13F0305EB83030A4A5A6028462146D6
:102A7000FFF7A2FE05EB4910D0F8003923F400431C
:102A8000C0F80039D5F81C3823EA0707D7E700BF9C
:102A90000080001000040002826D1268C265FFF71A
:102AA0005FBE00005831436D49015B5813F400408C
:102AB00004D013F4001F0CBF022001207047000057
:102AC0004831436D49015B5813F4004004D013F4BE
:102AD000001F0CBF022001207047000000EB8101A5
:102AE000CB68196A0B6813604B685360704700002D
:102AF00000EB810330B5DD68AA691368D36019B9AA
:102B0000402B84BF402313606B8A1468426D1C44C1
:102B1000013CB4FBF3F46343033323F0030302EB00
:102B2000411043EAC44343F0C043C0F8103B2B6854
:102B300003F00303012B09B20ED1D2F8083802EBDF
:102B4000411013F4807FD0F8003B14BF43F0805352
:102B500043F00053C0F8003B02EB4112D2F8003BB7
:102B600043F00443C2F8003B30BD00002DE9F041C2
:102B7000244D6E6D06EB40130446D3F8087BC3F872
:102B8000087B38070AD5D6F81438190706D505EB9F
:102B900084032146DB6828465B689847FA071FD5FF
:102BA000D6F81438DB071BD505EB8403D968CCB9FC
:102BB0008B69488A5A68B2FBF0F600FB16228AB984
:102BC0001868DA6890420DD2121AC3E90024302343
:102BD00083F311880B482146FFF78AFF84F311889D
:102BE000BDE8F081012303FA04F26B8923EA0203B2
:102BF0006B81CB68002BF3D021460248BDE8F04141
:102C0000184700BFF82F002000EB810370B5DD6886
:102C1000436D6C692668E6604A0156BB1A444FF45E
:102C20000020C2F810092A6802F00302012A0AB241
:102C30000ED1D3F8080803EB421410F4807FD4F8C7
:102C4000000914BF40F0805040F00050C4F8000963
:102C500003EB4212D2F8000940F00440C2F8000928
:102C6000D3F83408012202FA01F10143C3F8341801
:102C700070BD19B9402E84BF4020206020682E8A84
:102C80008419013CB4FBF6F440EAC44040F0005023
:102C90001A44C6E72DE9F8433B4D6E6D06EB401331
:102CA0000446D3F80889C3F8088918F0010F4FEAE1
:102CB00040171AD0D6F81038DB0716D505EB80037D
:102CC000D9684B691868DA68904230D2121A4FF00E
:102CD00000091A60C3F80490302383F31188214659
:102CE0002846FFF791FF89F3118818F0800F1CD058
:102CF000D6F834380126A640334216D005EB8403BB
:102D00006D6DD3F80CC0DCF814200134E4B2D2F8B5
:102D100000E005EB04342F445168714515D3D5F814
:102D2000343823EA0606C5F83468BDE8F883012381
:102D300003FA04F22B8923EA02032B818B68002B10
:102D4000D3D0214628469847CFE7BCF81000AEEB19
:102D50000103834228BF0346D7F8180980B2B3EBBA
:102D6000800FE2D89068A0F1040959F8048FC4F8E4
:102D70000080A0EB09089844B8F1040FF5D8184476
:102D80000B4490605360C7E7F82F00202DE9F74F00
:102D9000A24C656D6E69AB691E4016F480586E6179
:102DA00007D02046FEF750FD03B0BDE8F04F00F01D
:102DB00047BC002E12DAD5F8003E98489B071EBF8C
:102DC000D5F8003E23F00303C5F8003ED5F80438DB
:102DD00023F00103C5F80438FEF760FD370505D57B
:102DE0008E48FFF7BDFC8D48FEF746FDB0040CD5BC
:102DF000D5F8083813F0060FEB6823F470530CBFB6
:102E000043F4105343F4A053EB6031071BD56368C0
:102E1000DB681BB9AB6923F00803AB612378052B92
:102E20000CD1D5F8003E7D489A071EBFD5F8003E6C
:102E300023F00303C5F8003EFEF730FD6368DB684E
:102E40000BB176489847F30274D4B70227D5D4F86B
:102E50005490DFF8C8B100274FF0010A09EB471280
:102E6000D2F8003B03F44023B3F5802F11D1D2F800
:102E7000003B002B0DDA62890AFA07F322EA03030A
:102E8000638104EB8703DB68DB6813B1394658467E
:102E90009847A36D01379B68FFB29F42DED9F006C9
:102EA00017D5676D3A6AC2F30A1002F00F0302F4F5
:102EB000F012B2F5802F00F08580B2F5402F08D1D6
:102EC00004EB83030022DB681B6A07F580579042FE
:102ED0006AD13003D5F8184813D5E10302D5002094
:102EE000FFF744FEA20302D50120FFF73FFE630374
:102EF00002D50220FFF73AFE270302D50320FFF791
:102F000035FE75037FF550AFE00702D50020FFF7CF
:102F1000C1FEA10702D50120FFF7BCFE620702D562
:102F20000220FFF7B7FE23077FF53EAF0320FFF730
:102F3000B1FE39E7636DDFF8E4A0019300274FF09D
:102F40000109A36D9B685FFA87FB9B453FF67DAF48
:102F5000019B03EB4B13D3F8001901F44021B1F5A9
:102F6000802F1FD1D3F8001900291BDAD3F80019DC
:102F700041F09041C3F80019D3F800190029FBDB98
:102F80005946606DFFF718FC218909FA0BF321EA15
:102F90000303238104EB8B03DB689B6813B1594661
:102FA000504698470137CCE7910708BFD7F8008013
:102FB000072A98BF03F8018B02F1010298BF4FEA7C
:102FC000182884E7023304EB830207F58057526820
:102FD000D2F818C0DCF80820DCE9001CA1EB0C0CCE
:102FE000002188420AD104EB830463689B699A68D4
:102FF00002449A605A6802445A606AE711F0030F6B
:1030000008BFD7F800808C4588BF02F8018B01F11A
:10301000010188BF4FEA1828E3E700BFF82F00201E
:10302000436D03EB4111D1F8003B43F40013C1F8A9
:10303000003B7047436D03EB4111D1F8003943F475
:103040000013C1F800397047436D03EB4111D1F80B
:10305000003B23F40013C1F8003B7047436D03EBC2
:103060004111D1F8003923F40013C1F80039704739
:1030700000F1604303F561430901C9B283F800130D
:10308000012200F01F039A4043099B0003F16043B3
:1030900003F56143C3F880211A60704730B5039C83
:1030A0000172043304FB0325C0E90653049B036348
:1030B0000021059BC160C0E90000C0E90422C0E90D
:1030C0000842C0E90A11436330BD0000416A002292
:1030D000C0E90411C0E90A22C2606FF00101FEF7E5
:1030E000F7BE0000D0E90432934201D1C2680AB9A8
:1030F000181D70470020704703691960C2680132CB
:10310000C260C269134482690361934224BF436A67
:1031100003610021FEF7D0BE38B504460D46E368D2
:103120003BB16269131D1268A3621344E36200207D
:1031300007E0237A33B929462046FEF7ADFE002882
:10314000EDDA38BD6FF00100FBE70000C368C2692B
:10315000013BC3604369134482694361934224BFC6
:10316000436A436100238362036B03B118477047CE
:1031700070B53023044683F31188866A3EB9FFF7A1
:10318000CBFF054618B186F31188284670BDA36AA7
:10319000E26A13F8015BA362934202D32046FFF771
:1031A000D5FF002383F31188EFE700002DE9F84FE6
:1031B00004460E46174698464FF0300989F31188A9
:1031C0000025AA46D4F828B0BBF1000F09D141462A
:1031D0002046FFF7A1FF20B18BF311882846BDE8F8
:1031E000F88FD4E90A12A7EB050B521A934528BFB2
:1031F0009346BBF1400F1BD9334601F1400251F811
:10320000040B43F8040B9142F9D1A36A40334036D2
:10321000A3624035D4E90A239A4202D32046FFF73D
:1032200095FF8AF31188BD42D8D289F31188C9E786
:1032300030465A46FDF73AFDA36A5B445E44A362FA
:103240005D44E7E710B5029C0172043303FB0421DF
:10325000C0E906130023C0E90A33039B0363049B00
:10326000C460C0E90000C0E90422C0E90842436329
:1032700010BD0000026AC260426AC0E90422002256
:10328000C0E90A226FF00101FEF722BED0E9042353
:103290009A4201D1C26822B9184650F8043B0B602B
:1032A000704700231846FAE7C368C2690133C36058
:1032B0004369134482694361934224BF436A436173
:1032C0000021FEF7F9BD000038B504460D46E3685D
:1032D0003BB123691A1DA262E2691344E362002034
:1032E00007E0237A33B929462046FEF7D5FD0028AA
:1032F000EDDA38BD6FF00100FBE7000003691960EB
:10330000C268013AC260C269134482690361934290
:1033100024BF436A036100238362036B03B1184730
:103320007047000070B530230D460446114683F304
:103330001188866A2EB9FFF7C7FF10B186F311888E
:1033400070BDA36A1D70A36AE26A01339342A3624F
:1033500004D3E16920460439FFF7D0FF002080F351
:103360001188EDE72DE9F84F04460D469046994641
:103370004FF0300A8AF311880026B346A76A4FB986
:1033800049462046FFF7A0FF20B187F31188304659
:10339000BDE8F88FD4E90A073A1AA8EB0607974266
:1033A00028BF1746402F1BD905F1400355F8042BC1
:1033B00040F8042B9D42F9D1A36A4033A362403602
:1033C000D4E90A239A4204D3E16920460439FFF77D
:1033D00095FF8BF311884645D9D28AF31188CDE742
:1033E00029463A46FDF762FCA36A3B443D44A3628A
:1033F0003E44E5E7D0E904239A4217D1C3689BB164
:10340000836A8BB1043B9B1A0ED01360C368013BE7
:10341000C360C3691A44836902619A4224BF436A44
:103420000361002383620123184670470023FBE7F2
:1034300000F030B94FF08043586A70474FF0804336
:10344000002258631A610222DA6070474FF080430D
:103450000022DA60704700004FF0804358637047E5
:10346000FEE7000070B51B4B01630025044686B0E3
:10347000586085620E4600F0BFF804F11003C4E9FD
:1034800004334FF0FF33C4E90635C4E90044A560B6
:10349000E562FFF7CFFF2B460246C4E9082304F19B
:1034A00034010D4A256580232046FEF7ABFC01233D
:1034B000E0600A4A0375009272680192B268CDE931
:1034C0000223074B6846CDE90435FEF7C3FC06B07E
:1034D00070BD00BF90280020583B00085D3B0008ED
:1034E00061340008024AD36A1843D062704700BFB3
:1034F000282600204B6843608B688360CB68C360DC
:103500000B6943614B6903628B6943620B6803601B
:103510007047000008B5264B26481A6940F2FF1193
:103520000A431A611A6922F4FF7222F001021A6139
:103530001A691A6B0A431A631A6D0A431A651E4AFE
:103540001B6D1146FFF7D6FF02F11C0100F58060EC
:10355000FFF7D0FF02F1380100F58060FFF7CAFFE6
:1035600002F1540100F58060FFF7C4FF02F1700121
:1035700000F58060FFF7BEFF02F18C0100F580606E
:10358000FFF7B8FF02F1A80100F58060FFF7B2FF76
:1035900002F1C40100F58060FFF7ACFF02F1E00129
:1035A00000F58060FFF7A6FFBDE8084000F0EEB828
:1035B0000038024000000240643B000808B500F0FB
:1035C0007DF9FEF7FDFBFFF78FF8BDE80840FEF739
:1035D0006BBE000070470000EFF3098305494A6B9A
:1035E00022F001024A63683383F30988002383F3DE
:1035F0001188704700EF00E0302080F3118862B638
:103600000C4B0D4AD96821F4E0610904090C0A4306
:10361000DA60D3F8FC20094942F08072C3F8FC203C
:103620000A6842F001020A602022DA7783F8220059
:10363000704700BF00ED00E00003FA05001000E055
:1036400010B5302383F311880E4B5B6813F40063CD
:1036500014D0F1EE103AEFF30984683C4FF0807318
:10366000E361094BDB6B236684F30988FEF782FB79
:1036700010B1064BA36110BD054BFBE783F3118826
:10368000F9E700BF00ED00E000EF00E02F030008C5
:10369000320300080F4B1A6C42F001021A641A6ED2
:1036A00042F001021A660C4A1B6E936843F0010354
:1036B00093604FF0804353229A624FF0FF32DA62F8
:1036C00000229A615A63DA605A6001225A611A60D4
:1036D000704700BF00380240002004E04FF08042F5
:1036E00008B51169D3680B40D9B2C9439B07116172
:1036F00007D5302383F31188FEF778FB002383F38B
:10370000118808BD1F4B1A696FEAC2526FEAD25284
:103710001A611A69C2F308021A614FF0FF301A6980
:103720005A69586100215A6959615A691A6A62F0E6
:1037300080521A621A6A02F080521A621A6A5A6A2F
:1037400058625A6A59625A6A1A6C42F080521A6474
:103750001A6E42F080521A661A6E0B4A106840F4D4
:1037600080701060186F00F44070B0F5007F1EBFCD
:103770004FF4803018671967536823F4007353605F
:1037800000F090B80038024000700040334B4FF01A
:1037900080521A64324A4FF4404111601A6842F074
:1037A00001021A601A689107FCD59A6822F0030298
:1037B0009A602A4B9A6812F00C02FBD1196801F04A
:1037C000F90119609A601A6842F480321A601A6826
:1037D0009203FCD55A6F42F001025A671F4B5A6F91
:1037E0009007FCD51F4A5A601A6842F080721A602E
:1037F0001B4A53685904FCD5184B1A689201FCD532
:10380000194A9A60194B1A68194B9A42194B21D1DF
:10381000194A1168194A91421CD140F205121A60E6
:10382000144A136803F00F03052BFAD10B4B9A6867
:1038300042F002029A609A6802F00C02082AFAD159
:103840005A6C42F480425A645A6E42F480425A667C
:103850005B6E704740F20572E1E700BF003802403E
:10386000007000400854400700948838002004E0AD
:1038700011640020003C024000ED00E041C20F4115
:1038800008B50348FDF77AFBBDE80840FFF7D8BE4E
:10389000BC23002008B5FFF721FFBDE80840FFF773
:1038A000CFBE000008B507211C20FFF7E1FBBDE8F3
:1038B00008400C212520FFF7DBBB000008B5FFF70F
:1038C00021FF00F00DF8FDF76DFDFDF753FFFDF74B
:1038D0002BFEFFF77FFEBDE80840FFF7A9BD000003
:1038E00070470000034611F8012B03F8012B002A52
:1038F000F9D17047121000001211000012130000DD
:1039000053544D3332463F3F3F0053544D333246BC
:103910003430780053544D333246343278005354A7
:103920004D333246343436585800000001203300FD
:103930000010410001105A00031059000710310017
:103940000000000000390008130400000A390008D4
:103950001904000014390008210400001E39000871
:1039600000960000000000000000000000000000C1
:10397000000000000000000065130008511300085B
:103980008D130008791300088513000871130008CF
:103990005D13000849130008991300080000000097
:1039A000A514000891140008CD140008B9140008EB
:1039B000C5140008B11400089D14000889140008FB
:1039C000D914000800000000010000000000000001
:1039D00063300000D03900088026002090280020A5
:1039E0004172647550696C6F740025424F415244B6
:1039F000252D424C002553455249414C25000000DD
:103A00000200000000000000C11600082D17000889
:103A100040004000302D0020402D0020020000001A
:103A20000000000003000000000000007117000803
:103A30000000000010000000502D002000000000D9
:103A40000100000000000000F82F0020010102002A
:103A50004522000855210008F1210008D521000861
:103A600043000000683A000809024300020100C058
:103A700032090400000102020100052400100105C2
:103A80002401000104240202052406000107058226
:103A9000030800FF09040100020A000000070501F5
:103AA00002400000070581024000000012000000F3
:103AB000B43A0008120110010200004009124157F7
:103AC00000020102030100000403090425424F41E2
:103AD00052442500466C79696E67524346345769F3
:103AE0006E674D696E6900303132333435363738A0
:103AF0003941424344454600004000000040000078
:103B00000040000000400000000001000000020032
:103B1000000002000000020000000200000002009D
:103B2000000002000000020000000000B5180008BC
:103B30006D1B0008191C0008400040005830002090
:103B40005830002001000000683000208000000094
:103B500040010000030000006D61696E0069646C43
:103B6000650000000000A81600000000AAAAAAAA8A
:103B700000001400FF9F00000000000070A70A0072
:103B80000000000000000000AAAAAAAA000000008D
:103B9000FFFF000000000000000000000000001017
:103BA00000000000AAAAAAAA00000010FFFF00005F
:103BB0000000000000000000000000000000000005
:103BC000AAAAAAAA00000000FFFF0000000000004F
:103BD000000000000000000000000000AAAAAAAA3D
:103BE00000000000FFFF00000000000000000000D7
:103BF0000000000000000000AAAAAAAA000000001D
:103C0000FFFF0000000000000000000000000000B6
:103C100000000000AAAAAAAA00000000FFFF0000FE
:103C20000000000000000000000000000000000094
:103C30000A00000000000000030000000000000077
:103C40000000000000000000000000000000000074
:103C50000000000000000000000000000000000064
:103C6000D90400000000000000000F000000000068
:103C7000FF00000098280020BC23002000960000D0
:103C8000000008009600000000080000040000008A
:103C9000C83A00080000000000000000000000001A
:103CA000000000000000000000000000FFFFFFFF18
:103CB000FFFFFFFFFFFFFFFFFFFFFFFFFFFFFFFF14
:103CC000FFFFFFFFFFFFFFFFFFFFFFFFFFFFFFFF04
:103CD000FFFFFFFFFFFFFFFFFFFFFFFFFFFFFFFFF4
:103CE000FFFFFFFFFFFFFFFFFFFFFFFFFFFFFFFFE4
:020000040801F1
:10000000000600209912010895F20708F1F107088F
:100010005DF20708F1F1070829F207089B120108B1
:100020009B1201089B1201089B12010809C50908CF
:100030009B1201089B1201089B1201089B120108E8
:100040009B1201089B1201089B1201089B120108D8
:100050009B1201089B120108A1D00908C9D0090808
:10006000F1D0090819D1090841D109087D81090891
:10007000A5810908D1810908FD810908298209089B
:10008000518209087D820908018109089B12010833
:100090009B1201089B1201089B12010869D10908F3
:1000A00079D209088DD20908A1D20908A5D2090878
:1000B000A9D20908BDD209089B12010809880908BC
:1000C000B18909089B1201089B1201089B120108C3
:1000D0009B1201083DD209089B1201089B120108DE
:1000E000CDD109089B1201089B120108E1D2090831
:1000F000E5D20908F9D20908FDD20908A982090840
:100100009B1201089B120108D1D209089B12010819
:1001100051D2090865D209089B1201089B120108F7
:10012000D5820908FD820908298309085583090831
:10013000818309089B1201089B1201089B12010888
:100140009B1201089B1201089B12010835CC09087B
:10015000A9830908D5830908018409089B120108AD
:100160009B1201089B1201089B1201089B120108B7
:100170009B1201089B1201089B1201089B120108A7
:100180009B1201089B1201089B1201089B12010897
:100190009B1201089B1201089B1201089B12010887
:1001A0009B1201089B1201089B1201089B12010877
:1001B0009B1201089B1201089B1201089B12010867
:1001C0009B1201089B1201089B1201089B12010857
:1001D0009B1201089B1201089B1201089B12010847
:1001E000713D0108618B0108513602080D9003082A
:1001F000E1F2040849F80408511A0508013305081A
:10020000153C0508453F050895A3050865A80508A0
:10021000BDC40508354E060849AD06087DEB070844
:10022000111009087136090849410908696B090864
:1002300031710908FFFFFFFFFFFFFFFFFFFFFFFF17
:1002400081F0004102E000BF83F0004330B54FEA87
:1002500041044FEA430594EA050F08BF90EA020FF4
:100260001FBF54EA000C55EA020C7FEA645C7FEA87
:10027000655C00F0E2804FEA5454D4EB5555B8BFAA
:100280006D420CDD2C4480EA020281EA030382EA1B
:10029000000083EA010180EA020281EA0303362DAD
:1002A00088BF30BD11F0004F4FEA01314FF4801C80
:1002B0004CEA113102D0404261EB410113F0004F92
:1002C0004FEA03334CEA133302D0524263EB430349
:1002D00094EA050F00F0A780A4F10104D5F1200EE7
:1002E0000DDB02FA0EFC22FA05F2801841F1000142
:1002F00003FA0EF2801843FA05F359410EE0A5F116
:1003000020050EF1200E012A03FA0EFC28BF4CF046
:10031000020C43FA05F3C01851EBE37101F00045FC
:1003200007D54FF0000EDCF1000C7EEB00006EEB09
:100330000101B1F5801F1BD3B1F5001F0CD3490893
:100340005FEA30004FEA3C0C04F101044FEA4452EA
:1003500012F5800F80F09A80BCF1004F08BF5FEA71
:10036000500C50F1000041EB045141EA050130BD51
:100370005FEA4C0C404141EB0101013C28BFB1F563
:10038000801FE9D291F0000F04BF01460020B1FAAE
:1003900081F308BF2033A3F10B03B3F120020CDA81
:1003A0000C3208DD02F1140CC2F10C0201FA0CF05F
:1003B00021FA02F10CE002F11402D8BFC2F1200CC4
:1003C00001FA02F120FA0CFCDCBF41EA0C0190407A
:1003D000E41AA2BF01EB0451294330BD6FEA0404C3
:1003E0001F3C1CDA0C340EDC04F11404C4F12002AE
:1003F00020FA04F001FA02F340EA030021FA04F3C0
:1004000045EA030130BDC4F10C04C4F1200220FA16
:1004100002F001FA04F340EA0300294630BD21FA54
:1004200004F0294630BD94F0000F83F4801306BF1A
:1004300081F480110134013D4EE77FEA645C18BF0E
:100440007FEA655C29D094EA050F08BF90EA020FA5
:1004500005D054EA000C04BF1946104630BD91EA9D
:10046000030F1EBF0021002030BD5FEA545C05D1A0
:100470004000494128BF41F0004130BD14F58004DF
:100480003CBF01F5801130BD01F0004545F0FE4153
:1004900041F470014FF0000030BD7FEA645C1ABF88
:1004A000194610467FEA655C1CBF0B46024650EABF
:1004B000013406BF52EA033591EA030F41F40021EB
:1004C00030BD00BF90F0000F04BF0021704730B571
:1004D0004FF4806404F132044FF000054FF0000146
:1004E00050E700BF90F0000F04BF0021704730B507
:1004F0004FF4806404F1320410F0004548BF4042DC
:100500004FF000013EE700BF42004FEAE2014FEA30
:1005100031014FEA02701FBF12F07F4393F07F4F0B
:1005200081F06051704732F07F4208BF704793F00E
:100530007F4F04BF41F40021704730B54FF4607421
:1005400001F0004521F000411CE700BF50EA010224
:1005500008BF704730B54FF000050AE050EA0102CD
:1005600008BF704730B511F0004502D5404261EB3D
:1005700041014FF4806404F132045FEA915C3FF47E
:10058000D8AE4FF003025FEADC0C18BF03325FEA1B
:10059000DC0C18BF033202EBDC02C2F1200300FACC
:1005A00003FC20FA02F001FA03FE40EA0E0021FAF1
:1005B00002F11444BDE600BF70B54FF0FF0C4CF4DF
:1005C000E06C1CEA11541DBF1CEA135594EA0C0F91
:1005D00095EA0C0F00F0DEF82C4481EA030621EACC
:1005E0004C5123EA4C5350EA013518BF52EA033507
:1005F00041F4801143F4801338D0A0FB02CE4FF0B9
:100600000005E1FB02E506F00042E0FB03E54FF0E8
:100610000006E1FB03569CF0000F18BF4EF0010EE0
:10062000A4F1FF04B6F5007F64F5407404D25FEADC
:100630004E0E6D4146EB060642EAC62141EA55518F
:100640004FEAC52040EA5E504FEACE2EB4F1FD0CD1
:1006500088BFBCF5E06F1ED8BEF1004F08BF5FEA4F
:10066000500E50F1000041EB045170BD06F0004601
:1006700046EA010140EA020081EA0301B4EB5C04AE
:10068000C2BFD4EB0C0541EA045170BD41F48011A6
:100690004FF0000E013C00F3AB8014F1360FDEBFCB
:1006A000002001F0004170BDC4F10004203C35DAA7
:1006B0000C341BDC04F11404C4F1200500FA05F32A
:1006C00020FA04F001FA05F240EA020001F00042CB
:1006D00021F0004110EBD37021FA04F642EB060141
:1006E0005EEA430E08BF20EAD37070BDC4F10C046B
:1006F000C4F1200500FA04F320FA05F001FA04F22F
:1007000040EA020001F0004110EBD37041F100011A
:100710005EEA430E08BF20EAD37070BDC4F1200525
:1007200000FA05F24EEA020E20FA04F301FA05F28D
:1007300043EA020321FA04F001F0004121FA04F235
:1007400020EA020000EBD3705EEA430E08BF20EA05
:10075000D37070BD94F0000F0FD101F0004640003F
:1007600041EB010111F4801F08BF013CF7D041EAC1
:10077000060195F0000F18BF704703F000465200C5
:1007800043EB030313F4801F08BF013DF7D043EA96
:100790000603704794EA0C0F0CEA135518BF95EA4C
:1007A0000C0F0CD050EA410618BF52EA4306D1D1D3
:1007B00081EA030101F000414FF0000070BD50EAF2
:1007C000410606BF1046194652EA430619D094EA7C
:1007D0000C0F02D150EA013613D195EA0C0F05D166
:1007E00052EA03361CBF104619460AD181EA0301BA
:1007F00001F0004141F0FE4141F470014FF0000072
:1008000070BD41F0FE4141F4780170BD70B54FF00C
:10081000FF0C4CF4E06C1CEA11541DBF1CEA13558C
:1008200094EA0C0F95EA0C0F00F0A7F8A4EB05046E
:1008300081EA030E52EA03354FEA013100F0888065
:100840004FEA03334FF0805545EA131343EA12632E
:100850004FEA022245EA111545EA10654FEA0026E3
:100860000EF000419D4208BF964244F1FD0404F59C
:10087000407402D25B084FEA3202B61A65EB0305F8
:100880005B084FEA32024FF480104FF4002CB6EBB5
:10089000020E75EB030E22BFB61A754640EA0C0035
:1008A0005B084FEA3202B6EB020E75EB030E22BF75
:1008B000B61A754640EA5C005B084FEA3202B6EBB6
:1008C000020E75EB030E22BFB61A754640EA9C0075
:1008D0005B084FEA3202B6EB020E75EB030E22BF45
:1008E000B61A754640EADC0055EA060E18D04FEA03
:1008F000051545EA16754FEA06164FEAC30343EAA3
:1009000052734FEAC2025FEA1C1CC0D111F4801F6F
:100910000BD141EA00014FF000004FF0004CB6E768
:1009200011F4801F04BF01430020B4F1FD0C88BF07
:10093000BCF5E06F3FF6AFAEB5EB030C04BFB6EB12
:10094000020C5FEA500C50F1000041EB045170BD05
:100950000EF0004E4EEA113114EB5C04C2BFD4EB32
:100960000C0541EA045170BD41F480114FF0000EB6
:10097000013C90E645EA060E8DE60CEA135594EA32
:100980000C0F08BF95EA0C0F3FF43BAF94EA0C0F35
:100990000AD150EA01347FF434AF95EA0C0F7FF4AA
:1009A00025AF104619462CE795EA0C0F06D152EAFE
:1009B00003353FF4FDAE1046194622E750EA4106E2
:1009C00018BF52EA43067FF4C5AE50EA41047FF4F3
:1009D0000DAF52EA43057FF4EBAE12E74FF0FF3C58
:1009E00006E000BF4FF0010C02E000BF4FF0010C29
:1009F0004DF804CD4FEA410C7FEA6C5C4FEA430CA2
:100A000018BF7FEA6C5C1BD001B050EA410C0CBFF0
:100A100052EA430C91EA030F02BF90EA020F002052
:100A2000704710F1000F91EA030F58BF994208BFB9
:100A300090422CBFD8176FEAE37040F00100704776
:100A40004FEA410C7FEA6C5C02D150EA013C07D1CD
:100A50004FEA430C7FEA6C5CD6D152EA033CD3D018
:100A60005DF8040B704700BF8446104662468C4612
:100A70001946634600E000BF01B5FFF7B7FF002845
:100A800048BF10F1000F01BD4DF808EDFFF7F4FF6E
:100A90000CBF012000205DF808FB00BF4DF808EDF9
:100AA000FFF7EAFF34BF012000205DF808FB00BF1C
:100AB0004DF808EDFFF7E0FF94BF012000205DF83E
:100AC00008FB00BF4DF808EDFFF7CEFF94BF0120F3
:100AD00000205DF808FB00BF4DF808EDFFF7C4FFEC
:100AE00034BF012000205DF808FB00BF4FEA410C35
:100AF0007FEA6C5C02D150EA013C0AD14FEA430C18
:100B00007FEA6C5C02D152EA033C02D14FF0000054
:100B100070474FF0010070474FEA410212F5001292
:100B200015D211D56FF47873B3EB625212D94FEA34
:100B3000C12343F0004343EA505311F0004F23FA1E
:100B400002F018BF404270474FF00000704750EA73
:100B5000013005D111F0004008BF6FF00040704730
:100B60004FF00000704700BF4A0011D212F500128A
:100B700011D20DD56FF47873B3EB62520ED44FEAF5
:100B8000C12343F0004343EA505323FA02F0704775
:100B90004FF00000704750EA013002D14FF0FF30B3
:100BA00070474FF0000070474FEA4102B2F1E04356
:100BB00024BFB3F5001CDCF1FE5C0DD901F0004C44
:100BC0004FEAC0024CEA5070B2F1004F40EB830094
:100BD00008BF20F00100704711F0804F21D113F1C0
:100BE0003872BCBF01F00040704741F480114FEAF9
:100BF0005252C2F11802C2F1200C10FA0CF320FA82
:100C000002F018BF40F001004FEAC1234FEAD3239E
:100C100003FA0CFC40EA0C0023FA02F34FEA430308
:100C2000CCE77FEA625307D150EA01331EBF4FF091
:100C3000FE4040F44000704701F0004040F0FE40AC
:100C400040F40000704700BF80F0004002E000BFA9
:100C500081F0004142001FBF5FEA410392EA030FA7
:100C60007FEA226C7FEA236C6AD04FEA1262D2EBF1
:100C70001363C1BFD218414048404140B8BF5B42F6
:100C8000192B88BF704710F0004F40F4000020F08F
:100C90007F4018BF404211F0004F41F4000121F0A5
:100CA0007F4118BF494292EA030F3FD0A2F10102EF
:100CB00041FA03FC10EB0C00C3F1200301FA03F12D
:100CC00000F0004302D5494260EB4000B0F5000F50
:100CD00013D3B0F1807F06D340084FEA310102F10F
:100CE0000102FE2A51D2B1F1004F40EBC25008BFC1
:100CF00020F0010040EA03007047490040EB00008B
:100D0000013A28BFB0F5000FEDD2B0FA80FCACF18B
:100D1000080CB2EB0C0200FA0CF0AABF00EBC250B8
:100D200052421843BCBFD0401843704792F0000FA6
:100D300081F4000106BF80F400000132013BB5E7F9
:100D40004FEA41037FEA226C18BF7FEA236C21D06F
:100D500092EA030F04D092F0000F08BF08467047D4
:100D600090EA010F1CBF0020704712F07F4F04D1A2
:100D7000400028BF40F00040704712F100723CBFB5
:100D800000F50000704700F0004343F0FE4040F4DF
:100D9000000070477FEA226216BF08467FEA23639D
:100DA0000146420206BF5FEA412390EA010F40F488
:100DB000800070474FF0000304E000BF10F00043D4
:100DC00048BF40425FEA000C08BF704743F09643BB
:100DD00001464FF000001CE050EA010208BF7047D6
:100DE0004FF000030AE000BF50EA010208BF70475D
:100DF00011F0004302D5404261EB41015FEA010C72
:100E000002BF84460146002043F0B64308BFA3F169
:100E10008053A3F50003BCFA8CF2083AA3EBC2534B
:100E200010DB01FA02FC634400FA02FCC2F120026A
:100E3000BCF1004F20FA02F243EB020008BF20F0A1
:100E40000100704702F1200201FA02FCC2F1200207
:100E500050EA4C0021FA02F243EB020008BF20EAFC
:100E6000DC7070477BB972B90029BEBF00204FF01B
:100E7000004106E008BF00281CBF6FF000414FF0A2
:100E8000FF3000F007BAADF1080C6DE904CE00297F
:100E900009DB002B1ADB00F095F8DDF804E0DDE952
:100EA000022304B07047404261EB4101002B1BDB81
:100EB00000F088F8DDF804E0DDE9022304B04042E8
:100EC00061EB4101524263EB43037047524263EBD3
:100ED000430300F077F8DDF804E0DDE9022304B015
:100EE000404261EB41017047524263EB430300F023
:100EF00069F8DDF804E0DDE9022304B0524263EB57
:100F00004303704753B94AB9002908BF00281CBFE2
:100F10004FF0FF314FF0FF3000F0BCB9ADF1080CDD
:100F20006DE904CE00F04EF8DDF804E0DDE90223BF
:100F300004B07047430803F05533C01A830803F028
:100F4000333300F03330184400EB101000F00F3052
:100F500000EB002000EB0040000E704707EE900A07
:100F6000F5EEC07AF1EE10FA01D400F00BB8F1EE14
:100F7000677A08B517EE900A00F004F8404261EB7A
:100F8000410108BDD0B5FFF7BFFA0C4B0022064661
:100F90000F46FFF711FBFFF7E7FD0446FFF792FA54
:100FA000074B0022FFF708FB02460B463046394646
:100FB000FFF74AF9FFF7D8FD2146D0BD0000F03D0C
:100FC0000000F0412DE9F047089D04468E46002BB5
:100FD0004DD18A42944669D9B2FA82F252B101FAED
:100FE00002F3C2F1200120FA01F10CFA02FC41EAFD
:100FF000030E94404FEA1C48210CBEFBF8F61FFA82
:101000008CF708FB16E341EA034306FB07F199421C
:101010000AD91CEB030306F1FF3080F01F819942CF
:1010200040F21C81023E63445B1AA4B2B3FBF8F0A9
:1010300008FB103344EA034400FB07F7A7420AD930
:101040001CEB040400F1FF3380F00A81A74240F258
:1010500007816444023840EA0640E41B00261DB1C3
:10106000D4400023C5E900433146BDE8F0878B42F8
:1010700009D9002D00F0EF800026C5E900013046B7
:101080003146BDE8F087B3FA83F6002E4AD18B4291
:1010900002D3824200F2F980841A61EB030301203B
:1010A0009E46002DE0D0C5E9004EDDE702B9FFDE27
:1010B000B2FA82F2002A40F09280A1EB0C014FEAD2
:1010C0001C471FFA8CFE0126200CB1FBF7F307FB2F
:1010D000131140EA01410EFB03F0884208D91CEBD2
:1010E000010103F1FF3802D2884200F2CB8043466F
:1010F000091AA4B2B1FBF7F007FB101144EA01444E
:101100000EFB00FEA64508D91CEB040400F1FF31DC
:1011100002D2A64500F2BB800846A4EB0E0440EACA
:1011200003409CE7C6F12007B34022FA07FC4CEAD3
:10113000030C20FA07F401FA06F31C43F9404FEAC6
:101140001C4900FA06F3B1FBF9F8200C1FFA8CFEDB
:1011500009FB181140EA014108FB0EF0884202FA2F
:1011600006F20BD91CEB010108F1FF3A80F08880F0
:10117000884240F28580A8F102086144091AA4B2AD
:10118000B1FBF9F009FB101144EA014100FB0EFE2E
:101190008E4508D91CEB010100F1FF346CD28E455D
:1011A0006AD90238614440EA0840A0FB0294A1EBEE
:1011B0000E01A142C846A64656D353D05DB1B3EB4B
:1011C000080261EB0E0101FA07F722FA06F3F1407B
:1011D0001F43C5E9007100263146BDE8F087C2F122
:1011E0002003D8400CFA02FC21FA03F3914001439A
:1011F0004FEA1C471FFA8CFEB3FBF7F007FB1036D3
:101200000B0C43EA064300FB0EF69E4204FA02F47E
:1012100008D91CEB030300F1FF382FD29E422DD9D1
:10122000023863449B1B89B2B3FBF7F607FB163306
:1012300041EA034106FB0EF38B4208D91CEB010186
:1012400006F1FF3816D28B4214D9023E6144C91A06
:1012500046EA004638E72E46284605E70646E3E616
:101260001846F8E64B45A9D2B9EB020864EB0C0E20
:101270000138A3E74646EAE7204694E74046D1E72F
:10128000D0467BE7023B614432E7304609E76444DD
:10129000023842E7704700BF02E000F000F8FEE7C6
:1012A00072B6374880F30888364880F30988364894
:1012B0003649086040F20000CCF200004EF634716E
:1012C000CEF200010860BFF34F8FBFF36F8F40F283
:1012D0000000C0F2F0004EF68851CEF20001086026
:1012E000BFF34F8FBFF36F8F4FF00000E1EE100A96
:1012F0004EF63C71CEF200010860062080F314889F
:10130000BFF36F8F8BF05EF98CF0F4FA4FF055302D
:101310001F491B4A91423CBF41F8040BFAE71D49A3
:10132000184A91423CBF41F8040BFAE71A491B4A9C
:101330001B4B9A423EBF51F8040B42F8040BF8E7EE
:1013400000201849184A91423CBF41F8040BFAE7C3
:101350008BF03CF98CF022FB144C154DAC4203DAB7
:1013600054F8041B8847F9E702F0F2FC114C124DC7
:10137000AC4203DA54F8041B8847F9E78BF024B930
:1013800000060020002200200000010808ED00E017
:10139000000000200006002020940B0800220020FE
:1013A0005C2600206026002028360120E00101088C
:1013B0003402010834020108340201082DE9F04F1B
:1013C0002DED108AC1F80CD0C3689D46BDEC108A83
:1013D000BDE8F08F002383F311882846A047002042
:1013E00089F0EAFFFEE789F041FE00DFFEE700003A
:1013F00001F0FF01102A2BDB10F0070F08D010F8C6
:10140000013B013A8B422DD010F0070F42B3F6D1C9
:10141000F0B441EA012141EA014122F007047FF0E2
:1014200000070023F0E80256083C85EA010586EA39
:10143000010685FA47F5A3FA87F586FA47F6A5FA75
:1014400087F68EB9EED1F0BC01F0FF0102F0070281
:1014500032B110F8013B013A83EA010313B1F8D12C
:101460000020704701387047002D06BF354603380D
:10147000073815F0010F07D1013015F4807F02BF46
:10148000013015F4C03F0130F0BC0138704700BF97
:1014900010F8012B11F8013B012A28BF9A42F7D01E
:1014A000D01A7047034613F8012B002AFBD1181AF3
:1014B0000138704738B50022002304460D46FFF777
:1014C000EDFA28B920462946BDE8384000F00AB8B0
:1014D000204605F1004100F005F8404261EB410172
:1014E00038BD00BFD0B50C4B002206460F46FFF7B3
:1014F00063F8FFF739FB0446FEF7E4FF074B0022D1
:10150000FFF75AF802460B4630463946FEF79CFE76
:10151000FFF72AFB2146D0BD0000F03D0000F0415E
:10152000036800221B6818471FB5094BD3F8F82A37
:101530000092D3F8FC2A0192D3F8002B0292D3F840
:10154000043B03936A4664F045F905B05DF804FB7B
:101550007846002008B51548022104F041F808B18A
:10156000012008BD1148042104F03AF80028F7D101
:1015700049F072F91F214AF031F90028F0D149F001
:101580006BF951214AF02AF90028E9D149F064F9B0
:1015900099214AF023F90028E2D149F05DF9A5210B
:1015A0004AF01CF9003818BF0120DAE7782600203D
:1015B00037B5C47F0191054664B90F4B1B68986A23
:1015C00003685B6B98470199044630B90B4A28467B
:1015D00063F03AFB204603B030BD28460191FFF787
:1015E000B9FF0199044608B9054AF0E7284603B057
:1015F000BDE8304064F04EB970260020C4470A08A8
:10160000DB470A08F0B591B005460E4663F080FB53
:101610000446D8B11021284663F01EF9B0B100216C
:101620002E2204A803AF03918EF026FF0BF01AFAC6
:1016300032233A4600210AF0FBFC044630B9054B40
:10164000009732461021284663F00CF9204611B06D
:10165000F0BD00BF1C480A082DE9F043DFF86081A7
:1016600098F8003087B005460E461746002B40F02C
:101670008C800123402188F8003063F0EDF818B326
:1016800049F0EAF8036999061ED5414BB3F9E29295
:10169000B9F1010F18D1D3F8000B49F0EBFA044669
:1016A00090B93C4B00934A463B4B4021284663F09F
:1016B000D9F83A4A88F80040137843F001031370D0
:1016C000204607B0BDE8F0833A463146284662F02E
:1016D000F9FF04460028ECD0314803F02DF9314BD6
:1016E00001221A710B263AF063FA013E3AF0FEF934
:1016F00016F0FF06F7D12C49284664F057F80BF096
:10170000B1F9D0F80C3207462848C0F8783697F877
:101710009432DA0706D59B0704D43146A0F5804001
:1017200002F062FC224B1B68D86A036801211B6827
:1017300098471B4808F0B6FC01211E486BF000F8E2
:10174000174803F0EBF83FF0FFFA3EF037FF0023B5
:1017500002A888F8003011F0E9FB02A938460AF027
:1017600055FF0028ACD147F059FD0421124A42F040
:1017700025FE2021284663F06FF80028A0D00F4BEB
:1017800001222021284663F06DF8002498E700BF6D
:101790007846002046480A0828480A082C8A002073
:1017A000782600200D8A00204F480A08786600201D
:1017B000702600209C6900205D480A087A480A08C3
:1017C00060260020F0B5234B93F8EF3387B0054631
:1017D0001BB90024204607B0F0BD62F04BFF044661
:1017E0000028F6D01C49284663F0E0FF0BF03AF9D8
:1017F000064609F0CFFED0B112F0C8FC90F92430B3
:10180000022B14D100250027E9B203AA3046039722
:101810000497059701910AF0A7FA28B112F0B6FCD7
:10182000019903AA12F0E0F90135032DECD1002152
:101830000A486AF085FF0A4827F088F9094B1B68B7
:10184000D86A036800211B689847074803F0B6FE72
:10185000C0E700BF78660020AC480A089C690020F9
:10186000D8510020702600207826002038B500F5D9
:101870009A402DED048B48300D461446F0EE419A07
:10188000B0EE608AF0EE408A65F04CFBDFED1F0A97
:10189000B0EE401A0B20B0EE409AB0EE690A22F08A
:1018A0000FF89FED1B7ADFED1B9AC9EE077A67EE02
:1018B000A88A27EE888A68EEA87AE8EE087AB1EE60
:1018C000E77AB4EEC70AF1EE10FA42BFC0EE077A2B
:1018D00028EE278A68EEA78A28EE290A8CF0ECF910
:1018E000B0EE409A28EEA90A8CF076FB29EE000AA9
:1018F0008CF0C2F8DFED087A20EE270A85ED000AA9
:1019000084ED008ABDEC048B38BD00BF00007A4432
:1019100000A08C45D40237399F0CB34507EE901ACE
:1019200000F50050F8EEE77A90EDD40A27EE800A31
:101930007047000073B5044600F5915001A91830B6
:1019400004F580460AF0DAFBD6F82C3183420546CE
:1019500006D004F59A40483065F066FCC6F82C5174
:1019600002B070BD38B5104A13780133DBB2032BD7
:10197000044600F5804505D8137005F6544595EDED
:10198000000A38BD00F5984000237030137069F0EC
:101990000FFE04F59841483122F03EF905F6544314
:1019A00083ED000AE9E700BF6126002038B5044650
:1019B00000F598402DED028B703069F0FFFD054673
:1019C00023F0A6FF2046B0EE408A09F023F904F583
:1019D0008044C0B1DFED0F7AB4EEE78AF1EE10FA81
:1019E00011DDD5ED000A95ED010A8CF087FBDFEDE6
:1019F0000A7A20EE270ADFED097A20EE270A04F69C
:101A0000644383ED000ABDEC028B04F6644494ED5C
:101A1000000A38BD00401C46E02E65420000C84266
:101A200070B500F58046044696F81D339B070D46B9
:101A300002D59FED200A70BD084649F029F804F54B
:101A40000053B5F90C10B3F9DC2207EE902AB5F972
:101A50001020521A07EE102AF8EEE77AF8EEC76A5D
:101A600077EEA77A06F62C4687EEA66A96ED007A00
:101A700066EE476AB4EEE60AF1EE10FA0AD5B3F95B
:101A8000D83207EE903A30EE660AF8EEE77A27EEA3
:101A9000800AD0E727EE067AB4EEC70AF1EE10FA14
:101AA000C7DDB3F9D83207EE903A30EE470AF8EEC8
:101AB000E77AECE70000000000F5A553D3ED005AEB
:101AC000D2ED007AD3ED036A91ED006A26EEE77A53
:101AD00067EEA57AA6EE257AE6EE267A81ED007A03
:101AE000C2ED007A7047000000F50050B0F9D63220
:101AF00033B9B0F9D4020028B8BF404280B2704771
:101B000083EAE370A0EBE370F8E7000070B52DED19
:101B1000028B00F5804682B096F81D1311F0020189
:101B2000054605D09FED2D0A02B0BDEC028B70BDBD
:101B3000DFED2B8ADFED290A0191B0EE681A6220F1
:101B400021F0BEFE05F500540199B4F9DC024FF412
:101B5000C872B0EE408A21F0F1FEA4F8DC02D4F89D
:101B6000000B48F0DBFEB4F9DC3207EE900AB8EE69
:101B7000E77A07EE903A06F62C46D6ED006AF8EEC4
:101B8000E77A67EEA67A77EE676AB4EEE68AF1EE58
:101B900010FA0DD52846FFF7A7FF07EE900A38EE9A
:101BA000668AB8EEE70A20EE088A88EE260ABBE7C6
:101BB00077EE877AB4EEE78AF1EE10FAB2DDB4F987
:101BC000D43200EE103A38EE678AB8EEC00A78EEEA
:101BD000E77A20EE088A88EE270AA5E700000000D1
:101BE00000007A4470470000704700007047000012
:101BF0000020704700207047002070470120704788
:101C000070470000704700000C4991F8F832102B23
:101C10000FD801229A400A4B1340002B0CBF102012
:101C2000182091F8EF3333B940F0400040F0010044
:101C300070471020F5E740F0C000F7E77866002015
:101C4000980001007047000010B5044644F060F8A9
:101C500005486AF049FE054A034606212046BDE8CC
:101C6000104044F03DB800BF9C69002000490A08BC
:101C700000B513EE103A8DB06222CDF8253013EE88
:101C8000903ACDF829302123CDE900328DF8241087
:101C9000192303AAC2218DED030ACDED040A8DEDAF
:101CA000051ACDED061A8DED072ACDED082A41F073
:101CB000EBF90DB05DF804FB08B50B4840F010F9E6
:101CC0000346DFED0A0A93ED000A9E20B7EE001AE4
:101CD00021F0F6FDDFED067A20EE270ABDEEC00A00
:101CE00010EE103A18B208BDE069002000000000B4
:101CF0000000C842014801F0E3BF00BF7826002081
:101D000008B5064801F0DCFFDFED057A20EE270A72
:101D1000FDEEC07A17EE900A08BD00BF78260020BD
:101D200000007A4444F002BEF8B56F4E04460AF053
:101D300099FEB6F8F0320546D80735D506F53E537C
:101D4000DFED6A7AD3ED002A13ED012A53ED021A72
:101D500093ED011A13ED050A9FED657AD5EDCB0AD7
:101D6000D3ED033A93ED043A207C62EEA72A22EEEB
:101D7000272A61EEA71A21EE271A60EE870A20EEC5
:101D8000270A0121FFF774FF207C41F013F9074671
:101D9000207C42F0B5F800F121039F4204D2207C60
:101DA000BDE8F84042F0E4BCB6F8F03299072FD510
:101DB000504BDFED4E7AD3ED1A2A93ED192AD3ED6D
:101DC000181A93ED1B1A93ED150A9FED497AD5ED7C
:101DD000CC0AD3ED1D3A93ED1E3A207C62EEA72A81
