:020000040800F2
:1000000000400020A1020008E9020008E9020008FF
:10001000E9020008E9020008E90200080000000007
:10002000000000000000000000000000E9020008DD
:10003000E902000800000000E9020008E9020008E7
:10004000E9020008E9020008E9020008E9020008E4
:10005000E9020008E9020008E9020008E9020008D4
:10006000E9020008E9020008E9020008E9020008C4
:10007000E9020008E9020008E9020008E9020008B4
:10008000E9020008E9020008E9020008E52000088A
:10009000DD200008E1200008F9200008E90200083E
:1000A000E9020008E9020008E9020008E902000884
:1000B000E9020008E9020008E9020008E902000874
:1000C000E9020008E9020008E9020008E902000864
:1000D000E9020008E9020008E9020008E902000854
:1000E000E9020008E9020008E90200080000000037
:1000F0000000000000000000000000000000000000
:1001000000000000E9020008E90200080000000009
:10011000E9020008E90200080000000000000000F9
:10012000E9020008E9020008E9020008E902000803
:1001300000000000000000000000000000000000BF
:10014000000000000000000000000000E9020008BC
:100150000000000000000000E9020008E9020008B9
:10016000000000000000000000000000E90200089C
:1001700053B94AB9002908BF00281CBF4FF0FF310E
:100180004FF0FF3000F00CB8ADF1080C6DE904CE73
:1001900003F044F9DDF804E0DDE9022304B0704720
:1001A000704700BF000000000000000000000000D9
:1001B00001F0FF01102A2BDB10F0070F08D010F818
:1001C000013B013A8B422DD010F0070F42B3F6D11C
:1001D000F0B441EA012141EA014122F007047FF035
:1001E00000070023F0E80256083C85EA010586EA8C
:1001F000010685FA47F5A3FA87F586FA47F6A5FAC8
:1002000087F68EB9EED1F0BC01F0FF0102F00702D3
:1002100032B110F8013B013A83EA010313B1F8D17E
:100220000020704701387047002D06BF354603385F
:10023000073815F0010F07D1013015F4807F02BF98
:10024000013015F4C03F0130F0BC0138704700BFE9
:10025000034613F8012B002AFBD1181A0138704706
:1002600010B5054C237833B9044B13B10448AFF3F0
:1002700000800123237010BDA9130020000000009E
:10028000C037000808B5034B1BB103490348AFF35F
:10029000008008BD00000000AC130020C03700083B
:1002A000002103E00B4B5B58435004310A480B4BD1
:1002B00042189A42F6D30A4A02E0002342F8043B6D
:1002C000084B9A42F9D300F005FE03F00FFA00F054
:1002D00033FE704774390008000000200C00002035
:1002E00010000020C4130020FEE703686FF34103F1
:1002F0000360036843F0010303604FF480334268F6
:10030000D20701D4013BFAD1436813F0010325D091
:100310000B88C269013B63F30B02C261C3698A782F
:1003200062F31963C361C369CA7862F31343C3619B
:10033000C3690A7962F31653C36103686FF300035C
:1003400003604FF480334268D20701D5013BFAD1F4
:10035000406800F0010080F00100704718467047C7
:10036000002343708370C370037143718371037002
:10037000704703686FF341030360036843F00103B0
:1003800003604FF480334268D20701D4013BFAD1B5
:10039000436813F0010339D003684A7862F3C71346
:1003A000036003688A7862F3861303600368CA787F
:1003B00062F34513036003680A7962F30413036070
:1003C00003684A7962F3C303036003688A7962F3BE
:1003D00082030360C2690B7863F39E72C261C269D3
:1003E000C3F3400363F3DF72C26103686FF300037A
:1003F00003604FF480334268D20701D5013BFAD144
:10040000406800F0010080F0010070471846704716
:10041000D0F80032CA7843F00103C0F8003270B55A
:10042000D0F81C320124944023EA0403C0F81C32A3
:100430000B79E543E3B1012B36D04B78002B4FD03D
:10044000012B53D08B78002B54D0012B58D00B7834
:10045000002B59D0012B04D1D0F81C321C43C0F81A
:100460001C42D0F800326FF30003C0F8003270BDB8
:10047000D0F80C322B40C0F80C328B8900EBC20252
:100480001B04C2F84032D2F840620B893343C2F8F1
:1004900040324B891B04C2F84432D2F84462CB8804
:1004A0003343C2F84432C8E7D0F80C32CE88234335
:1004B000C0F80C3200EBC2033604C3F84062D3F834
:1004C00040620A893243C3F840224A891204C3F8C1
:1004D0004422D3F844628A893243C3F84422ACE709
:1004E000D0F804322B40C0F80432ABE7D0F8043225
:1004F0002343F8E7D0F814322B40C0F81432A6E7B3
:10050000D0F814322343F8E7D0F81C322B40C0F85F
:100510001C32A6E7F0B582685401034635D48268E0
:10052000100134D49A68D20041D5022003EB0014A4
:10053000D4F8802102F00102C4F8802100F11802F1
:1005400015010E7A5F5966F382075F510EB3012ED3
:1005500025D014014E7A1D5966F341051D5103EB58
:1005600002128E7A556866F30305556003EB00129C
:10057000D1F80B50C2F88851D1F80F10C2F88C1185
:100580001A5942F001021A51F0BD0020CEE70120B5
:10059000CCE70E685C5966F35F545C51D9E7D4F838
:1005A00080514E6845EAC605C4F88051D1E7042061
:1005B000EAE711B1012903D070472023C3607047D7
:1005C00020230361704701F11B0370B41C0105591E
:1005D000C5F38006167204596D0755BF640DE40813
:1005E000146054601C0100EB03130459C4F340046D
:1005F00054725C68C4F3030494725B68C3F307230A
:10060000D37400EB011303F5DC74D3F8B851D57241
:10061000D3F8B851C5F307251573D3F8B851C5F30E
:1006200007455573D3F8B831C3F307639373636811
:10063000D3736368C3F3072313746368C3F3074377
:1006400053746368C3F3076370BC9374FFF7B1BF5F
:10065000436912B119434161704723EA0101FAE786
:10066000114B1A6842F001021A601A689207FCD511
:100670005A686FF301025A605A6812F00C0FC2F305
:100680008101F9D11A6822F0867222F480321A6050
:1006900041F610725960DA624FF480121A634FF417
:1006A0001F029A60704700BF00100240030C03F164
:1006B000804303F5043300F01F001A68012303FA96
:1006C00000F030EA02030CBF012000207047030C49
:1006D00003F1804303F50433012200F01F0002FA06
:1006E00000F091421A680CBF104322EA0000186023
:1006F0007047000004281FD8DFE800F003090E133C
:1007000019000E4B1A6861F300021A6070470B4B18
:100710001A6861F31042F8E7084B1A6861F318622F
:10072000F3E7064B1A6A61F300021A627047034B43
:100730005A6A61F300025A62704700BF001002401B
:10074000024B5A6860F307125A607047001002406B
:10075000024B5A6860F30A225A6070470010024048
:10076000024B5A6860F3CD225A6070470010024075
:1007700010B51A4B5A6820B960F3104218485A60F5
:1007800009E042F480325A6001285A6821D16FF39F
:10079000514214485A606FF41874A0F56E12224446
:1007A000114CA24218D9114A02441148824294BF06
:1007B00002220022586861F3954058605868C1F3DE
:1007C000011161F35E705860D96A62F31A61D962EF
:1007D00010BD42F40032D1E70022EBE700100240E6
:1007E00000093D0000127A00DEC810006BCA88FFC5
:1007F0007AE50700024B5A6860F301025A607047BD
:1008000000100240024B5868C0F38100704700BFDF
:100810000010024070B53A4C636813F00C0F0546A7
:10082000C3F381021AD0022A45D16068E36A002B23
:10083000C0F3004048DB6368626812F0C04FC3F346
:100840008343C2F3417101D10F2B36D1013303EB46
:100850000113002833D12B4A534306E0636D9805FA
:1008600029D5236B990126D5274B2B606368274A2E
:100870002748C3F30313D15C2B68CB406B606168DE
:10088000C1F302211144097C23FA01F1E960616896
:10089000C1F3C221415CCB40AB6060686168C0F3CA
:1008A0000070C1F3813141EA80010A44127EB3FB3A
:1008B000F2F32B6170BD174BD7E70233C9E76268CB
:1008C0009203C8D4134AC7E7E26AE16AE36AC2F353
:1008D0000312C1F3082103F0070370B160680D4EE5
:1008E00010F4003F074808BF30469A40A1FB0001C2
:1008F0000023FFF73DFC2860B8E70248F5E700BF9A
:100900000010024000093D00006CDC02D8370008EE
:10091000E837000800127A00044B5A6D01280CBF1A
:1009200042F030026FF305125A6570470010024022
:10093000024BCA225A6253225A6270470028004072
:1009400007B500230193074B03EB80030193FFF7E7
:10095000EFFF019B1960044BFF225A6203B05DF860
:1009600004FB00BF502800400028004082B0002354
:100970000193044B03EB80030193019B186802B0C1
:10098000704700BF50280040014BD860704700BF3F
:1009900000200240084BDA68D10709D4DA68520710
:1009A00008D4DB6813F0100F14BF02200320704737
:1009B00000207047012070470020024010B5044617
:1009C000FFF7E8FF30B90CB9042010BDFFF7E2FFD4
:1009D000013CF7E7002C08BF0420F6E7034B044A6C
:1009E0005A6002F188325A60704700BF002002400E
:1009F00023016745024A136943F08003136170477E
:100A00000020024010B5094C236943F00203236122
:100A10006061236943F0400323614FF08040FFF79A
:100A2000CDFF23696FF34103236110BD0020024015
:100A300010B5074C236943F00103236101604FF4B3
:100A40008010FFF7BBFF23696FF30003236110BD24
:100A500000200240F0B50A688E7994B2032E254634
:100A60001AD076B94979182901F00F0305D104612C
:100A7000D2B29AB9FF2C27D8F0BD2829F8D1446109
:100A8000F6E70B79C97903F0040306F0080633434F
:100A900001F003010B43EBE70023E9E700210F27F7
:100AA00045FA01F2D6070BD506688A0007FA02FC60
:100AB00026EA0C060660066803FA02F23243026078
:100AC00001310829ECD1D5E7240A00210F2644FA88
:100AD00001F2D2070BD545688A0006FA02F725EA2B
:100AE00007054560456803FA02F22A434260013176
:100AF0000829ECD1C0E70000024B4FF6FF72C0E9B5
:100B00000023704700040003C0F3072330B5C3F18E
:100B10002003C0F307441A1B4FF0FF339340D34028
:100B2000020E02F1804202F58032E3401568A340D4
:100B300025EA030309B9136030BDC0B2A0401843D1
:100B40001060F9E7194BF0B5DC68C4F30224C4F176
:100B50000706042E04F1040328BF04264FF0FF37D4
:100B6000062B07FA06F38CBF033C002421EA03039B
:100B7000A34007FA04F422EA040423431B010028DB
:100B8000C5B2DBB20CDB0A4A111881F8003301232D
:100B9000400905F01F0503FA05F542F82050F0BDA5
:100BA000044A05F00F055355F9E700BF00ED00E0DA
:100BB00000E100E014ED00E000280DDB4309012214
:100BC00000F01F0002FA00F02033044A42F823002C
:100BD000BFF34F8FBFF36F8F704700BF00E100E09E
:100BE0000749CA6822F4E0620302120403F4E063D6
:100BF000120C134343F0BF6343F40033CB607047E0
:100C000000ED00E0024B1A6860F308221A6070479A
:100C1000007000402DE9F84342EA01039B070546B6
:100C20000E46144631D14FEA9108FFF7D7FE184B14
:100C3000B3F8E030802B8CBF4FF400624FF4806239
:100C4000B4FBF2F302FB134313B92046FFF7DAFEBD
:100C500005EB88082F46A4EB050947450BD1FFF7A4
:100C6000C9FE32462146284602F064FDB0FA80F003
:100C70004009BDE8F883396809EB0700FFF7D8FEA3
:100C80000320FFF781FE0437E7E70020F1E700BF0C
:100C900000F7FF1F02F05EBD10B5154B1B78012B4E
:100CA00003D0144B00221A8010BD134C236803F1AB
:100CB0006043B3F5803FF4D8636803F17843A3F54C
:100CC0008043B3F5802FECD800F052FF0028E8D025
:100CD00001F09DF972B6094B1A686FF300021A60B1
:100CE000D4E900329D4683F308881047DCE700BF53
:100CF00000F8010810000020004000080004004037
:100D000070B51448ADF5806DFFF7D0FC01281ED1F9
:100D1000114CA378112B1AD0013BDBB2FD2B16D856
:100D20004FF480622146684602F014FD0B4E1123F9
:100D30008DF802306D46224628464FF4807104F546
:100D40008074FFF767FFB44205F58075F3D10DF5A8
:100D5000806D70BD1C00240000F8010800FC010833
:100D60000549064B4A6A92B25A804B6A9B1A9BB25B
:100D70009842FAD8704700BF0004004010000020DD
:100D8000074A10231361136823F4702343F40033DC
:100D90001360044B1B7913B13420FFF7E1BF704798
:100DA000000C014010000020F8B50C4E102705463D
:100DB00077613420FFF7D4FF0824EB074CBF37617D
:100DC00077613420013CFFF7CBFF14F0FF044FEABA
:100DD0005505F2D1014B10221A61F8BD000C0140FB
:100DE000034A136823F4702343F4C013136070475D
:100DF000000C014010B50446FFF7C2FF2046FFF784
:100E0000D3FFBDE81040FFF7EBBF000008B530206E
:100E1000FFF7F0FF014B00221A8008BD10000020F0
:100E200008B5C220FFF7E6FF024A1388013313809A
:100E300008BD00BF1000002008B5C120FFF7DAFF91
:100E4000024A13880133138008BD00BF1000002040
:100E500038B504460D46FFF793FF254414F8010BFF
:100E6000FFF7A2FF3420FFF77BFFAC42F6D1BDE8CD
:100E70003840FFF7B5BF000008B504480921FFF767
:100E8000E7FF034B01221A7108BD00BF5839000863
:100E9000100000200A4A536D9B050FD5136B0949BA
:100EA00013F0007F084B18BF0B4652680749C2F386
:100EB00003128A5CD340064A13607047024BF4E782
:100EC00000100240006CDC0200127A00F8370008C3
:100ED0000000002070470023F0B504464AF20107E5
:100EE0001846994200DCF0BDE55C082285EA000660
:100EF00016F0010F4FEA500018BF784002F1FF32A0
:100F000018BF80B212F0FF024FEA5505EED101334F
:100F1000E7E7000010B5074C0146601DFFF7DBFF57
:100F200021448A794B7943EA02231B1A58425841DB
:100F300010BD00BF100000202DE98048B94B85B0DE
:100F40004FF4AA7200AF1A60FFF78AFB012100205C
:100F5000FFF7D0FB0120FFF7A9FB01280446F9D1D8
:100F600023210020FFF704FC21460220FFF7C2FBEB
:100F70001920FFF79BFB01280446F9D10020FFF759
:100F8000DFFB0420FFF7ECFB0420FFF7E1FB20462A
:100F9000FFF7C2FC0220FFF72DFCFFF733FC02280D
:100FA000FBD10020FFF7B8FCFFF774FF9E489F4E6F
:100FB0000121FFF78CFB9E4B9E488F229A624FF6D1
:100FC000FF72DA625A6942F001025A611A6842F00D
:100FD00001021A600121FFF77AFB97480121FFF710
:100FE00076FB01214FF4C010FFF771FB01219348FC
:100FF000FFF78AFD07F10800FFF77EFD904B1021F7
:10100000C7E90213304607F10801FFF723FD3368F3
:1010100023F4702343F4201333604FF4FA70FFF786
:101020009FFE00242546B368DA065CBF0135ADB2E9
:101030000A20FFF795FEB5F5E17F88BF4FF47A648B
:101040000134B4F57A6FEEDBB5F5E17F06D97D4862
:10105000FFF72CFB012801D0FFF71EFE734E33680B
:1010600023F4702343F4C0134FF4FA703360FFF796
:1010700077FE0446B368DB0658BF01354FF00A001F
:1010800058BFADB2FFF76CFE013CF3D1D5B1674E4E
:10109000336823F4702343F480234FF4FA703360F1
:1010A000FFF75EFE0546B368D80658BF01344FF01F
:1010B0000A0058BFA4B2FFF753FE013DF3D10CB1B3
:1010C000FFF7EAFD594A5A4D136823F4702343F49D
:1010D000C0131360FFF714FE5B4C4FF000084FF491
:1010E00081724146601D84F8078102F041FBFFF7E1
:1010F00077FE04F1050AC146002384F808316A6AC4
:101100004A4992B2628044F620608B6813F0100F57
:101110006B6A41D0454E63806288B368D90648D473
:101120001A20FFF71DFEB36813F010033AD1DFF861
:10113000FCB07B603420FFF713FEDBF808607B68AF
:1011400094F80821C6F300169E4016430133F6B208
:10115000082B84F80861ECD1FFF702FEDBF80830B9
:10116000DB061FD5012384F8073194F80931002BE1
:1011700070D0B4F80A31023399452DD009F1010934
:101180008AF800601FFA89F908F10108B8F5817F33
:101190000AF1010AB0D11BE09B1A9BB28342B4D979
:1011A0006523238094F8073193B923880133238082
:1011B0002AE06B6A9B1A9BB2B3F5827FADD900F02F
:1011C00077FD08B1FFF768FD94F80731002BA3D035
:1011D00094F80931002B51D0B4F80A613046FFF77A
:1011E00099FE002847D04FF480720021174802F082
:1011F000BFFA1749324601F2071002F0ABFAFFF7C7
:1012000005FE002384F809312388642B01D9FFF7F8
:1012100043FD00F04DFD00283FF45EAFFFF73CFDBD
:101220005AE700BF0020024001001C00000C0140F2
:1012300000040040020018000300180002031030F0
:10124000000400011C002400100000201C010020EC
:10125000150000206B6A62889B1A9BB2FA2B0DD88E
:1012600040F20113984508BF23888AF8006004BF44
:101270001433238088E7FFF7D3FDC5E7637D6079EA
:101280007D2B0AD1637B0D2BBED1A37B422BBBD11F
:10129000FFF7F2FD00236376B6E7637E7D2B05D171
:1012A000637C0D2B02D1A37C422BF1D094F82D301E
:1012B0007D2B07D194F825300D2B03D194F82630DF
:1012C000422BE5D058B9E279A3791343227A13432C
:1012D00001D165232380C120FFF78CFD65E701283C
:1012E0001ED10220FFF716FE0028C4D0D4F80C222D
:1012F000584B9A4202D2FFF79FFD85E7564BB4F850
:101300000A119A4204D1022984BF112384F80E31B4
:101310005248FFF77FFC0028EDD0FFF777FD73E719
:10132000FF2822D10420FFF7F5FD0028A3D00023D9
:101330002380B4F807305BBA9BB2202BC4F80C3280
:1013400003D1454BC4F80C32E7E7212B01D1444BC4
:10135000F8E7222B02D1D4F81032F3E7B3F5806F0F
:10136000C9D39B0003F10063ECE7FE2813D10420EE
:10137000FFF7D0FD00283FF47EAFE379012B14BFC7
:10138000237A4FF48073A4F80A31012384F80931D9
:10139000FFF726FD38E7FD2809D10220FFF7BAFD47
:1013A00000283FF468AFC120FFF724FD2CE7022896
:1013B0000AD1FFF7AFFD00283FF45DAFD4F80C224F
:1013C000244B9A4297D3A8E7032884D10220E84609
:1013D000FFF7A0FD18B9FFF723FDC54614E7D4F8C1
:1013E0000CA2BAF1000F02D1FFF726FDF5E7A679AE
:1013F000002E08BF4FF4807606F10A0323F007039E
:10140000ADEB030D06F103094A460021684602F0E0
:10141000AFF9324651466846FFF73CFC3146684614
:10142000FFF759FD731C0DF80600000A0DF80300C4
:10143000B31C30220DF8032049466846FFF708FD2B
:10144000D4F80C323344C4F810320023C4F80C3200
:10145000C3E700BF0040000800F801081C0100209D
:10146000E0F70108BFF34F8F0549064BCA6802F445
:10147000E0621343CB60BFF34F8F00BFFDE700BFB7
:1014800000ED00E00400FA05094A136849F269001A
:1014900099B21B0C00FB01335068136044F2506199
:1014A00083B2000C01FB0300506080B2704700BFA4
:1014B000040000200A4B586A0A4B1A8880B2824204
:1014C00007D9D3E9022112F5803241F10001C3E9C5
:1014D0000221D3E902211880801841F100017047F0
:1014E000000400402802002008B5FFF7E3FF4FF496
:1014F0007A720023FEF73CFE08BD000030B50A4DAD
:101500000346014400208B4200D130BD13F8012B6B
:101510005040082240F30004013A2C4012F0FF0230
:1015200084EA5000F6D1EEE72083B8ED0000000019
:10153000012B30B518461ED10A2A18D005D8012A29
:1015400009D0052A0DD0002010E0282AFBD11BA3CA
:10155000D3E9002308E01BA5D5E90045C1E9004512
:1015600011E01AA3D3E90023C1E9002330BD19A378
:10157000D3E90023F8E743B9302AF7D117A3D3E919
:101580000023C1E900230120F0E7022BDBD1012A6F
:1015900007D040F206439A42D5D1074B01221A7474
:1015A000D1E703A5D5E90045D8E700BFAFF3008038
:1015B000401DA12026812A0B28020020264172729C
:1015C000DF25D7B79E6AC421818A46EEF017304ADC
:1015D00039059E56CDD269EBC51A133B78F6339F79
:1015E00093CACD8D000000002DE9F041ADF5487D96
:1015F00066AC0D4606464FF4C4720021204602F048
:10160000B7F8FFF757FF224A0023FEF7B1FD214B41
:1016100043F8140F93E80700112384E8070000271C
:1016200023820DF5DD7040F202332384A7746761D5
:1016300000F02AFC502218490DF2CB2002F0A0F84D
:1016400050210DF2CB2002F0AEF80DF11C0884F809
:1016500032014146204600F096FEAB7E029305F132
:101660001903019380B20123CDE904800093E97E40
:10167000039705A3D3E90023304601F0AAFA0DF53C
:10168000487DBDE8F08100BF9E6AC421818A46EE94
:1016900040420F00280200204038000800000000EF
:1016A00030B5C5B004467C22002125A802F060F8C0
:1016B0002046FEF7CDFD06ADC2B28DF8B50021463D
:1016C0000DF1B60002F046F8294625A800F046FDC7
:1016D0000D4C1823029304F14C03019380B243F69E
:1016E000FF73CDE90350009304F1200004A3D3E974
:1016F000002301F011FA45B030BD00BFAFF3008008
:10170000759D040C8EA454D6280200200000000011
:101710002DE9F0430C46FDB0064649A9204600F0ED
:1017200095FD00283AD1224D94F81B9095F8503140
:101730009DF825814B4507D142460DF5937105F182
:10174000500001F0F7FF48B3002742460DF59371B2
:101750001848C5F8587185F8509102F011F807AD96
:101760008122394628A802F003F8294628A800F06B
:1017700097FDA37E029304F1190380B201932823FD
:10178000CDE904500093E17E039707A3D3E900233A
:10179000304601F01EFA0848FFF782FF7DB0BDE831
:1017A000F08300BFAFF3008026417272DF25D7B708
:1017B00028020020780200205538000870B50C4C33
:1017C0000C4EA0830D46FFF775FED4E95832C31ABC
:1017D00061EB02029E424FF00003934106D2C4E93E
:1017E00058012846BDE87040FFF75ABF70BD00BFE2
:1017F00028020020404B4C0010B5E6B0184CFFF713
:1018000059FE0023174AFEF7B3FC4FF400732383FD
:101810000023A37694F8503160612BB1D4F858318D
:101820009B0AA3830323637607AC21460E4800F08E
:101830004BFE80B2CDE9034018230C48029340F2DE
:10184000551301900093A0F5A47003A3D3E90023DE
:1018500001F062F966B010BDF1C6A7C1D068080FEB
:101860002802002040420F003C020020900300208C
:1018700030B5214CF1B0FFF737FED4F8543123B125
:10188000C31A40F2ED22934230D9C4F85401D82251
:1018900000213AA801F06CFF1848FEF7D9FCD4F8F3
:1018A000583116498DF8F000C2B23A9306AD0023C4
:1018B0000DF1F1003B9301F04DFF29463AA800F0ED
:1018C00013FD082380B20122CDE90232CDE9045094
:1018D00030230B480190009394F850116FF49874E2
:1018E00003A3D3E90023204401F073F971B030BDA4
:1018F00078F6339F93CACD8D28020020780200200D
:10190000790300201FB510220021684601F030FF46
:10191000084C684600F0B6FB002801DC04B010BD9E
:10192000FFF7C8FD02460B462046694601F056FB0C
:10193000EFE700BF4802002010B5074C204601F039
:101940006AF900B910BD00F071FB0028FAD02046FA
:1019500001F065F9F2E700BF4802002030B5284CDD
:10196000437E94F85111013303F01F038B42C3B03F
:1019700004D1C27E94F850319A4205D0214843B038
:10198000BDE83040FFF78CBE01A900F0D0FC20B1CB
:101990001D48FFF785FE43B030BDBDF90450D4F8B3
:1019A00058212DB1002AF6D084F850011748F0E7ED
:1019B000BDF8061002F10062073102F5804221F005
:1019C000070102A8FFF726F9BDF80620D4F8583120
:1019D000FF2A1344C4F858310AD80D48FFF760FEB7
:1019E0002946284684F8505100F0A8FBFFF73AFD3D
:1019F000C4F85451FFF73CFFFFF79EFFCBE700BF51
:101A0000280200206D38000889380008A538000831
:101A1000C238000800000000F0B50B7E012B93B027
:101A200007460C460FD1CB8A0A2B3FD009D8012B91
:101A300036D0052B07D10021084600F07FFBFFF7C9
:101A400011FD282B2FD0237E2BB9E38A302B02D116
:101A50002046FFF783FF237E022B1FD1E38A012B51
:101A60001CD13F4D05F1200001F011F8B0B9FFF78E
:101A70003BFD0646FFF708FD4FF4C87306F51676E2
:101A8000B0FBF3F202FB130316FA83F3C5F86C31D3
:101A9000E37E002B3CD10023C5F8703113B0F0BDBC
:101AA000FFF7A2FDCFE7FFF733FECCE708A92046FA
:101AB00000F031FD01460028C5D110220CA801F02C
:101AC00057FE9DF82050012D09D12648FFF7E8FD6B
:101AD000254A26483021FFF79DF88DF8385006AD8D
:101AE00029460CA800F02EFD80B2CDE90450002359
:101AF0000393A37E029304F1190301930A23009335
:101B0000E17E15A3D3E90023384601F062F89AE795
:101B10000CA9204600F067FB0028BFD108A800F000
:101B2000B3F99DF8324008A922460DF1330001F0C7
:101B300001FE0028AFD10F2C08D8D5F86C31C5F8BC
:101B40007041A3F51673C5F86C31A7E79DF8301006
:101B5000384600F095FFA1E7CDD269EBC51A133BDB
:101B600028020020DB38000800F8010808380008C7
:101B70002DE9F341404E96F8504174BB204600F0E9
:101B8000CFFA44F2C72380B2984205D10E23B38323
:101B9000204602B0BDE8F081384B394C93E8030091
:101BA000E84688E803004FF4DC37FA1FE6212046B8
:101BB000FEF7FEFA054660B10822414601F0BAFD83
:101BC00000284BD02C1BE4432744072F05F10104C8
:101BD000EBD82C490A20FFF7F1FD0024D8E72A486A
:101BE000042205F1140101F0A5FD074610B12749B3
:101BF0000C203DE005F178412148A1F58041FFF737
:101C00007DFCEB6898420CD105F12C0000F1784185
:101C1000A1F58041A8EB0101FFF770FC2B69984208
:101C200002D01B490D20D6E7347C14B919490D2088
:101C30001EE0194DB78329784B1EDBB2FD2B0AD964
:101C40001648FFF72DFD16482A463021FEF7E2FF21
:101C5000144911200CE001299AD0F9E715F003048A
:101C6000B7D1D5F80880B8F5DC3FB8D90E490B20BC
:101C7000FFF7A4FD8CE700BF2802002038380008D9
:101C800000400008F13800085038000811390008F9
:101C9000203900083139000800F80108DB38000855
:101CA000083800083B39000802390008000000002D
:101CB0002DE9F043644C94F874818DB0B8F1000FB5
:101CC0003DD1624B624900934FF48052614BCDF895
:101CD000048004F12000012784F8747100F0A9FE4B
:101CE000404600F01DFA44F2C72382B29A420646EB
:101CF00005D0594B1A78012A78D000211AE0050E38
:101D0000384600F00DFA0746022000F009FA814635
:101D10006FB130024FEA164309D4F822414604F16C
:101D2000580084F8503101F023FDC4E91479002DE6
:101D3000DFD0E9B2494800F0A3FE00F0B1F800F0AE
:101D400066F9FFF7F9FD454800F0A1FE06460028B8
:101D500053D1FFF7C9FBD4F86C31984240D9FFF753
:101D6000C3FB0546FFF790FB4FF4C87305F51675E6
:101D7000B0FBF3F202FB130315FA83F3C4F86C31E2
:101D8000D4F870318DF8186013B901238DF818302C
:101D900008A800F079F8D4F87011C1F11005EDB27F
:101DA000062D28BF062508AB2A4619440DF1190057
:101DB00001F0D0FC06AB2A480393013518230293A7
:101DC0006FF4AA710123EDB20190009304951CA356
:101DD000D3E90023084400F09FFE0023C4F87031CB
:101DE00000F0FEF800200DB0BDE8F08393F9B020BC
:101DF000002A82DB93F8B0109CE7FFF75BFB0B46F1
:101E0000D4E95E510246AA4273EB01000AD3154899
:101E10002D1841F100011148C4E95E5100F00AFF9C
:101E2000FFF7EAFC94F850310BB1FFF721FDFFF703
:101E300083FD00F0D5F80DB0BDE8F043FFF798BE84
:101E4000401DA12026812A0B280200203115000800
:101E5000A8030020191A000800F801084802002011
:101E60009D03002040420F0010B5064B012421467F
:101E70004FF01C101C70FEF72AFC2046BDE81040F5
:101E8000FEF7C0BEA8130020044A034603CA186028
:101E90005960106898600022DA607047E8F7FF1F09
:101EA0002DE9F04103208EB0FEF79AFE4648474CDC
:101EB000474D0121FEF70BFC01214FF4C010FEF746
:101EC00006FC01214348FEF71FFE09A8FEF714FE99
:101ED000414B4FF4805209A92046CDE90923FEF772
:101EE000B9FD18234FF400678DF8293009A94FF484
:101EF00080732046ADF82A300997FEF7ABFD01212B
:101F00003648FEF7E4FB03A8FEF72AFA0124002670
:101F100003A928468DF80C608DF80D608DF80E40F1
:101F20008DF80F408DF810608DF811608DF812401B
:101F3000FEF71FFA09A8FEF76DFC0623ADF8043082
:101F40004FF0020840F2027301A92846ADF80630AE
:101F50008DF80880FEF7C9F905A928468DF81440C8
:101F6000ADF816608DF81840ADF81A60ADF81C6039
:101F7000ADF81E60ADF82060FEF74AFA40F201139A
:101F800005A92846ADF81630FEF742FA224621464A
:101F90002846FEF75DFB224641462846FEF758FBE1
:101FA000224628461021FEF753FB22463946284692
:101FB000FEF74EFB22464FF400412846FEF748FB51
:101FC0000EB0BDE8F08100BF02001800000801401B
:101FD000006400400004002C0004080119001C00EB
:101FE000002208B511461620FEF7ACFD002211466E
:101FF0001420FEF7A7FD002211461520FEF7A2FDD2
:102000000022BDE8084011461320FEF79BBD08B52D
:102010001620FEF7D1FD1420FEF7CEFD1520FEF7A9
:10202000CBFDBDE808401320FEF7C6BD7FB50368B1
:10203000002BBABF012123F06043C3F30A034FF022
:102040000002AFBFCDE901328DF80C10019202936E
:10205000A8BF8DF80C200023027B8DF80D30011DE8
:102060000DF10F008DF80E2001F074FB01A904485A
:10207000FEF750FA043818BF012007B05DF804FBE2
:102080000064004010B504461348C3689A0786B040
:1020900015D001AA0021FEF796FA9DF80C30012B0D
:1020A00016D1029B43F000439DF80E20236022735B
:1020B0000DF10F01201D01F04DFB012003E003692C
:1020C0009B0702D1002006B010BD01AA0121E2E762
:1020D000002BF7D1019BE7E700640040FFF712BC3B
:1020E000FFF710BC024B034A9A60FFF725BC00BF04
:1020F000006400400101010082B0084B0021019101
:102100009A6912F0700F07D09A6902F0700201927A
:1021100004225A609961019B02B07047006400403C
:10212000054B1B7810B504460BB9FFF79DFE204602
:10213000BDE81040FEF71ABCA813002038B5064BC6
:102140001B7804460D460BB9FFF78EFE2946204644
:10215000BDE83840FEF7F4BBA81300202DE9F34199
:102160000D4604467B220021284601F001FB234650
:1021700003220021284600F0D3FE63781F2B28BFDE
:102180001F238DF8073005220DF107030321284690
:1021900000F0C6FE01239DF80720DE005F1C013B16
:1021A000934211D394F821005A2828BF5A20804620
:1021B00000272234474506EBC7010DD306EBC800C4
:1021C000C00802B0BDE8F081E31908223146284674
:1021D00000F0A6FE3B46DEE7E3190822284600F0A1
:1021E0009FFE0137E6E7F7B500230C460091072272
:1021F0001946054600F058FD631C00930122002398
:102200000721284600F050FDAB8A013B03F0FF0395
:10221000102BA37018D80023E71CA2785E1C9342F1
:102220004FEAC60107D3AB8AB3EBD10F14BF01202D
:10223000002003B0F0BD3B44009308220023284651
:1022400000F032FD3346E8E70120F2E773B50023E2
:1022500005460C4600910822194600F025FDAB8A80
:10226000013B03F0FF03C82B637017D8012362788A
:10227000D9005E1C013B934207D3AB8AB3EBD10F6D
:1022800014BF0120002002B070BDA31900930822E2
:102290000023284600F008FD3346E8E70120F2E776
:1022A000F8B50E46054681220021304601F060FA5D
:1022B0002B4608220021304600F032FE95F901300D
:1022C0006C78002BB8BF7F240122D100571C013A43
:1022D000A24202D3601CC0B2F8BD0822EB193046FE
:1022E00000F01EFE3A46F0E7F8B50F460446CE224F
:1022F0000021384601F03CFA2346282200213846C6
:1023000000F00EFE14F8085FC82D28BFC82500266F
:10231000F100AE4201F1280102D3681DC0B2F8BD40
:102320000136A3190822384600F0FAFDF0E7F7B5A8
:1023300005460C46009101231022002100F0B4FC58
:10234000AB8A023B9BB2B3F5807F638019D800262D
:10235000271D6288F300964203F1100108D3AA8A70
:102360001733B2EBD30F14BF0120002003B0F0BD30
:10237000BB19009308220023284600F095FC013683
:10238000E7E70120F2E72DE9F3410D46044640F26C
:1023900079120021284601F0EBF923462022002182
:1023A000284600F0BDFD231D02222021284600F012
:1023B000B7FD631D03222221284600F0B1FDA31DB5
:1023C00003222521284600F0ABFD04F1080310226A
:1023D0002821284600F0A4FD04F11003082238212A
:1023E000284600F09DFD04F11103082240212846F3
:1023F00000F096FD04F1120308224821284600F05F
:102400008FFD04F1140320225021284600F088FD9E
:1024100004F1180340227021284600F081FD04F1E8
:1024200020030822B021284600F07AFD04F12103A0
:102430000822B821284600F073FD04F12207C026C7
:102440003B46314608222846083600F069FDB6F5BD
:10245000A07F07F10107F3D194F832308DF80730EF
:1024600008220DF107033146284600F059FD0027E8
:1024700004F133089DF80730FE009F4206F5A4766C
:1024800012D394F83201502828BF502080460027EC
:1024900004F23314474506EBC7010ED306EBC80020
:1024A000C00802B0BDE8F08108EB070308223146FE
:1024B000284600F035FD0137DCE7E31908222846FD
:1024C00000F02EFD0137E5E738B50C460021054642
:1024D00021600346C4F803102046202200F020FDAE
:1024E0002B1D20460222202100F01AFD6B1D2046E4
:1024F0000322222100F014FDAB1D204603222521DA
:1025000000F00EFD204605F108031022282100F0FE
:1025100007FD072038BD37B500230C46054600915E
:1025200008221946083400F0BFFB00940123302232
:102530000821284600F0B8FBA88A073818BF0120F8
:1025400003B030BD38B50C46002121600546C4F803
:10255000031003463022204600F0E2FC204605F13D
:1025600008030122302100F0DBFC072038BD2DE9F3
:10257000F041456A15B94162BDE8F0814B6823F02E
:102580006047C3F38A464FEAD37EC3F3807816EAE6
:10259000230638BF3E46AC462B465A68BEEBD27F78
:1025A00022F060440AD0002A18DAA40CB44217D1F1
:1025B0009D420FD10D60DEE71346EEE7A74207D13B
:1025C00002F08044C2F3807242450BD054B1EFE771
:1025D00008D2EDE7CCF800100B60CDE7B44201D093
:1025E000B442E5D81A689C46002AE5D11960C3E7D1
:1025F0002DE9F047089D01F007044FEAD508224471
:1026000005F0070500EBD1004FF47F49944201D15A
:10261000BDE8F08704F0070705F0070A57453E4676
:1026200038BF5646C6F10806111B8E4228BF0E461B
:10263000E10808EBD50E415C13F80EC0B94029FA49
:1026400006F721FA0AF1FFB28CEA010147FA0AF70C
:1026500039408CEA010C03F80EC034443544D5E708
:1026600080EA0120082341F2210201B24000002942
:1026700080B203F1FF33B8BF504013F0FF03F4D131
:10268000704738B50C468D18A54200D138BD14F8F6
:10269000011BFFF7E5FFF7E70346406848B1026812
:1026A0005A605A899989013292B291425A8138BF4F
:1026B0009A81704770B588B0202204460D4668465E
:1026C000002101F055F820460495FFF7E5FF02468A
:1026D00058B16B46054608AE1C4603CCB442286090
:1026E0006960234605F10805F6D1104608B070BDB3
:1026F000082817D909280CD00A280CD00B280CD090
:102700000C280CD00D280CD00E2814BF40203020EF
:1027100070470C2070471020704714207047182015
:10272000704720207047082817D90C280CD910288A
:102730000CD914280CD918280CD920280CD93028E9
:102740008CBF0F200E207047092070470A20704769
:102750000B2070470C2070470D2070472DE9F8437F
:10276000078C072F04461ED9D0E9029800254FF6A2
:10277000FF73C5F12006A5F1200029FA05F108FA3A
:1027800006F628FA00F031430143C9B21846FFF7B4
:1027900067FF0835402D0346EBD1E1693A46BDE8B5
:1027A000F843FFF76EBF4FF6FF70BDE8F88310B532
:1027B0004B6823B9CA8A63F30902CA8210BD04694F
:1027C0001A681C600361C38A013BC3824A60EFE759
:1027D0002DE9F84F1D46CB8A0F46C3F309010529A1
:1027E000814692460B4630D00020AAB207F11A0467
:1027F0009EB2042E1FFA80F80FD8424503F1010360
:1028000006D8FB8A0A4462F30903FB8201201AE01E
:102810001AF80060E6540130EAE74245F1D9A1F127
:10282000050B1C237C68BBFBF3F203FB12BB1FFAF6
:102830008BF6002C45D14846FFF72EFF044638B9E9
:1028400078606FF00200BDE8F88F4FF00008E6E70F
:10285000002606607860ADB24FF0000B454510D9F8
:102860000AEB0803221D13F8011B9155B1B208F1C0
:1028700001081B291FFA88F82BD0454506F10106EF
:10288000F1D8FB8AC3F30902154465F30903BCE7D9
:10289000013292B21C462368002BF9D16B1F0B4406
:1028A0001C21B3FBF1F301339BB29A42D3D2BBF1AB
:1028B000000FD0D14846FFF7EFFE20B9C4F800B0B2
:1028C000BFE70122E7E7C0F800B05E46206004469B
:1028D000C1E74545D5D94846FFF7DEFE08B9206077
:1028E000AFE7C0F800B0002620600446B6E72DE947
:1028F000F74F1C465B69009207468846002B00F0A4
:102900009580238C2BB1E269002A00F08F80072B81
:1029100032D807F10C00FFF7BFFE054628B96FF06B
:102920000205284603B0BDE8F08F1422002100F014
:102930001FFF228CE16905F1080000F00BFF208CDD
:10294000013080B2FFF7EFFEFFF7D2FE431E9BB2CD
:102950005A1C23842A74626912782B4402F01F02E5
:1029600062F03F0248F000411A7238466960294619
:10297000FFF7FDFD0125D4E74FF0000900F10C033E
:102980004FF0800A4E464D4601930198FFF784FEB2
:1029900083460028C3D01422002100F0E9FE002E57
:1029A0003AD1009BABF8083002220BF1080E1FFA57
:1029B00082FC0CF10100BCF1060F218C80B201D821
:1029C0008E422BD3FFF7AFFEFFF792FE62691278BB
:1029D000013802F01F028E4208BF4FF0400A42EA5F
:1029E00049121BFA80F14AEA020A013048F000421B
:1029F00081F808A08BF81000CBF80420594638461F
:102A0000FFF7B5FD238C0135B3422DB289F00109E2
:102A10004FF0000AB9D184E70022C6E7E169895D79
:102A20000EF802100136B6B20132C0E76FF00105B0
:102A300077E7F8B515460E462C22002104461F46BE
:102A400000F096FE069B6360B5F5001F079BA7602C
:102A500034BF6A094FF6FF72A36297B2E66104F1D0
:102A6000100000239A4206D800230360A782E38265
:102A70002383E360F8BD0660013330462036F1E77A
:102A800003781BB94BB2002BC8BF017070470078A8
:102A90007047F8B50C46C969074611B9238C002B5D
:102AA00037D1257E1F2D34D8387828BB228C072AB1
:102AB0002CD8268A36F003032BD14FF6FF70FFF790
:102AC000E0FD20F001003602400446EA0565400CB6
:102AD00045EA40254FF6FF72234629463846FFF760
:102AE00006FF002807DD626913780133DBB21F2B74
:102AF00088BF00231370F8BD218A2D0645EA012501
:102B000005432046FFF72AFE0246E5E76FF0030083
:102B1000F1E76FF00100EEE770B58AB004461646A3
:102B20000021282268461D4600F022FEBDF83830FC
:102B3000ADF810300F9B05939DF840308DF818309C
:102B4000119B07936946BDF84830ADF82030204608
:102B5000CDE90265FFF79DFF0AB070BDD3692DE98D
:102B6000F04105460C4616460BB9138C5BBB377E0D
:102B70001F2F28D895F80080B8F1000F26D03046D6
:102B8000FFF7ECFD3378210241EAC33141EA080145
:102B9000338A41EA076141EA03410246334641F084
:102BA00080012846FFF7A3FE00280ADD3378012BB9
:102BB00007D1726913780133DBB21F2B88BF002362
:102BC0001370BDE8F0816FF00100FAE76FF00300C9
:102BD000F7E730B58BB01D469DF8443014465A1EB9
:102BE000534253418DF800309DF83830ADF8103025
:102BF0000F9B05939DF840308DF81830129B07937A
:102C00006A46BDF84C30ADF82030CDE90245FFF7FB
:102C1000A5FF0BB030BD406A00B104307047436A75
:102C20001A68426202691A600361C38A013BC38267
:102C3000704700002DE9F041D0F82080194E14466D
:102C40001D464146002709B9BDE8F081D1E90223BC
:102C5000A21A65EB0303964277EB03031ED2036AC5
:102C60008B420FD1FFF7A3FD036AD3F800800369FD
:102C7000C0F820800B60C38A0161013BC3824246D9
:102C80001146E0E7FFF793FD0A680369C8F80020E2
:102C90000B60C38A0161013BC382F1E70A68884681
:102CA000EEE700BF80841E002DE9F04F8BB00D468B
:102CB000DDF8509014469B468046002800F01981AC
:102CC000B9F1000F00F01581531E3F2B00F2118166
:102CD000012A03D1BBF1000F40F00B810023CDE9A5
:102CE0000833B8F81430B5EBC30F4FEAC30703D36A
:102CF00000200BB0BDE8F08F2B199F42D8F80C30A4
:102D00003ABF7F1BFFB227461BB9D8F81030002B03
:102D10007AD0272D4ED8C5F12806B7424FF00003D0
:102D20002CBFF6B23E4600932946D8F8080008ABFF
:102D30003246FFF75DFCA7EB060A35445FFA8AFAD4
:102D4000B8F8143003F10053053BDB000493D8F8C6
:102D50000C3003932821039B13B1BAF1000F2CD13F
:102D6000D8F8100040B1BAF1000F05D0009608ABBA
:102D70005246691AFFF73CFC38B2002FB8D06607FC
:102D80000AD00AAB03EBD401624211F8083C02F00E
:102D90000702134101F8083C082C3CD9102C40F2E2
:102DA000B580202C40F2B780BBF1000F00F09C8072
:102DB000082334E0BA460026C2E7049BE02B28BF74
:102DC000E02306930B44AB42059314D95A1B039896
:102DD0000096924534BF5246D2B2691A08AB04300D
:102DE0000792FFF705FC079A1644AAEB020A15445E
:102DF000F6B25FFA8AFA049B069A05999B1A049325
:102E0000039B1B680393A6E70093D8F8080008AB60
:102E10003A462946AEE7BBF1000F13D00123B4EBCD
:102E2000C30F6CD0082C12D89DF82030621E23FAF4
:102E300002F2D50706D54FF0FF3202FA04F423431D
:102E40008DF820309DF8203089F8003051E7102CA3
:102E500012D8BDF82030621E23FA02F2D10706D53F
:102E60004FF0FF3202FA04F42343ADF82030BDF8EE
:102E70002030A9F800303CE7202C0FD80899631EB9
:102E800021FA03F3DA0705D54FF0FF3202FA04F412
:102E90000C430894089BC9F800302AE7402C2BD03B
:102EA000DDE90865611EC4F12102A4F1210326FABF
:102EB00001F105FA02F225FA03F311431943CB0796
:102EC00012D50122A4F12003C4F1200102FA03F378
:102ED00022FA01F1A240524243EA010363EB4303A9
:102EE00032432B43CDE90823DDE90823C9E9002358
:102EF000FFE66FF00100FCE66FF00800F9E6082C31
:102F0000A0D9102CB3D9202CEED8C3E7BBF1000F09
:102F1000ADD0022383E7BBF1000FBBD004237EE7D3
:102F200030B5012A144638BF0122402A85B028BF97
:102F300040220025012CCDE9025517D81B788DF8C9
:102F4000083053070AD004AB03EBD205544215F8FE
:102F5000083C04F00704A34005F8083C0091034630
:102F6000002102A8FFF744FB05B030BD082CE5D9CD
:102F7000102C03D81B88ADF80830E2E7202C02D8CB
:102F80001B680293DDE7D3E90045CDE90245D8E7A8
:102F900010B5CB681BB98B600B618B8210BD0469C7
:102FA0001A681C600361C38A013BC382CA60F0E7F0
:102FB00003064CBFC0F3C0300220704708B502467C
:102FC000FFF7F6FF022806D15306C2F30F2001D106
:102FD00000F0030008BDC2F30740FBE72DE9F04F06
:102FE00093B0CDE902230A6805461046FFF7E0FFDB
:102FF000022814BFC2F306240024002A0E4683468A
:1030000080F2FA8112F0C04A40F0F681097B002973
:1030100000F0F281022803D02B78A34240F0EF8128
:10302000C2F304630793104602F07F030493314414
:10303000FFF7C4FF049B91F8038005904FEA834992
:1030400049EA0B4949EA4469002200235FEAD8149F
:10305000CDE9082349EA000967D0049B00930246A2
:103060006F685B4608A92846B847002800F0CA8167
:103070002F6A4FB9494605F10C00FFF71BFB0746C5
:1030800090B96FF0020054E03B6999450DD03F685C
:10309000002FF9D1494605F10C00FFF70BFB07465D
:1030A0000028EED02B6A3B602F62F87D08F01F03EA
:1030B000C0F38400A0EB030C1FFA8CFEBCF1000FE0
:1030C000B8BF0EF1200CD7E902210693A3EB000351
:1030D0001FFA83FEB8BF0FFA8CFC002BBCBF0EF1A9
:1030E00020031BB252EA010075D00298DFF8C4E257
:1030F000821A039860EB01010020964570EB010EE7
:1031000069D396F80DE097F81A90CE4519D13CB3E3
:10311000BCF1010F5FDC786800285CD1DFF898C251
:10312000944570EB010215D366E02F6A27B96FF062
:103130000C0013B0BDE8F08F3B699945B5D03F68EE
:10314000F4E7DFF874C2944570EB0102F1D2002C71
:1031500000F084800F2B3EDDCE457FD1002C4BD17B
:10316000FB7DC8F34012B2EBD31F40F04E81C3F396
:10317000840308F01F02934240F04A81327B4FEAF9
:103180009813002C00F0A08013F0010840F0AF80ED
:10319000032A40F24081029BBB60039BFB60FB8AD9
:1031A00068F30903FB82B41DD31EDBB22246394605
:1031B00005F10C00FFF70CFB002859DA39462846C8
:1031C000FFF7F5FAFB7DC3F38403013303F01F031C
:1031D0009B02FB8255E7FA7D4FEA880302F0030267
:1031E00003F07C031343FB7539462846FFF7DFFAEB
:1031F000737BBB76002C33D04FEA9813022BAFD0F1
:10320000029BBB60039BFB60142200210DA800F011
:10321000AFFA029B0A93039B0B93331D0C93337BF2
:103220008DF840B0013BDBB2ADF83C30059BADF80A
:103230003E30069B8DF84130079B8DF84230049B51
:103240008DF843300AA9AB6828469847FB7DC3F345
:103250008403013303F01F039B02FB82002068E715
:10326000FB7DC3F38402013262F38603FB755EE7E4
:10327000DDE90885B3883B834FF6FF73CAF1200070
:10328000AAF1200228FA0AF105FA00F0014325FA12
:1032900002F211431846C9B2FFF7E2F90AF1080A2F
:1032A000BAF1400F0346E9D1B882327B033AD2B279
:1032B0002146FFF7E6F9FB7DB882DA43C2F3C0127C
:1032C00062F3C713FB75C9E78BB9531E341DDBB21C
:1032D0002246394605F10C00FFF77AFA0028FFF67E
:1032E0006DAF327BB88A013AD2B22146E1E7FB8A60
:1032F000D7F804E0C3F30903501E042BC0B254D81E
:103300001C4606F1040C002107F11B08884208D96D
:103310001CF8019B08F8049001340131052CC9B256
:10332000F4D10344ADF83C30059BADF83E30069B2C
:103330008DF841308142029C079B8DF8423038BFA6
:1033400004310A94049B039C8DF8433034BF56FA31
:1033500081F100210B948DF840B0002307F11B048C
:103360000E91CDE90C4EB88A7B60013A311DFFF712
:1033700088F93B8BB882834203D1AB680AA92846FF
:10338000984728460AA9FFF703FEFB7DBA8AC3F3D4
:103390008403013303F01F039B02FB823B8B9A42A1
:1033A0000CBF00206FF01000C3E6BEF1000F20D16B
:1033B0007146B6E780841E0040420F001C348C46E4
:1033C000DCF800100029F9D11C1B211D06F10408AE
:1033D0008C4404EB0A09B9F11B0F5FFA8AF1A0D8FB
:1033E00088429ED918F8011B0CF8011B0AF1010A4A
:1033F000EFE7F4460524E3E76FF0090099E66FF084
:103400000A0096E66FF00B0093E66FF00D0090E671
:103410006FF00E008DE66FF00F008AE62DE9F047A1
:10342000089E0D4604468846002B4DD18A4294469C
:1034300068D9B2FA82F252B101FA02F3C2F1200164
:1034400020FA01F10CFA02FC41EA030894404FEA29
:103450001C45210CB8FBF5FE1FFA8CF705FB1E83FB
:1034600041EA03430EFB07F199420BD91CEB03031E
:103470000EF1FF3080F01E81994240F21B81AEF1C7
:10348000020E63445B1AA4B2B3FBF5F005FB1033E4
:1034900044EA034400FB07F7A7420AD91CEB0404E3
:1034A00000F1FF3380F00881A74240F205816444B7
:1034B0000238E41B40EA0E4000211EB1D440002334
:1034C000C6E90043BDE8F0878B4208D9002E00F022
:1034D000EE800021C6E900050846BDE8F087B3FA92
:1034E00083F100294AD1AB4202D3824200F2F98033
:1034F000841A65EB030301209846002EE2D0C6E94A
:103500000048DFE702B9FFDEB2FA82F2002A40F09B
:103510009180A1EB0C054FEA1C471FFA8CFE01219C
:10352000B5FBF7F307FB1350250C45EA00450EFBEE
:1035300003F0A84208D91CEB050503F1FF3802D2BD
:10354000A84200F2CB8043462D1AA4B2B5FBF7F097
:1035500007FB105544EA05440EFB00FEA64508D9BA
:103560001CEB040400F1FF3502D2A64500F2BB803B
:103570002846A4EB0E0440EA03409EE7C1F1200771
:103580008B4022FA07FC4CEA030C20FA07F405FAF8
:1035900001F31C43FD404FEA1C4900FA01F3B5FB5F
:1035A000F9F8200C1FFA8CFE09FB185540EA054576
:1035B00008FB0EF0A84202FA01F20BD91CEB05053C
:1035C00008F1FF3A80F08880A84240F28580A8F197
:1035D000020865442D1AA4B2B5FBF9F009FB105599
:1035E00044EA054500FB0EFEAE4508D91CEB050577
:1035F00000F1FF346CD2AE456AD90238654440EA26
:103600000840A0FB0294A5EB0E05A542C846A646BD
:1036100056D353D05EB1B3EB080265EB0E0505FA45
:1036200007F722FA01F3CD401F43C6E900750021D8
:10363000BDE8F087C2F1200320FA03F10CFA02FC86
:1036400025FA03F395400D434FEA1C471FFA8CFE01
:10365000B3FBF7F107FB11302B0C43EA004301FBEE
:103660000EF0984204FA02F408D91CEB030301F1AE
:10367000FF382FD298422DD9023963441B1AADB2BC
:10368000B3FBF7F007FB103345EA034500FB0EF3ED
:10369000AB4208D91CEB050500F1FF3816D2AB424E
:1036A00014D902386544ED1A40EA014138E7314641
:1036B000304607E78646E5E61846FAE64B45A9D2C6
:1036C000B9EB020864EB0C0E0138A3E74046EAE7C9
:1036D000204694E74146D1E7D0467BE7023B65446C
:1036E00032E7084609E76444023842E770B50D4DF9
:1036F0000D4C641BA4100026A64209D10B4D0C4CA6
:1037000000F05EF8641BA4100026A64205D170BD2F
:1037100055F8043B98470136EEE755F8043B9847C7
:103720000136F2E76C3900086C3900086C39000882
:103730007039000810B501390244904201D10020CF
:1037400005E0037811F8014FA34201D0181B10BD0A
:103750000130F2E70A44914200F1FF3300D1704793
:1037600010B511F8014B03F8014F9142F9D110BD8A
:1037700002440346934200D1704703F8011BF9E766
:1037800010B50139034632B111F8014F03F8014B6E
:10379000013A002CF7D11A440021934200D110BD08
:1037A00003F8011BF9E710B5024601448A421346AB
:1037B00003D01C780132002CF8D1181A10BD00007B
:1037C000F8B500BFF8BC08BC9E467047F8B500BF0E
:1037D000F8BC08BC9E4670470000000000000000D6
:1037E00001020304060708090000000001020304A7
:1037F00002040608020C081000000000000000008F
:10380000010203040607080901021101234E454F76
:10381000455343206630353120000000010101028C
:103820001864370E000005008080803200320000EE
:103830000F0A0A8D66060000E658F068A0E5CEAFD4
:10384000414D33325F424F4F544C4F414445525FDC
:103850004634313500537461727465642066697250
:103860006D77617265207570646174650046697278
:103870006D77617265207570646174653A206E6F52
:103880007420666F72207573004669726D7761727D
:1038900065207570646174653A20626164207061AE
:1038A000636B6574004669726D776172652075702F
:1038B000646174652072656164206661696C75720B
:1038C00065004669726D7761746520757064617416
:1038D0006520636F6D706C657465007265736574E7
:1038E00074696E6720746F2064656661756C7473AB
:1038F000006E6F20617070207369676E61747572FD
:10390000650062616420617070206C656E67746828
:103910000062616420626F61726420747970650076
:10392000626164206669726D7761726520435243FB
:10393000006E6F207369676E616C00626164206560
:103940006570726F6D2068656164657200000000CB
:10395000DAE32559D963B84E343731142B06060201
:1039600030000000B8FAFF7F010000008502000867
:103970006102000800127A00D2040000FE2A010051
:10398000FFFFFFFFFFFFFFFFFFFFFFFFFFFFFFFF47
:10399000FFFFFFFFFFFFFFFFFFFFFFFFFFFFFFFF37
:1039A000FFFFFFFFFFFFFFFFFFFFFFFFFFFFFFFF27
:1039B000FFFFFFFFFFFFFFFFFFFFFFFFFFFFFFFF17
:1040000000800020DD7A0008D58E0008D98E0008D7
:10401000DD8E0008E18E0008E58E0008000000003B
:10402000000000000000000000000000E98E000811
:10403000ED8E000800000000F18E0008F58E0008EB
:10404000257B0008257B0008257B0008257B0008D0
:10405000257B0008257B0008257B0008257B0008C0
:10406000257B0008257B0008257B0008F98E0008C9
:10407000257B0008257B0008218F0008257B000890
:10408000618F0008257B0008257B0008B1B500087A
:10409000A9B50008ADB50008C5B50008257B000826
:1040A000499000087D90000865900008257B000875
:1040B000257B000895900008257B0008257B0008DB
:1040C000257B0008257B0008257B0008257B000850
:1040D000257B000891900008257B0008257B0008BF
:1040E000B9900008257B0008257B0008000000002F
:1040F00000000000000000000000000000000000C0
:1041000000000000257B0008257B0008000000005F
:10411000257B0008257B000800000000000000004F
:10412000257B0008257B0008257B0008257B0008EF
:10413000000000000000000000000000000000007F
:10414000000000000000000000000000257B0008C7
:10415000000000000000000001900008257B00081E
:10416000000000000000000000000000257B0008A7
:10417000E658F068A0E5CEAFF5BC0000CA27FEA463
:10418000C5A7DB3F463431350000000000000000C9
:10419000000000000000000000000000000000001F
:1041A000000000000000000000000000000000000F
:1041B00000000000000000000000000000000000FF
:1041C00000000000000000000000000000000000EF
:1041D00000000000000000000000000000000000DF
:1041E00000000000000000000000000000000000CF
:1041F00000000000000000000000000000000000BF
:10420000464C59494E4752435F3735415F4634313A
:10421000355F43414E000000000000000000000038
:1042200010B5054C237833B9044B13B10448AFF3F0
:1042300000800123237010BD38040020000000001E
:1042400078EF000808B5034B1BB103490348AFF3EF
:10425000008008BD000000003C04002078EF00084A
:1042600080F0004002E000BF81F0004142001FBF2B
:104270005FEA410392EA030F7FEA226C7FEA236C34
:104280006AD04FEA1262D2EB1363C1BFD218414029
:1042900048404140B8BF5B42192B88BF704710F0BF
:1042A000004F40F4000020F07F4018BF404211F062
:1042B000004F41F4000121F07F4118BF494292EACA
:1042C000030F3FD0A2F1010241FA03FC10EB0C00F6
:1042D000C3F1200301FA03F100F0004302D5494283
:1042E00060EB4000B0F5000F13D3B0F1807F06D330
:1042F00040084FEA310102F10102FE2A51D2B1F128
:10430000004F40EBC25008BF20F0010040EA03001C
:104310007047490040EB0000013A28BFB0F5000F9C
:10432000EDD2B0FA80FCACF1080CB2EB0C0200FA52
:104330000CF0AABF00EBC25052421843BCBFD040A1
:104340001843704792F0000F81F4000106BF80F41B
:1043500000000132013BB5E74FEA41037FEA226CDE
:1043600018BF7FEA236C21D092EA030F04D092F0A9
:10437000000F08BF0846704790EA010F1CBF0020DD
:10438000704712F07F4F04D1400028BF40F000403A
:10439000704712F100723CBF00F50000704700F05A
:1043A000004343F0FE4040F4000070477FEA226281
:1043B00016BF08467FEA23630146420206BF5FEA52
:1043C000412390EA010F40F4800070474FF0000352
:1043D00004E000BF10F0004348BF40425FEA000C19
:1043E00008BF704743F0964301464FF000001CE0C1
:1043F00050EA010208BF70474FF000030AE000BF17
:1044000050EA010208BF704711F0004302D5404254
:1044100061EB41015FEA010C02BF844601460020C6
:1044200043F0B64308BFA3F18053A3F50003BCFAE1
:104430008CF2083AA3EBC25310DB01FA02FC63448E
:1044400000FA02FCC2F12002BCF1004F20FA02F295
:1044500043EB020008BF20F00100704702F1200288
:1044600001FA02FCC2F1200250EA4C0021FA02F2E9
:1044700043EB020008BF20EADC7070474FF0FF0CEE
:104480001CEAD0521EBF1CEAD15392EA0C0F93EAE9
:104490000C0F6FD01A4480EA010C400218BF5FEA8B
:1044A00041211ED04FF0006343EA501043EA5111FE
:1044B000A0FB01310CF00040B1F5000F3EBF4900F8
:1044C00041EAD3715B0040EA010062F17F02FD2AFC
:1044D0001DD8B3F1004F40EBC25008BF20F00100DF
:1044E000704790F0000F0CF0004C08BF49024CEAF6
:1044F000502040EA51207F3AC2BFD2F1FF0340EA88
:10450000C250704740F400004FF00003013A5DDCF8
:1045100012F1190FDCBF00F000407047C2F1000239
:10452000410021FA02F1C2F1200200FA02FC5FEA26
:10453000310040F1000053EA4C0308BF20EADC7070
:10454000704792F0000F00F0004C02BF400010F4E2
:10455000000F013AF9D040EA0C0093F0000F01F08F
:10456000004C02BF490011F4000F013BF9D041EAB1
:104570000C018FE70CEAD15392EA0C0F18BF93EAB3
:104580000C0F0AD030F0004C18BF31F0004CD8D1DD
:1045900080EA010000F00040704790F0000F17BF64
:1045A00090F0004F084691F0000F91F0004F14D0AA
:1045B00092EA0C0F01D142020FD193EA0C0F03D102
:1045C0004B0218BF084608D180EA010000F0004005
:1045D00040F0FE4040F40000704740F0FE4040F4E0
:1045E000400070474FF0FF0C1CEAD0521EBF1CEA7F
:1045F000D15392EA0C0F93EA0C0F69D0A2EB03029D
:1046000080EA010C49024FEA402037D04FF0805336
:1046100043EA111143EA10130CF000408B4238BFFB
:104620005B0042F17D024FF4000C8B4224BF5B1A09
:1046300040EA0C00B3EB510F24BFA3EB510340EA57
:104640005C00B3EB910F24BFA3EB910340EA9C0005
:10465000B3EBD10F24BFA3EBD10340EADC001B0175
:1046600018BF5FEA1C1CE0D1FD2A3FF650AF8B4219
:1046700040EBC25008BF20F0010070470CF0004C26
:104680004CEA50207F32C2BFD2F1FF0340EAC25051
:10469000704740F400004FF00003013A37E792F012
:1046A000000F00F0004C02BF400010F4000F013A70
:1046B000F9D040EA0C0093F0000F01F0004C02BF6B
:1046C000490011F4000F013BF9D041EA0C0195E7D4
:1046D0000CEAD15392EA0C0F08D142027FF47DAF6D
:1046E00093EA0C0F7FF470AF084676E793EA0C0F5D
:1046F00004D14B023FF44CAF08466EE730F0004C5B
:1047000018BF31F0004CCAD130F000427FF45CAFEA
:1047100031F000437FF43CAF5FE700BF4FF0FF3C58
:1047200006E000BF4FF0010C02E000BF4FF0010CAB
:104730004DF804CD4FEA40024FEA41037FEA226C74
:1047400018BF7FEA236C11D001B052EA530C18BF96
:1047500090EA010F58BFB2EB030088BFC81738BFFB
:104760006FEAE17018BF40F0010070477FEA226CE9
:1047700002D15FEA402C05D17FEA236CE4D15FEAE5
:10478000412CE1D05DF8040B704700BF8446084619
:104790006146FFE70FB5FFF7C9FF002848BF10F1DA
:1047A000000F0FBD4DF808EDFFF7F4FF0CBF01201F
:1047B00000205DF808FB00BF4DF808EDFFF7EAFFA9
:1047C00034BF012000205DF808FB00BF4DF808ED64
:1047D000FFF7E0FF94BF012000205DF808FB00BF59
:1047E0004DF808EDFFF7D2FF94BF012000205DF8DF
:1047F00008FB00BF4DF808EDFFF7C8FF34BF0120EC
:1048000000205DF808FB00BF42000ED2B2F1FE4F5F
:104810000BD34FF09E03B3EB126209D44FEA00238F
:1048200043F0004323FA02F070474FF00000704756
:1048300012F1610F01D1420202D14FF0FF307047F7
:104840004FF00000704700BF53B94AB9002908BFB4
:1048500000281CBF4FF0FF314FF0FF3000F074B95B
:10486000ADF1080C6DE904CE00F006F8DDF804E0C7
:10487000DDE9022304B070472DE9F047089E0D469C
:1048800004468846002B4DD18A42944668D9B2FA34
:1048900082F252B101FA02F3C2F1200120FA01F1D1
:1048A0000CFA02FC41EA030894404FEA1C45210C33
:1048B000B8FBF5FE1FFA8CF705FB1E8341EA0343A4
:1048C0000EFB07F199420BD91CEB03030EF1FF30ED
:1048D00080F01E81994240F21B81AEF1020E6344CA
:1048E0005B1AA4B2B3FBF5F005FB103344EA0344B2
:1048F00000FB07F7A7420AD91CEB040400F1FF33C1
:1049000080F00881A74240F2058164440238E41B2C
:1049100040EA0E4000211EB1D4400023C6E9004306
:10492000BDE8F0878B4208D9002E00F0EE80002110
:10493000C6E900050846BDE8F087B3FA83F100290F
:104940004AD1AB4202D3824200F2F980841A65EB6D
:10495000030301209846002EE2D0C6E90048DFE7B5
:1049600002B9FFDEB2FA82F2002A40F09180A1EB98
:104970000C054FEA1C471FFA8CFE0121B5FBF7F32B
:1049800007FB1350250C45EA00450EFB03F0A84237
:1049900008D91CEB050503F1FF3802D2A84200F24A
:1049A000CB8043462D1AA4B2B5FBF7F007FB105598
:1049B00044EA05440EFB00FEA64508D91CEB04049E
:1049C00000F1FF3502D2A64500F2BB802846A4EBD9
:1049D0000E0440EA03409EE7C1F120078B4022FA13
:1049E00007FC4CEA030C20FA07F405FA01F31C4318
:1049F000FD404FEA1C4900FA01F3B5FBF9F8200C21
:104A00001FFA8CFE09FB185540EA054508FB0EF01D
:104A1000A84202FA01F20BD91CEB050508F1FF3A96
:104A200080F08880A84240F28580A8F102086544A1
:104A30002D1AA4B2B5FBF9F009FB105544EA05455F
:104A400000FB0EFEAE4508D91CEB050500F1FF3456
:104A50006CD2AE456AD90238654440EA0840A0FBF2
:104A60000294A5EB0E05A542C846A64656D353D0E0
:104A70005EB1B3EB080265EB0E0505FA07F722FA03
:104A800001F3CD401F43C6E900750021BDE8F08762
:104A9000C2F1200320FA03F10CFA02FC25FA03F319
:104AA00095400D434FEA1C471FFA8CFEB3FBF7F10C
:104AB00007FB11302B0C43EA004301FB0EF0984238
:104AC00004FA02F408D91CEB030301F1FF382FD2DA
:104AD00098422DD9023963441B1AADB2B3FBF7F0EB
:104AE00007FB103345EA034500FB0EF3AB4208D940
:104AF0001CEB050500F1FF3816D2AB4214D9023881
:104B00006544ED1A40EA014138E73146304607E78F
:104B10008646E5E61846FAE64B45A9D2B9EB020807
:104B200064EB0C0E0138A3E74046EAE7204694E721
:104B30004146D1E7D0467BE7023B654432E7084671
:104B400009E76444023842E7704700BF034613F8A0
:104B5000012B002AFBD1181A013870470000000011
:104B600001F0FF01102A2BDB10F0070F08D010F81E
:104B7000013B013A8B422DD010F0070F42B3F6D122
:104B8000F0B441EA012141EA014122F007047FF03B
:104B900000070023F0E80256083C85EA010586EA92
:104BA000010685FA47F5A3FA87F586FA47F6A5FACE
:104BB00087F68EB9EED1F0BC01F0FF0102F00702DA
:104BC00032B110F8013B013A83EA010313B1F8D185
:104BD0000020704701387047002D06BF3546033866
:104BE000073815F0010F07D1013015F4807F02BF9F
:104BF000013015F4C03F0130F0BC0138704700BFF0
:104C00004FEA4002B2F1FE4F0FD34FF09E03B3EBD9
:104C100012620DD94FEA002343F0004310F0004F19
:104C200023FA02F018BF404270474FF0000070476F
:104C300012F1610F01D1420205D110F0004008BF0E
:104C40006FF0004070474FF000007047914B924A60
:104C5000B3F87CC018882DE9F04FACEB0001158843
:104C60008E4C89B24A098D4287B02180628080F0E3
:104C7000E9808B4D2D888D4240F2E4805968DFF841
:104C800024820F1AD3E90201BFB2081A80B2BA42D5
:104C90002CBF0027012782422CBF00210121049153
:104CA000A160D3E90451A1EB050ED3E90651A1EBB4
:104CB000050AD3E908511FFA8EFE1FFA8AFA7245D7
:104CC000A1EB050189B22CBF4FF0000E4FF0010E91
:104CD00052452CBF4FF0000A4FF0010A8A422CBF08
:104CE0000021012103916161D3E90A51491B89B275
:104CF0008A42D3E90C51A1EB050189B22CBF0020F7
:104D000001208A422CBF002501250195E561D3E9E8
:104D10000E51491B89B28A42D3E91051A1EB05011A
:104D200089B22CBF002601268A422CBF4FF0000B0F
:104D30004FF0010B0290A061059626626760C4F8EF
:104D40000CE0C4F810A0C4F824B0D3E912514D1BF4
:104D5000D3E914618E1B0021A8F80010D3E91A01D1
:104D6000ADB2B6B2AA42A1EB000189B22CBF0025B8
:104D70000125B2422CBF002601268A422CBF002109
:104D800001214FEA8108A163D3E91691A1EB09093A
:104D9000D3E918011FFA89F9091A89B24A452CBFCB
:104DA0004FF000094FF001098A422CBF0021012178
:104DB00048EAC1086163996F0298C4F83090ACEB7F
:104DC000010189B28A422CBF0021012148EA010871
:104DD0002164D3E91C31CB1A9BB29A422CBF002329
:104DE0000123E36348EA4308049B2F49A56243403B
:104DF0006B409A00039B0598E6627B408BEA0303B5
:104E000042EAC3038AEA000289EA0209019A43EAF4
:104E1000090382EA0E0986EA090943EA49090B787F
:104E20009BB1224B1B781BB1C8F10F085FFA88F8C1
:104E3000C8453DD0B4F8543000220133A4F85430B2
:104E400084F8482007B0BDE8F08F184B1A78002A84
:104E5000E8D1019303F0DAFF019B134948B194F8BC
:104E600044200132D2B2642A84F8442084BF012253
:104E70001A70D4E90172049262690392A2690292E3
:104E8000E2690192226AE66A0592D4E903EAD4E96A
:104E900009B5C7E7C0070020B00700205404002070
:104EA000C00300203C070020080700205007002016
:104EB000B4F8463085480133A4F84630236B00220D
:104EC000012B028004BF824A1370049B039A5B0289
:104ED00043EA8723334343EA0E2343EACA1343EAF0
:104EE0008213029A43EA4213019A43EA0213059A93
:104EF00043EAC20394F8482043EA8B0343EA45059A
:104F0000E2B92F2D2EDD94F84D30002B53D1714E88
:104F10003578002D96D0704B1B78002B92D10B78F2
:104F2000002B8FD094F85030AB424CD0052D84F834
:104F3000505053D9012384F84E3083E7012A34D0EE
:104F4000022A2CD0032A7FF47DAF252D7FF47AAF7F
:104F50006249B4F84A2094F84C008854002384F83D
:104F600048306FE76B1E2E2B05D85D4B594E1A80CB
:104F7000EDB23570CFE7002DC9D194F84F30012B39
:104F800008BF84F84D5006F0EBF800287FF45AAFC4
:104F9000534A504B1080187084F84E0052E7032398
:104FA00084F84C5084F848304CE70223A4F84A5067
:104FB00084F8483046E74A49464B84F84E20ADB263
:104FC0000D801A703EE7052D08D994F84E30013354
:104FD000DBB2052B84F84E307FF634AF0023013D61
:104FE00084F84E30232D16D8DFE805F0126C686483
:104FF000605C554E4A46153E322B15151515152485
:105000001F15151515151515151515151515151B40
:10501000344B01221A70344A3178117000233370F6
:1050200010E7012384F84830F5E72C4A2F4B527CD7
:105030001A70F0E7294B2D4A5B7CC3F10103137012
:10504000E9E70022012384F8512084F85330E2E795
:1050500094F84F300122934284F8512084F8522072
:10506000D9D184F84D30D6E700F0DEFB1B4B1D4A4A
:105070005B7C01331370CEE7184B01229A74CAE7A8
:10508000164B00229A74C6E71449184B01200022DF
:1050900048741A70BFE71149144B0020012248746C
:1050A0001A70B8E7124B01221A70B4E70D4B0522B3
:1050B0001A70B0E70B4B04221A70ACE7094B0322BD
:1050C0001A70A8E7074B02221A70A4E73C070020D9
:1050D000360700206A070020F00600208C0500201B
:1050E000F20600200E0700206B070020540000206D
:1050F0005107002030B5834D95F85130002B37D142
:1051000095F85230002B3ED095F85330002285F8A8
:105110005220002B00F0C08000237B4A85F85330DA
:105120004EF6F173012185F85E107849784891F8C0
:1051300000E06B6605EB8E03AA6600EB8E00802212
:105140001A671146043013224FF0010CAC6E0CFAB2
:1051500002F32340D34083EAD111013AC901531C21
:1051600040F8041FF2D105EB8E050023EB6630BD3D
:1051700095F85E40002C49D095F85230002285F811
:105180005E20002BC0D195F85330002BC4D1614B69
:105190001B78002B00F08480C30B024640F0828015
:1051A0008313012B00F0A3804313012B00F0A18097
:1051B0000313012B00F09980C312012B00F09F8094
:1051C0008312012B00F099804312012B00F0938091
:1051D00000232B66030A83EA10134340DB4303F0EA
:1051E0000F0343EA02134C49181303F00F02085C43
:1051F0008A5C42EAC032C3F30320085C42EA8022A0
:10520000C3F30310095C42EA41128EE7B5F85C3043
:10521000B5F85A20B5F8581001339BB2013201316C
:1052200092B289B2272BA5F85C30A5F85A20A5F8D0
:10523000581040D8C72A4DD9384A394B1188A5F89B
:105240005A40A3FB0131C1F3C70141F4806195F8D5
:105250005230002B7FF458AF95F85330002B7FF479
:105260005BAF0A0A82EA11124A40D2432A4802F08E
:105270000F02C1F3132442EA0113045D825C42EA87
:10528000C432C1F3031401F00F01045D415C42EA32
:10529000842242EA411245E7224A4EF2010341E7E5
:1052A0004FF6FF720F21083942FA01F343EA412217
:1052B000296690B28EE71C4B194AB3F90030A5F865
:1052C0005C4082FB0312D917C1EB2211C9B241F431
:1052D000C061BCE7C7297FF613AF144BA5F858404F
:1052E0001988C9B241F40071B1E70C21DBE70E2146
:1052F000D9E70D21D7E70921D5E70A21D3E70B210B
:10530000D1E700BF54040020FB3D0700C303002089
:10531000C0040020F006002090EF000832070020B3
:105320001F85EB513B670700380700205607002018
:1053300030B5039C05468D4209DC13E0A34213D02F
:10534000B1EB6C0F0DD0754510DC0446724601EBD5
:10535000020C181995424FEA6C0E4FEA6000EDDB23
:10536000204630BD9542FBDA184630BD0EF10101F2
:105370000346E0E70346401A48BFC81A704700BF1B
:1053800004494A6A80B292B24B6A9B1A9BB283422A
:10539000FAD370470050014000F1FF3C58B1064974
:1053A0004A6A92B24B6A9B1A9BB2B3F57A7FF9D3E1
:1053B000BCF1010CF4D2704700500140002965D0C7
:1053C0000139421E50FA81F1002027E0C3B240B2F9
:1053D000002831DB5800C3B240B2002833DB58004C
:1053E000C3B240B2002835DB5800C3B240B2002837
:1053F00037DB5800C3B240B2002839DB5800C3B2D3
:1054000040B200283BDB5B00D8B25BB24000002B0F
:10541000B8BF80F007008A42C0B236D012F8013F10
:10542000584010F0800F4FEA4000CFD080F00703C3
:1054300058B20028DBB2CDDA5B0083F0070358B224
:105440000028DBB2CBDA5B0083F0070358B20028F8
:10545000DBB2C9DA5B0083F0070358B20028DBB285
:10546000C7DA5B0083F0070358B20028DBB2C5DA65
:105470005B0083F0070358B20028DBB2C3DA5800A0
:1054800080F0070043B2C0B2C0E7704708467047DB
:10549000F0B5074683B00E4614461D4672B6684600
:1054A00003F028FA694638468DF8066000958DF8B5
:1054B000054003F04FF962B603B0F0BD70B50B4C78
:1054C0000B4E04F13005B64620686168A268E368B7
:1054D000F446ACE80F001034AC42E646F4D1044880
:1054E0003021FFF76BFF86F8300070BD8C0500207F
:1054F00058050020BFF34F8F0549064BCA6802F4D8
:10550000E0621343CB60BFF34F8F00BFFDE700BFE6
:1055100000ED00E00400FA0570B5BA4CBA4D82B057
:105520002968C022204603F069FE6378022B40F20E
:105530001581A279511EC9B2E37D2A2B55D8181FB7
:10554000052852D9032B55D90A3BDBB2202B56D95B
:10555000237EA3F10800C0B2882858D803EB830348
:10556000AA48AB4E03EB83039B00A0FB0303312946
:10557000A8484FEA9303B0FBF3F3F362AB804DD836
:1055800002EB8202520002F5C87189B2637E2A8161
:10559000A3F13200642898BFD218A37EA98103EB3F
:1055A00083034FEAC30303F1140398BF92B20220AE
:1055B000EB816A8102F080F96378002B38D1E889A9
:1055C0004FF4FA73009340F6B8324FF47A734FF405
:1055D0009671FFF7ADFEA37CA5F8500013B34FF40E
:1055E0007A73C4F8C83002B070BD1020032B84F861
:1055F000C000A9D8DB00DBB203F10A00E07584F833
:10560000C030237EA3F10800C0B28828A6D9804804
:1056100041F26F733129EB80C362B1D94FF4C87185
:105620000022B3E74FF4FA63C4F8C83002B070BD8B
:10563000A07F0B2888BF052002F03EF994F82130A6
:1056400094F8202094F8221094F82300A87503F20F
:105650006B335B006B8294F82830053B142B84BFBE
:10566000052384F8283094F8293002F27712013BA0
:105670005200092B2A8294F8252088BF0A2302F1C0
:10568000FA0288BF84F8293094F82A302A8300224D
:1056900084F827205A1E01F25E51082AA98269D98E
:1056A0000A2384F82A3094F82B30617AE27AA07ABF
:1056B000A862463B462B84BFFF2384F82B3094F826
:1056C0002C30013B632B9CBF012384F8C13094F83C
:1056D0002D30013B092B84BF052384F82D3094F82D
:1056E0002E3049005200092B6962EA6206D8042B69
:1056F0000CD8DFE803F003817D0B7400464A0023D9
:10570000012184F8C23084F8C33011706379092B09
:1057100049D8092284F8C42085F8483085F84930F2
:1057200085F84A30E8893D4AE17EB0F5967F3CBF76
:10573000002385F84B302023B3FBF1F1A2FB0032AC
:10574000324B5209B2FBF1F2A5F84C20A3FB002327
:10575000DB08B3FBF1F3A5F84E3031E7304AC4F86B
:10576000052000214FF06413C4F80930C4F80D106F
:105770000122E1E6C3EB4312C3EB82035B006A89BB
:1057800023493D3BDBB21A446A812A89AB761A442D
:105790002A81AA8B1A44AA83AA891A44AA814A6C2C
:1057A00013434B647FE7002284F8C42095F8481027
:1057B000A2F13332A2FB0323DA08B1EBD30F88BF87
:1057C00085F8482095F849309A4238BF85F8492035
:1057D00095F84A309A4238BF85F84A20A2E7114925
:1057E0000D4A01230B700021117084F8C2308DE73F
:1057F000012384F8C33089E7074A012384F8C230C3
:10580000137083E78C05002000000020ABAAAAAA31
:10581000002C0140709D2400A10400201F85EB5145
:10582000A001000AA3040020024B03481A68C0210B
:1058300003F0AEBC000000208C05002038B5294CD8
:1058400094F85430012B3DD094F85530264D5A1E13
:1058500012F0FF0224D084F8552003F0010384F8ED
:10586000523072B695F83F313BB362B603F04CFC50
:10587000D5F8C830D5F8402103F5FA7393423CBF00
:10588000012384F8563094F85530002285F83C21E5
:1058900005EB430385F84421A26DA3F8462138BDEA
:1058A0000123062284F8552085F83E3184F85230D1
:1058B00072B695F83F31002BD7D194F8550003F01C
:1058C0004FFFD2E794F85520074D0132D2B2062A95
:1058D00099BF84F8552002F0010384F8553085F80B
:1058E0003E31BCE7000000208C050020204AD36830
:1058F00010B523F001031F4CD360FFF79FFFB4F8EE
:1059000054211D49B4F856018B6D80B210FA82F211
:1059100003EB520394F82F205B088B65EAB98A6D7C
:1059200094F8C03002FB03F3C3F38F138A6D91F830
:105930005610A4F85A31C3EB520292B2A4F85C217B
:1059400099B1D4F8602142F20F739A4204D8D4F886
:1059500060310133C4F8603110BD8A6D94F858315C
:1059600002FB03F3C3F38F13E0E703F0C5FBE8E7A3
:10597000005401408C0500200000002038B5184D6F
:1059800095F85C3073B1002403E095F85C30A342D5
:1059900008DD03F09DFB95F85230984204F10104B4
:1059A000F3D138BD72B603F09BFB0E4A0E4CB2F831
:1059B00056110E4B89B2A2F85411606A002180B2D0
:1059C000A2F8560161625962B2F85C2192B20132CA
:1059D000DA621961DA6842F00102DA6062B638BD53
:1059E000000000208C050020000800400054014009
:1059F00070B5B44CA37C82B0002B5CD094F8C2305C
:105A0000002B00F0BD80B04D94F82630002B00F044
:105A1000B081B4F866319BB2B3F5836F17D3627C63
:105A200095F85430934200F0B48394F83F3173B941
:105A3000B4F8662195F85D3092B2C3EB42036FF47F
:105A400000600022034484F86A21A4F86831B4F8A5
:105A500066319BB2B3F5836F1CD2B4F866319BB24A
:105A60002F2B17D9637C95F85410C3F10102914292
:105A700000F0028494F83F3163B9B4F8662195F8D8
:105A80005D3092B2C3EB4203313B002284F86A21BD
:105A9000A4F86831B4F866319BB22F2B10D894F873
:105AA0003F210023A4F8683152B1012284F83F312C
:105AB00084F86A2104E0B4F86631834DA4F86831B3
:105AC00094F8702195F85E309A4203D9A37D002B9B
:105AD00040F0EC80E67CAEB3B4F868011D2800F21B
:105AE000D0800023A4F8723194F8283003EB8303AC
:105AF000B0EB830F4FEA830180F2CF8094F86E31D0
:105B0000002B40F0B78094F87C31002B00F0B2807D
:105B1000E27CB4F8720150232E2113FB021383425E
:105B2000C0F2688194F88231002B00F0E781013BDC
:105B3000042B00F2E081DFE813F0DC016403610371
:105B40005E03DC0194F87431002B00F0958094F82A
:105B50007531002B40F0A281D4F878215B49D3172E
:105B600081FB0212C3EB22339BB2B3F5006FA4F8A2
:105B70007231C0F0068240F2FF73A4F87231BDE7C3
:105B800094F82620504D002A00F0A280A87DB4F899
:105B90006621400092B200F57A718A421ADD667C75
:105BA00095F85420B24200F0D18294F83F318BB97D
:105BB000B4F8660140F2FF720023009284F86A3163
:105BC00080B22F234FF4FA62FFF7B2FBAB7DA4F84B
:105BD00068015800B4F86631C0F57A729BB29342FE
:105BE0001CDA637C95F85460C3F101018E4200F029
:105BF000BF8294F83F318BB9B4F866012F2300219E
:105C0000009380B240F2FF7384F86A11FFF790FBB3
:105C1000AB7DA4F868015800C0F57A72B4F866311B
:105C20009BB2934211DBB4F8663100F57A709BB2F7
:105C300083420ADC94F83F210023A4F8683122B1A2
:105C4000012284F83F3184F86A2194F8C230002B95
:105C50003FF436AFD8E6E17C2E22502313FB01231C
:105C6000B4F872219342BFF65DAF94F83F61002E05
:105C700000F0B68102B070BDB4F86831A4F872319A
:105C80003CE71E283FF430AF94F8282002EB820254
:105C9000920090421146C0F2208140F2FF720092C1
:105CA000A023FFF745FBA4F8720127E703F01AFDD4
:105CB00003F016FA00226623A4F8722184F87031EA
:105CC0001CE700BF8C05002000000020AD8BDB68C6
:105CD000AB7DB4F866215B0092B203F57A718A421B
:105CE00014DD637C95F854209A4200F01282B4F8D7
:105CF000660140F2FF73009380B22F234FF4FA62E3
:105D0000FFF716FBAB7DA4F868015B00B4F86611E1
:105D1000C3F57A7289B2914217DA637C95F8540020
:105D2000C3F10101884200F04B82B4F866012F23D1
:105D3000009380B240F2FF730021FFF7F9FAAB7DC8
:105D4000A4F868015B00C3F57A72B4F8661189B2F1
:105D50009142FFF67AAFB4F8662103F57A7392B2F6
:105D60009A423FF772AF0023A4F8683184F86F318C
:105D70006BE7B4F866319BB2B3F5836F11D3637CE4
:105D800095F854209A4200F0A981B4F8662195F85C
:105D90005D3092B2C3EB42036FF400610B44A4F890
:105DA0006831B4F866319BB2B3F5836F16D2B4F89C
:105DB00066319BB22F2B11D9637C95F85410C3F137
:105DC0000102914200F04182B4F8662195F85D30FD
:105DD00092B2C3EB4203313BA4F86831B4F86631A8
:105DE0009BB22F2B3FF66CAE0023A4F8683184F8E9
:105DF0006F3165E694F86431002B00F00081002AD1
:105E000000F0F1802B894FF4FA620092283340F2BF
:105E1000FF728921FFF78CFAA4F8800194F82630EC
:105E2000002B7FF418AFE07CB4F8721184F83F3196
:105E300050222E2312FB003399427FF773AE2E2996
:105E400007D9607FD4F860211E230341934200F2FA
:105E50002281B4F88031B5F892209A423CBFA4F870
:105E60008021134694F8C12032B1B5F994209342B1
:105E7000C4BF93B2A4F88031D4F88C21002A7FF7F4
:105E8000F9AE2F297FF6F6AECB48D11780FB020280
:105E9000C1EB22321344A4F88031EBE6D5E9183285
:105EA000B4F8680100922F2140F2FF72FFF740FA28
:105EB000B4F86821C14B93FBF0F3E07E2E2A4FEA41
:105EC000500093FBF0F3A4F876313FF645AEA4F80A
:105ED0007261AE66C4F8786110E6A02300931E21BB
:105EE0002F23FFF725FA0346A4F87231B4F86801AE
:105EF000FAE501F059FD002384F88231237D002B5F
:105F000046D194F86421A4F88031002A00F0D280B0
:105F100094F82630002B3FF4A8AE94F83F31002BC4
:105F20005ED094F8C230002B00F0C181B4F8663125
:105F30009BB2B3F5836F0ED2B4F866319BB22F2BB0
:105F400009D9B4F8662195F85D3092B2C3EB4203EB
:105F5000313BA4F88431B4F866319BB2B3F5836F5A
:105F600080F0CA81B4F8843140F2CE72934240F29C
:105F7000B08103F04DFD94F83F61002E7FF47AAEBE
:105F80002EE02F2B3FF6BAAD3023A4F87231B5E5E1
:105F900094F86431002B45D1267FC4F8603101228A
:105FA00085F8562084F83D31002E39D0E17C002957
:105FB00039D1012E37D194F8293003EB830303EB59
:105FC0008303DB009BB240F2CE729342A4F884318B
:105FD00040F2A08103F01CFDE17C94F83F6124E0D5
:105FE000B4F872112BE74FF4FA6200922B8940F259
:105FF000FF722F21FFF79CF9A4F880010EE703F050
:1060000071FB95F85630002B00F018816B89E27C0B
:10601000B4F87201A4F87E31012184F86411EEE62F
:1060200003F060FBE17C94F83F6195F85530013B4B
:10603000C3EB0312B5F8903003EB82031AB2B2F54A
:10604000B47F9BB2A6BFA3F5B4739BB2A4F886211C
:1060500003F1770212B2A8BFA4F88631B2F5B47F7B
:10606000A8BFA3F1F102A4F8882103F1EF0212B254
:10607000B2F5B47FA6BF793BA4F88A31A4F88A218F
:106080000023012908BF84F86E11A4F88031002E86
:106090007FF4F0ADA4E7B4F880316A8993423CBF45
:1060A000A4F880211346AA899A423CBFA4F8802113
:1060B0001346D0E6237FC4F86021012185F85610ED
:1060C000002B40F0EA8094F83F31002B00F004816F
:1060D00094F82630002B7FF424AFCBE5AA6DB5F8F9
:1060E0005010914280F0A280B4F86C2192B2C72A7D
:1060F00000F29C80C3F101030026012285F8543090
:10610000C4F8606185F8562002F0EAFF84F86F61F8
:106110003BE6AA6DB5F8500090427ED2B4F86C21EF
