:020000040800F2
:10000000F8FF012081800A081D810A087D7105081A
:100010001D810A081D810A081D810A0800000000D0
:100020000000000000000000000000001D810A0820
:100030001D810A08000000001D810A089D67040850
:100040001D810A081D810A081D810A081D810A08F0
:100050001D810A081D810A088D330408B533040880
:10006000DD330408053404082D340408BD03000002
:10007000D1030000E5030000F90300000D040000B7
:1000800021040000350400001D810A081D810A08B2
:100090001D810A081D810A081D810A0855340408BB
:1000A0001D810A08E94A04081D810A08D94A040882
:1000B000F94A0408094B0408194B0408111F0408E5
:1000C000051F0408451F0408391F04081D810A087C
:1000D0001D810A08D93D0000293F0000954000001D
:1000E000953404081D810A0800000000D54B04085F
:1000F000AD4B0408E54B04089D4B0408490400007F
:100100001D810A081D810A08294B04081D810A085F
:100110000542000075430000394B0408A1A90908F5
:100120005D040000710400008504000099040000D3
:10013000AD0400001D810A081D810A081D810A08FE
:1001400000000000000000000000000000000000AF
:10015000C1040000D5040000E9040000E5440000EB
:10016000791F04086D1F04081D810A081D810A08F3
:100170001D810A081D810A081D810A08000000006F
:100180001D810A081D810A0855460000C547000068
:100190001D810A081D810A081D810A081D810A089F
:1001A0001D810A081D810A081D810A081D810A088F
:1001B0001D810A081D810A081D810A08AD1F040857
:1001C000A11F04081D810A081D810A081D810A0853
:1001D0001D810A08E19F09081D810A081D810A087E
:1001E0001D810A081D810A081D810A081D810A084F
:1001F0001D810A081D810A081D810A081D810A083F
:100200001D810A081D810A081D810A081D810A082E
:10021000F54B0408054C0408154C04081D810A0818
:100220001D810A081D810A081D810A0800000000BE
:100230001D810A081D810A08000000001D810A08AE
:100240001D810A081D810A081D810A081D810A08EE
:100250001D810A081D810A081D810A081D810A08DE
:100260001D810A081D810A081D810A081D810A08CE
:100270001D810A081D810A083549000000000000A0
:100280001D810A08000000001D810A08000000000E
:08029000000000001D810A08B6
:020000040804EE
:10000000114A037A0168D35C10B4CC58CA1824F0A2
:100010000104CC501368DB07FCD4037D1F2B09D9E6
:10002000203B20225DF8044B02FA03F343F018034F
:10003000CB60704720225DF8044B02FA03F343F0D3
:1000400018038B60704700BFC8500B084368426DAF
:1000500030B49A61EFF31182502383F31288416820
:10006000D2B2856C0B68046D23EA050323430B6051
:1000700082F31188436981681A68096822F00102D5
:10008000D0E908541A60826A1D605C615A60D0E948
:100090000B429C60DA600023B0F86C2030BCCA626E
:1000A00003777047002A4FEA014C034630B508BF7A
:1000B000E64600F1C00514BF8E468C460024196840
:1000C0000C3353F8042C43F8084C41EA0C0142EA83
:1000D0000E02AB4243F80C1C43F8042CEFD1D0F8CD
:1000E000C03043EA0E03C0E93144C0F8C03030BD2F
:1000F00010B40C4C6368002B11DD002004F1080CD7
:100100000146DCF8AC3003F1C00259600C33934275
:10011000FBD1013063680CF5867C8342F1DC5DF82D
:10012000044B704704000020F0B5404C04EB401332
:1001300093F8543403B9F0BD3D4B42011D7893F858
:1001400001C065450CD00CEB4C0E03EBCE0E9EF8B7
:1001500004604FEA4C0E771E012F5AD9032E52D05D
:100160002244A2F83814EFF31181902383F312880C
:1001700092F83A34C9B2B2F8380443EA4003002096
:100180009BB282F83A0481F311881909207881EA38
:1001900013215940D8B1C9431B01D2F8505401244E
:1001A000D2F83C049BB201F00F01D5F8AC2084409A
:1001B0000B4302F1C000590013F4004F8BB202D17F
:1001C0005168214351600C329042F4D1F0BDD2F815
:1001D0003C041B01D2F8502401F00F0110309BB2F7
:1001E0000124D2F8AC200B43844002F1C000590036
:1001F00013F4004F8BB202D15168214351600C328D
:100200009042F4D1F0BD0CF1010606F00306AE42B7
:10021000A6D0E64403EBCE030344597C00299FD0CB
:10022000A318012083F83A049AE700BF04000020D5
:10023000A81D0024704700BF024B03EB401393F846
:100240005504704704000020D0E90920131A5842D1
:100250005841704790F8573830B53BB990F8551869
:10026000012490F85638DAB2914200D830BD04FA31
:1002700003F2B0F85E5801332A43A0F85E28F2E793
:100280000379024613F0010006D0D2E90731D268A3
:100290005B1A013A03EA0200704710B5037904467D
:1002A00013F001030ED0FFF7EBFF034650B1226AB3
:1002B0006369E1689B5C0132B2FBF1F0DBB201FBE8
:1002C00010222262184610BD03799B070AD5436AA3
:1002D0008269D154436A02690133B3FBF2F102FB34
:1002E00011334362704770470171704703790146CB
:1002F00013F0020007D00B69D1E90921013B521A22
:100300001A40D2B2981A70470C4B4FF0E02C10B440
:100310005A6EDCF81800596E8A42F9D1996E8842FB
:10032000F6D8DC6E4FF47A7101FB04F31B1AB3FBB1
:10033000F4F35DF8044B01FB02307047A81D002464
:100340002DE9F04F4C484FF0010A4C494FF002099B
:100350004B4B4FF0040808271026202540244FF06F
:10036000800EDFF820C130F8022F12F0010F03D009
:100370001960083323F804AC12F0020F03D019609F
:10038000083323F8049C12F0040F03D019600833DB
:1003900023F8048C12F0080F03D01960083323F8F7
:1003A000047C12F0100F03D01960083323F8046C9A
:1003B00012F0200F03D01960083323F8045C12F008
:1003C000400F03D01960083323F8044C12F0800F5B
:1003D00003D01960083323F804EC12F4807F05D0B1
:1003E0004FF4807B1960083323F804BC12F4007FBB
:1003F00005D04FF4007B1960083323F804BC12F4D5
:10040000806F05D04FF4806B1960083323F804BC6B
:1004100012F4006F05D04FF4006B1960083323F815
:1004200004BC12F4805F05D04FF4805B1960083380
:1004300023F804BC12F4005F05D04FF4005B196090
:10044000083323F804BC12F4804F05D04FF4804BDE
:100450001960083323F804BCD20B05D04FF40042D6
:100460001960083323F8042C01F5806161457FF49D
:100470007AAFBDE8F08F00BF76AD0A0800000258E1
:10048000181E00240024025810B584464FEA810E3D
:10049000102312F4004F4FEA420214BF0E24072427
:1004A000013B92B2CCF80040F444F2D100EB81124F
:1004B0008C010351122042F8213010BD10B5844642
:1004C0004FEA810E0424130B013C4FEA021203EBA6
:1004D000430392B203F11803CCF80030F444F2D194
:1004E00000EB01130A018450062043F8214010BD9F
:1004F000704700BF704700BF00EB4000024B03EBAA
:10050000C00393F84905704704000020064B93F898
:10051000F825824206D900EB400003EBC003D3F874
:100520004C05704700207047040000201D4B93F8D5
:10053000FC25AAB3D3F8381509B100200860012AB8
:100540002ED0D3F8501509B100200860022A27D018
:10055000D3F8681509B100200860032A20D0D3F829
:10056000801509B100200860042A19D0D3F8981525
:1005700009B100200860052A12D0D3F8B01509B1DE
:1005800000200860062A0BD0D3F8C81509B1002056
:100590000860072A04D0D3F8E0350BB100221A60B6
:1005A000704700BF040000201D4B93F8FC25AAB340
:1005B000D3F8381509B100200860012A2ED0D3F8ED
:1005C000501509B100200860022A27D0D3F8681519
:1005D00009B100200860032A20D0D3F8801509B1A2
:1005E00000200860042A19D0D3F8981509B100201A
:1005F0000860052A12D0D3F8B01509B100200860B0
:10060000062A0BD0D3F8C81509B100200860072AC4
:1006100004D0D3F8E0350BB100221A60704700BF58
:1006200004000020C44B1B78002B40F04F81C34BCB
:1006300093F8FC25002A00F0498193F8481530B55D
:1006400000294ED1D3F838150020012A086047D977
:1006500093F86015002966D1D3F850150020022ABE
:1006600008603DD993F87815002940F0CB80D3F885
:1006700068150020032A086032D993F890150029E4
:1006800040F0E280D3F880150020042A086027D9C2
:1006900093F8A815002940F0F880D3F898150020A9
:1006A000052A08601CD993F8C015002940F00F8175
:1006B000D3F8B0150020062A086011D993F8D81590
:1006C000002959D1D3F8C8150020072A086007D996
:1006D00093F8F025002A73D1D3F8E03500221A6090
:1006E00030BDD3F83C25910AA1F58011522940F282
:1006F0000F814FF0FE0CEFF31181502080F3128830
:100700008F4C4FF02C0E556AC9B250690EFB0C4C41
:10071000013540F00100CCF81855506181F3118883
:1007200093F8FC258EE7D3F85425910AA1F58011A2
:10073000522940F2F2804FF0FE0CEFF3118150206D
:1007400080F312884FF02C0E556A7D4CC9B2506967
:1007500001350EFB0C4440F00100C4F818555061FF
:1007600081F3118893F8FC250020D3F85015022A54
:1007700008603FF677AFB3E7D3F8CC25910AA1F52F
:100780008011522900F2EA806E48014491F814C0A9
:10079000EFF31181502080F312884FF02C0E556A30
:1007A000674CC9B2506901350EFB0C4440F00100A2
:1007B000C4F81855506181F3118893F8FC2581E73E
:1007C000D3F8E425910AA1F58011522900F2C980DD
:1007D0005C48014491F814C0EFF31181502080F37C
:1007E00012884FF02C0E556A554CC9B2506901352C
:1007F0000EFB0C4440F00100C4F81855506181F321
:10080000118869E7D3F86C25910AA1F58011522966
:1008100040F288804FF0FE0EEFF31181502080F3FC
:1008200012884FF02C0C556A454CC9B250690135FD
:100830000CFB0E4440F00100C4F81855506181F3E0
:10084000118893F8FC2512E7D3F88425910AA1F5C5
:10085000801152296BD94FF0FE0CEFF3118150201B
:1008600080F312884FF02C0E556A354CC9B250698E
:1008700001350EFB0C4440F00100C4F818555061DE
:1008800081F3118893F8FC25FCE6D3F89C25910AA6
:10089000A1F58011522957D94FF0FE0CEFF31181C9
:1008A000502080F312884FF02C0E556A244CC9B2A8
:1008B000506901350EFB0C4440F00100C4F8185596
:1008C000506181F3118893F8FC25E6E67047D3F870
:1008D000B425910AA1F5801152293AD94FF0FE0CA6
:1008E000EFF31181502080F312884FF02C0E556ADF
:1008F000134CC9B2506901350EFB0C4440F00100A5
:10090000C4F81855506181F3118893F8FC25CFE69F
:100910000C48014491F814C0EDE60A48014491F8EE
:1009200014C00AE70748014491F814E074E7054849
:10093000014491F814C090E7000000240400002056
:10094000A81D002478AD0A080748014491F814C096
:10095000A4E70548014491F814C0C1E74FF0FE0C2C
:1009600016E74FF0FE0C37E778AD0A0800EE100AE4
:10097000B8EE400A704700BFBCEEC00A10EE103A55
:1009800098B2704707280AD84FF4B472054B02FB9F
:100990000033B3F80006B0FA80F040097047002039
:1009A000704700BF04000020072807D8044B4FF40D
:1009B000B471012201FB003383F80226704700BFA7
:1009C00004000020072808D8044B03EB401393F8D9
:1009D000542412B1012283F83A2470470400002005
:1009E000072808D8054B03EB4013B3F83804B0FAD6
:1009F00080F0400970470020704700BF04000020CD
:100A0000054B93F8F825824204D903EB4013D3F841
:100A1000440470470020704704000020436A0246E7
:100A20001B681B6A5B689B7813F0010008BF507756
:100A3000704700BFC2628161704700BF0346012258
:100A400000205A77704700BF826908B50346006BE3
:100A5000D96A02449A6101B18847002008BD00BFED
:100A6000704700BF043070470C4B93F88827D3F8C9
:100A7000841702440144D2B2C3F8841783F888274C
:100A800093F88827120605D593F8882782F080020C
:100A900083F88827024B01225A707047A81D002452
:100AA000000000242DE9F84F164FD7F88C57ED0AB7
:100AB00023D00026DFF850A007F5F269B04674197C
:100AC000D7F890174FF01003524648BF0134D1F8C1
:100AD00028B04846C7F8BC876410E102D8470F2801
:100AE0000BDD094B03F1100153F8042B013207D140
:100AF0008B42F9D12546B542E1DCE802BDE8F88F2A
:100B0000661CF8E7A81D0024A0FD0024194B596EAF
:100B1000D3F8C4278A1A322A05DCD3F8D8278A1AD0
:100B2000002A11DC7047D3F8C81749B193F8D427CD
:100B3000888802F001020968120100FA02F28A6153
:100B40000022C3F8D8277047D3F8C8276AB11068C5
:100B50003231928810B44469C3F8D81722425DF844
:100B6000044B18BF1204826170473231C3F8D817A2
:100B7000704700BFA81D0024074AD2F8C8374BB100
:100B800092F8D4279988186802F001031B0101FA32
:100B900003F3836100207047A81D0024044B4FF429
:100BA000007C0020D3F8E837A2F800C00B60704743
:100BB000A81D0024002070470120704701207047C5
:100BC0000020704710B41C6994420CD394460A4626
:100BD00061448C42996938BFA4EB0C0261445DF812
:100BE000044B69F0F3BC5DF8044B70472DE9F0410C
:100BF0004FF425728EB00021734869F045FD734BA8
:100C0000734D4FF00008D3F8F02040F27D27A5F196
:100C1000680605F6F41442F00102C3F8F020D3F898
:100C2000F02002F001020092009AD3F8E82042F08E
:100C30000102C3F8E820D3F8E82002F00102019293
:100C4000019AD3F8E82042F00202C3F8E820D3F872
:100C5000E82002F002020292029AD3F8E82042F061
:100C60000402C3F8E820D3F8E82002F0040203925B
:100C7000039AD3F8E82042F00802C3F8E820D3F83A
:100C8000E82002F008020492049AD3F8E82042F027
:100C90001002C3F8E820D3F8E82002F01002059211
:100CA000059AD3F8E82042F02002C3F8E820D3F8F0
:100CB000E82002F020020692069AD3F8F02042F0D3
:100CC0000202C3F8F020D3F8F02002F002020792EB
:100CD000079AD3F8E82042F04002C3F8E820D3F89E
:100CE000E82002F040020892089AD3F8E82042F087
:100CF0008002C3F8E820D3F8E82002F080020992CD
:100D0000099AD3F8E82042F48072C3F8E820D3F8B7
:100D1000E82002F480720A920A9AD3F8F02042F492
:100D20008032C3F8F020D3F8F02002F480320B9226
:100D30000B9AD3F8F02042F40032C3F8F020D3F835
:100D4000F02002F400320C920C9AD3F8F02042F416
:100D50008022C3F8F020D3F8F03003F480230D9301
:100D60000D9B55F82810002354F83320914226D0CB
:100D700001330E2BF8D1002008F107085FF072FC58
:100D8000B845EED14FF0000840F27D2755F8281005
:100D9000002354F8332091420CD001330E2BF8D1AC
:100DA000002008F107085FF05DFCB845EED10EB0F9
:100DB000BDE8F08106EBC303B3F8600AF1E706EB88
:100DC000C303B3F8600AD7E798220024004402580E
:100DD000E0AD0A0810B5044668F0C0FB01462046A5
:100DE00089B2BDE81040FFF79FB900BF38B50B4D81
:100DF00000EB400005F5A763C40003EBC0032544E6
:100E000093ED027AD3ED037AE7EE007AB0EE670A4B
:100E100068F0A4FBD5F83835186038BD0400002010
:100E200002692DE9F843C36812EA030828D0054691
:100E30000E464FF00047B8FA88F327FA03F21B3B3F
:100E4000D24308EA02082A61042B16D8DFE803F02F
:100E50003B30251A0300B36A002B3FD003F1FF3962
:100E600000231FFA89F9B362746A34B123682046FB
:100E7000494698476468002CF8D1B8F1000FDAD1E0
:100E8000BDE8F88370680028F7D0696B036889B201
:100E90009847B8F1000FCED1F2E7B0680028ECD047
:100EA000A96B036889B29847B8F1000FC3D1E7E78F
:100EB000F0680028E1D0E96B036889B29847B8F17F
:100EC000000FB8D1DCE730690028D6D0296C036860
:100ED00089B29847B8F1000FADD1D1E7EB6A1FFA9C
:100EE00083F9C1E72DE9F043144C83B0DFF850904B
:100EF000DFF8508004F5906602E00834B44219D05F
:100F000094F90650002DF8D12768083407EB080340
:100F10009B0A09EB4303B3F8CC0A5FF0A3FB34F858
:100F2000041C01232A463846CDE9005562F0DCFE58
:100F3000B442E5D103B0BDE8F08300BF181E002421
:100F400078AD0A080000FEA78069B43056F0B0B949
:100F500010B590F83DE0BEF1020F76D0144690F83F
:100F60003D208446012A02D1022280F83D200C292E
:100F700021D8DFE801F007202020222020203A207D
:100F800020205200DCF824003449DCF80020C16342
:100F90003349C16490F8341001290CD0012180F844
:100FA000341090F83510012952D000224FF400631C
:100FB00080F834204365002010BDDCF82800274964
:100FC000DCF80020C1632649C16490F8341001297F
:100FD000F1D0012180F8341090F835100129E4D1C6
:100FE0003832214656F050FEE5E7DCF82C001B496C
:100FF000DCF80020C1631A49C16490F8341001295B
:10100000D9D0012180F8341090F835100129CCD1C5
:101010003C32214656F038FECDE7DCF830000F496F
:10102000DCF80020C1630E49C16490F83410012936
:10103000C1D0012180F8341090F835100129B4D1C5
:101040004032214656F020FEB5E75FFA8EF010BD23
:101050003432214656F018FEADE700BFB14409080E
:1010600059440908F8B5A0F507642379DB0725D5AD
:10107000657994F8543805F001073D46FBB1D4F882
:1010800048341A68D36A5B08536294F8583823B11D
:10109000B4F862380133A4F8623885F00101606C5D
:1010A0005DF02EFD012384F85738002384F855386D
:1010B00084F85638A4F85E3884F85438F8BD94F8AB
:1010C0005768012E03D194F8553884F856382046D5
:1010D000FFF7C0F84EB9012385EA030184F85738B9
:1010E000606CBDE8F8405DF00BBD0023394684F824
:1010F0005738F5E738B5A0F507640022344D606C29
:1011000003685A62A1F12903302B31D895F8B7381A
:1011100095F8B8180133DBB2012B85F8B73809D937
:10112000B4F85E3885F8B7285B08A4F85E384B1C25
:1011300085F8B83895F8B8280023082AA4F860384C
:1011400015D185F8B838B5F8BA3801339BB2032BFE
:10115000A5F8BA3808D92379DB0705D5E36A94F8EE
:101160005E0843B3216B98470023A4F85E3838BD6E
:101170005B396C290CD8B4F85E3885F8B7285B0861
:1011800043F08003A4F85E3895F8B8380133CFE710
:1011900094F85938002BCDD1012185F8B738A5F83E
:1011A000BA38802384F85918A4F85E3885F8B8183E
:1011B0005DF0A6FCBEE7E3696269D054E369E268CA
:1011C0000133B3FBF2F102FB1133E361CCE700BF63
:1011D000A81D002438B557F0F7FC0D490D4CD1F887
:1011E000FC20A4FB00400C4D42F080720B4B800CA5
:1011F000C1F8FC204FF060420949E866C2F8B01F10
:1012000000225A601A6842F001021A6038BD00BF1D
:1012100000ED00E083DE1B43A81D0024001000E069
:1012200055CEACC51B481C4AC1681C4B10B44FF6C8
:10123000FF0485B021401A4C0A43C260D3F8D01095
:10124000D3F8DC20C4F8BC1842F00052C3F8DC200C
:10125000D3F8DC2002F000520192019AD3F8DC208E
:1012600042F08042C3F8DC20D3F8DC2002F0804258
:101270000292029AD3F8DC2042F00042C3F8DC204C
:10128000D3F8DC3003F000430393039B05B05DF813
:10129000044B9FE700ED00E00005FA05004402580A
:1012A000A81D002401302DE9F84F7E4C01F1FF38D4
:1012B0007D4D10265FFA80FB01275DF069F84FF441
:1012C000FA794FF0E0214FF47A7C6B68C3F308039E
:1012D000002B40F0C080EFF31183002B40F0BB8067
:1012E000636E8869626E9342FAD1A26E9042F7D81B
:1012F000E26E0CFB02FEAEEB000EBEFBF2FE0CFB40
:1013000003EE6B68C3F30803002B40F08680EFF315
:101310001183002B40F08180636E8869626E934276
:10132000FAD1A26E9042F7D8D4F86CA00CFB0AF266
:10133000121AB2FBFAF20CFB0323A3EB0E03B3F574
:101340007A7FDED3B9F10109BFD14FF47A795846DB
:101350005DF0F0F94FF0E021CC466B68C3F3080371
:10136000002B40F08B80EFF31183002B40F0868040
:10137000636E8869626E9342FAD1A26E9042F7D88A
:10138000E26E0CFB02FEAEEB000EBEFBF2FE0CFBAF
:1013900003EE6B68C3F308030BBBEFF31183F3B9E0
:1013A000636E8869626E9342FAD1A26E9042F7D85A
:1013B000D4F86CA00CFB0AF2121AB2FBFAF20CFB86
:1013C0000323A3EB0E03B3F57A7FE2D3B9F101094E
:1013D000C3D1B8F10108BFF470AFBDE8F88FEFF3E7
:1013E000118386F31288D1F818A00A69D20303D5B5
:1013F000C4F8C078D1F818A0606EDBB2D4F8C02869
:1014000083F311880244E06E0CFB00F3A3EB0A03A4
:10141000B3FBF0F30CFB0233D3E7EFF3118386F356
:101420001288D1F818A00A69D20303D5C4F8C0788D
:10143000D1F818A0606EDBB2D4F8C02883F311880D
:101440000244E06E0CFB00F3A3EB0A03B3FBF0F3E2
:101450000CFB023371E7EFF3118286F3128888697F
:101460000B69DB0302D5C4F8C0788869636ED2B219
:10147000D4F8C0E882F31188734439E7EFF311829E
:1014800086F3128888690B69DB0302D5C4F8C0783B
:101490008869636ED2B2D4F8C0E882F311887344CD
:1014A0006EE700BFA81D002400ED00E070B5054602
:1014B0000A26084C013E00D170BD94F9000019F0D5
:1014C00031FA031E04DB6178EA185172A278EA54FB
:1014D0000434EFE756B80A0810B590F828300446EF
:1014E000012B03D000230120637710BD406A0368FD
:1014F0001A7B42B964F0A6F800F00103C243637797
:1015000002F00100F1E71B6A002BF3D0002010BDB0
:1015100038B5114D044694F82830012B05D000232E
:10152000637700230120236238BD606A03681A7B59
:101530006AB964F087F800F001036377C307F0D558
:101540006B6E226A9B1A002BE5DB002038BD1B6AFC
:10155000002BEED0F4E700BFA81D002410B5FF2239
:10156000044690F82810406A65F078FF0D4B20463D
:101570005B6E02332362FFF7CBFF94F82830012B18
:1015800000D010BD0022A021606A65F01DFF94F814
:101590002830012BF5D1606A1822B021BDE8104037
:1015A00065F012BFA81D002438B504460D46FFF7AC
:1015B000AFFF062294F82810606A65F04FFF012201
:1015C00094F828306277934204D0064B5B6E0F3359
:1015D000236238BDE288D821606AB5FBF2F265F07B
:1015E00019FFF2E7A81D00242DE9F843838853B3BF
:1015F00004460025DFF85480012707E0D8F864305E
:101600000135A2880F33AA4223621CD92046268ABC
:10161000B4F80690FFF77CFF062294F82810606A61
:1016200065F01CFF94F828306777012BE6D109FBA1
:1016300006F6E288D821606A05FB06F6B6FBF2F2F0
:1016400065F0E8FEDAE7BDE8F88300BFA81D0024D6
:1016500070B5104D95F8C43803B970BDC388044601
:10166000D5F8C868B6FBF3F60B4B5E60FFF750FF8A
:1016700094F82830012B06D06B6E0022023385F8D7
:10168000C428236270BD32461021606A65F0C2FE34
:10169000F2E700BFA81D0024000000242DE9F04F50
:1016A000564F0C461D46C18897F8C43899B0064677
:1016B0009046B4FBF1F9FBB9DFF84CA1DAF804303D
:1016C0004B452DD101FB194496F82830091BA9423E
:1016D00034BF8DB2ADB2012B4BD07B6E304602339E
:1016E0003362FFF715FF70B396F82830012B34D022
:1016F000284619B0BDE8F08FD7F8C828DFF808A150
:10170000B2FBF1FBCAF804B0FFF702FF96F82830ED
:10171000012B67D07B6E02333362002387F8C43815
:101720003046FFF7F5FE70B14FF0FF33CAF80430D2
:1017300096F82830012B5BD07B6E30460233336243
:10174000FFF7E6FE18B9002019B0BDE8F08FF18868
:10175000CAF80490B4FBF1F9B4E7706A63F072FF61
:10176000C0F30113023B012BC2D83046FFF7F6FE4F
:10177000BEE78DF81C3000228DF8443004A98DF8A6
:1017800058301F4B8DF80E40240A1B688DF80D4011
:10179000ADF808301B0C746A8DF80A30032320461C
:1017A000CDF83C808DF80C300693164B10950893BD
:1017B00003AB8DF80F20099304230A920B9302AB1D
:1017C0008DF83020049301AB17920593CDE90D22DB
:1017D000CDE91222CDE9142251F03AF8206863F0E5
:1017E0002DFF7AE75A461021706A65F013FE91E7E3
:1017F0004A461321706A65F00DFE9DE7A81D00247E
:10180000A04F0B081D0A0408000000242DE9F04F2A
:10181000D0F8249083B03F4F0446D9F800000E461C
:10182000904663F00BFF97F8C438002B40D0D7F8F0
:10183000CC58E288DFF8E8B0DFF8E8A0B5FBF2F3B7
:1018400002FB13538BF822301B0A8BF821303368CC
:101850005146314E4846C6F8A83006F1A802D8F8DD
:101860000030C6F8B0300023C6F8B83051F02CFA7A
:10187000D8F800200123E188154487F8C438B5FB67
:10188000F1F301FB1353C7F8CC581BB3234BC6F835
:10189000B830637F0BB90AF1140A514648462263F7
:1018A00050F0D6FFE36A6BB3206B03B0BDE8F08F56
:1018B000A569E288DFF868B0DFF86CA0C7F8C858FF
:1018C000B5FBF2F302FB13538BF842301B0A8BF883
:1018D0004130BCE7D7F8C82848460193B2FBF1F283
:1018E000726052BA06F1A801ABF8622006F1D0028C
:1018F00051F0EAF9019BD8F8002087F8C438C7F8FE
:10190000C858C6E7636A186863F098FE206B03B096
:10191000BDE8F08FA81D002400000024490A040837
:10192000A0FD0024080000245800002433B910B59D
:101930001C46C36A20469847204610BD66E700BF94
:1019400010B582B00C46019201A9049A8461C2626A
:101950006A460093FFF75AFF02B010BD2DE9F84325
:10196000DDF820800F4616460021202204461D4641
:1019700068F08AFEB8F1000F0CD0D8F80030B8F843
:101980000A20E3811B0C2382D8F804306282E382B0
:101990001B0C2383384665F08BFEF30619D4431ED7
:1019A000B8B107EB000C01E0013B12D31CF801EDCC
:1019B000BEF12E0FF8D1C01A03F10109421EB9443D
:1019C000032AA8BF0322082BA8BF082390461A4663
:1019D00006E008280246B9464FF00008A8BF0822D2
:1019E0004FF02033394620462360636068F0EEFDF7
:1019F000164B04F10800424649462381837068F083
:101A0000E5FD611EE21D11F801CFACF16103ACF1FF
:101A1000200C192B98BF81F800C09142F3D104F13A
:101A20000A0011F8013FA3F16102203B192A98BF77
:101A30000B708142F5D1182365832D0CE672237358
:101A4000099BA582E361BDE8F88300BF2020200048
:101A50002DE9F04FDFF8589485B0D9F86400C9F843
:101A6000C407002B60D00C46154601F5FE7603EB4B
:101A7000020B1FE0002D64D0D9F8F437AB4200F020
:101A8000C780D9F8F037AB4200F0F980D9F8F837C1
:101A9000D9F8FC17AB424BD88D42C0F07481691A5B
:101AA00020465CF0F5F8013504F5007406F5007683
:101AB0005D4539D0D9F80028AA42DBD8AA1AD9F84E
:101AC0001078D308396B02F0070802338B4202D337
:101AD000BA6B93420BD93946184603935CF0A8F8C9
:101AE000039B0746002800F06E81C9F810083A7978
:101AF000002A40F01F81D7F828A0BAF1000F00F0AB
:101B00005B813A6B013520464FF400719B1AFA68ED
:101B100004F5007406F5007608EBC3083B4602EBBB
:101B20004822D0475D45C5D1002005B0BDE8F08F03
:101B30008D42B4D24FF400720021204668F0A4FD1B
:101B4000B1E74FF400722946204668F09DFD8023DE
:101B5000CB4A84F8BE310C2384F8C231D9F8F0178F
:101B6000D9F8E8379142C4F8C611C4F8CA3100F375
:101B70000F81C44A013BC44F82FB0102C81787FB97
:101B800001C70A44C0EB6212C0EB2730BF4F87FB8E
:101B900002C7C2EB821C84F8C1018010A1EB0C01CA
:101BA000174420F03F0001310843D117C1EBE71182
:101BB00084F8C0010A4484F8BF21B14A934200F37B
:101BC000F380B04AB04882FB0312D91780FB037040
:101BD0001A44C1EB6212C1EB2031AC4880FB0270A9
:101BE000C2EB821784F8C5118910DB1B104421F069
:101BF0003F0101331943D317C3EBE01384F8C41139
:101C00001A4484F8C3214AF65523A4F8FE314AE762
:101C10004FF0FF3300274FF4F072201D84F8EC31B1
:101C2000394684F8ED3184F8EE3184F8EF315223EF
:101C3000237063706123A37084F8E7314123E3705C
:101C400084F8E631722384F8E43184F8E531D9F878
:101C50000838C4F8E83168F017FD5523C4F8F0716E
:101C600084F8FE316FF05503C4F8F471C4F8F871CC
:101C700084F8FC7184F8FD7184F8FF3113E74FF4A8
:101C800000720021204668F0FFFC814B022203CB4A
:101C900045F6EB032274227323809023A273A37072
:101CA000F82384F82C200822C4F803006273C4F8D7
:101CB00007106375D9F8F017D9F8E8375B1AD9F827
:101CC000F8172362D9F8FC375B1A4AF6552163628C
:101CD0000023E372E3736377A377E37784F82D300F
:101CE00084F82E3084F82F3084F83130694BA361AA
:101CF0003E232377012384F83030802384F840305A
:101D0000654BC4F84230654B84F84620A4F8FE11B8
:101D1000634A03CBC4F84B101988C4F847009B787A
:101D2000A4F84F1084F8513003CAC4F85200C4F824
:101D30005610B8E64FF400720021204668F0A4FC6B
:101D40003B6CB8F1000F45D104F1200A002B00F0E4
:101D500081803B6B112253492046CDE90088FFF773
:101D6000FDFD3B6C1A6C002A00F081801B6B504615
:101D700011224D49CDE90088FFF7F0FD04F1400A3A
:101D80004FF4E07871E0E91A20465BF081FF8AE6C3
:101D9000FF22013B84F8C1214FF6FF72A4F8BF2156
:101DA000374A93427FF70DAFFF2384F8C5314FF6D2
:101DB000FF73A4F8C33126E751464FF40072204662
:101DC00068F062FC6FE6231F384A43F8042F9E42F6
:101DD000FBD168E6002B7F6C14BF02230123C3EB09
:101DE0000813002F3FF45FAE013BBF6C002B01DDF9
:101DF000002FF9D1A2464FF40078002F3FF453AEE4
:101E00000AEB080303959A460BE00025A8F1200889
:101E1000CDE900E5FFF7A2FDBF6CCFB1B8F11F0F10
:101E200016D93D7907F11C0E112239683B6BAAEBDC
:101E30000800002DE9D17A79A8F120083D6942F027
:101E40002102CDE900E5FFF789FDBF6C002FE5D148
:101E5000039D28E6CDE9008843464FF4F078082238
:101E6000D9F8EC172046FFF779FD7F6CC5E750469F
:101E7000434611220C49CDE90088FFF76FFD7DE74D
:101E8000FF03FB00832008829755454181808080B5
:101E9000AC4F0B083F00FF0029940E0DB84F0B0804
:101EA000C44F0B08A44F0B08A84F0B08DEADBEEFC4
:101EB000A81D002430B40D4CBFF34F8F0C4BC3F85A
:101EC0005C42BFF34F8FBFF36F8F0A4B0A4D03F194
:101ED0003000DA792AB1597934F8112092B225F814
:101EE00011200C338342F4D130BC7047000101242F
:101EF00000ED00E078260024200001240020704737
:101F0000704700BF014856F01BBB00BFE426002409
:101F1000084810B4D0F83C39D0F8704999691A686B
:101F20002CB1234600F63C105DF8044B18475DF8D1
:101F3000044B7047A81D0024014856F001BB00BFA8
:101F400048270024084810B4D0F8A039D0F8D44964
:101F500099691A682CB1234600F51A605DF8044BA4
:101F600018475DF8044B7047A81D0024014856F03F
:101F7000E7BA00BFAC270024084810B4D0F8043AF0
:101F8000D0F8384A99691A682CB1234600F6042023
:101F90005DF8044B18475DF8044B7047A81D0024FA
:101FA000014856F0CDBA00BF10280024084810B4EC
:101FB000D0F8683AD0F89C4A99691A682CB123463F
:101FC00000F668205DF8044B18475DF8044B704735
:101FD000A81D00242DE9F04784B08DF80F30431C74
:101FE00000F09F800328044600F39B80824E642308
:101FF00003FB0063D3F83C09002800F0928093F8BB
:102000007D59202D40F0878093F87C59012D00F0F8
:1020100082800125D6F8B47A83F87C5904E0D6F89A
:10202000B43ADB1B192B66D8856915F40045F6D147
:102030004FF0640A714B00974FEA41080AFB04FA1B
:1020400041460AEB0309B24421234846CAF87059B5
:102050008AF87D3940238AF87E390DF10F03CAF8DA
:102060008059CAF860390123AAF866390A235EF05C
:10207000C9F9002873D1BAF866399BB2FF2B40F238
:102080009180DAF83C19FF235D48AAF864394B685F
:102090005C4A034043EA08031A434A60642505FB8F
:1020A000046505E0B5F866399BB2002B00F08C8022
:1020B0003A460A21484656F081FA60BBD5F86039A5
:1020C000D5F83C1913F8010BB5F864298862C5F8F6
:1020D0006039013AB5F8663992B2013BA5F8642936
:1020E0009BB2A5F86639B5F866399BB2002BD9D0FA
:1020F000002AD7D11EE064232020002103FB0463C3
:10210000D3F8802983F87C190243C3F8802983F827
:102110007D0983F87E19B6F8B83A01339BB2A6F868
:10212000B83A002004B0BDE8F087D6F8B43ADB1B1B
:102130000A2B27D88A6912F08002F6D0B5F86639E2
:102140009BB2FF2B0ED94B682D4A13402D4A43EA10
:1021500008031A43FF23A5F864394A60A2E78AF806
:102160007C59D8E7B5F8663925489BB24A68A5F886
:102170006439DBB2024048EA0343134343F000737F
:102180004B608FE76423202103FB0464D4F880397B
:1021900084F87C290B43C4F8803984F87D1984F8CD
:1021A0007E29B8E7BAF86639DAF83C199BB21448C8
:1021B0004A68AAF86439DBB2024048EA0343134391
:1021C00043F000734B6069E7394648465EF0C6F855
:1021D000034600289FD1D5F83C2920240A48D46121
:1021E000516801400120516085F87D4985F87C39AE
:1021F00085F87E3996E700BFA81D0024E426002458
:10220000009C00FC0000FF0100E800FEB0F1FF3F71
:1022100000F0628203282DE9F04F054683B000F3F9
:102220002B816420BE4C05FB00F004EB000CDCF8B5
:102230003C090CF63C1B002800F01E81FF2A4FEAE7
:1022400041077ED09CF87D19202940F00F819CF831
:102250007C19012900F00A810121D4F8B48A8CF894
:102260007C1906E0D4F8B41AA1EB0801192900F290
:102270000781816911F40049F4D14FF0640A0C9987
:10228000CDF8008058460AFB054ACAF86019222199
:10229000CAF870998AF87D1940218AF87E19394662
:1022A000CAF88099AAF866390A235EF01FF8002858
:1022B00040F00281BAF866399BB2FF2B40F2E5810B
:1022C000DAF83C19FF239748AAF864394B68964A14
:1022D00003403B431A434A604FF0640909FB054938
:1022E00006E0D4F8B43AA3EB08030A2B00F23C81D1
:1022F0008A6912F00402F4D04A6AD9F860391A7077
:10230000B9F86639D9F86029013B01329BB2C9F8A6
:102310006029A9F86639B9F86439B9F86629013B2A
:1023200092B29BB2A9F8643912B1002B00F054812B
:10233000B9F866399BB2002B00F0B981D9F83C1985
:10234000D6E79CF87D29202A40F090809CF87C29D3
:10235000012A00F08B8001228CF87C29D4F8B4CAC1
:1023600006E0D4F8B42AA2EB0C02192A00F2888005
:10237000826912F40042F4D164214FF0220E0C9EC7
:1023800001FB054181F87DE94FF0100EC1F860694D
:1023900081F87EE9C1F88029A1F86639B1F866397B
:1023A000C1F870299BB2FF2B7BD8B1F8663942681F
:1023B0009BB2A1F86439DBB25A4947EA03430A40A9
:1023C00013435A4A1A4342604FF0640808FB054819
:1023D000B8F866399BB2002B00F03B81D8F83C1965
:1023E0000BE08B6913F0200340F0CE80D4F8B42AC0
:1023F000A2EB0C020A2A00F2E1808B695B076ED423
:102400008B69DB06EDD58B6913F0200309D1D4F875
:10241000B42AA2EB0C020A2A51D88B6913F02003CC
:10242000F5D020231022CA61CB618B699E0701D5AC
:1024300000238B628B69D80703D48B6943F00103B7
:102440008B614A6864233A4E002003FB0543324007
:1024500020264A60D3F8802983F87C0942F00402E0
:10246000C3F8802983F87D6983F87E09B4F8B83A07
:1024700001339BB2A4F8B83A002003B0BDE8F08F56
:1024800064232020002103FB0543D3F8802983F82F
:102490007C190243C3F8802983F87D0983F87E19EB
:1024A000E4E743681F4A13401F4A3B431A43FF2394
:1024B000A1F86439426087E78AF87C99D6E76422FC
:1024C000202002FB0542D2F8801982F87C390143B2
:1024D000C2F8801982F87D0982F87E39C6E74A6A17
:1024E000D8F860391A70B8F86639D8F86029013B15
:1024F00001329BB2C8F86029A8F86639B8F8643987
:10250000B8F86629013B92B29BB2A8F86439002A58
:102510003FF45EAF002B7FF45BAFD8F83C190FE0BF
:10252000A81D0024009800FC0024FF8100240082E4
:1025300000E800FED4F8B43AA3EB0C030A2B13D83E
:102540008A6912F08002F5D0B8F866399BB2FF2B89
:102550005FD94B68614A1340614A3B431A43FF23EA
:10256000A8F864394A6033E76423202003FB05435D
:10257000D3F8801983F87C290143C3F8801983F8C4
:102580007D0983F87E2971E78B695A0703D5B8F86E
:102590006439002BA3D12020524AC8614B681340F4
:1025A00000224B60642303FB0543C3F8802983F8B2
:1025B0007C2983F87D0983F87E2957E7642220204F
:1025C00002FB0542D2F8801982F87C390143C2F837
:1025D000801982F87D0949E7D9F83C1905E0D4F85B
:1025E000B43AA3EB08030A2BBED88A6912F0800222
:1025F000F5D0B9F866399BB2FF2B1AD94B68374A28
:102600001340374A3B431A43FF23A9F864394A6011
:102610008EE6B8F8663931489BB24A68A8F8643942
:10262000DBB2024047EA0343134343F000734B60BD
:10263000CEE6B9F8663929489BB24A68A9F86439E8
:10264000DBB2024047EA0343134343F000734B609D
:102650006EE6614658465DF081FE034600287FF431
:1026600005AFD8F83C2920201E4ED061516831407A
:10267000516088F87D0988F87E39642200230120A2
:1026800002FB054484F87C39F7E6BAF86639DAF8D3
:102690003C199BB214484A68AAF86439DBB202407C
:1026A00047EA03431343114A1A434A6014E641467A
:1026B00058465DF053FE034600287FF4D7AED9F8A4
:1026C0003C292020074ED06151683140516089F883
:1026D0007D0989F87E39D0E700207047009C00FC16
:1026E0000000FF0100E800FE009800FC00240082CA
:1026F0002DE9F0410468D4E90435A8611A7D1F680A
:102700001F2A49D9203A20212E6801FA02F242F00C
:102710001802FA602A7D1F2A48D9203A202101FA9E
:1027200002F242F01802F2606A6800215868016003
:1027300038461160116841F01001116093F808806B
:10274000A269414660F092FA2D7AE2693046294644
:1027500060F08CFA226A63689468184A12F80800DC
:10276000515D5A686FF30F0222435A603A5842F0A3
:1027700001023A50725842F0010272509A6842F4D3
:1027800040429A601A6842F001021A601A6842F4E4
:1027900000721A60BDE8F08120212E6801FA02F271
:1027A00042F01802BA602A7D1F2AB6D8202101FA09
:1027B00002F242F01802B260B6E700BFC8500B0840
:1027C000D3B20F2B22D8124B00B503F17E0E02E0DC
:1027D0000333734517D093F800C08445F8D193F8BC
:1027E00001C08C45F4D102EB42020A48997800EB13
:1027F000820300F59070C3F8281100EB820083F883
:1028000020115DF804FB00205DF804FB00207047F8
:102810007CB80A080000002410B40C4C002304F615
:10282000BC2C01E0152B0CD003EB430201331CF848
:1028300002108142F6D1144494F9BE0A5DF8044BAB
:1028400070474FF0FF305DF8044B7047A81D00241F
:1028500030B5134D002305F6843C02E001331A2BFA
:102860001BD05CF833408442F8D10CEBC30EDC0083
:102870009EF804E08E45F1D102EB4202094B25445B
:1028800003EB820103F5907395F8894B03EB82000B
:10289000C1F8284181F8204130BD002030BD00BF83
:1028A00078AD0A0800000024F0B1002310B50446FA
:1028B0000E4894F804E000F6BC2C01E0152B11D072
:1028C00003EB430201331CF802107145F6D1831863
:1028D0006179206893F9BE2AD3B20F2B02D8BDE8E4
:1028E0001040B5E7002010BD00207047A81D00244F
:1028F00001380E4B0E4A00EBC000D2F8D81003EBA3
:10290000800310B4D3F8E03183B00A4CA34214BF63
:10291000022301231943C2F8D810D2F8D82013405B
:102920000193019B03B05DF8044B70470000002445
:1029300000440258000002400138F8B500EBC00026
:10294000124C1D46124B04EB800417460E46D4F879
:10295000E001984214BFA120A0205DF083FEB4F9ED
:10296000F601B909C4F8F061C4F8F8515DF0FEFB56
:10297000B4F9F631002B07DB03F01F0001225B09DD
:102980000449824041F82320F8BD00BF0000002424
:102990000000024000E100E02DE9F04F002385B087
:1029A000DFF800A34FF001090193B94B0AF1F00BD6
:1029B000B84FA3F590780BE0019B09F101090AF1EA
:1029C000280A0BF1050B0133062B019300F0F1806F
:1029D0009AF80030022BEFD19BF90320511C00F034
:1029E000EB80D2B2944602EB4204A94B9DF804104E
:1029F00003EB84040F2A5ED8A74802E00330B842F4
:102A000059D00378002BF9D145788D42F6D18578DD
:102A1000D8F8E4616068A560B042257000F0448198
:102A2000D8F80862B04200F05E81D8F82C62B0425B
:102A300000F06281D8F85062B04200F06281D8F8AC
:102A40007462B04200F06C81D8F89862B04200F035
:102A50008081D8F8BC62B04200F07681D8F8E0629C
:102A6000B04200F08081D8F80463B04200F0768173
:102A7000D8F82833984200F08C81D8F84C3398422B
:102A800000F08181D8F87033984200F0A581D8F821
:102A90009433984200F09A81D8F8B833984200F005
:102AA000A781D8F8DC33984200F0A881D8F8003428
:102AB000984200F0978101320C34D2B2624599D924
:102AC000002303939BF90420531C79D0D2B296467D
:102AD00002EB42046E4B9DF8041003EB84040F2AB2
:102AE0005DD86D4802E00330B84258D00378012B1E
:102AF000F9D145788D42F6D18578D8F8E4616068DF
:102B0000A560B04225705FD0D8F80862B04200F0EE
:102B1000EF80D8F82C62B04200F0F880D8F850620C
:102B2000B04200F0F880D8F87462B04200F0FD8046
:102B3000D8F89862B04200F00281D8F8BC62B04286
:102B400000F0F880D8F8E062B04200F01781D8F8C1
:102B50000463B04200F00C81D8F82863B04200F062
:102B60002481D8F84C33984200F01981D8F870339A
:102B7000984200F02581D8F89433984200F01A81E9
:102B8000D8F8B833984200F04B81D8F8DC3398423B
:102B900000F04081D8F80034984200F035810132CD
:102BA0000C34D2B296459AD200220023CAE90423FB
:102BB00002E705B0BDE8F08F4FF00F0C002212E7DE
:102BC0004FF00F0E002283E700231E46029306EB10
:102BD000C600013608EB800090F9FCC1BCF1000F83
:102BE000DDD1624680F8E831AC462C4B1546029A9E
:102BF000C0F8ECC1134480F8FD91CAF814301323D7
:102C000080F8FC313046FFF773FE039B002BCBD0DE
:102C1000DAF814402046FDF7F3F9DAF81000FDF772
:102C2000EFF9DAF81830C168DAF804205962402167
:102C30005D60996002F120019D631960C3E903554D
:102C4000C3E90555C3E90755C3E90A55C3E90C555E
:102C5000A4B1DAF81C303032E1681D625962C3E970
:102C600000254FF48032C3E90255C3E90455C3E996
:102C70000655C3E90B55C3E90D559A62002330464A
:102C800007491A46FFF758FE01238AF80C3093E6ED
:102C900020010024FAB80A087CB80A08E0010024E0
:102CA000390A0000A82800241846029300EBC00E41
:102CB000013008EB8E0E9EF9FC61002E7FF4FBAE16
:102CC000029A8EF8E831594BCEF8EC5113448EF845
:102CD000FD91CAF8103014238EF8FC31FFF708FE7E
:102CE00001230393EEE62420012302901846DDE73A
:102CF00024201E4602906AE74820022302901846CC
:102D0000D4E76C20032302901846CFE70223482023
:102D10001E4602905BE703236C201E46029056E796
:102D20009020042302901846C0E7042390201E46FA
:102D300002904CE70623D8201E46029047E7052361
:102D4000B4201E46029042E7D8200623029018467F
:102D5000ACE7B420052302901846A7E74FF4907023
:102D600002900820A2E7FC200723029018469DE766
:102D70004FF4907308260293002328E70723FC20D2
:102D80001E46029023E74FF4B470022302900A20FB
:102D90008CE74FF4A27309200293012386E74FF4D6
:102DA000B47002230A26029011E74FF4A27009269C
:102DB00002900CE74FF4D8730C260293042306E725
:102DC0004FF4C6730B260293032300E74FF4D87326
:102DD0000C200293042369E74FF4C6730B2002937F
:102DE000032363E74FF407730F20029307235DE784
:102DF0004FF4EA730D200293052357E74FF4FC7359
:102E00000E200293062351E74FF407730F26029317
:102E10000723DCE64FF4FC730E2602930623D6E666
:102E20004FF4EA730D2602930523D0E6E001002457
:102E3000234B5B68C3F3080310B4DBB9EFF31183D2
:102E4000C3B9204B4FF0E02C5A6EDCF81800596ED5
:102E50008A42F9D1996E8842F6D8DC6E4FF47A71C5
:102E600001FB04F3181AB0FBF4F05DF8044B01FB0E
:102E700002007047EFF31181102383F312884FF0A3
:102E8000E0229469136913F4803F0E4B03D00120B4
:102E9000C3F8C0089469586EC9B2D3F8C02881F34A
:102EA0001188D96E4FF47A73024403FB01F0001BC2
:102EB0005DF8044BB0FBF1F003FB0200704700BF6C
:102EC00000ED00E0A81D0024BE4803780BB90120E6
:102ED000704743682DE9F04F002BDFF8109387B05F
:102EE000D9F8646018DD00F108050024B649D5F86A
:102EF000F430BFF34F8F03F59072C1F85C3220338A
:102F00009342FAD1BFF34F8FBFF36F8F0134436801
:102F100005F586759C42EADB90F8F815AB4A0491FA
:102F2000A2FB0612AA4BAB4E5209DFF8C4A2A3FBC8
:102F30000213DB0803EB8303A2EB4303DAB206EBD5
:102F4000830B06F538730592009300239846049B83
:102F5000984500F01481DAF81830DAF80470D3E9F3
:102F60003D45FFF765FF9C4999F80FEC0122691870
:102F70000190BEF1540F99F80E0C02FA07F204EB1F
:102F8000410104EB400301D1A9F8160C994240F22B
:102F90006A811F88174200F05F815F88174200F046
:102FA00070819F88174200F06E81DF8808331742D6
:102FB000ECD11C1B99424FEA640440F25481281B57
:102FC000452828BF452003EB4000834280F04F8115
:102FD00000251F46AC462946CDE9028EB3F800E035
:102FE0000EEA020E8E451CD1B3F802E00EEA020E84
:102FF000714540F01A81B3F804E00EEA020E714503
:1030000040F01581B3F80680083308EA020841450C
:1030100008D1984209D9B3F800E00EEA020E8E45B5
:10302000E2D00233984200F2E580BCF1110FDDE9F5
:10303000028E40F21C81DCF1150200F11881674913
:10304000D9F8200CD1F820349C4238BFC1F8204474
:10305000019C231A002B14DB614B03449C4201D9D1
:1030600023460533C9F8203CD1F82034052B40F223
:103070000C81053BDBB289F80E3C4FF0FF33C1F801
:1030800020343AB105FA02F2CCF1140C012505FA0C
:103090000CF51543534BC5F3C43203EB8202D2F84F
:1030A000540C05F01F0203EB8202D2F8541CC5F346
:1030B0004412C5F3842503EB820241EA0031D2F8C1
:1030C000542C03EB850341EA0211D3F8543C41EA46
:1030D0000321454B81EA1122D3F81C3A82EA1212ED
:1030E000013302F00F020F2A40F0A380B1F5803FB8
:1030F00080F09F80BEF1540F4FEA111147D03A4A39
:10310000B1F5606FC2F81C3A4DD0009B998196F8DA
:1031100058300598834210D0DBF8082033689B1A9A
:1031200033607368DBF830209B1A73600023CBF8A0
:103130000830CBF8303086F85800336801333360FC
:10314000DBF808300133CBF808304FF6FF739942B3
:1031500007D1736801337360DBF830300133CBF88B
:103160003030009B08F101085C360BF15C0B143326
:10317000B8F1080F0AF1200A00937FF4E8AE0123AA
:10318000194A012082F8183B07B0BDE8F08FB9F862
:10319000102CB1F5606F02F10102A9F8102C124A4F
:1031A000C2F81C3AB1D199F8013003EB430309EBA3
:1031B000C30343445B7C0D2BA7D18023009A9377F4
:1031C000A5E700BF0400002000ED00E01F85EB51E3
:1031D000CDCCCCCC30180020C7FFFF7F00000024EE
:1031E00020A1070078AD0A08FC100020A81D0024CB
:1031F0003C040020A3EB070E254F33F8021C4FEAD6
:103200006E0E11400EF1010E87FB0E87A7EBEE77D5
:103210004FF0010E012FB8BF0127BD40BC44013F54
:103220000EFA07F73D431F46D8E60433FAE60633A5
:10323000F8E6BEF1540F04D1B9F8102C0132A9F808
:10324000102C144A4FF6FF71C2F81C3AD2F8183A03
:103250000133C2F8183A5AE702331C1B99424FEA6D
:1032600064043FF6ACAE10B1013889F80E0CBEF123
:10327000540F7FF476AFB9F8123C0133A9F8123C31
:103280006FE7043395E6063393E60023F3E600BFC9
:1032900056555555FC100020264B70B51A785B78B2
:1032A0009A4242D1244E7368002B22DD06F10800B9
:1032B0000025224CD0F8AC30BFF34F8F03F1E00271
:1032C000C4F8683220339342FAD1BFF34F8FBFF373
:1032D0006F8F337813B1037F012B20D04269013502
:1032E000716800F586701368A94243F0010313600A
:1032F000E0DCFFF79DFD124BD3F81C4B002C0DDDDD
:1033000003F5326303EBC4041968083333F8042C63
:10331000C8689C4242EA0002CA60F5D170BD002331
:1033200080F8FC30FCF792FED8E763F02BF9002818
:10333000B8D170BDA81D00240400002000ED00E0FD
:10334000FC100020800AA0F58010522807D8054BF9
:1033500003441B7D0D2B02D8034AD0567047002032
:10336000704700BF78AD0A08B8500B0860B182887A
:103370004FF0B0414FF00043B2FA82F2D1F8800032
:10338000D3400343C1F88030704700BF4FF0B042D4
:10339000D2F88030D2F888100B4003F00103C2F855
:1033A000883023B1024BD3F8240C036818477047C8
:1033B000A81D00244FF0B042D2F88030D2F8881017
:1033C0000B4003F00203C2F8883023B1024BD3F85C
:1033D000280C036818477047A81D00244FF0B0421E
:1033E000D2F88030D2F888100B4003F00403C2F802
:1033F000883023B1024BD3F82C0C03681847704770
:10340000A81D00244FF0B042D2F88030D2F88810C6
:103410000B4003F00803C2F8883023B1024BD3F805
:10342000300C036818477047A81D00244FF0B042C5
:10343000D2F88030D2F888100B4003F01003C2F8A5
:10344000883023B1024BD3F8340C03681847704717
:10345000A81D0024F8B54FF0B043D3F88050D3F83E
:103460008820154005F47875C3F888507DB1084F61
:103470000126B5FA85F4C4F11F0407EB840306FAAC
:1034800004F4D3F8240C03689847A543F1D1F8BDA0
:10349000A81D0024F8B54FF0B043D3F88050D3F8FE
:1034A0008820154005F47C45C3F888507DB1084F4D
:1034B0000126B5FA85F4C4F11F0407EB840306FA6C
:1034C00004F4D3F8240C03689847A543F1D1F8BD60
:1034D000A81D002430B1036882881B691A4214BFFA
:1034E00001200020704700BF10B1036882889A61F4
:1034F000704700BF18B1838802681B04936170474E
:1035000070B50D4682B00446164640B101680C4BBA
:103510000C4A0B449B0A02EB4303B3F8CC0A5DF060
:10352000A1F8C5F38101C5F3411305F01302CDE9FC
:103530000016A188206860F0D7FB02B070BD00BF04
:103540000000FEA778AD0A0800B1D9E770472DE961
:10355000F84FC44F6423044603FB0073D3F8246977
:10356000002E00F06981D3F82C89B8F1000F04D047
:1035700098F90630002B40F05F81642303FB04734D
:10358000D3F8305925B195F90630002B40F054811D
:10359000631CDBB2B8F1000F04D0152288F80730A5
:1035A00088F8062015B11622EB71AA714FF0640A53
:1035B000308D5DF057F829460AFB04FA404662F068
:1035C00061FF404607EB0A09DFF8BC8299F83639FB
:1035D00099F83429002B0CBF4FF01E0B4FF03E0B17
:1035E0005946FFF7B1FF28469F4D594699F83529AE
:1035F0005544FFF7A9FF4C220021284667F044F804
:10360000D9F82439994A5B689342C9F83C39DFF804
:103610007C9240F0138155F0F9FAD9F82030C3F3C9
:103620000213434493F8D43C03F01F039FED907AB8
:103630009FED905AB0EE084AD8406423F7EE003A66
:103640004FF0000C07EE900A03FB047340F214588D
:10365000F8EE677AB3F838A9C7EE275A07EE90AAB2
:103660009FED857AF8EEE77AC7EE274ADFED837A99
:10367000B0EE007AE5EE877AA5EE875A25EE844A09
:1036800037EE856A74EEE72ABAF5C87F0CF1010EB1
:10369000D5BF4FF4967278226423322307EE90EA66
:1036A000D8BF4FF416791344A2F13202F8EEE76A5C
:1036B000C8BF4FF4827907EE903AD4BF41464FF429
:1036C000FA7166EEA56AB8EEE77AC7EE267A07EEDB
:1036D000102A01EB0902B8EEC77A37EE447A77EE8A
:1036E000E37AFCEEE77A17EE903AC7EE267AFCEE24
:1036F000E77A17EE900A07EE909AB8EEE73A07EEEF
:10370000902AF8EEE77A23EE243A83EE277A37EE12
:10371000453A32EEC77AC3EE267A77EEE37AFCEECC
:10372000E77A17EE901AC7EE267A77EEE37AFCEE88
:10373000E77A17EE902A02F1020909EB010BB0EECD
:10374000467A07EE90BAF8EE677AA6EEA77AF4EE1C
:10375000C74AF1EE10FA7DDC43EA00095FFA89F905
:10376000B9F10F0F78D841EA02091FFA89F9B9F1C6
:10377000FF0F71D81B05000403F07F6392B200F4C1
:103780007F0003433E4843EA0C7300EA01210B43E8
:1037900013436422284602FB04740027C4F840390E
:1037A0000123C4F84479C4F84839C4F84C79C4F802
:1037B0005079C4F85879C4F85C7960F047FA94F805
:1037C0007D39202BD9B21AD194F87C39012B16D02F
:1037D000242384F87D39D4F83C391A6822F0010298
:1037E0001A601A6822F480521A601A681A601A68FD
:1037F00042F001021A6084F87D1984F87C79002176
:1038000096F82B005CF0B2FC96F82B3001241D4D8D
:103810005A0903F01F03002104FA03F345F822308C
:1038200096F82A005CF0A2FC96F82A305A0903F0B8
:103830001F039C4045F82240BDE8F88F55F0E6F99B
:10384000D9F81C30C3F30213984498F8D43CEBE643
:10385000F44619E7013170E7BEF10F0FF8D10023EC
:1038600097E700BFA81D0024E4260024001C005890
:10387000286B6E4E0000164300247449000070420D
:1038800000FFFF0000E100E078AD0A0800440258A4
:1038900008B1002234E6704770B50E4C94F8F86514
:1038A000AEB104F58764002503E001352034B5424C
:1038B0000DD0237F002BF8D0E06800220028F4D040
:1038C0000135217DFFF71CFE2034B542F1D10120E6
:1038D00070BD00BF0400002070B590F8EE311C09E7
:1038E000013C082C0DD8194E054603F00F0336F89D
:1038F000140040FA03F2D20703D595F8F121012A0A
:1039000001D0012070BD9A402644013A104067F072
:103910006BF896F8E43C0E4A034402EBC30452F8F9
:103920003320A38810691840ECD0002395F8EF21CC
:103930000221204685F8F131FFF7E2FDD5F850214C
:10394000136843F008031360DBE700BF78AD0A0893
:10395000181E002470B5154BBFF34F8F144903F5A3
:103960008652C1F8683220339342FAD1BFF34F8FA9
:10397000BFF36F8F0F4C40F22A430C4AB4F86458DF
:1039800004F618002946FDF7E3FA034618B10023B0
:1039900084F8663870BDD4F81868294604F6180013
:1039A00001227362BDE8704063F0C4BD405601243B
:1039B00000ED00E0A81D0024014B53F820007047E3
:1039C00050400058014B43F82010704750400058B9
:1039D00019481A4B01681A4A41F4807130B482B018
:1039E0000160D3F8F410FF24CA2041F48031C3F8F9
:1039F000F410D3F8F41001F4803101915321019DAA
:103A0000546250625162D3F8D030DB010CD40C4BBD
:103A100000220C495A659A65DA651A665A669A66F2
:103A2000196502B030BC7047126D064B9A42EED158
:103A300002B030BC704700BF004802580044025832
:103A400000400058316665422DE9F84FD0F85C71AE
:103A50000446534B00F59676FDB227F0FF098268C5
:103A600000F1E00A103D4846D2F80080A3FB05357E
:103A70002D0929465FF056F9D4F81C210023B2F530
:103A8000807F84F820317FD00DD8102A00F0848008
:103A90005DD8012A46D0042A16BF6FF400616FF08A
:103AA00008013C230EE0B2F5805F71D0B2F5803F93
:103AB0003BD0B2F5806F15BF6FF400616FF0080165
:103AC0003C230423324608F11806404656F803C04A
:103AD00001EA0C01F150D4F81CB159465EF0D0FD5A
:103AE000BBF5807F2ED024D8BBF1100F3FD037D844
:103AF000BBF1010F02D0BBF1040F34D14FF0080C21
:103B0000336852462946484643EA0C033360402353
:103B1000C4F8E8305FF0AAF83B6843F010033B605C
:103B2000BDE8F88F6FF00801CCE76FF008013C2387
:103B3000C8E7BBF5805F22D0BBF5803F1AD0BBF54C
:103B4000806F10D108F11C064FF0080CD8E7402A0E
:103B500015BF6FF400616FF008013C230023B1E74B
:103B6000BBF1400FCAD03C364FF4006CC8E74FF4AD
:103B7000006CC5E708F154064FF0080CC0E708F1E7
:103B80001C064FF4006CBBE76FF00801042399E7B3
:103B90006FF40061042395E76FF4006192E700BFC2
:103BA000ABAAAAAA2DE9F04F474D85B02B781BB9D7
:103BB000012005B0BDE8F08F444B5C6EFFF738F98B
:103BC00095F8F8350193002B00F0C781404B05F5BF
:103BD000C065404E0027A3FB042300955B09A6FBAC
:103BE00003263D4AF60802F2347806EB8606A3EB7C
:103BF0004606D2F8483BC11A1346F2B203F6142A1D
:103C000008EB860689460392B9F1000F05DB009B9D
:103C1000D3F824314B4500F387814FF4B4732A4A1B
:103C200003FB072393F82037002B00F0BF80009D93
:103C30002A48D5F85C11AB681A68CBB221F0FF01B5
:103C4000103BA0FB030326481B09C35C0B44A98956
:103C50005C68D368A4B223EA0103C4F11604D360FC
:103C6000072C40F2A3801C4A0121D5F86451D2F8F8
:103C70001C3A8B46AE4602970133C2F81C3A00222A
:103C80002868944614E0BCF1140F2BDC13F10807EC
:103C900048BF03F117073B110CEB271C5F1E0131D6
:103CA00002FA03F30BFA07F78C4247EA030219D32F
:103CB00003468C425EF8040FA0EB0303E3D8CCF17B
:103CC00015034FF0150CE9E704000020A81D00249F
:103CD0001F85EB51CDCCCCCCFC100020ABAAAAAAFE
:103CE000C8500B08BCF1150F029F40F013819F488C
:103CF000C2F38423C2F3441100EB830300EB810180
:103D0000D3F8F03CD1F8F01C1B0243EA011302F097
:103D10001F01C2F3C43200EB810100EB8202D1F833
:103D2000F01CD2F8F02C0B4343EA023383EA13224F
:103D300082EA121202F00F020F2A40F0EB80C3F366
:103D40000F134FF6FF72934200F0E480B3F5606FFB
:103D500000F0EE80AAF80C3098F8582003988242C0
:103D600010D0B168D8F80020521AC8F80020D8F84E
:103D70000420316B521AC8F804200022B26032636A
:103D800088F85800D8F800200132C8F80020B2683E
:103D90000132B2604FF6FF72934207D1D8F8043077
:103DA0000133C8F80430336B01333363009C0137AF
:103DB00008F15C085C3620460AF1140AFFF744FE5D
:103DC00004F5B4730093019BBB427FF41DAF6849B7
:103DD0000122002381F8182BC1F8483B6549D1F82E
:103DE000083691F8D8261B6812F0020FD1F81C177C
:103DF0001A6A0CBF0A4342EA81021A62019B012B34
:103E00003FF4D6AE5B49D1F8703791F840281B6873
:103E100012F0020FD1F884181A6A0CBF0A4342EA62
:103E200081021A62019B022B3FF4C2AE5149D1F8C4
:103E3000D83891F8A8291B6812F0020FD1F8EC19B4
:103E40001A6A0CBF0A4342EA81021A62019B032BE1
:103E50003FF4AEAE4749D1F8403A91F8102B1B68B9
:103E600012F0020FD1F8541B1A6A0CBF0A4342EA3F
:103E700081021A62019B042B3FF49AAE3D49D1F8AE
:103E8000A83B91F8782C1B6812F0020FD1F8BC1CEB
:103E90001A6A0CBF0A4342EA81021A62019B052B8F
:103EA0003FF486AE3349D1F8103D91F8E02D1B6800
:103EB00012F0020FD1F8241E1A6A0CBF0A4342EA1C
:103EC00081021A62019B062B3FF472AE2949D1F898
:103ED000783E91F8482F1B6812F0020FD1F88C1F22
:103EE0001A6A0CBF0A4342EA81021A62019B082B3C
:103EF0007FF45EAE204A52F8203C92F8B0001B6876
:103F0000D2F8F41080071A6A4CBF42EA81020A43D1
:103F10001A624DE6164AD2F8183A0133C2F8183A36
:103F2000AFB14FF6FF7317E7002005B0BDE8F08F83
:103F300012494A7802EB420201EBC2023A44527C37
:103F40000D2A7FF407AF80228AF81E2004E7294655
:103F500058220B4866F03AFBE3E719460122044B6E
:103F6000C3F8481B83F8182B22E600BF78AD0A0877
:103F7000FC1000200400002004100020A81D0024D4
:103F8000BC1B00202DE9F8432422D0F85051002317
:103F90008168C0F8D02104462A6800F5A87622F08E
:103FA00001022A602B606B60AB604279C0F8D831A7
:103FB00080F8CC31C0F8D031C0F86831C0F8D431C5
:103FC000C0F870319302C0F8541103F48053BC4917
:103FD000C0F8583113038D4203F40053C0F85C312C
:103FE0004FEA022303F48063C0F8603100F0AB8134
:103FF0002379D80703F0020100F14081002940F045
:104000007181C4F8641194F8F0314BB1D4F878316F
:1040100043F00803C4F878314FF40043C4F8883102
:1040200012F00802D4F8D03100F06E81002B00F0BD
:10403000AD8124233046C4F8D0312B6823F001032E
:104040002B6055F077F9012817D0D4F87831002B80
:1040500040F09F816B68304623F490436B60AB68FF
:1040600023F02203AB60AB6843F00803AB602B681E
:1040700043F001032B605EF017FF94F8048018F002
:10408000010F6FD0D4F82C71002F00F06C81002349
:104090004FF4807C04F13C09E7632366E3664846FD
:1040A000C4E91133C4E91433C4E91933D4F8343101
:1040B000C4F8B8304FF48063E3644FF48033C4E94C
:1040C00016C360F0A7F9484653F03EFCD4F8D4314B
:1040D000C4F8C891202B666741D1E368626998B241
:1040E000EAB3B0FA80F14909C8B394F8CCC1BCF185
:1040F000010F34D04FF0220CC4F8D811A4F8AC0151
:104100000120C4F8D4C1DFF8D0C1C4F8A821C4F894
:1041100078C0DFF8C8C1C4F88C10C4F87CC0DFF8E0
:10412000C0C184F8CC01C4F888C094F870C084453C
:104130000CD084F8700094F87100012800F03181EF
:104140004FF4006384F87010C4F890301023C4F862
:10415000D831002384F8CC312023C4F8D0317B68D7
:10416000C4F8443118F0020F00F08680D4F83051C2
:10417000002D00F0EC80D4F83821002304F1B407BE
:10418000C4F8C0303846C4F8C830C4E92D524022C3
:10419000C4F8BC204FF48062C4F8C4204FF48032CD
:1041A000C4E93333C4E93633C4E93833C4F8D4201E
:1041B00060F030F9384653F0C7FB002840F0A38088
:1041C000404B4149414A8D4218BF9D42404801F150
:1041D0006001C4F8C4710CBF01230023C4F8EC6073
:1041E000954208BF43F001033032854208BF43F0D7
:1041F00001036030954208BF43F0010330328D4225
:1042000008BF43F0010301F56871954208BF43F010
:10421000010302F55C72854208BF43F0010300F51B
:104220006870954208BF43F0010330328D4208BFE9
:1042300043F001036031954208BF43F0010330327F
:10424000854208BF43F00103954208BF43F00103D4
:1042500030328D4208BF43F00103954208BF43F05E
:1042600001033BB91B4BEB1AB3FA83F35B09002B39
:1042700000F0AF8000236B60BDE8F8830423C4F82E
:10428000643171B10C23C4F86431D3077FF5BBAE40
:10429000D4F878314FF4803143F00203C4F8801130
:1042A00028E0D3077FF5AFAED4F8783143F00203AE
:1042B000C4F878314FF48033C4F88031A3E600BFEE
:1042C000000C00581000024028000240400002404C
:1042D00058000240B8040240394509086D450908F4
:1042E000714509080823D107C4F864317FF58BAE06
:1042F000D4F8783143F00103C4F878314FF4003337
:10430000C4F87C317FE6FEE70BB194F8CC2124237E
:1043100084F8CC213046C4F8D0312B6823F0010357
:104320002B6055F007F801283FF4A7AED4F8783198
:10433000002B32D16B68304623F490436B60AB683E
:1043400023F02A0392E60423C0F8743150E6D4F82F
:10435000DC311A6842F080021A601A6842F04002AA
:104360001A60BDE8F883D4F8DC311A6842F4807230
:104370001A609A6842F001029A601A6842F02002BC
:104380001A601A6842F010021A60EBE684F8CC3129
:104390004FE6304655F0CCF95CE6304655F0C8F9AA
:1043A000C8E79BB2484605F1240153F06DFC002894
:1043B0007FF4CCAE84F8CC012B6843F480732B607F
:1043C000AB6843F00103AB60AB6843F04003AB6004
:1043D000C5E66B6050E700BF38B50409013C082C06
:1043E00018D80E4D00F00F0335F8140040FA03F210
:1043F00012F0010210D00122254402FA03F3013B1E
:10440000184066F0F1FA95F8E43C054A034402EBE3
:10441000C30038BD002038BD104638BD78AD0A084D
:10442000181E00242DE9F047984D05EB0013D3F832
:10443000644C002C00F08F80B3F86E7C06464FEA87
:10444000001938465CF00EF901227B0907F01F07BE
:10445000023BBA40082B0FD8DFE813F0BF00C700BB
:10446000CF00D700DF000900E700EF00B700884960
:10447000CB6F23EA0203CB6705EB0903013693F800
:10448000680CF6B2FFF7A8FF074610B11223C671F9
:10449000837105EB090393F8690CFFF79DFF8246D2
:1044A00010B11323C671837105EB090393F86A0CED
:1044B000FFF792FF804610B11423C67183714D44FB
:1044C00050462E2195F86C2CFFF73EF895F86D2C90
:1044D00040460E21FFF738F895F86B2C2E21384610
:1044E000FFF732F823686B4A23F0010394422360FC
:1044F00033D0694B9C423ED1654BD3F8902042F4B7
:104500008042C3F89020D3F8902022F48042C3F870
:104510009020E36843F00043E360A36823F4F07362
:10452000A3602368DA0716D4A1685C4A5C4B0A4092
:104530001343A360E368DB0042D5E268594B1340A4
:1045400043F0E863E360236823F400632360236D92
:1045500023F001032365BDE8F0874D4BD3F8982085
:1045600042F48052C3F89820D3F8982022F4805265
:10457000C3F89820CDE74C4B9C4213D04B4B9C4248
:1045800063D04B4B9C426ED1414BD3F8982042F400
:104590008012C3F89820D3F8982022F48012C3F830
:1045A0009820B6E73A4BD3F8902042F40042C3F883
:1045B0009020D3F8902022F40042C3F89020A8E77E
:1045C000236843F480532360B7E73149D1F89C3026
:1045D00023EA0203C1F89C304EE72D49D1F8983008
:1045E00023EA0203C1F8983046E72949D1F8903010
:1045F00023EA0203C1F890303EE72549D1F8943010
:1046000023EA0203C1F8943036E72149D1F880301B
:1046100023EA0203C1F880302EE71D49D1F8843027
:1046200023EA0203C1F8843026E71949D1F88C3017
:1046300023EA0203C1F88C301EE71549D1F888300F
:1046400023EA0203C1F8883016E7114BD3F898200B
:1046500042F40052C3F89820D3F8982022F4005274
:10466000C3F8982055E7134B9C427FF452AF03F5F3
:104670000C33D3F89C2042F02002C3F89C20D3F8DE
:104680009C2022F02002C3F89C2042E7A81D0024B1
:10469000004402580030014000380040E0FFBF8F66
:1046A00007000020FFFF39D8003C004000340140E3
:1046B000005001400014005808B51D20FFF78CFE83
:1046C00010B190F9063053B11E20FFF785FE10B1EE
:1046D00090F9063003B108BD5523C38008BD5523AA
:1046E000C380F1E7F8B50E4C94F8F875A7B104F55E
:1046F000C064C7F109070925013D0FD0A6683079CC
:10470000FFF76AFE94F8DC10F27908B1FEF7F8FEC4
:10471000AF4204F5B474EFD10120F8BDAB68FFDE01
:104720000400002008B556F08DFA1B20FFF754FE58
:1047300008B12923C3801C20FFF74EFE08B12923AE
:10474000C3805FF01DFC0B485CF0D2F80A4B93F875
:10475000C92C012A01D0012008BD084AD3F8A80FAE
:10476000C3F8A42F5FF01AFA0023054A184682F80E
:10477000233008BD24040024A81D00245C04002468
:1047800000ED00E0F8B50446EFF31185502383F304
:104790001288D0F830311B6803F001031BB1EDB271
:1047A00085F31188F8BDD0F8D021D0F8D4110A4390
:1047B00002F02102212AF2D0D0E90912914250D010
:1047C00090B24BD8194623691B1A9BB2A1620021F3
:1047D00084F8E011D4F8D0112029E0D1A16989181A
:1047E000DDD0B3FA83F25209002BD8D094F8CC0173
:1047F0000128D4D02120A4F8A6314FF0010CC4F830
:10480000D821C4F8D001D4F8C401D4F85061C4F858
:10481000A011A4F8A43184F8CCC160B31B4F90F868
:1048200034E0C7631A4FE64502650764194FC76451
:104830000AD090F8357080F834C0674515D04FF431
:10484000006380F834204365102100222023C4F83F
:10485000D81184F8CC21C4F8D031A0E7081A83B26B
:10486000B4E7012380F8E03199E706F1280253F01C
:104870000BFA0028E8D100234022326284F8CC31C0
:10488000B36843F08003B36089E700BF11450908AE
:104890003545090871450908BFF34F8F0549064B97
:1048A000CA6802F4E0621343CB60BFF34F8F00BFCE
:1048B000FDE700BF00ED00E00400FA050021032041
:1048C00008B5FFF77FF872B6FFF7E6FF08B51D4899
:1048D0000023C0F88430BFF34F8F436923F4803343
:1048E0004361BFF34F8FD0F8803043F6E074C3F3D9
:1048F0004E3CC3F3C90E4FEA4C1C0CEA040173464C
:1049000041EA8372013BC0F874225A1CF8D1ACF121
:10491000200C1CF1200FF0D1BFF34F8FBFF36F8F2E
:10492000BFF34F8FBFF36F8F4369002223F400332F
:104930004361C0F85022BFF34F8FBFF36F8F72B641
:10494000FFF7AAFF00ED00E003689B0AA3F58013C0
:10495000522B57D870B5384C23441B7D0D2B50D8A3
:1049600040794FF04C0C354C4FF0020E86080CFB92
:10497000034C03EB83000EFA06FEDCF8AC5F03EB9E
:1049800040003044EE68002942D004EB800C46EA37
:104990000E06CCF8F414CCF80425EE60EFF3118683
:1049A000502282F312882C2101FB0340D0F8F0241E
:1049B0004AB3111DC0F81425214A03EB8300214D91
:1049C00003EB4000800005441030024452F8040F0D
:1049D00008B10860011DAA42F8D10022F6B20A60AF
:1049E00086F311882C2202FB0342D2F81425CAB1A7
:1049F0004C2202FB0343D3F8AC2FD36843F00103EE
:104A0000D36070BD70470E4A01FB03212431D4E707
:104A100026EA0E06EE6004EB8005C5F8F414C5F82E
:104A20000425BBE74C2202FB0344D4F8AC2FD36827
:104A300023F00103D36070BD78AD0A08A81D0024DF
:104A400098220024B822002403689B0AA3F580134F
:104A5000522B00D970470F4A13441B7D0D2BF9D8F8
:104A60004FF04C0C10B40C4C42790CFB0340022369
:104A7000D0F8AC0FDA409340C26829B922EA0303A8
:104A80005DF8044BC360704713435DF8044BC3608B
:104A9000704700BF78AD0A08A81D002403689B0A70
:104AA000A3F58013522B11D8094A13441A7D0D2AFD
:104AB0000CD84079022307494FF04C0CD8400CFB2E
:104AC00002128340D2F8AC2FDB431361704700BF62
:104AD00078AD0A08A81D002401490248FCF7A0B9D6
:104AE000982200240000014001490248FCF798B9CF
:104AF000982200240000014002494FF08040FCF75A
:104B00008FB900BFC422002401490248FCF788B9CC
:104B1000F02200240004004001490248FCF780B95B
:104B20001C2300240008004001490248FCF778B922
:104B300048230024000C0040F8B5164D164E2A6993
:104B4000EB681A404FF00040B2FA82F3EAB120FA63
:104B500003F3012A6FEA030302EA03012B610A4609
:104B6000F2D1D6F8F4758FB1013F0023BFB2C6F879
:104B7000F435D6F8F04534B12368204639469847D5
:104B80006468002CF8D10022DCE7F8BDEF6ABFB200
:104B9000EFE700BF00100040A81D002401490248B3
:104BA000FCF73EB9CC2300240004014010B5064CAC
:104BB000064804F22461FCF733F904F27C610448EE
:104BC000BDE81040FCF72CB9A81D002400040140EA
:104BD000001C004001490248FCF722B9F8230024D8
:104BE0000018004001490248FCF71AB9502400247B
:104BF0000020004001490248FCF712B97C2400243F
:104C00000040014001490248FCF70AB9A8240024E9
:104C10000044014001490248FCF702B9D4240024B1
:104C200000480140800AA0F5801052280ED8084B99
:104C300003441A7D0D2A09D8064B4C2101FB02338F
:104C4000D3F8AC2F136843F001031360704700BF23
:104C500078AD0A08A81D00241F4B984210B50ED04D
:104C600003F5806398420AD01C4A03F580439842BA
:104C700018BF904203D003F5806398421BD153F0D4
:104C8000C5FF174B1749DC69DA69C4F3022CC2F37C
:104C9000022201EB0C0393F8D43C03F01F03D8402D
:104CA0000F4B11491B69C3F3C03342EAC303CB5C0A
:104CB00003FB00F010BD53F0A9FF094B0949DC6963
:104CC000DA69C4F30214C2F302120B1993F8D43C4C
:104CD00003F01F03D840E3E700000140004001401B
:104CE0000044025878AD0A08A4500B082DE9F04F93
:104CF000002391B0AE4C0093AE4BAF4FA3F5596675
:104D0000AC4D4FF00009AD4BD5F800A093F83A2315
:104D10004FEA9A23A3F58013522B00F2D08033443C
:104D20001B7D0D2B00F2CB80012A17F903B000F098
:104D30001181022A02D1BBF1080F3CD14FF00008CB
:104D40004146584611F04AFC11F0D0FC90F900C0E1
:104D5000BCF1000F18BFBCF1540F14BF4FF0010C91
:104D60004FF0000C40F0EA8008F104081FFA88F8C0
:104D7000B8F1100FE4D1009B002B00F0AB808C4AFF
:104D80000BE033441B7D0D2B0ED8FB565B450ED03C
:104D900002F58672944200F0998091680B689B0A34
:104DA000A3F58013522BECD900235B45F0D14B794E
:104DB00069799942ECD109F101091C35B9F1080F63
:104DC000A1D1009B04F586740133042B009397D185
:104DD0007B4A4FF0010B92F8F83502F587690133F1
:104DE0000393039B5B4567D0744B99F81020D9F867
:104DF0000C6093F84E330092002E5DD0704AD6F8C6
:104E000000A055686F48B288002D504401924FEAC7
:104E1000902040F3AE80664A002405E0013402F59C
:104E20008672AC4200F0A28011688142F6D1604BDC
:104E30004FF48672019D02FB0434009B0322C9F8E3
:104E40000C6089F81030019BC9F81840B3FA83F759
:104E5000C7F11F035800C9F80430B27186F807B0D3
:104E600002FA00F6A16C0122D4F854C0314302FAD0
:104E700000F002FA03F3A164216D0143D4F8AC0001
:104E800021654F490E7899B2002E00F04E8143EA19
:104E90000C036365CAF81850FBF704F90BF1010B1A
:104EA0002046FBF7D3F809F1200940F20113BBF1CA
:104EB000090F29F8043C94D111B0BDE8F08F013AF4
:104EC000012A7FF678AF4FF0000B37E7BCF1000FF7
:104ED0007FF471AFA86800223B4904E001320C3135
:104EE000102A00F088834B689842F7D152B2697952
:104EF0005046FDF7ADFC354A406800235168013348
:104F0000884208D0102B02F124023FF454AF5168BC
:104F100001338842F6D1DBB22D4A013B03EBC303D8
:104F200002EB830393F9FC31002B7FF444AFC9EB10
:104F3000C909204B03EB8903A36042E7009B002BC8
:104F40007FF41DAF09F101091C35B9F1080F7FF499
:104F5000DAAE36E7BBF1010F3FF4F0AE09F101091B
:104F60001C35B9F1080F7FF4CEAE2AE7042C00F00F
:104F700049824FF48671124A01FB0522116904919E
:104F8000002900F00483906001304FF054019C46EA
:104F9000C4B20D4882F8101182F811416A1C084908
:104FA0004A60049A1168976802915179002216E0CC
:104FB0000C00002008BB0A08B8500B08A02E0024E3
:104FC000040000200000FEA720010024E0010024CE
:104FD0000000002401320C30102A00F00C834368DA
:104FE0009F42F7D152B20298CDF814C0FDF730FCC1
:104FF000944B4FF48672DFF87C8202FB053100226D
:10500000059B0132D0E90170C1E90770414648684B
:10501000874208D0102A01F124013FF44DAF4868BF
:1050200001328742F6D1D2B28749013A02EBC2027D
:1050300001EB820292F9FC1100297FF43DAF4FF49D
:10504000867182F8FD410693542401FB05F37F48E5
:1050500082F8FC419A107E49059300FB02F201F5AB
:1050600060747848C2EBC20C02EBC202184401EB38
:105070004C1104EB4212C0F80CA0C0F8B410C0F8F8
:10508000FC203322C0F8B8208C22C0F80021714ADD
:105090000298D418FFF7E0FD069B062B00F0B981BB
:1050A000072B6D496D4B6E4A18BF1A466D4B18BFE2
:1050B0000B464FF48671DDF808A0B0FBF3F3B0FBAC
:1050C000F2F2013B5F48013A01FB05019BB2A1F8F6
:1050D000BC20A1F874302366059B03F1580100F150
:1050E0000803504619440023A4F858306366E3656A
:1050F0005DF044FCDAF8003043F08003CAF8003079
:10510000049B5B791A4606930C2A1CD8DFE812F040
:1051100003021B001B001B00DD011B001B001B000A
:10512000BB011B001B001B009601C7F12F072D04BC
:1051300002FA07F3324643EA0C036365CAF81850D3
:10514000FAF7B0FFAAE63F4A4FF4867302984FF091
:10515000000A03FB05230222CDF828A05969036841
:10516000079123F00103CDF834A0CDF83CA00360F3
:10517000602308934FF480730E93012309930A234D
:10518000CDE90B3208AA5DF07BFA0799B1F5807F73
:1051900000F0288240F24081B1F5805F00F00E827D
:1051A000B1F5803F00F00482B1F5806F15BF4FF478
:1051B000006308234FF03C0A4FF0040A029A1832A9
:1051C00052F80A100B4342F80A30049B1879002861
:1051D00040F0CB81029A136843F00103136000236F
:1051E000D8F804200133974200F0BC81102B08F15D
:1051F0002408F5D14FF0FF330027134A03EBC30314
:1052000002EB8303D3F8E001174B984214BFA120AF
:10521000A0205BF027FA069A0C2A00F2A081134B1B
:1052200003EB4203B3F870CE4FF48673054A10487F
:1052300003FB0523DDF808E000F53261A3F818C090
:10524000002320E004000020000000246B4CA40791
:10525000404E01240C000020D0DD060044950800DB
:105260001055220040771B000000024078AD0A086C
:10527000FC100020E0010024964500F09D810133E0
:10528000042B00F0BB8151F83320002AF4D1D0F870
:105290001C2B0132C0F81C2B00EBC300029ADB0070
:1052A000C0F8202B19443846234690228F884CEAB8
:1052B000070C0027A1F804C0C349FDF73DFB4FF4DC
:1052C0008673C24A40214FF4403CC14803FB052A83
:1052D0004FF48052DAF81C502B6843F010032B6017
:1052E0002B6843F014032B60C4E91F77C4E92777C8
:1052F000C4E92977DAF82030A167E9B2C4F894301C
:10530000069310394FF48063C4F898C0A0FB0101E4
:105310004FF4804CC4F88430DAF8B8000909059BD2
:10532000C4F8900025F0FF00DAF80C80C4F888205B
:1053300008F118020491029008F11008226703F1A5
:105340007002A44B1A44DAF8B430C4F88CC0636716
:105350005DF08CFCD5F800C0059BC4F820C0D5F8E2
:1053600014C003F1B8029B4BC4F824C0D5F804C0A4
:105370001A44069BC4F828C0D5F808C00499C4F89C
:105380002CC0D5F80CC0C4F8DC304FF48063C4F8EE
:10539000C870C4F8CC304FF40033C4F830C0C4F83F
:1053A000E0300298C4E93077C4E93977C4E93B7743
:1053B0004FF40067DAF80031C4F8B880C4F8D07050
:1053C0004FF48047C4F8D830DAF8FC30C4F8D47011
:1053D000C4F8BC305DF04AFC2B68D6F800A06363CB
:1053E0006B69A3636B68E363AB682364EB68636416
:1053F0002B6843F010032B602B6843F014032B60E1
:10540000B5881AE50323744A82F84F3311B0BDE81A
:10541000F08F724A724B4CE6102900F0E98000F2DE
:10542000BD80012900F0E280042915BF4FF400631C
:1054300008234FF03C0A4FF0000ABFE602984FF4F1
:10544000867262494FF0020A036802FB05124FF4AC
:10545000805123F00103516108AA036000230A93DD
:105460000D930F93602308934FF480730E930123E1
:1054700009930A23CDE90B3A5DF002F94FF0040AD3
:105480004FF400639AE602984FF486724F494FF04A
:10549000020C03684FF0040A02FB05124FF48071FE
:1054A00023F0010351616022036000230E910A93EF
:1054B0000D930F930123CDE908230A2308AACDE910
:1054C0000B3C5DF0DDF8082378E602984FF4867215
:1054D0003E494FF0000A03684FF0020E02FB05122E
:1054E000102123F00103CDF828A0516108AA036020
:1054F0006023CDF834A008934FF48073CDF83CA01E
:105500000E93012309930A23CDE90B3E5DF0B8F811
:105510004FF4006352E602984FF486722B494FF025
:10552000000A03684FF0020E02FB0512012123F06E
:105530000103CDF828A0516108AA036060230991F6
:1055400008934FF48073CDF834A00E930A23CDF85E
:105550003CA0CDE90B3E5DF093F808232EE64FF01A
:10556000000C61E6DFB27B1E47E6FEF735FF8246A0
:1055700038B1049B0221DA79FDF7C2FF5423AAF85F
:105580000630029A536C43F40043536422E602232C
:10559000114A82F84F3311B0BDE8F08F402915BF92
:1055A0004FF4006308234FF03C0A4FF0000A05E671
:1055B00008234FF03C0A01E6DB0073E64FF400637A
:1055C0004FF0040AFAE500BF0100000004000020CB
:1055D000ABAAAAAA0C000020A02E0024882A110041
:1055E000A0BB0D0008234FF0040AE7E50823E5E51A
:1055F0004FF40063E2E500235B68FFDE00239B8835
:10560000FFDE00BF2DE9F04FB04D8FB095F850830D
:10561000B8F1000F03D100200FB0BDE8F08F0022D9
:105620002F21404611F0B8F806460028F3D090F834
:105630000590A74FD0F800A0A7F86498FDF734F9BB
:105640000028E8D0D0E901430193002CE3D0DFF833
:10565000B8B20022594601E0102ADCD04B68013272
:1056600024319C42F8D1D2B29A4B013A02EBC202E9
:1056700003EB820292F9FC31002BCCD12F21504652
:105680000293A2F8FC11C7F818A8FFF7E5FA924AAE
:10569000029B904280F0FA801A4601230393504601
:1056A0000292FFF7D9FA029A039BC7F81C288B498C
:1056B000B0FBF3F2120A8A48A1FB02210022C7F8CC
:1056C0002828C7F820280A090909A0FB0202C7F800
:1056D00024185208A5F854235200A5F8522397F82D
:1056E000552802F0FF01002A00F0DE800222504619
:1056F0007C4987F8552853F05FFD0122404687F822
:10570000602887F8562887F8572887F8582887F898
:10571000592887F85A2887F85B2887F85C2887F883
:105720005D2887F85E2887F85F2887F85528FEF7F8
:1057300053FEC5F8580328B12F21C1804E21F279BC
:10574000FDF7DEFE684A0021019B4FF4806CC5F82E
:105750006813B9F10C0FC5F87813C5F88013C5E9C3
:10576000D743C5E9E211D2F8D80040F00100C2F8F1
:10577000D800D2F8D80000F0010004900498D2F8C4
:10578000D80040F00200C2F8D800D2F8D82002F0C9
:1057900002020592059A4FF04002C5F864234FF4C7
:1057A0008052C5E9DBC24FF48042C5F874234FF440
:1057B0000032C5F87C234FF00302C5F8842376D865
:1057C0004A4A02EB4902B2F88C8EC246484A08F1B6
:1057D00008084849C5F8942307EB8802C2F818184E
:1057E000594600224B68013224319C4262D0102A73
:1057F000F8D14FF0FF32374B02EBC20203EB8202CB
:10580000D2F8E0013C4A904214BFA120A0205AF0F7
:1058100029FF0022DBF8043001320BF1240B9C42FB
:105820004BD0102AF6D1002007EB880753466022A0
:105830003249FDF781F8D7F8180852F085F80028AA
